{
  "address": "0x792EF77b3f1Db2671769f736A8db2A142EaeDeDC",
  "abi": [
    {
      "inputs": [],
      "stateMutability": "nonpayable",
      "type": "constructor"
    },
    {
      "anonymous": false,
      "inputs": [
        {
          "indexed": false,
          "internalType": "address",
          "name": "previousAdmin",
          "type": "address"
        },
        {
          "indexed": false,
          "internalType": "address",
          "name": "newAdmin",
          "type": "address"
        }
      ],
      "name": "AdminChanged",
      "type": "event"
    },
    {
      "anonymous": false,
      "inputs": [
        {
          "indexed": true,
          "internalType": "bytes32",
          "name": "id",
          "type": "bytes32"
        },
        {
          "indexed": true,
          "internalType": "address",
          "name": "collection",
          "type": "address"
        },
        {
          "indexed": false,
          "internalType": "address",
          "name": "paymentToken",
          "type": "address"
        },
        {
          "indexed": false,
          "internalType": "uint256",
          "name": "tokenId",
          "type": "uint256"
        },
        {
          "indexed": false,
          "internalType": "uint256",
          "name": "minPrice",
          "type": "uint256"
        },
        {
          "indexed": false,
          "internalType": "uint256",
          "name": "startTime",
          "type": "uint256"
        },
        {
          "indexed": false,
          "internalType": "uint256",
          "name": "endTime",
          "type": "uint256"
        },
        {
          "components": [
            {
              "internalType": "uint16",
              "name": "rate",
              "type": "uint16"
            },
            {
              "internalType": "address payable",
              "name": "recipient",
              "type": "address"
            }
          ],
          "indexed": false,
          "internalType": "struct Fee[]",
          "name": "fees",
          "type": "tuple[]"
        }
      ],
      "name": "AuctionStarted",
      "type": "event"
    },
    {
      "anonymous": false,
      "inputs": [
        {
          "indexed": true,
          "internalType": "bytes32",
          "name": "id",
          "type": "bytes32"
        },
        {
          "indexed": false,
          "internalType": "uint256",
          "name": "endTime",
          "type": "uint256"
        }
      ],
      "name": "AuctionTimeExtended",
      "type": "event"
    },
    {
      "anonymous": false,
      "inputs": [
        {
          "indexed": true,
          "internalType": "address",
          "name": "beacon",
          "type": "address"
        }
      ],
      "name": "BeaconUpgraded",
      "type": "event"
    },
    {
      "anonymous": false,
      "inputs": [
        {
          "indexed": true,
          "internalType": "bytes32",
          "name": "id",
          "type": "bytes32"
        },
        {
          "indexed": true,
          "internalType": "address",
          "name": "winner",
          "type": "address"
        },
        {
          "indexed": true,
          "internalType": "uint256",
          "name": "bidPrice",
          "type": "uint256"
        }
      ],
      "name": "Finished",
      "type": "event"
    },
    {
      "anonymous": false,
      "inputs": [
        {
          "indexed": false,
          "internalType": "uint8",
          "name": "version",
          "type": "uint8"
        }
      ],
      "name": "Initialized",
      "type": "event"
    },
    {
      "anonymous": false,
      "inputs": [
        {
          "indexed": true,
          "internalType": "bytes32",
          "name": "id",
          "type": "bytes32"
        },
        {
          "indexed": true,
          "internalType": "address",
          "name": "bidder",
          "type": "address"
        },
        {
          "indexed": true,
          "internalType": "uint256",
          "name": "bidPrice",
          "type": "uint256"
        }
      ],
      "name": "NewBid",
      "type": "event"
    },
    {
      "anonymous": false,
      "inputs": [
        {
          "indexed": false,
          "internalType": "contract IExecutionDelegate",
          "name": "executionDelegate",
          "type": "address"
        }
      ],
      "name": "NewExecutionDelegate",
      "type": "event"
    },
    {
      "anonymous": false,
      "inputs": [
        {
          "indexed": true,
          "internalType": "address",
          "name": "previousOwner",
          "type": "address"
        },
        {
          "indexed": true,
          "internalType": "address",
          "name": "newOwner",
          "type": "address"
        }
      ],
      "name": "OwnershipTransferred",
      "type": "event"
    },
    {
      "anonymous": false,
      "inputs": [
        {
          "indexed": true,
          "internalType": "address",
          "name": "implementation",
          "type": "address"
        }
      ],
      "name": "Upgraded",
      "type": "event"
    },
    {
      "inputs": [],
      "name": "INVERSE_BASIS_POINT",
      "outputs": [
        {
          "internalType": "uint256",
          "name": "",
          "type": "uint256"
        }
      ],
      "stateMutability": "view",
      "type": "function"
    },
    {
      "inputs": [
        {
          "internalType": "bytes32",
          "name": "",
          "type": "bytes32"
        }
      ],
      "name": "auctions",
      "outputs": [
        {
          "internalType": "enum AssetType",
          "name": "assetType",
          "type": "uint8"
        },
        {
          "internalType": "address",
          "name": "collection",
          "type": "address"
        },
        {
          "internalType": "uint256",
          "name": "tokenId",
          "type": "uint256"
        },
        {
          "internalType": "uint256",
          "name": "amount",
          "type": "uint256"
        },
        {
          "internalType": "address",
          "name": "paymentToken",
          "type": "address"
        },
        {
          "internalType": "uint256",
          "name": "minPrice",
          "type": "uint256"
        },
        {
          "internalType": "uint256",
          "name": "minWinPercent",
          "type": "uint256"
        },
        {
          "internalType": "uint256",
          "name": "startTime",
          "type": "uint256"
        },
        {
          "internalType": "uint256",
          "name": "endTime",
          "type": "uint256"
        },
        {
          "internalType": "address",
          "name": "owner",
          "type": "address"
        },
        {
          "internalType": "address",
          "name": "lastBidder",
          "type": "address"
        },
        {
          "internalType": "uint256",
          "name": "bidPrice",
          "type": "uint256"
        }
      ],
      "stateMutability": "view",
      "type": "function"
    },
    {
      "inputs": [
        {
          "internalType": "bytes32",
          "name": "_id",
          "type": "bytes32"
        },
        {
          "internalType": "uint256",
          "name": "_price",
          "type": "uint256"
        }
      ],
      "name": "bid",
      "outputs": [],
      "stateMutability": "payable",
      "type": "function"
    },
    {
      "inputs": [
        {
          "internalType": "address",
          "name": "_collection",
          "type": "address"
        },
        {
          "internalType": "uint256",
          "name": "_tokenId",
          "type": "uint256"
        },
        {
          "internalType": "address",
          "name": "_paymentToken",
          "type": "address"
        },
        {
          "internalType": "uint256",
          "name": "_minPrice",
          "type": "uint256"
        },
        {
          "internalType": "uint256",
          "name": "_minWinPercent",
          "type": "uint256"
        },
        {
          "internalType": "uint256",
          "name": "_startTime",
          "type": "uint256"
        },
        {
          "internalType": "uint256",
          "name": "_duration",
          "type": "uint256"
        },
        {
          "components": [
            {
              "internalType": "uint16",
              "name": "rate",
              "type": "uint16"
            },
            {
              "internalType": "address payable",
              "name": "recipient",
              "type": "address"
            }
          ],
          "internalType": "struct Fee[]",
          "name": "_fees",
          "type": "tuple[]"
        }
      ],
      "name": "createAuction",
      "outputs": [],
      "stateMutability": "nonpayable",
      "type": "function"
    },
    {
      "inputs": [],
      "name": "executionDelegate",
      "outputs": [
        {
          "internalType": "contract IExecutionDelegate",
          "name": "",
          "type": "address"
        }
      ],
      "stateMutability": "view",
      "type": "function"
    },
    {
      "inputs": [
        {
          "internalType": "bytes32",
          "name": "_id",
          "type": "bytes32"
        }
      ],
      "name": "finish",
      "outputs": [],
      "stateMutability": "nonpayable",
      "type": "function"
    },
    {
      "inputs": [
        {
          "internalType": "contract IExecutionDelegate",
          "name": "_executionDelegate",
          "type": "address"
        }
      ],
      "name": "initialize",
      "outputs": [],
      "stateMutability": "nonpayable",
      "type": "function"
    },
    {
      "inputs": [
        {
          "internalType": "address",
          "name": "",
          "type": "address"
        },
        {
          "internalType": "address",
          "name": "",
          "type": "address"
        },
        {
          "internalType": "uint256[]",
          "name": "",
          "type": "uint256[]"
        },
        {
          "internalType": "uint256[]",
          "name": "",
          "type": "uint256[]"
        },
        {
          "internalType": "bytes",
          "name": "",
          "type": "bytes"
        }
      ],
      "name": "onERC1155BatchReceived",
      "outputs": [
        {
          "internalType": "bytes4",
          "name": "",
          "type": "bytes4"
        }
      ],
      "stateMutability": "nonpayable",
      "type": "function"
    },
    {
      "inputs": [
        {
          "internalType": "address",
          "name": "",
          "type": "address"
        },
        {
          "internalType": "address",
          "name": "",
          "type": "address"
        },
        {
          "internalType": "uint256",
          "name": "",
          "type": "uint256"
        },
        {
          "internalType": "uint256",
          "name": "",
          "type": "uint256"
        },
        {
          "internalType": "bytes",
          "name": "",
          "type": "bytes"
        }
      ],
      "name": "onERC1155Received",
      "outputs": [
        {
          "internalType": "bytes4",
          "name": "",
          "type": "bytes4"
        }
      ],
      "stateMutability": "nonpayable",
      "type": "function"
    },
    {
      "inputs": [
        {
          "internalType": "address",
          "name": "",
          "type": "address"
        },
        {
          "internalType": "address",
          "name": "",
          "type": "address"
        },
        {
          "internalType": "uint256",
          "name": "",
          "type": "uint256"
        },
        {
          "internalType": "bytes",
          "name": "",
          "type": "bytes"
        }
      ],
      "name": "onERC721Received",
      "outputs": [
        {
          "internalType": "bytes4",
          "name": "",
          "type": "bytes4"
        }
      ],
      "stateMutability": "nonpayable",
      "type": "function"
    },
    {
      "inputs": [],
      "name": "owner",
      "outputs": [
        {
          "internalType": "address",
          "name": "",
          "type": "address"
        }
      ],
      "stateMutability": "view",
      "type": "function"
    },
    {
      "inputs": [],
      "name": "proxiableUUID",
      "outputs": [
        {
          "internalType": "bytes32",
          "name": "",
          "type": "bytes32"
        }
      ],
      "stateMutability": "view",
      "type": "function"
    },
    {
      "inputs": [],
      "name": "renounceOwnership",
      "outputs": [],
      "stateMutability": "nonpayable",
      "type": "function"
    },
    {
      "inputs": [
        {
          "internalType": "contract IExecutionDelegate",
          "name": "_executionDelegate",
          "type": "address"
        }
      ],
      "name": "setExecutionDelegate",
      "outputs": [],
      "stateMutability": "nonpayable",
      "type": "function"
    },
    {
      "inputs": [
        {
          "internalType": "bytes4",
          "name": "interfaceId",
          "type": "bytes4"
        }
      ],
      "name": "supportsInterface",
      "outputs": [
        {
          "internalType": "bool",
          "name": "",
          "type": "bool"
        }
      ],
      "stateMutability": "view",
      "type": "function"
    },
    {
      "inputs": [
        {
          "internalType": "address",
          "name": "newOwner",
          "type": "address"
        }
      ],
      "name": "transferOwnership",
      "outputs": [],
      "stateMutability": "nonpayable",
      "type": "function"
    },
    {
      "inputs": [
        {
          "internalType": "address",
          "name": "newImplementation",
          "type": "address"
        }
      ],
      "name": "upgradeTo",
      "outputs": [],
      "stateMutability": "nonpayable",
      "type": "function"
    },
    {
      "inputs": [
        {
          "internalType": "address",
          "name": "newImplementation",
          "type": "address"
        },
        {
          "internalType": "bytes",
          "name": "data",
          "type": "bytes"
        }
      ],
      "name": "upgradeToAndCall",
      "outputs": [],
      "stateMutability": "payable",
      "type": "function"
    }
  ],
  "transactionHash": "0xe2bc83a7e34a91c5e0aba051ee842cf75619c932085b40a22fbfd912951e2d6f",
  "args": [],
  "numDeployments": 1,
  "solcInputHash": "d3f787e27c62a8ce08222aa643483610",
  "bytecode": "0x60a06040523060805234801561001457600080fd5b50600160005560805161284b610051600039600081816104ae015281816104ee01528181610576015281816105b60152610632015261284b6000f3fe6080604052600436106100d95760003560e01c806301ffc9a7146100de578063037c9be214610113578063150b7a02146101355780631edbc5be146101625780633659cfe6146101fb5780634f1ef2861461021b57806352d1902d1461022e578063715018a6146102515780638da5cb5b14610266578063986c9b2014610288578063a4ef2046146102a8578063bc197c81146102c8578063c4d66de8146102f4578063cae6047f14610314578063cd772f5c1461032a578063f23a6e611461033d578063f2fde38b14610369578063fde6305614610389575b600080fd5b3480156100ea57600080fd5b506100fe6100f9366004611dcd565b6103a9565b60405190151581526020015b60405180910390f35b34801561011f57600080fd5b5061013361012e366004611e0c565b6103e0565b005b34801561014157600080fd5b50610155610150366004611f06565b610493565b60405161010a9190611f71565b34801561016e57600080fd5b506101e361017d366004611f86565b60ca60205260009081526040902080546001820154600283015460038401546004850154600586015460068701546007880154600889015460098a0154600a909a015460ff8a169a6001600160a01b03610100909b048b169a978816979283169216908c565b60405161010a9c9b9a99989796959493929190611fc2565b34801561020757600080fd5b50610133610216366004611e0c565b6104a4565b61013361022936600461205b565b61056c565b34801561023a57600080fd5b50610243610625565b60405190815260200161010a565b34801561025d57600080fd5b506101336106d3565b34801561027257600080fd5b5061027b6106e7565b60405161010a91906120aa565b34801561029457600080fd5b5060cb5461027b906001600160a01b031681565b3480156102b457600080fd5b506101336102c33660046120f1565b6106f6565b3480156102d457600080fd5b506101556102e3366004612287565b63bc197c8160e01b95945050505050565b34801561030057600080fd5b5061013361030f366004611e0c565b610b96565b34801561032057600080fd5b5061024361271081565b610133610338366004612334565b610cc3565b34801561034957600080fd5b50610155610358366004612356565b63f23a6e6160e01b95945050505050565b34801561037557600080fd5b50610133610384366004611e0c565b61106b565b34801561039557600080fd5b506101336103a4366004611f86565b6110e1565b60006001600160e01b03198216630271189760e51b14806103da57506301ffc9a760e01b6001600160e01b03198316145b92915050565b6103e8611395565b6001600160a01b03811661043c5760405162461bcd60e51b8152602060048201526016602482015275416464726573732063616e6e6f74206265207a65726f60501b60448201526064015b60405180910390fd5b60cb80546001600160a01b0319166001600160a01b0383169081179091556040517ff9a0f356a7ef079355de09d32ce45cc3cfabc8f118681c19a17501f005a376ac91610488916120aa565b60405180910390a150565b630a85bd0160e11b5b949350505050565b6001600160a01b037f00000000000000000000000000000000000000000000000000000000000000001630036104ec5760405162461bcd60e51b8152600401610433906123be565b7f00000000000000000000000000000000000000000000000000000000000000006001600160a01b031661051e6113f4565b6001600160a01b0316146105445760405162461bcd60e51b81526004016104339061240a565b61054d81611410565b6040805160008082526020820190925261056991839190611418565b50565b6001600160a01b037f00000000000000000000000000000000000000000000000000000000000000001630036105b45760405162461bcd60e51b8152600401610433906123be565b7f00000000000000000000000000000000000000000000000000000000000000006001600160a01b03166105e66113f4565b6001600160a01b03161461060c5760405162461bcd60e51b81526004016104339061240a565b61061582611410565b61062182826001611418565b5050565b6000306001600160a01b037f000000000000000000000000000000000000000000000000000000000000000016146106c05760405162461bcd60e51b815260206004820152603860248201527f555550535570677261646561626c653a206d757374206e6f742062652063616c6044820152771b1959081d1a1c9bdd59da0819195b1959d85d1958d85b1b60421b6064820152608401610433565b506000805160206127f883398151915290565b6106db611395565b6106e56000611588565b565b6034546001600160a01b031690565b428310156107445760405162461bcd60e51b815260206004820152601b60248201527a41756374696f6e3a20696e76616c69642073746172742074696d6560281b6044820152606401610433565b6040516301ffc9a760e01b81526000906001600160a01b038a16906301ffc9a79061077a906380ac58cd60e01b90600401611f71565b602060405180830381865afa158015610797573d6000803e3d6000fd5b505050506040513d601f19601f820116820180604052508101906107bb9190612456565b156107c85750600061089d565b6040516301ffc9a760e01b81526001600160a01b038a16906301ffc9a7906107fb90636cdb3d1360e11b90600401611f71565b602060405180830381865afa158015610818573d6000803e3d6000fd5b505050506040513d601f19601f8201168201806040525081019061083c9190612456565b156108495750600161089d565b60405162461bcd60e51b815260206004820152602360248201527f41756374696f6e3a20696e76616c696420636f6c6c656374696f6e206164647260448201526265737360e81b6064820152608401610433565b600061090c8a8a8a8a6040516001600160601b031933606090811b8216602084015286811b821660348401526048830186905284901b166068820152607c810182905243609c82015260009060bc01604051602081830303815290604052805190602001209050949350505050565b600081815260ca602052604090208054919250908390829060ff19166001838181111561093b5761093b611f9f565b02179055508054610100600160a81b0319166101006001600160a01b038d811691909102919091178255600182018b90556003820180546001600160a01b031916918b16919091179055600481018890556006810186905561099d858761248e565b600782015560058101879055600160028201556008810180546001600160a01b0319163317905560005b8451811015610a4a5781600b018582815181106109e6576109e66124a1565b602090810291909101810151825460018101845560009384529282902081519301805491909201516001600160a01b031662010000026001600160b01b031990911661ffff9093169290921791909117905580610a42816124b7565b9150506109c7565b506000836001811115610a5f57610a5f611f9f565b03610acb57604051632142170760e11b81526001600160a01b038c16906342842e0e90610a9490339030908f906004016124d0565b600060405180830381600087803b158015610aae57600080fd5b505af1158015610ac2573d6000803e3d6000fd5b50505050610b31565b604051637921219560e11b81526001600160a01b038c169063f242432a90610afe90339030908f906001906004016124f4565b600060405180830381600087803b158015610b1857600080fd5b505af1158015610b2c573d6000803e3d6000fd5b505050505b6001600160a01b038b16827f930f4300b68e9f43d3f2ed84493ffeffaf3469c27a2fa9b822b7180f9bf28ce98b8d8c8b610b6b8c8261248e565b88600b01604051610b8196959493929190612583565b60405180910390a35050505050505050505050565b600154610100900460ff1615808015610bb357506001805460ff16105b80610bd35750610bc2306115da565b158015610bd357506001805460ff16145b610c365760405162461bcd60e51b815260206004820152602e60248201527f496e697469616c697a61626c653a20636f6e747261637420697320616c72656160448201526d191e481a5b9a5d1a585b1a5e995960921b6064820152608401610433565b6001805460ff1916811790558015610c58576001805461ff0019166101001790555b610c606115e9565b60cb80546001600160a01b0319166001600160a01b0384161790558015610621576001805461ff00191681556040519081527f7f26b83ff96e1f2b6a682f133852f6798a09c465da95921460cefb38474024989060200160405180910390a15050565b600260005403610d155760405162461bcd60e51b815260206004820152601f60248201527f5265656e7472616e637947756172643a207265656e7472616e742063616c6c006044820152606401610433565b6002600090815582815260ca60205260409020600701544210610d895760405162461bcd60e51b815260206004820152602660248201527f41756374696f6e3a20546869732061756374696f6e20616c72656164792066696044820152651b9a5cda195960d21b6064820152608401610433565b600082815260ca6020526040902060040154811015610dff5760405162461bcd60e51b815260206004820152602c60248201527f41756374696f6e3a20626964207072696365206973206c6f77207468616e206d60448201526b696e696d756d20707269636560a01b6064820152608401610433565b600082815260ca602052604090206005810154600a90910154606491610e24916125c8565b610e2e91906125df565b8111610e955760405162461bcd60e51b815260206004820152603060248201527f41756374696f6e3a20626964207072696365206973206c6f77207468616e206d60448201526f696e696d756d2077696e20707269636560801b6064820152608401610433565b600082815260ca60205260409020600981018054600a830180546001600160a01b03198316331790935584905560078301546001600160a01b039091169190610ee04261038461248e565b1115610f3c57610384836007016000828254610efc919061248e565b9091555050600783015460405190815285907f0268ffa9ab9e25f14e7f0a1c5fcfd253e78d8258af9dbc5a6cd3f4c9c64650a49060200160405180910390a25b6001600160a01b03821615610fb25760038301546001600160a01b0316610f99576040516001600160a01b0383169082156108fc029083906000818181858888f19350505050158015610f93573d6000803e3d6000fd5b50610fb2565b6003830154610fb2906001600160a01b03168383611618565b60038301546001600160a01b0316611016573484146110115760405162461bcd60e51b815260206004820152601b60248201527a105d58dd1a5bdb8e881a5b9d985b1a5908195d1a08185b5bdd5b9d602a1b6044820152606401610433565b611030565b6003830154611030906001600160a01b031633308761167b565b6040518490339087907fb556ff269c1b6714f432c36431e2041d28436a73b6c3f19c021827bbdc6bfc2990600090a450506001600055505050565b611073611395565b6001600160a01b0381166110d85760405162461bcd60e51b815260206004820152602660248201527f4f776e61626c653a206e6577206f776e657220697320746865207a65726f206160448201526564647265737360d01b6064820152608401610433565b61056981611588565b600081815260ca602052604090206007015442116111415760405162461bcd60e51b815260206004820152601d60248201527f41756374696f6e3a2061756374696f6e206e6f742066696e69736865640000006044820152606401610433565b600081815260ca60205260409020600801546001600160a01b03163314806111825750600081815260ca60205260409020600901546001600160a01b031633145b6111df5760405162461bcd60e51b815260206004820152602860248201527f41756374696f6e3a20646f6e27742068617665207065726d697373696f6e20746044820152670de40ccd2dcd2e6d60c31b6064820152608401610433565b600081815260ca60205260408120600901546001600160a01b031661121f5750600081815260ca60205260409020600801546001600160a01b031661123c565b50600081815260ca60205260409020600901546001600160a01b03165b60cb54600083815260ca602052604080822080546001820154925163377c8e3960e11b815293946001600160a01b0390811694636ef91c729461128f9461010090940490921692600b0190600401612601565b600060405180830381865afa1580156112ac573d6000803e3d6000fd5b505050506040513d6000823e601f3d908101601f191682016040526112d49190810190612631565b600084815260ca6020526040902060088101546003820154600a90920154929350611310926001600160a01b03918216929091169084906116a2565b600083815260ca6020526040902080546001820154600290920154611349926001600160a01b036101008404169286929060ff166116dd565b600083815260ca6020526040808220600a0154905190916001600160a01b0385169186917fd698efed43caa57c551ea82d130cb267e986a6575baa1093173ab63a6dd28d3e91a4505050565b3361139e6106e7565b6001600160a01b0316146106e55760405162461bcd60e51b815260206004820181905260248201527f4f776e61626c653a2063616c6c6572206973206e6f7420746865206f776e65726044820152606401610433565b6000805160206127f8833981519152546001600160a01b031690565b610569611395565b7f4910fdfa16fed3260ed0e7147f7cc6da11a60208b5b9406d12a635614ffd91435460ff16156114505761144b8361182b565b505050565b826001600160a01b03166352d1902d6040518163ffffffff1660e01b8152600401602060405180830381865afa9250505080156114aa575060408051601f3d908101601f191682019092526114a7918101906126ee565b60015b61150d5760405162461bcd60e51b815260206004820152602e60248201527f45524331393637557067726164653a206e657720696d706c656d656e7461746960448201526d6f6e206973206e6f74205555505360901b6064820152608401610433565b6000805160206127f8833981519152811461157c5760405162461bcd60e51b815260206004820152602960248201527f45524331393637557067726164653a20756e737570706f727465642070726f786044820152681a58589b195555525160ba1b6064820152608401610433565b5061144b8383836118c5565b603480546001600160a01b038381166001600160a01b0319831681179093556040519116919082907f8be0079c531659141344cd1fd0a4f28419497f9722a3daafe3b4186f6b6457e090600090a35050565b6001600160a01b03163b151590565b600154610100900460ff166116105760405162461bcd60e51b815260040161043390612707565b6106e56118ea565b6040516001600160a01b03831660248201526044810182905261144b90849063a9059cbb60e01b906064015b60408051601f198184030181529190526020810180516001600160e01b03166001600160e01b03199093169290921790915261191a565b61169c846323b872dd60e01b858585604051602401611644939291906124d0565b50505050565b6001600160a01b0383166116bc578034146116bc57600080fd5b60006116c98385846119ef565b90506116d6848683611b08565b5050505050565b843b6117275760405162461bcd60e51b815260206004820152601960248201527810dbdb1b1958dd1a5bdb88191bd95cc81b9bdd08195e1a5cdd603a1b6044820152606401610433565b600081600181111561173b5761173b611f9f565b036117a757604051632142170760e11b81526001600160a01b038616906342842e0e90611770903090889088906004016124d0565b600060405180830381600087803b15801561178a57600080fd5b505af115801561179e573d6000803e3d6000fd5b505050506116d6565b60018160018111156117bb576117bb611f9f565b036116d657604051637921219560e11b81526001600160a01b0386169063f242432a906117f29030908890889088906004016124f4565b600060405180830381600087803b15801561180c57600080fd5b505af1158015611820573d6000803e3d6000fd5b505050505050505050565b611834816115da565b6118965760405162461bcd60e51b815260206004820152602d60248201527f455243313936373a206e657720696d706c656d656e746174696f6e206973206e60448201526c1bdd08184818dbdb9d1c9858dd609a1b6064820152608401610433565b6000805160206127f883398151915280546001600160a01b0319166001600160a01b0392909216919091179055565b6118ce83611b6d565b6000825111806118db5750805b1561144b5761169c8383611bad565b600154610100900460ff166119115760405162461bcd60e51b815260040161043390612707565b6106e533611588565b600061196f826040518060400160405280602081526020017f5361666545524332303a206c6f772d6c6576656c2063616c6c206661696c6564815250856001600160a01b0316611bd99092919063ffffffff16565b90508051600014806119905750808060200190518101906119909190612456565b61144b5760405162461bcd60e51b815260206004820152602a60248201527f5361666545524332303a204552433230206f7065726174696f6e20646964206e6044820152691bdd081cdd58d8d9595960b21b6064820152608401610433565b600080805b85518160ff161015611a8c576000612710878360ff1681518110611a1a57611a1a6124a1565b60200260200101516000015161ffff1686611a3591906125c8565b611a3f91906125df565b9050611a6c86888460ff1681518110611a5a57611a5a6124a1565b60200260200101516020015183611b08565b611a76818461248e565b9250508080611a8490612752565b9150506119f4565b5082811115611af25760405162461bcd60e51b815260206004820152602c60248201527f546f74616c20616d6f756e74206f66206665657320617265206d6f726520746860448201526b616e2074686520707269636560a01b6064820152608401610433565b6000611afe8285612771565b9695505050505050565b80600003611b1557505050565b6001600160a01b038316611b59576040516001600160a01b0383169082156108fc029083906000818181858888f1935050505015801561169c573d6000803e3d6000fd5b61144b6001600160a01b0384168383611618565b611b768161182b565b6040516001600160a01b038216907fbc7cd75a20ee27fd9adebab32041f755214dbc6bffa90cc0225b39da2e5c2d3b90600090a250565b6060611bd2838360405180606001604052806027815260200161281860279139611be8565b9392505050565b606061049c8484600085611c56565b6060600080856001600160a01b031685604051611c0591906127a8565b600060405180830381855af49150503d8060008114611c40576040519150601f19603f3d011682016040523d82523d6000602084013e611c45565b606091505b5091509150611afe86838387611d31565b606082471015611cb75760405162461bcd60e51b815260206004820152602660248201527f416464726573733a20696e73756666696369656e742062616c616e636520666f6044820152651c8818d85b1b60d21b6064820152608401610433565b600080866001600160a01b03168587604051611cd391906127a8565b60006040518083038185875af1925050503d8060008114611d10576040519150601f19603f3d011682016040523d82523d6000602084013e611d15565b606091505b5091509150611d2687838387611d31565b979650505050505050565b60608315611d9e578251600003611d9757611d4b856115da565b611d975760405162461bcd60e51b815260206004820152601d60248201527f416464726573733a2063616c6c20746f206e6f6e2d636f6e74726163740000006044820152606401610433565b508161049c565b61049c8383815115611db35781518083602001fd5b8060405162461bcd60e51b815260040161043391906127c4565b600060208284031215611ddf57600080fd5b81356001600160e01b031981168114611bd257600080fd5b6001600160a01b038116811461056957600080fd5b600060208284031215611e1e57600080fd5b8135611bd281611df7565b634e487b7160e01b600052604160045260246000fd5b604080519081016001600160401b0381118282101715611e6157611e61611e29565b60405290565b604051601f8201601f191681016001600160401b0381118282101715611e8f57611e8f611e29565b604052919050565b600082601f830112611ea857600080fd5b81356001600160401b03811115611ec157611ec1611e29565b611ed4601f8201601f1916602001611e67565b818152846020838601011115611ee957600080fd5b816020850160208301376000918101602001919091529392505050565b60008060008060808587031215611f1c57600080fd5b8435611f2781611df7565b93506020850135611f3781611df7565b92506040850135915060608501356001600160401b03811115611f5957600080fd5b611f6587828801611e97565b91505092959194509250565b6001600160e01b031991909116815260200190565b600060208284031215611f9857600080fd5b5035919050565b634e487b7160e01b600052602160045260246000fd5b6001600160a01b03169052565b610180810160028e10611fe557634e487b7160e01b600052602160045260246000fd5b8d8252611ff5602083018e611fb5565b8b60408301528a606083015261200e608083018b611fb5565b8860a08301528760c08301528660e083015285610100830152612035610120830186611fb5565b612043610140830185611fb5565b826101608301529d9c50505050505050505050505050565b6000806040838503121561206e57600080fd5b823561207981611df7565b915060208301356001600160401b0381111561209457600080fd5b6120a085828601611e97565b9150509250929050565b6001600160a01b0391909116815260200190565b60006001600160401b038211156120d7576120d7611e29565b5060051b60200190565b61ffff8116811461056957600080fd5b600080600080600080600080610100898b03121561210e57600080fd5b6121188935611df7565b8835975060208901359650604089013561213181611df7565b9550606089013594506080890135935060a0890135925060c0890135915060e08901356001600160401b0381111561216857600080fd5b8901601f81018b1361217957600080fd5b803561218c612187826120be565b611e67565b8082825260208201915060208360061b85010192508d8311156121ae57600080fd5b6020840193505b8284101561220d576040848f0312156121cd57600080fd5b6121d5611e3f565b6121df85356120e1565b8435815260208501356121f181611df7565b80602083015250808352506020820191506040840193506121b5565b809450505050509295985092959890939650565b600082601f83011261223257600080fd5b81356020612242612187836120be565b82815260059290921b8401810191818101908684111561226157600080fd5b8286015b8481101561227c5780358352918301918301612265565b509695505050505050565b600080600080600060a0868803121561229f57600080fd5b85356122aa81611df7565b945060208601356122ba81611df7565b935060408601356001600160401b03808211156122d657600080fd5b6122e289838a01612221565b945060608801359150808211156122f857600080fd5b61230489838a01612221565b9350608088013591508082111561231a57600080fd5b5061232788828901611e97565b9150509295509295909350565b6000806040838503121561234757600080fd5b50508035926020909101359150565b600080600080600060a0868803121561236e57600080fd5b853561237981611df7565b9450602086013561238981611df7565b9350604086013592506060860135915060808601356001600160401b038111156123b257600080fd5b61232788828901611e97565b6020808252602c908201527f46756e6374696f6e206d7573742062652063616c6c6564207468726f7567682060408201526b19195b1959d85d1958d85b1b60a21b606082015260800190565b6020808252602c908201527f46756e6374696f6e206d7573742062652063616c6c6564207468726f7567682060408201526b6163746976652070726f787960a01b606082015260800190565b60006020828403121561246857600080fd5b81518015158114611bd257600080fd5b634e487b7160e01b600052601160045260246000fd5b808201808211156103da576103da612478565b634e487b7160e01b600052603260045260246000fd5b6000600182016124c9576124c9612478565b5060010190565b6001600160a01b039384168152919092166020820152604081019190915260600190565b6001600160a01b0394851681529290931660208301526040820152606081019190915260a06080820181905260009082015260c00190565b6000815480845260208085019450836000528060002060005b8381101561257857815461ffff8116885260101c6001600160a01b03168388015260409096019560019182019101612545565b509495945050505050565b60018060a01b038716815285602082015284604082015283606082015282608082015260c060a082015260006125bc60c083018461252c565b98975050505050505050565b80820281158282048414176103da576103da612478565b6000826125fc57634e487b7160e01b600052601260045260246000fd5b500490565b60018060a01b0384168152826020820152606060408201526000612628606083018461252c565b95945050505050565b6000602080838503121561264457600080fd5b82516001600160401b0381111561265a57600080fd5b8301601f8101851361266b57600080fd5b8051612679612187826120be565b81815260069190911b8201830190838101908783111561269857600080fd5b928401925b82841015611d2657604084890312156126b65760008081fd5b6126be611e3f565b84516126c9816120e1565b8152848601516126d881611df7565b818701528252604093909301929084019061269d565b60006020828403121561270057600080fd5b5051919050565b6020808252602b908201527f496e697469616c697a61626c653a20636f6e7472616374206973206e6f74206960408201526a6e697469616c697a696e6760a81b606082015260800190565b600060ff821660ff810361276857612768612478565b60010192915050565b818103818111156103da576103da612478565b60005b8381101561279f578181015183820152602001612787565b50506000910152565b600082516127ba818460208701612784565b9190910192915050565b60208152600082518060208401526127e3816040850160208701612784565b601f01601f1916919091016040019291505056fe360894a13ba1a3210667c828492db98dca3e2076cc3735a920a3ca505d382bbc416464726573733a206c6f772d6c6576656c2064656c65676174652063616c6c206661696c6564a164736f6c6343000813000a",
  "devdoc": {
    "events": {
      "AdminChanged(address,address)": {
        "details": "Emitted when the admin account has changed."
      },
      "AuctionStarted(bytes32,address,address,uint256,uint256,uint256,uint256,(uint16,address)[])": {
        "details": "emit this event when auction started"
      },
      "AuctionTimeExtended(bytes32,uint256)": {
        "details": "emit this event when bid makes in 15 minutes from endTime"
      },
      "BeaconUpgraded(address)": {
        "details": "Emitted when the beacon is changed."
      },
      "Finished(bytes32,address,uint256)": {
        "details": "emit this event when auction finished"
      },
      "Initialized(uint8)": {
        "details": "Triggered when the contract has been initialized or reinitialized."
      },
      "NewBid(bytes32,address,uint256)": {
        "details": "emit this event when new bid added"
      },
      "Upgraded(address)": {
        "details": "Emitted when the implementation is upgraded."
      }
    },
    "kind": "dev",
    "methods": {
      "bid(bytes32,uint256)": {
        "details": "This functions changes last bid params, and release last bidder's token      and locks new bidder's token",
        "params": {
          "_id": "id of auction",
          "_price": "new bidding price"
        }
      },
      "createAuction(address,uint256,address,uint256,uint256,uint256,uint256,(uint16,address)[])": {
        "params": {
          "_collection": "address of collection",
          "_duration": "duration of auction",
          "_fees": "fee data",
          "_minPrice": "minimum price of bid",
          "_minWinPercent": "minimum win percent",
          "_paymentToken": "address of bid token",
          "_startTime": "time to start auction",
          "_tokenId": "token id of nft"
        }
      },
      "finish(bytes32)": {
        "details": "This function finishs auction.      Sends asset to winner and sends bid token to owner.",
        "params": {
          "_id": "id of auction"
        }
      },
      "initialize(address)": {
        "params": {
          "_executionDelegate": "execution delegate address"
        }
      },
      "onERC721Received(address,address,uint256,bytes)": {
        "details": "See {IERC721Receiver-onERC721Received}. Always returns `IERC721Receiver.onERC721Received.selector`."
      },
      "owner()": {
        "details": "Returns the address of the current owner."
      },
      "proxiableUUID()": {
        "details": "Implementation of the ERC1822 {proxiableUUID} function. This returns the storage slot used by the implementation. It is used to validate the implementation's compatibility when performing an upgrade. IMPORTANT: A proxy pointing at a proxiable contract should not be considered proxiable itself, because this risks bricking a proxy that upgrades to it, by delegating to itself until out of gas. Thus it is critical that this function revert if invoked through a proxy. This is guaranteed by the `notDelegated` modifier."
      },
      "renounceOwnership()": {
        "details": "Leaves the contract without owner. It will not be possible to call `onlyOwner` functions. Can only be called by the current owner. NOTE: Renouncing ownership will leave the contract without an owner, thereby disabling any functionality that is only available to the owner."
      },
      "supportsInterface(bytes4)": {
        "details": "See {IERC165-supportsInterface}."
      },
      "transferOwnership(address)": {
        "details": "Transfers ownership of the contract to a new account (`newOwner`). Can only be called by the current owner."
      },
      "upgradeTo(address)": {
        "custom:oz-upgrades-unsafe-allow-reachable": "delegatecall",
        "details": "Upgrade the implementation of the proxy to `newImplementation`. Calls {_authorizeUpgrade}. Emits an {Upgraded} event."
      },
      "upgradeToAndCall(address,bytes)": {
        "custom:oz-upgrades-unsafe-allow-reachable": "delegatecall",
        "details": "Upgrade the implementation of the proxy to `newImplementation`, and subsequently execute the function call encoded in `data`. Calls {_authorizeUpgrade}. Emits an {Upgraded} event."
      }
    },
    "stateVariables": {
      "auctions": {
        "details": "acutions"
      },
      "executionDelegate": {
        "details": "execution delegate"
      }
    },
    "title": "English Auction Manager Contract",
    "version": 1
  },
  "userdoc": {
    "kind": "user",
    "methods": {
      "bid(bytes32,uint256)": {
        "notice": "make a new bid"
      },
      "createAuction(address,uint256,address,uint256,uint256,uint256,uint256,(uint16,address)[])": {
        "notice": "create auction"
      },
      "finish(bytes32)": {
        "notice": "finish auction"
      }
    },
    "version": 1
  },
  "storageLayout": {
    "storage": [
      {
        "astId": 15436,
        "contract": "contracts/AuctionManage.sol:AuctionManager",
        "label": "_status",
        "offset": 0,
        "slot": "0",
        "type": "t_uint256"
      },
      {
        "astId": 503,
        "contract": "contracts/AuctionManage.sol:AuctionManager",
        "label": "_initialized",
        "offset": 0,
        "slot": "1",
        "type": "t_uint8"
      },
      {
        "astId": 506,
        "contract": "contracts/AuctionManage.sol:AuctionManager",
        "label": "_initializing",
        "offset": 1,
        "slot": "1",
        "type": "t_bool"
      },
      {
        "astId": 1172,
        "contract": "contracts/AuctionManage.sol:AuctionManager",
        "label": "__gap",
        "offset": 0,
        "slot": "2",
        "type": "t_array(t_uint256)50_storage"
      },
      {
        "astId": 10,
        "contract": "contracts/AuctionManage.sol:AuctionManager",
        "label": "_owner",
        "offset": 0,
        "slot": "52",
        "type": "t_address"
      },
      {
        "astId": 130,
        "contract": "contracts/AuctionManage.sol:AuctionManager",
        "label": "__gap",
        "offset": 0,
        "slot": "53",
        "type": "t_array(t_uint256)49_storage"
      },
      {
        "astId": 485,
        "contract": "contracts/AuctionManage.sol:AuctionManager",
        "label": "__gap",
        "offset": 0,
        "slot": "102",
        "type": "t_array(t_uint256)50_storage"
      },
      {
        "astId": 800,
        "contract": "contracts/AuctionManage.sol:AuctionManager",
        "label": "__gap",
        "offset": 0,
        "slot": "152",
        "type": "t_array(t_uint256)50_storage"
      },
      {
        "astId": 9112,
        "contract": "contracts/AuctionManage.sol:AuctionManager",
        "label": "auctions",
        "offset": 0,
        "slot": "202",
        "type": "t_mapping(t_bytes32,t_struct(Auction)15558_storage)"
      },
      {
        "astId": 9116,
        "contract": "contracts/AuctionManage.sol:AuctionManager",
        "label": "executionDelegate",
        "offset": 0,
        "slot": "203",
        "type": "t_contract(IExecutionDelegate)14876"
      }
    ],
    "types": {
      "t_address": {
        "encoding": "inplace",
        "label": "address",
        "numberOfBytes": "20"
      },
      "t_address_payable": {
        "encoding": "inplace",
        "label": "address payable",
        "numberOfBytes": "20"
      },
      "t_array(t_struct(Fee)15481_storage)dyn_storage": {
        "base": "t_struct(Fee)15481_storage",
        "encoding": "dynamic_array",
        "label": "struct Fee[]",
        "numberOfBytes": "32"
      },
      "t_array(t_uint256)49_storage": {
        "base": "t_uint256",
        "encoding": "inplace",
        "label": "uint256[49]",
        "numberOfBytes": "1568"
      },
      "t_array(t_uint256)50_storage": {
        "base": "t_uint256",
        "encoding": "inplace",
        "label": "uint256[50]",
        "numberOfBytes": "1600"
      },
      "t_bool": {
        "encoding": "inplace",
        "label": "bool",
        "numberOfBytes": "1"
      },
      "t_bytes32": {
        "encoding": "inplace",
        "label": "bytes32",
        "numberOfBytes": "32"
      },
      "t_contract(IExecutionDelegate)14876": {
        "encoding": "inplace",
        "label": "contract IExecutionDelegate",
        "numberOfBytes": "20"
      },
      "t_enum(AssetType)15476": {
        "encoding": "inplace",
        "label": "enum AssetType",
        "numberOfBytes": "1"
      },
      "t_mapping(t_bytes32,t_struct(Auction)15558_storage)": {
        "encoding": "mapping",
        "key": "t_bytes32",
        "label": "mapping(bytes32 => struct Auction)",
        "numberOfBytes": "32",
        "value": "t_struct(Auction)15558_storage"
      },
      "t_struct(Auction)15558_storage": {
        "encoding": "inplace",
        "label": "struct Auction",
        "members": [
          {
            "astId": 15531,
            "contract": "contracts/AuctionManage.sol:AuctionManager",
            "label": "assetType",
            "offset": 0,
            "slot": "0",
            "type": "t_enum(AssetType)15476"
          },
          {
            "astId": 15533,
            "contract": "contracts/AuctionManage.sol:AuctionManager",
            "label": "collection",
            "offset": 1,
            "slot": "0",
            "type": "t_address"
          },
          {
            "astId": 15535,
            "contract": "contracts/AuctionManage.sol:AuctionManager",
            "label": "tokenId",
            "offset": 0,
            "slot": "1",
            "type": "t_uint256"
          },
          {
            "astId": 15537,
            "contract": "contracts/AuctionManage.sol:AuctionManager",
            "label": "amount",
            "offset": 0,
            "slot": "2",
            "type": "t_uint256"
          },
          {
            "astId": 15539,
            "contract": "contracts/AuctionManage.sol:AuctionManager",
            "label": "paymentToken",
            "offset": 0,
            "slot": "3",
            "type": "t_address"
          },
          {
            "astId": 15541,
            "contract": "contracts/AuctionManage.sol:AuctionManager",
            "label": "minPrice",
            "offset": 0,
            "slot": "4",
            "type": "t_uint256"
          },
          {
            "astId": 15543,
            "contract": "contracts/AuctionManage.sol:AuctionManager",
            "label": "minWinPercent",
            "offset": 0,
            "slot": "5",
            "type": "t_uint256"
          },
          {
            "astId": 15545,
            "contract": "contracts/AuctionManage.sol:AuctionManager",
            "label": "startTime",
            "offset": 0,
            "slot": "6",
            "type": "t_uint256"
          },
          {
            "astId": 15547,
            "contract": "contracts/AuctionManage.sol:AuctionManager",
            "label": "endTime",
            "offset": 0,
            "slot": "7",
            "type": "t_uint256"
          },
          {
            "astId": 15549,
            "contract": "contracts/AuctionManage.sol:AuctionManager",
            "label": "owner",
            "offset": 0,
            "slot": "8",
            "type": "t_address"
          },
          {
            "astId": 15551,
            "contract": "contracts/AuctionManage.sol:AuctionManager",
            "label": "lastBidder",
            "offset": 0,
            "slot": "9",
            "type": "t_address"
          },
          {
            "astId": 15553,
            "contract": "contracts/AuctionManage.sol:AuctionManager",
            "label": "bidPrice",
            "offset": 0,
            "slot": "10",
            "type": "t_uint256"
          },
          {
            "astId": 15557,
            "contract": "contracts/AuctionManage.sol:AuctionManager",
            "label": "fees",
            "offset": 0,
            "slot": "11",
            "type": "t_array(t_struct(Fee)15481_storage)dyn_storage"
          }
        ],
        "numberOfBytes": "384"
      },
      "t_struct(Fee)15481_storage": {
        "encoding": "inplace",
        "label": "struct Fee",
        "members": [
          {
            "astId": 15478,
            "contract": "contracts/AuctionManage.sol:AuctionManager",
            "label": "rate",
            "offset": 0,
            "slot": "0",
            "type": "t_uint16"
          },
          {
            "astId": 15480,
            "contract": "contracts/AuctionManage.sol:AuctionManager",
            "label": "recipient",
            "offset": 2,
            "slot": "0",
            "type": "t_address_payable"
          }
        ],
        "numberOfBytes": "32"
      },
      "t_uint16": {
        "encoding": "inplace",
        "label": "uint16",
        "numberOfBytes": "2"
      },
      "t_uint256": {
        "encoding": "inplace",
        "label": "uint256",
        "numberOfBytes": "32"
      },
      "t_uint8": {
        "encoding": "inplace",
        "label": "uint8",
        "numberOfBytes": "1"
      }
    }
  }
}