{
  "address": "0x896355CE532D02333aB7027353FdC85373259e79",
  "abi": [
    {
      "inputs": [],
      "stateMutability": "nonpayable",
      "type": "constructor"
    },
    {
      "anonymous": false,
      "inputs": [
        {
          "indexed": false,
          "internalType": "address",
          "name": "previousAdmin",
          "type": "address"
        },
        {
          "indexed": false,
          "internalType": "address",
          "name": "newAdmin",
          "type": "address"
        }
      ],
      "name": "AdminChanged",
      "type": "event"
    },
    {
      "anonymous": false,
      "inputs": [
        {
          "indexed": true,
          "internalType": "bytes32",
          "name": "id",
          "type": "bytes32"
        },
        {
          "indexed": true,
          "internalType": "address",
          "name": "collection",
          "type": "address"
        },
        {
          "indexed": false,
          "internalType": "address",
          "name": "paymentToken",
          "type": "address"
        },
        {
          "indexed": false,
          "internalType": "uint256",
          "name": "tokenId",
          "type": "uint256"
        },
        {
          "indexed": false,
          "internalType": "uint256",
          "name": "minPrice",
          "type": "uint256"
        },
        {
          "indexed": false,
          "internalType": "uint256",
          "name": "startTime",
          "type": "uint256"
        },
        {
          "indexed": false,
          "internalType": "uint256",
          "name": "endTime",
          "type": "uint256"
        }
      ],
      "name": "AuctionStarted",
      "type": "event"
    },
    {
      "anonymous": false,
      "inputs": [
        {
          "indexed": true,
          "internalType": "address",
          "name": "beacon",
          "type": "address"
        }
      ],
      "name": "BeaconUpgraded",
      "type": "event"
    },
    {
      "anonymous": false,
      "inputs": [
        {
          "indexed": true,
          "internalType": "bytes32",
          "name": "id",
          "type": "bytes32"
        },
        {
          "indexed": true,
          "internalType": "address",
          "name": "winner",
          "type": "address"
        },
        {
          "indexed": true,
          "internalType": "uint256",
          "name": "bidPrice",
          "type": "uint256"
        }
      ],
      "name": "Finished",
      "type": "event"
    },
    {
      "anonymous": false,
      "inputs": [
        {
          "indexed": false,
          "internalType": "uint8",
          "name": "version",
          "type": "uint8"
        }
      ],
      "name": "Initialized",
      "type": "event"
    },
    {
      "anonymous": false,
      "inputs": [
        {
          "indexed": true,
          "internalType": "bytes32",
          "name": "id",
          "type": "bytes32"
        },
        {
          "indexed": true,
          "internalType": "address",
          "name": "bidder",
          "type": "address"
        },
        {
          "indexed": true,
          "internalType": "uint256",
          "name": "bidPrice",
          "type": "uint256"
        }
      ],
      "name": "NewBid",
      "type": "event"
    },
    {
      "anonymous": false,
      "inputs": [
        {
          "indexed": true,
          "internalType": "address",
          "name": "previousOwner",
          "type": "address"
        },
        {
          "indexed": true,
          "internalType": "address",
          "name": "newOwner",
          "type": "address"
        }
      ],
      "name": "OwnershipTransferred",
      "type": "event"
    },
    {
      "anonymous": false,
      "inputs": [
        {
          "indexed": true,
          "internalType": "address",
          "name": "implementation",
          "type": "address"
        }
      ],
      "name": "Upgraded",
      "type": "event"
    },
    {
      "inputs": [
        {
          "internalType": "bytes32",
          "name": "",
          "type": "bytes32"
        }
      ],
      "name": "auctions",
      "outputs": [
        {
          "internalType": "enum AssetType",
          "name": "assetType",
          "type": "uint8"
        },
        {
          "internalType": "address",
          "name": "collection",
          "type": "address"
        },
        {
          "internalType": "uint256",
          "name": "tokenId",
          "type": "uint256"
        },
        {
          "internalType": "address",
          "name": "paymentToken",
          "type": "address"
        },
        {
          "internalType": "uint256",
          "name": "minPrice",
          "type": "uint256"
        },
        {
          "internalType": "address",
          "name": "lastBidder",
          "type": "address"
        },
        {
          "internalType": "uint256",
          "name": "bidPrice",
          "type": "uint256"
        },
        {
          "internalType": "uint256",
          "name": "startTime",
          "type": "uint256"
        },
        {
          "internalType": "uint256",
          "name": "endTime",
          "type": "uint256"
        },
        {
          "internalType": "address",
          "name": "owner",
          "type": "address"
        }
      ],
      "stateMutability": "view",
      "type": "function"
    },
    {
      "inputs": [
        {
          "internalType": "bytes32",
          "name": "_id",
          "type": "bytes32"
        },
        {
          "internalType": "uint256",
          "name": "_price",
          "type": "uint256"
        }
      ],
      "name": "bid",
      "outputs": [],
      "stateMutability": "payable",
      "type": "function"
    },
    {
      "inputs": [
        {
          "internalType": "address",
          "name": "_collection",
          "type": "address"
        },
        {
          "internalType": "uint256",
          "name": "_tokenId",
          "type": "uint256"
        },
        {
          "internalType": "address",
          "name": "_paymentToken",
          "type": "address"
        },
        {
          "internalType": "uint256",
          "name": "_minPrice",
          "type": "uint256"
        },
        {
          "internalType": "uint256",
          "name": "_startTime",
          "type": "uint256"
        },
        {
          "internalType": "uint256",
          "name": "_duration",
          "type": "uint256"
        }
      ],
      "name": "createAuction",
      "outputs": [],
      "stateMutability": "nonpayable",
      "type": "function"
    },
    {
      "inputs": [
        {
          "internalType": "bytes32",
          "name": "_id",
          "type": "bytes32"
        }
      ],
      "name": "finish",
      "outputs": [],
      "stateMutability": "nonpayable",
      "type": "function"
    },
    {
      "inputs": [],
      "name": "initialize",
      "outputs": [],
      "stateMutability": "nonpayable",
      "type": "function"
    },
    {
      "inputs": [
        {
          "internalType": "address",
          "name": "",
          "type": "address"
        },
        {
          "internalType": "address",
          "name": "",
          "type": "address"
        },
        {
          "internalType": "uint256[]",
          "name": "",
          "type": "uint256[]"
        },
        {
          "internalType": "uint256[]",
          "name": "",
          "type": "uint256[]"
        },
        {
          "internalType": "bytes",
          "name": "",
          "type": "bytes"
        }
      ],
      "name": "onERC1155BatchReceived",
      "outputs": [
        {
          "internalType": "bytes4",
          "name": "",
          "type": "bytes4"
        }
      ],
      "stateMutability": "nonpayable",
      "type": "function"
    },
    {
      "inputs": [
        {
          "internalType": "address",
          "name": "",
          "type": "address"
        },
        {
          "internalType": "address",
          "name": "",
          "type": "address"
        },
        {
          "internalType": "uint256",
          "name": "",
          "type": "uint256"
        },
        {
          "internalType": "uint256",
          "name": "",
          "type": "uint256"
        },
        {
          "internalType": "bytes",
          "name": "",
          "type": "bytes"
        }
      ],
      "name": "onERC1155Received",
      "outputs": [
        {
          "internalType": "bytes4",
          "name": "",
          "type": "bytes4"
        }
      ],
      "stateMutability": "nonpayable",
      "type": "function"
    },
    {
      "inputs": [
        {
          "internalType": "address",
          "name": "",
          "type": "address"
        },
        {
          "internalType": "address",
          "name": "",
          "type": "address"
        },
        {
          "internalType": "uint256",
          "name": "",
          "type": "uint256"
        },
        {
          "internalType": "bytes",
          "name": "",
          "type": "bytes"
        }
      ],
      "name": "onERC721Received",
      "outputs": [
        {
          "internalType": "bytes4",
          "name": "",
          "type": "bytes4"
        }
      ],
      "stateMutability": "nonpayable",
      "type": "function"
    },
    {
      "inputs": [],
      "name": "owner",
      "outputs": [
        {
          "internalType": "address",
          "name": "",
          "type": "address"
        }
      ],
      "stateMutability": "view",
      "type": "function"
    },
    {
      "inputs": [],
      "name": "proxiableUUID",
      "outputs": [
        {
          "internalType": "bytes32",
          "name": "",
          "type": "bytes32"
        }
      ],
      "stateMutability": "view",
      "type": "function"
    },
    {
      "inputs": [],
      "name": "renounceOwnership",
      "outputs": [],
      "stateMutability": "nonpayable",
      "type": "function"
    },
    {
      "inputs": [
        {
          "internalType": "bytes4",
          "name": "interfaceId",
          "type": "bytes4"
        }
      ],
      "name": "supportsInterface",
      "outputs": [
        {
          "internalType": "bool",
          "name": "",
          "type": "bool"
        }
      ],
      "stateMutability": "view",
      "type": "function"
    },
    {
      "inputs": [
        {
          "internalType": "address",
          "name": "newOwner",
          "type": "address"
        }
      ],
      "name": "transferOwnership",
      "outputs": [],
      "stateMutability": "nonpayable",
      "type": "function"
    },
    {
      "inputs": [
        {
          "internalType": "address",
          "name": "newImplementation",
          "type": "address"
        }
      ],
      "name": "upgradeTo",
      "outputs": [],
      "stateMutability": "nonpayable",
      "type": "function"
    },
    {
      "inputs": [
        {
          "internalType": "address",
          "name": "newImplementation",
          "type": "address"
        },
        {
          "internalType": "bytes",
          "name": "data",
          "type": "bytes"
        }
      ],
      "name": "upgradeToAndCall",
      "outputs": [],
      "stateMutability": "payable",
      "type": "function"
    }
  ],
  "transactionHash": "0x4314bf6d6fd960f2bf285b4c1246cddc66d62904e87a559c716110d4574fd1fe",
  "args": [],
  "numDeployments": 3,
  "solcInputHash": "917b57ed44a1fbeff3bd84d952e41601",
  "bytecode": "0x60a06040523060805234801561001457600080fd5b50600160005561002333610028565b61007a565b600180546001600160a01b038381166001600160a01b0319831681179093556040519116919082907f8be0079c531659141344cd1fd0a4f28419497f9722a3daafe3b4186f6b6457e090600090a35050565b6080516121bb6100b16000396000818161084901528181610889015281816109110152818161095101526109cd01526121bb6000f3fe6080604052600436106100b85760003560e01c806301ffc9a7146100bd57806314ec4106146100f2578063150b7a02146101145780631edbc5be146101415780633659cfe6146101cf5780634f1ef286146101ef57806352d1902d14610202578063715018a6146102255780638129fc1c1461023a5780638da5cb5b1461024f578063bc197c811461027c578063cd772f5c146102a8578063f23a6e61146102bb578063f2fde38b146102e7578063fde6305614610307575b600080fd5b3480156100c957600080fd5b506100dd6100d8366004611b28565b610327565b60405190151581526020015b60405180910390f35b3480156100fe57600080fd5b5061011261010d366004611b6e565b61035e565b005b34801561012057600080fd5b5061013461012f366004611c7b565b61082e565b6040516100e99190611ce2565b34801561014d57600080fd5b506101b961015c366004611cf7565b60666020526000908152604090208054600182015460028301546003840154600485015460058601546006870154600788015460089098015460ff8816986001600160a01b0361010090990489169896871696948516949091168a565b6040516100e99a99989796959493929190611d26565b3480156101db57600080fd5b506101126101ea366004611d99565b61083f565b6101126101fd366004611db4565b610907565b34801561020e57600080fd5b506102176109c0565b6040519081526020016100e9565b34801561023157600080fd5b50610112610a6e565b34801561024657600080fd5b50610112610a82565b34801561025b57600080fd5b50610264610ba8565b6040516001600160a01b0390911681526020016100e9565b34801561028857600080fd5b50610134610297366004611e75565b63bc197c8160e01b95945050505050565b6101126102b6366004611f1e565b610bb7565b3480156102c757600080fd5b506101346102d6366004611f40565b63f23a6e6160e01b95945050505050565b3480156102f357600080fd5b50610112610302366004611d99565b611044565b34801561031357600080fd5b50610112610322366004611cf7565b6110ba565b60006001600160e01b03198216630271189760e51b148061035857506301ffc9a760e01b6001600160e01b03198316145b92915050565b428210156103b15760405162461bcd60e51b815260206004820152601b60248201527a41756374696f6e3a20696e76616c69642073746172742074696d6560281b60448201526064015b60405180910390fd5b6040516301ffc9a760e01b81526000906001600160a01b038816906301ffc9a7906103e7906380ac58cd60e01b90600401611ce2565b602060405180830381865afa158015610404573d6000803e3d6000fd5b505050506040513d601f19601f820116820180604052508101906104289190611fa4565b156104355750600061050a565b6040516301ffc9a760e01b81526001600160a01b038816906301ffc9a79061046890636cdb3d1360e11b90600401611ce2565b602060405180830381865afa158015610485573d6000803e3d6000fd5b505050506040513d601f19601f820116820180604052508101906104a99190611fa4565b156104b65750600161050a565b60405162461bcd60e51b815260206004820152602360248201527f41756374696f6e3a20696e76616c696420636f6c6c656374696f6e206164647260448201526265737360e81b60648201526084016103a8565b6000610579888888886040516001600160601b031933606090811b8216602084015286811b821660348401526048830186905284901b166068820152607c810182905243609c82015260009060bc01604051602081830303815290604052805190602001209050949350505050565b905060405180610140016040528083600181111561059957610599611d10565b8152602001896001600160a01b03168152602001888152602001876001600160a01b0316815260200186815260200160006001600160a01b031681526020016000815260200185815260200184866105f19190611fc6565b815233602091820152600083815260669091526040902081518154829060ff19166001838181111561062557610625611d10565b021790555060208201518154610100600160a81b0319166101006001600160a01b0392831681029190911783556040840151600184015560608401516002840180546001600160a01b03199081169285169290921790556080850151600385015560a0850151600485018054831691851691909117905560c0850151600585015560e085015160068501559084015160078401556101209093015160089092018054909316911617905560008260018111156106e3576106e3611d10565b0361074f57604051632142170760e11b81526001600160a01b038916906342842e0e9061071890339030908c90600401611fe7565b600060405180830381600087803b15801561073257600080fd5b505af1158015610746573d6000803e3d6000fd5b505050506107b5565b604051637921219560e11b81526001600160a01b0389169063f242432a9061078290339030908c9060019060040161200b565b600060405180830381600087803b15801561079c57600080fd5b505af11580156107b0573d6000803e3d6000fd5b505050505b6001600160a01b038816817f5642063a4aff4f5b5f94dbc72fda70e5bcfd2fa7474b2c87213561cfd852ef89888a89896107ef8a82611fc6565b604080516001600160a01b0390961686526020860194909452928401919091526060830152608082015260a00160405180910390a35050505050505050565b630a85bd0160e11b5b949350505050565b6001600160a01b037f00000000000000000000000000000000000000000000000000000000000000001630036108875760405162461bcd60e51b81526004016103a890612043565b7f00000000000000000000000000000000000000000000000000000000000000006001600160a01b03166108b961144c565b6001600160a01b0316146108df5760405162461bcd60e51b81526004016103a89061208f565b6108e881611468565b6040805160008082526020820190925261090491839190611470565b50565b6001600160a01b037f000000000000000000000000000000000000000000000000000000000000000016300361094f5760405162461bcd60e51b81526004016103a890612043565b7f00000000000000000000000000000000000000000000000000000000000000006001600160a01b031661098161144c565b6001600160a01b0316146109a75760405162461bcd60e51b81526004016103a89061208f565b6109b082611468565b6109bc82826001611470565b5050565b6000306001600160a01b037f00000000000000000000000000000000000000000000000000000000000000001614610a5b5760405162461bcd60e51b815260206004820152603860248201527f555550535570677261646561626c653a206d757374206e6f742062652063616c6044820152771b1959081d1a1c9bdd59da0819195b1959d85d1958d85b1b60421b60648201526084016103a8565b5060008051602061216883398151915290565b610a766115e0565b610a80600061163f565b565b600154600160a81b900460ff1615808015610aa8575060018054600160a01b900460ff16105b80610acf5750610ab730611691565b158015610acf575060018054600160a01b900460ff16145b610b325760405162461bcd60e51b815260206004820152602e60248201527f496e697469616c697a61626c653a20636f6e747261637420697320616c72656160448201526d191e481a5b9a5d1a585b1a5e995960921b60648201526084016103a8565b6001805460ff60a01b1916600160a01b1790558015610b5f576001805460ff60a81b1916600160a81b1790555b8015610904576001805460ff60a81b191681556040519081527f7f26b83ff96e1f2b6a682f133852f6798a09c465da95921460cefb38474024989060200160405180910390a150565b6001546001600160a01b031690565b600260005403610c095760405162461bcd60e51b815260206004820152601f60248201527f5265656e7472616e637947756172643a207265656e7472616e742063616c6c0060448201526064016103a8565b60026000908155828152606660205260409020600701544210610c7d5760405162461bcd60e51b815260206004820152602660248201527f41756374696f6e3a20546869732061756374696f6e20616c72656164792066696044820152651b9a5cda195960d21b60648201526084016103a8565b600082815260666020526040902060030154811015610cf35760405162461bcd60e51b815260206004820152602c60248201527f41756374696f6e3a20626964207072696365206973206c6f77207468616e206d60448201526b696e696d756d20707269636560a01b60648201526084016103a8565b6000828152606660205260409020600501548111610d635760405162461bcd60e51b815260206004820152602760248201527f41756374696f6e3a20626964207072696365206973206c6f77207468616e206c604482015266617374206f6e6560c81b60648201526084016103a8565b600082815260666020526040808220815161014081019092528054829060ff166001811115610d9457610d94611d10565b6001811115610da557610da5611d10565b815281546001600160a01b03610100918290048116602080850191909152600180860154604080870191909152600287015484166060870152600387015460808701526004870154841660a080880191909152600588015460c080890191909152600689015460e08901526007890154968801969096526008909701549093166101209095019490945293850180519286018051339092528890526000898152606690955293208451815495965091948693919291839160ff1916908381811115610e7257610e72611d10565b021790555060208201518154610100600160a81b0319166101006001600160a01b0392831681029190911783556040840151600184015560608401516002840180546001600160a01b03199081169285169290921790556080850151600385015560a0850151600485018054831691851691909117905560c0850151600585015560e08501516006850155908401516007840155610120909301516008909201805490931691811691909117909155821615610f8b5760608301516001600160a01b0316610f72576040516001600160a01b0383169082156108fc029083906000818181858888f19350505050158015610f70573d6000803e3d6000fd5b505b6060830151610f8b906001600160a01b031683836116a0565b60608301516001600160a01b0316610fef57348414610fea5760405162461bcd60e51b815260206004820152601b60248201527a105d58dd1a5bdb8e881a5b9d985b1a5908195d1a08185b5bdd5b9d602a1b60448201526064016103a8565b611009565b6060830151611009906001600160a01b0316333087611703565b6040518490339087907fb556ff269c1b6714f432c36431e2041d28436a73b6c3f19c021827bbdc6bfc2990600090a450506001600055505050565b61104c6115e0565b6001600160a01b0381166110b15760405162461bcd60e51b815260206004820152602660248201527f4f776e61626c653a206e6577206f776e657220697320746865207a65726f206160448201526564647265737360d01b60648201526084016103a8565b6109048161163f565b600081815260666020526040902060070154421161111a5760405162461bcd60e51b815260206004820152601d60248201527f41756374696f6e3a2061756374696f6e206e6f742066696e697368656400000060448201526064016103a8565b6000818152606660205260409020600801546001600160a01b031633148061115b57506000818152606660205260409020600401546001600160a01b031633145b6111b85760405162461bcd60e51b815260206004820152602860248201527f41756374696f6e3a20646f6e27742068617665207065726d697373696f6e20746044820152670de40ccd2dcd2e6d60c31b60648201526084016103a8565b6000818152606660205260408120600401546001600160a01b03166111e6576111df610ba8565b9050611203565b506000818152606660205260409020600401546001600160a01b03165b60008281526066602052604081205460ff16600181111561122657611226611d10565b036112ad576000828152606660205260409081902080546001909101549151632142170760e11b81526101009091046001600160a01b0316916342842e0e91611276913091869190600401611fe7565b600060405180830381600087803b15801561129057600080fd5b505af11580156112a4573d6000803e3d6000fd5b50505050611356565b600160008381526066602052604090205460ff1660018111156112d2576112d2611d10565b03611356576000828152606660205260409081902080546001918201549251637921219560e11b81526101009091046001600160a01b03169263f242432a926113239230928792909160040161200b565b600060405180830381600087803b15801561133d57600080fd5b505af1158015611351573d6000803e3d6000fd5b505050505b6000828152606660205260409020600201546001600160a01b03166113c957600082815260666020526040808220600881015460059091015491516001600160a01b039091169282156108fc02929190818181858888f193505050501580156113c3573d6000803e3d6000fd5b50611401565b600082815260666020526040902060088101546005820154600290920154611401926001600160a01b039182169291909116906116a0565b60008281526066602052604080822060050154905190916001600160a01b0384169185917fd698efed43caa57c551ea82d130cb267e986a6575baa1093173ab63a6dd28d3e91a45050565b600080516020612168833981519152546001600160a01b031690565b6109046115e0565b7f4910fdfa16fed3260ed0e7147f7cc6da11a60208b5b9406d12a635614ffd91435460ff16156114a8576114a38361172a565b505050565b826001600160a01b03166352d1902d6040518163ffffffff1660e01b8152600401602060405180830381865afa925050508015611502575060408051601f3d908101601f191682019092526114ff918101906120db565b60015b6115655760405162461bcd60e51b815260206004820152602e60248201527f45524331393637557067726164653a206e657720696d706c656d656e7461746960448201526d6f6e206973206e6f74205555505360901b60648201526084016103a8565b60008051602061216883398151915281146115d45760405162461bcd60e51b815260206004820152602960248201527f45524331393637557067726164653a20756e737570706f727465642070726f786044820152681a58589b195555525160ba1b60648201526084016103a8565b506114a38383836117c4565b336115e9610ba8565b6001600160a01b031614610a805760405162461bcd60e51b815260206004820181905260248201527f4f776e61626c653a2063616c6c6572206973206e6f7420746865206f776e657260448201526064016103a8565b600180546001600160a01b038381166001600160a01b0319831681179093556040519116919082907f8be0079c531659141344cd1fd0a4f28419497f9722a3daafe3b4186f6b6457e090600090a35050565b6001600160a01b03163b151590565b6040516001600160a01b0383166024820152604481018290526114a390849063a9059cbb60e01b906064015b60408051601f198184030181529190526020810180516001600160e01b03166001600160e01b0319909316929092179091526117e9565b611724846323b872dd60e01b8585856040516024016116cc93929190611fe7565b50505050565b61173381611691565b6117955760405162461bcd60e51b815260206004820152602d60248201527f455243313936373a206e657720696d706c656d656e746174696f6e206973206e60448201526c1bdd08184818dbdb9d1c9858dd609a1b60648201526084016103a8565b60008051602061216883398151915280546001600160a01b0319166001600160a01b0392909216919091179055565b6117cd836118be565b6000825111806117da5750805b156114a35761172483836118fe565b600061183e826040518060400160405280602081526020017f5361666545524332303a206c6f772d6c6576656c2063616c6c206661696c6564815250856001600160a01b031661192a9092919063ffffffff16565b905080516000148061185f57508080602001905181019061185f9190611fa4565b6114a35760405162461bcd60e51b815260206004820152602a60248201527f5361666545524332303a204552433230206f7065726174696f6e20646964206e6044820152691bdd081cdd58d8d9595960b21b60648201526084016103a8565b6118c78161172a565b6040516001600160a01b038216907fbc7cd75a20ee27fd9adebab32041f755214dbc6bffa90cc0225b39da2e5c2d3b90600090a250565b6060611923838360405180606001604052806027815260200161218860279139611939565b9392505050565b606061083784846000856119b1565b6060600080856001600160a01b0316856040516119569190612118565b600060405180830381855af49150503d8060008114611991576040519150601f19603f3d011682016040523d82523d6000602084013e611996565b606091505b50915091506119a786838387611a8c565b9695505050505050565b606082471015611a125760405162461bcd60e51b815260206004820152602660248201527f416464726573733a20696e73756666696369656e742062616c616e636520666f6044820152651c8818d85b1b60d21b60648201526084016103a8565b600080866001600160a01b03168587604051611a2e9190612118565b60006040518083038185875af1925050503d8060008114611a6b576040519150601f19603f3d011682016040523d82523d6000602084013e611a70565b606091505b5091509150611a8187838387611a8c565b979650505050505050565b60608315611af9578251600003611af257611aa685611691565b611af25760405162461bcd60e51b815260206004820152601d60248201527f416464726573733a2063616c6c20746f206e6f6e2d636f6e747261637400000060448201526064016103a8565b5081610837565b6108378383815115611b0e5781518083602001fd5b8060405162461bcd60e51b81526004016103a89190612134565b600060208284031215611b3a57600080fd5b81356001600160e01b03198116811461192357600080fd5b80356001600160a01b0381168114611b6957600080fd5b919050565b60008060008060008060c08789031215611b8757600080fd5b611b9087611b52565b955060208701359450611ba560408801611b52565b9350606087013592506080870135915060a087013590509295509295509295565b634e487b7160e01b600052604160045260246000fd5b604051601f8201601f191681016001600160401b0381118282101715611c0457611c04611bc6565b604052919050565b600082601f830112611c1d57600080fd5b81356001600160401b03811115611c3657611c36611bc6565b611c49601f8201601f1916602001611bdc565b818152846020838601011115611c5e57600080fd5b816020850160208301376000918101602001919091529392505050565b60008060008060808587031215611c9157600080fd5b611c9a85611b52565b9350611ca860208601611b52565b92506040850135915060608501356001600160401b03811115611cca57600080fd5b611cd687828801611c0c565b91505092959194509250565b6001600160e01b031991909116815260200190565b600060208284031215611d0957600080fd5b5035919050565b634e487b7160e01b600052602160045260246000fd5b610140810160028c10611d4957634e487b7160e01b600052602160045260246000fd5b9a81526001600160a01b03998a16602082015260408101989098529588166060880152608087019490945291861660a086015260c085015260e08401526101008301529091166101209091015290565b600060208284031215611dab57600080fd5b61192382611b52565b60008060408385031215611dc757600080fd5b611dd083611b52565b915060208301356001600160401b03811115611deb57600080fd5b611df785828601611c0c565b9150509250929050565b600082601f830112611e1257600080fd5b813560206001600160401b03821115611e2d57611e2d611bc6565b8160051b611e3c828201611bdc565b9283528481018201928281019087851115611e5657600080fd5b83870192505b84831015611a8157823582529183019190830190611e5c565b600080600080600060a08688031215611e8d57600080fd5b611e9686611b52565b9450611ea460208701611b52565b935060408601356001600160401b0380821115611ec057600080fd5b611ecc89838a01611e01565b94506060880135915080821115611ee257600080fd5b611eee89838a01611e01565b93506080880135915080821115611f0457600080fd5b50611f1188828901611c0c565b9150509295509295909350565b60008060408385031215611f3157600080fd5b50508035926020909101359150565b600080600080600060a08688031215611f5857600080fd5b611f6186611b52565b9450611f6f60208701611b52565b9350604086013592506060860135915060808601356001600160401b03811115611f9857600080fd5b611f1188828901611c0c565b600060208284031215611fb657600080fd5b8151801515811461192357600080fd5b8082018082111561035857634e487b7160e01b600052601160045260246000fd5b6001600160a01b039384168152919092166020820152604081019190915260600190565b6001600160a01b0394851681529290931660208301526040820152606081019190915260a06080820181905260009082015260c00190565b6020808252602c908201527f46756e6374696f6e206d7573742062652063616c6c6564207468726f7567682060408201526b19195b1959d85d1958d85b1b60a21b606082015260800190565b6020808252602c908201527f46756e6374696f6e206d7573742062652063616c6c6564207468726f7567682060408201526b6163746976652070726f787960a01b606082015260800190565b6000602082840312156120ed57600080fd5b5051919050565b60005b8381101561210f5781810151838201526020016120f7565b50506000910152565b6000825161212a8184602087016120f4565b9190910192915050565b60208152600082518060208401526121538160408501602087016120f4565b601f01601f1916919091016040019291505056fe360894a13ba1a3210667c828492db98dca3e2076cc3735a920a3ca505d382bbc416464726573733a206c6f772d6c6576656c2064656c65676174652063616c6c206661696c6564a164736f6c6343000813000a",
  "devdoc": {
    "events": {
      "AdminChanged(address,address)": {
        "details": "Emitted when the admin account has changed."
      },
      "AuctionStarted(bytes32,address,address,uint256,uint256,uint256,uint256)": {
        "details": "emit this event when auction started"
      },
      "BeaconUpgraded(address)": {
        "details": "Emitted when the beacon is changed."
      },
      "Finished(bytes32,address,uint256)": {
        "details": "emit this event when auction finished"
      },
      "Initialized(uint8)": {
        "details": "Triggered when the contract has been initialized or reinitialized."
      },
      "NewBid(bytes32,address,uint256)": {
        "details": "emit this event when new bid added"
      },
      "Upgraded(address)": {
        "details": "Emitted when the implementation is upgraded."
      }
    },
    "kind": "dev",
    "methods": {
      "bid(bytes32,uint256)": {
        "details": "This functions changes last bid params, and release last bidder's token      and locks new bidder's token",
        "params": {
          "_id": "id of auction",
          "_price": "new bidding price"
        }
      },
      "createAuction(address,uint256,address,uint256,uint256,uint256)": {
        "params": {
          "_collection": "address of collection",
          "_duration": "duration of auction",
          "_minPrice": "minimum price of bidF",
          "_paymentToken": "address of bid token",
          "_startTime": "time to start auction",
          "_tokenId": "token id of nft"
        }
      },
      "finish(bytes32)": {
        "details": "This function finishs auction.      Sends asset to winner and sends bid token to owner.",
        "params": {
          "_id": "id of auction"
        }
      },
      "onERC721Received(address,address,uint256,bytes)": {
        "details": "See {IERC721Receiver-onERC721Received}. Always returns `IERC721Receiver.onERC721Received.selector`."
      },
      "owner()": {
        "details": "Returns the address of the current owner."
      },
      "proxiableUUID()": {
        "details": "Implementation of the ERC1822 {proxiableUUID} function. This returns the storage slot used by the implementation. It is used to validate the implementation's compatibility when performing an upgrade. IMPORTANT: A proxy pointing at a proxiable contract should not be considered proxiable itself, because this risks bricking a proxy that upgrades to it, by delegating to itself until out of gas. Thus it is critical that this function revert if invoked through a proxy. This is guaranteed by the `notDelegated` modifier."
      },
      "renounceOwnership()": {
        "details": "Leaves the contract without owner. It will not be possible to call `onlyOwner` functions. Can only be called by the current owner. NOTE: Renouncing ownership will leave the contract without an owner, thereby disabling any functionality that is only available to the owner."
      },
      "supportsInterface(bytes4)": {
        "details": "See {IERC165-supportsInterface}."
      },
      "transferOwnership(address)": {
        "details": "Transfers ownership of the contract to a new account (`newOwner`). Can only be called by the current owner."
      },
      "upgradeTo(address)": {
        "custom:oz-upgrades-unsafe-allow-reachable": "delegatecall",
        "details": "Upgrade the implementation of the proxy to `newImplementation`. Calls {_authorizeUpgrade}. Emits an {Upgraded} event."
      },
      "upgradeToAndCall(address,bytes)": {
        "custom:oz-upgrades-unsafe-allow-reachable": "delegatecall",
        "details": "Upgrade the implementation of the proxy to `newImplementation`, and subsequently execute the function call encoded in `data`. Calls {_authorizeUpgrade}. Emits an {Upgraded} event."
      }
    },
    "stateVariables": {
      "auctions": {
        "details": "acutions"
      }
    },
    "title": "English Auction Manager Contract",
    "version": 1
  },
  "userdoc": {
    "kind": "user",
    "methods": {
      "bid(bytes32,uint256)": {
        "notice": "make a new bid"
      },
      "createAuction(address,uint256,address,uint256,uint256,uint256)": {
        "notice": "create auction"
      },
      "finish(bytes32)": {
        "notice": "finish auction"
      }
    },
    "version": 1
  },
  "storageLayout": {
    "storage": [
      {
        "astId": 13594,
        "contract": "contracts/AuctionManage.sol:AuctionManager",
        "label": "_status",
        "offset": 0,
        "slot": "0",
        "type": "t_uint256"
      },
      {
        "astId": 1291,
        "contract": "contracts/AuctionManage.sol:AuctionManager",
        "label": "_owner",
        "offset": 0,
        "slot": "1",
        "type": "t_address"
      },
      {
        "astId": 503,
        "contract": "contracts/AuctionManage.sol:AuctionManager",
        "label": "_initialized",
        "offset": 20,
        "slot": "1",
        "type": "t_uint8"
      },
      {
        "astId": 506,
        "contract": "contracts/AuctionManage.sol:AuctionManager",
        "label": "_initializing",
        "offset": 21,
        "slot": "1",
        "type": "t_bool"
      },
      {
        "astId": 485,
        "contract": "contracts/AuctionManage.sol:AuctionManager",
        "label": "__gap",
        "offset": 0,
        "slot": "2",
        "type": "t_array(t_uint256)50_storage"
      },
      {
        "astId": 800,
        "contract": "contracts/AuctionManage.sol:AuctionManager",
        "label": "__gap",
        "offset": 0,
        "slot": "52",
        "type": "t_array(t_uint256)50_storage"
      },
      {
        "astId": 8578,
        "contract": "contracts/AuctionManage.sol:AuctionManager",
        "label": "auctions",
        "offset": 0,
        "slot": "102",
        "type": "t_mapping(t_bytes32,t_struct(Auction)13708_storage)"
      }
    ],
    "types": {
      "t_address": {
        "encoding": "inplace",
        "label": "address",
        "numberOfBytes": "20"
      },
      "t_array(t_uint256)50_storage": {
        "base": "t_uint256",
        "encoding": "inplace",
        "label": "uint256[50]",
        "numberOfBytes": "1600"
      },
      "t_bool": {
        "encoding": "inplace",
        "label": "bool",
        "numberOfBytes": "1"
      },
      "t_bytes32": {
        "encoding": "inplace",
        "label": "bytes32",
        "numberOfBytes": "32"
      },
      "t_enum(AssetType)13634": {
        "encoding": "inplace",
        "label": "enum AssetType",
        "numberOfBytes": "1"
      },
      "t_mapping(t_bytes32,t_struct(Auction)13708_storage)": {
        "encoding": "mapping",
        "key": "t_bytes32",
        "label": "mapping(bytes32 => struct Auction)",
        "numberOfBytes": "32",
        "value": "t_struct(Auction)13708_storage"
      },
      "t_struct(Auction)13708_storage": {
        "encoding": "inplace",
        "label": "struct Auction",
        "members": [
          {
            "astId": 13689,
            "contract": "contracts/AuctionManage.sol:AuctionManager",
            "label": "assetType",
            "offset": 0,
            "slot": "0",
            "type": "t_enum(AssetType)13634"
          },
          {
            "astId": 13691,
            "contract": "contracts/AuctionManage.sol:AuctionManager",
            "label": "collection",
            "offset": 1,
            "slot": "0",
            "type": "t_address"
          },
          {
            "astId": 13693,
            "contract": "contracts/AuctionManage.sol:AuctionManager",
            "label": "tokenId",
            "offset": 0,
            "slot": "1",
            "type": "t_uint256"
          },
          {
            "astId": 13695,
            "contract": "contracts/AuctionManage.sol:AuctionManager",
            "label": "paymentToken",
            "offset": 0,
            "slot": "2",
            "type": "t_address"
          },
          {
            "astId": 13697,
            "contract": "contracts/AuctionManage.sol:AuctionManager",
            "label": "minPrice",
            "offset": 0,
            "slot": "3",
            "type": "t_uint256"
          },
          {
            "astId": 13699,
            "contract": "contracts/AuctionManage.sol:AuctionManager",
            "label": "lastBidder",
            "offset": 0,
            "slot": "4",
            "type": "t_address"
          },
          {
            "astId": 13701,
            "contract": "contracts/AuctionManage.sol:AuctionManager",
            "label": "bidPrice",
            "offset": 0,
            "slot": "5",
            "type": "t_uint256"
          },
          {
            "astId": 13703,
            "contract": "contracts/AuctionManage.sol:AuctionManager",
            "label": "startTime",
            "offset": 0,
            "slot": "6",
            "type": "t_uint256"
          },
          {
            "astId": 13705,
            "contract": "contracts/AuctionManage.sol:AuctionManager",
            "label": "endTime",
            "offset": 0,
            "slot": "7",
            "type": "t_uint256"
          },
          {
            "astId": 13707,
            "contract": "contracts/AuctionManage.sol:AuctionManager",
            "label": "owner",
            "offset": 0,
            "slot": "8",
            "type": "t_address"
          }
        ],
        "numberOfBytes": "288"
      },
      "t_uint256": {
        "encoding": "inplace",
        "label": "uint256",
        "numberOfBytes": "32"
      },
      "t_uint8": {
        "encoding": "inplace",
        "label": "uint8",
        "numberOfBytes": "1"
      }
    }
  }
}