{
  "address": "0x619Ab1Ca46DA71c25b494FD7b9A83006c27a7e9d",
  "abi": [
    {
      "inputs": [],
      "stateMutability": "nonpayable",
      "type": "constructor"
    },
    {
      "anonymous": false,
      "inputs": [
        {
          "indexed": true,
          "internalType": "bytes32",
          "name": "id",
          "type": "bytes32"
        },
        {
          "indexed": true,
          "internalType": "address",
          "name": "collection",
          "type": "address"
        },
        {
          "indexed": false,
          "internalType": "address",
          "name": "paymentToken",
          "type": "address"
        },
        {
          "indexed": false,
          "internalType": "uint256",
          "name": "tokenId",
          "type": "uint256"
        },
        {
          "indexed": false,
          "internalType": "uint256",
          "name": "minPrice",
          "type": "uint256"
        },
        {
          "indexed": false,
          "internalType": "uint256",
          "name": "startTime",
          "type": "uint256"
        },
        {
          "indexed": false,
          "internalType": "uint256",
          "name": "endTime",
          "type": "uint256"
        }
      ],
      "name": "AuctionStarted",
      "type": "event"
    },
    {
      "anonymous": false,
      "inputs": [
        {
          "indexed": true,
          "internalType": "bytes32",
          "name": "id",
          "type": "bytes32"
        },
        {
          "indexed": true,
          "internalType": "address",
          "name": "winner",
          "type": "address"
        },
        {
          "indexed": true,
          "internalType": "uint256",
          "name": "bidPrice",
          "type": "uint256"
        }
      ],
      "name": "Finished",
      "type": "event"
    },
    {
      "anonymous": false,
      "inputs": [
        {
          "indexed": true,
          "internalType": "bytes32",
          "name": "id",
          "type": "bytes32"
        },
        {
          "indexed": true,
          "internalType": "address",
          "name": "bidder",
          "type": "address"
        },
        {
          "indexed": true,
          "internalType": "uint256",
          "name": "bidPrice",
          "type": "uint256"
        }
      ],
      "name": "NewBid",
      "type": "event"
    },
    {
      "anonymous": false,
      "inputs": [
        {
          "indexed": true,
          "internalType": "address",
          "name": "previousOwner",
          "type": "address"
        },
        {
          "indexed": true,
          "internalType": "address",
          "name": "newOwner",
          "type": "address"
        }
      ],
      "name": "OwnershipTransferred",
      "type": "event"
    },
    {
      "inputs": [
        {
          "internalType": "bytes32",
          "name": "",
          "type": "bytes32"
        }
      ],
      "name": "auctions",
      "outputs": [
        {
          "internalType": "enum AssetType",
          "name": "assetType",
          "type": "uint8"
        },
        {
          "internalType": "address",
          "name": "collection",
          "type": "address"
        },
        {
          "internalType": "uint256",
          "name": "tokenId",
          "type": "uint256"
        },
        {
          "internalType": "address",
          "name": "paymentToken",
          "type": "address"
        },
        {
          "internalType": "uint256",
          "name": "minPrice",
          "type": "uint256"
        },
        {
          "internalType": "address",
          "name": "lastBidder",
          "type": "address"
        },
        {
          "internalType": "uint256",
          "name": "bidPrice",
          "type": "uint256"
        },
        {
          "internalType": "uint256",
          "name": "startTime",
          "type": "uint256"
        },
        {
          "internalType": "uint256",
          "name": "endTime",
          "type": "uint256"
        },
        {
          "internalType": "address",
          "name": "owner",
          "type": "address"
        }
      ],
      "stateMutability": "view",
      "type": "function"
    },
    {
      "inputs": [
        {
          "internalType": "bytes32",
          "name": "_id",
          "type": "bytes32"
        },
        {
          "internalType": "uint256",
          "name": "_price",
          "type": "uint256"
        }
      ],
      "name": "bid",
      "outputs": [],
      "stateMutability": "payable",
      "type": "function"
    },
    {
      "inputs": [
        {
          "internalType": "address",
          "name": "_collection",
          "type": "address"
        },
        {
          "internalType": "uint256",
          "name": "_tokenId",
          "type": "uint256"
        },
        {
          "internalType": "address",
          "name": "_paymentToken",
          "type": "address"
        },
        {
          "internalType": "uint256",
          "name": "_minPrice",
          "type": "uint256"
        },
        {
          "internalType": "uint256",
          "name": "_duration",
          "type": "uint256"
        }
      ],
      "name": "createAuction",
      "outputs": [],
      "stateMutability": "nonpayable",
      "type": "function"
    },
    {
      "inputs": [
        {
          "internalType": "bytes32",
          "name": "_id",
          "type": "bytes32"
        }
      ],
      "name": "finish",
      "outputs": [],
      "stateMutability": "nonpayable",
      "type": "function"
    },
    {
      "inputs": [
        {
          "internalType": "address",
          "name": "",
          "type": "address"
        },
        {
          "internalType": "address",
          "name": "",
          "type": "address"
        },
        {
          "internalType": "uint256[]",
          "name": "",
          "type": "uint256[]"
        },
        {
          "internalType": "uint256[]",
          "name": "",
          "type": "uint256[]"
        },
        {
          "internalType": "bytes",
          "name": "",
          "type": "bytes"
        }
      ],
      "name": "onERC1155BatchReceived",
      "outputs": [
        {
          "internalType": "bytes4",
          "name": "",
          "type": "bytes4"
        }
      ],
      "stateMutability": "nonpayable",
      "type": "function"
    },
    {
      "inputs": [
        {
          "internalType": "address",
          "name": "",
          "type": "address"
        },
        {
          "internalType": "address",
          "name": "",
          "type": "address"
        },
        {
          "internalType": "uint256",
          "name": "",
          "type": "uint256"
        },
        {
          "internalType": "uint256",
          "name": "",
          "type": "uint256"
        },
        {
          "internalType": "bytes",
          "name": "",
          "type": "bytes"
        }
      ],
      "name": "onERC1155Received",
      "outputs": [
        {
          "internalType": "bytes4",
          "name": "",
          "type": "bytes4"
        }
      ],
      "stateMutability": "nonpayable",
      "type": "function"
    },
    {
      "inputs": [
        {
          "internalType": "address",
          "name": "",
          "type": "address"
        },
        {
          "internalType": "address",
          "name": "",
          "type": "address"
        },
        {
          "internalType": "uint256",
          "name": "",
          "type": "uint256"
        },
        {
          "internalType": "bytes",
          "name": "",
          "type": "bytes"
        }
      ],
      "name": "onERC721Received",
      "outputs": [
        {
          "internalType": "bytes4",
          "name": "",
          "type": "bytes4"
        }
      ],
      "stateMutability": "nonpayable",
      "type": "function"
    },
    {
      "inputs": [],
      "name": "owner",
      "outputs": [
        {
          "internalType": "address",
          "name": "",
          "type": "address"
        }
      ],
      "stateMutability": "view",
      "type": "function"
    },
    {
      "inputs": [],
      "name": "renounceOwnership",
      "outputs": [],
      "stateMutability": "nonpayable",
      "type": "function"
    },
    {
      "inputs": [
        {
          "internalType": "bytes4",
          "name": "interfaceId",
          "type": "bytes4"
        }
      ],
      "name": "supportsInterface",
      "outputs": [
        {
          "internalType": "bool",
          "name": "",
          "type": "bool"
        }
      ],
      "stateMutability": "view",
      "type": "function"
    },
    {
      "inputs": [
        {
          "internalType": "address",
          "name": "newOwner",
          "type": "address"
        }
      ],
      "name": "transferOwnership",
      "outputs": [],
      "stateMutability": "nonpayable",
      "type": "function"
    }
  ],
  "transactionHash": "0x5d8b5078488756ff7adad7729a1c68adaaa970457bc937f7eadf36159e3f1885",
  "args": [],
  "numDeployments": 1,
  "solcInputHash": "d1c30057282ca9ca9aefbe616d5a5505",
  "bytecode": "0x608060405234801561001057600080fd5b50600160005561001f33610024565b610076565b600180546001600160a01b038381166001600160a01b0319831681179093556040519116919082907f8be0079c531659141344cd1fd0a4f28419497f9722a3daafe3b4186f6b6457e090600090a35050565b6118a4806100856000396000f3fe60806040526004361061008c5760003560e01c806301ffc9a714610091578063150b7a02146100c65780631edbc5be146100f3578063715018a6146101835780638da5cb5b1461019a578063bc197c81146101c7578063cd772f5c146101f3578063f23a6e6114610206578063f2df504714610232578063f2fde38b14610252578063fde6305614610272575b600080fd5b34801561009d57600080fd5b506100b16100ac366004611359565b610292565b60405190151581526020015b60405180910390f35b3480156100d257600080fd5b506100e66100e136600461145b565b6102c9565b6040516100bd91906114c2565b3480156100ff57600080fd5b5061016d61010e3660046114d7565b600260208190526000918252604090912080546001820154928201546003830154600484015460058501546006860154600787015460089097015460ff8716986101009097046001600160a01b0390811698968116969481169491168a565b6040516100bd9a99989796959493929190611506565b34801561018f57600080fd5b506101986102da565b005b3480156101a657600080fd5b506101af6102ee565b6040516001600160a01b0390911681526020016100bd565b3480156101d357600080fd5b506100e66101e23660046115ed565b63bc197c8160e01b95945050505050565b610198610201366004611696565b6102fd565b34801561021257600080fd5b506100e66102213660046116b8565b63f23a6e6160e01b95945050505050565b34801561023e57600080fd5b5061019861024d36600461171c565b610796565b34801561025e57600080fd5b5061019861026d36600461176a565b610c15565b34801561027e57600080fd5b5061019861028d3660046114d7565b610c8e565b60006001600160e01b03198216630271189760e51b14806102c357506301ffc9a760e01b6001600160e01b03198316145b92915050565b630a85bd0160e11b5b949350505050565b6102e2611021565b6102ec6000611080565b565b6001546001600160a01b031690565b6002600054036103545760405162461bcd60e51b815260206004820152601f60248201527f5265656e7472616e637947756172643a207265656e7472616e742063616c6c0060448201526064015b60405180910390fd5b60026000818155838152602091909152604090206007015442106103c95760405162461bcd60e51b815260206004820152602660248201527f41756374696f6e3a20546869732061756374696f6e20616c72656164792066696044820152651b9a5cda195960d21b606482015260840161034b565b60008281526002602052604090206003015481101561043f5760405162461bcd60e51b815260206004820152602c60248201527f41756374696f6e3a20626964207072696365206973206c6f77207468616e206d60448201526b696e696d756d20707269636560a01b606482015260840161034b565b60008281526002602052604090206005015481116104af5760405162461bcd60e51b815260206004820152602760248201527f41756374696f6e3a20626964207072696365206973206c6f77207468616e206c604482015266617374206f6e6560c81b606482015260840161034b565b600082815260026020526040808220815161014081019092528054829060ff1660018111156104e0576104e06114f0565b60018111156104f1576104f16114f0565b815281546001600160a01b0361010091829004811660208085019190915260018086015460408087019190915260028088015485166060880152600388015460808801526004880154851660a080890191909152600589015460c0808a019190915260068a015460e08a015260078a01549789019790975260089098015490941661012090960195909552948601805193870180513390925289905260008a81529290915292902084518154959650919492938693919291839160ff19919091169083818111156105c4576105c46114f0565b021790555060208201518154610100600160a81b0319166101006001600160a01b0392831681029190911783556040840151600184015560608401516002840180546001600160a01b03199081169285169290921790556080850151600385015560a0850151600485018054831691851691909117905560c0850151600585015560e085015160068501559084015160078401556101209093015160089092018054909316918116919091179091558216156106dd5760608301516001600160a01b03166106c4576040516001600160a01b0383169082156108fc029083906000818181858888f193505050501580156106c2573d6000803e3d6000fd5b505b60608301516106dd906001600160a01b031683836110d2565b60608301516001600160a01b03166107415734841461073c5760405162461bcd60e51b815260206004820152601b60248201527a105d58dd1a5bdb8e881a5b9d985b1a5908195d1a08185b5bdd5b9d602a1b604482015260640161034b565b61075b565b606083015161075b906001600160a01b031633308761113a565b6040518490339087907fb556ff269c1b6714f432c36431e2041d28436a73b6c3f19c021827bbdc6bfc2990600090a450506001600055505050565b6040516301ffc9a760e01b81526000906001600160a01b038716906301ffc9a7906107cc906380ac58cd60e01b906004016114c2565b602060405180830381865afa1580156107e9573d6000803e3d6000fd5b505050506040513d601f19601f8201168201806040525081019061080d9190611785565b1561081a575060006108e0565b6040516301ffc9a760e01b81526001600160a01b038716906301ffc9a79061084d90636cdb3d1360e11b906004016114c2565b602060405180830381865afa15801561086a573d6000803e3d6000fd5b505050506040513d601f19601f8201168201806040525081019061088e9190611785565b1561089b575060016108e0565b60405162461bcd60e51b815260206004820152601a602482015279696e76616c696420636f6c6c656374696f6e206164647265737360301b604482015260640161034b565b600061094f878787876040516001600160601b031933606090811b8216602084015286811b821660348401526048830186905284901b166068820152607c810182905243609c82015260009060bc01604051602081830303815290604052805190602001209050949350505050565b905060405180610140016040528083600181111561096f5761096f6114f0565b8152602001886001600160a01b03168152602001878152602001866001600160a01b0316815260200185815260200160006001600160a01b031681526020016000815260200142815260200184426109c791906117a7565b815233602091820152600083815260029091526040902081518154829060ff1916600183818111156109fb576109fb6114f0565b021790555060208201518154610100600160a81b0319166101006001600160a01b0392831681029190911783556040840151600184015560608401516002840180546001600160a01b03199081169285169290921790556080850151600385015560a0850151600485018054831691851691909117905560c0850151600585015560e08501516006850155908401516007840155610120909301516008909201805490931691161790556000826001811115610ab957610ab96114f0565b03610b3757604051635c46a7ef60e11b81523360048201523060248201526044810187905260806064820152600060848201526001600160a01b0388169063b88d4fde9060a401600060405180830381600087803b158015610b1a57600080fd5b505af1158015610b2e573d6000803e3d6000fd5b50505050610b9d565b604051637921219560e11b81526001600160a01b0388169063f242432a90610b6a90339030908b906001906004016117c8565b600060405180830381600087803b158015610b8457600080fd5b505af1158015610b98573d6000803e3d6000fd5b505050505b6001600160a01b038716817f5642063a4aff4f5b5f94dbc72fda70e5bcfd2fa7474b2c87213561cfd852ef8987898842610bd78a826117a7565b604080516001600160a01b0390961686526020860194909452928401919091526060830152608082015260a00160405180910390a350505050505050565b610c1d611021565b6001600160a01b038116610c825760405162461bcd60e51b815260206004820152602660248201527f4f776e61626c653a206e6577206f776e657220697320746865207a65726f206160448201526564647265737360d01b606482015260840161034b565b610c8b81611080565b50565b6000818152600260205260409020600701544211610cee5760405162461bcd60e51b815260206004820152601d60248201527f41756374696f6e3a2061756374696f6e206e6f742066696e6973686564000000604482015260640161034b565b6000818152600260205260409020600801546001600160a01b0316331480610d2f57506000818152600260205260409020600401546001600160a01b031633145b610d8c5760405162461bcd60e51b815260206004820152602860248201527f41756374696f6e3a20646f6e27742068617665207065726d697373696f6e20746044820152670de40ccd2dcd2e6d60c31b606482015260840161034b565b6000818152600260205260408120600401546001600160a01b0316610dba57610db36102ee565b9050610dd7565b506000818152600260205260409020600401546001600160a01b03165b60008281526002602052604081205460ff166001811115610dfa57610dfa6114f0565b03610e81576000828152600260205260409081902080546001909101549151632142170760e11b81526101009091046001600160a01b0316916342842e0e91610e4a913091869190600401611800565b600060405180830381600087803b158015610e6457600080fd5b505af1158015610e78573d6000803e3d6000fd5b50505050610f2a565b600160008381526002602052604090205460ff166001811115610ea657610ea66114f0565b03610f2a576000828152600260205260409081902080546001918201549251637921219560e11b81526101009091046001600160a01b03169263f242432a92610ef7923092879290916004016117c8565b600060405180830381600087803b158015610f1157600080fd5b505af1158015610f25573d6000803e3d6000fd5b505050505b600082815260026020819052604090912001546001600160a01b0316610f9e57600082815260026020526040808220600881015460059091015491516001600160a01b039091169282156108fc02929190818181858888f19350505050158015610f98573d6000803e3d6000fd5b50610fd6565b6000828152600260208190526040909120600881015460058201549190920154610fd6926001600160a01b03918216929116906110d2565b60008281526002602052604080822060050154905190916001600160a01b0384169185917fd698efed43caa57c551ea82d130cb267e986a6575baa1093173ab63a6dd28d3e91a45050565b3361102a6102ee565b6001600160a01b0316146102ec5760405162461bcd60e51b815260206004820181905260248201527f4f776e61626c653a2063616c6c6572206973206e6f7420746865206f776e6572604482015260640161034b565b600180546001600160a01b038381166001600160a01b0319831681179093556040519116919082907f8be0079c531659141344cd1fd0a4f28419497f9722a3daafe3b4186f6b6457e090600090a35050565b6040516001600160a01b03831660248201526044810182905261113590849063a9059cbb60e01b906064015b60408051601f198184030181529190526020810180516001600160e01b03166001600160e01b031990931692909217909152611161565b505050565b61115b846323b872dd60e01b8585856040516024016110fe93929190611800565b50505050565b60006111b6826040518060400160405280602081526020017f5361666545524332303a206c6f772d6c6576656c2063616c6c206661696c6564815250856001600160a01b03166112369092919063ffffffff16565b90508051600014806111d75750808060200190518101906111d79190611785565b6111355760405162461bcd60e51b815260206004820152602a60248201527f5361666545524332303a204552433230206f7065726174696f6e20646964206e6044820152691bdd081cdd58d8d9595960b21b606482015260840161034b565b60606102d2848460008585600080866001600160a01b0316858760405161125d9190611848565b60006040518083038185875af1925050503d806000811461129a576040519150601f19603f3d011682016040523d82523d6000602084013e61129f565b606091505b50915091506112b0878383876112bb565b979650505050505050565b6060831561132a578251600003611323576001600160a01b0385163b6113235760405162461bcd60e51b815260206004820152601d60248201527f416464726573733a2063616c6c20746f206e6f6e2d636f6e7472616374000000604482015260640161034b565b50816102d2565b6102d2838381511561133f5781518083602001fd5b8060405162461bcd60e51b815260040161034b9190611864565b60006020828403121561136b57600080fd5b81356001600160e01b03198116811461138357600080fd5b9392505050565b80356001600160a01b03811681146113a157600080fd5b919050565b634e487b7160e01b600052604160045260246000fd5b604051601f8201601f191681016001600160401b03811182821017156113e4576113e46113a6565b604052919050565b600082601f8301126113fd57600080fd5b81356001600160401b03811115611416576114166113a6565b611429601f8201601f19166020016113bc565b81815284602083860101111561143e57600080fd5b816020850160208301376000918101602001919091529392505050565b6000806000806080858703121561147157600080fd5b61147a8561138a565b93506114886020860161138a565b92506040850135915060608501356001600160401b038111156114aa57600080fd5b6114b6878288016113ec565b91505092959194509250565b6001600160e01b031991909116815260200190565b6000602082840312156114e957600080fd5b5035919050565b634e487b7160e01b600052602160045260246000fd5b610140810160028c1061152957634e487b7160e01b600052602160045260246000fd5b9a81526001600160a01b03998a16602082015260408101989098529588166060880152608087019490945291861660a086015260c085015260e08401526101008301529091166101209091015290565b600082601f83011261158a57600080fd5b813560206001600160401b038211156115a5576115a56113a6565b8160051b6115b48282016113bc565b92835284810182019282810190878511156115ce57600080fd5b83870192505b848310156112b0578235825291830191908301906115d4565b600080600080600060a0868803121561160557600080fd5b61160e8661138a565b945061161c6020870161138a565b935060408601356001600160401b038082111561163857600080fd5b61164489838a01611579565b9450606088013591508082111561165a57600080fd5b61166689838a01611579565b9350608088013591508082111561167c57600080fd5b50611689888289016113ec565b9150509295509295909350565b600080604083850312156116a957600080fd5b50508035926020909101359150565b600080600080600060a086880312156116d057600080fd5b6116d98661138a565b94506116e76020870161138a565b9350604086013592506060860135915060808601356001600160401b0381111561171057600080fd5b611689888289016113ec565b600080600080600060a0868803121561173457600080fd5b61173d8661138a565b9450602086013593506117526040870161138a565b94979396509394606081013594506080013592915050565b60006020828403121561177c57600080fd5b6113838261138a565b60006020828403121561179757600080fd5b8151801515811461138357600080fd5b808201808211156102c357634e487b7160e01b600052601160045260246000fd5b6001600160a01b0394851681529290931660208301526040820152606081019190915260a06080820181905260009082015260c00190565b6001600160a01b039384168152919092166020820152604081019190915260600190565b60005b8381101561183f578181015183820152602001611827565b50506000910152565b6000825161185a818460208701611824565b9190910192915050565b6020815260008251806020840152611883816040850160208701611824565b601f01601f1916919091016040019291505056fea164736f6c6343000813000a",
  "devdoc": {
    "events": {
      "AuctionStarted(bytes32,address,address,uint256,uint256,uint256,uint256)": {
        "details": "emit this event when auction started"
      },
      "Finished(bytes32,address,uint256)": {
        "details": "emit this event when auction finished"
      },
      "NewBid(bytes32,address,uint256)": {
        "details": "emit this event when new bid added"
      }
    },
    "kind": "dev",
    "methods": {
      "bid(bytes32,uint256)": {
        "details": "This functions changes last bid params, and release last bidder's token      and locks new bidder's token",
        "params": {
          "_id": "id of auction",
          "_price": "new bidding price"
        }
      },
      "createAuction(address,uint256,address,uint256,uint256)": {
        "params": {
          "_collection": "address of collection",
          "_duration": "duration of auction",
          "_minPrice": "minimum price of bidF",
          "_paymentToken": "address of bid token",
          "_tokenId": "token id of nft"
        }
      },
      "finish(bytes32)": {
        "details": "This function finishs auction.      Sends asset to winner and sends bid token to owner.",
        "params": {
          "_id": "id of auction"
        }
      },
      "onERC721Received(address,address,uint256,bytes)": {
        "details": "See {IERC721Receiver-onERC721Received}. Always returns `IERC721Receiver.onERC721Received.selector`."
      },
      "owner()": {
        "details": "Returns the address of the current owner."
      },
      "renounceOwnership()": {
        "details": "Leaves the contract without owner. It will not be possible to call `onlyOwner` functions. Can only be called by the current owner. NOTE: Renouncing ownership will leave the contract without an owner, thereby disabling any functionality that is only available to the owner."
      },
      "supportsInterface(bytes4)": {
        "details": "See {IERC165-supportsInterface}."
      },
      "transferOwnership(address)": {
        "details": "Transfers ownership of the contract to a new account (`newOwner`). Can only be called by the current owner."
      }
    },
    "stateVariables": {
      "auctions": {
        "details": "acutions"
      }
    },
    "title": "English Auction Manager Contract",
    "version": 1
  },
  "userdoc": {
    "kind": "user",
    "methods": {
      "bid(bytes32,uint256)": {
        "notice": "make a new bid"
      },
      "createAuction(address,uint256,address,uint256,uint256)": {
        "notice": "create auction"
      },
      "finish(bytes32)": {
        "notice": "finish auction"
      }
    },
    "version": 1
  },
  "storageLayout": {
    "storage": [
      {
        "astId": 13338,
        "contract": "contracts/AuctionManage.sol:AuctionManager",
        "label": "_status",
        "offset": 0,
        "slot": "0",
        "type": "t_uint256"
      },
      {
        "astId": 1291,
        "contract": "contracts/AuctionManage.sol:AuctionManager",
        "label": "_owner",
        "offset": 0,
        "slot": "1",
        "type": "t_address"
      },
      {
        "astId": 8574,
        "contract": "contracts/AuctionManage.sol:AuctionManager",
        "label": "auctions",
        "offset": 0,
        "slot": "2",
        "type": "t_mapping(t_bytes32,t_struct(Auction)13452_storage)"
      }
    ],
    "types": {
      "t_address": {
        "encoding": "inplace",
        "label": "address",
        "numberOfBytes": "20"
      },
      "t_bytes32": {
        "encoding": "inplace",
        "label": "bytes32",
        "numberOfBytes": "32"
      },
      "t_enum(AssetType)13378": {
        "encoding": "inplace",
        "label": "enum AssetType",
        "numberOfBytes": "1"
      },
      "t_mapping(t_bytes32,t_struct(Auction)13452_storage)": {
        "encoding": "mapping",
        "key": "t_bytes32",
        "label": "mapping(bytes32 => struct Auction)",
        "numberOfBytes": "32",
        "value": "t_struct(Auction)13452_storage"
      },
      "t_struct(Auction)13452_storage": {
        "encoding": "inplace",
        "label": "struct Auction",
        "members": [
          {
            "astId": 13433,
            "contract": "contracts/AuctionManage.sol:AuctionManager",
            "label": "assetType",
            "offset": 0,
            "slot": "0",
            "type": "t_enum(AssetType)13378"
          },
          {
            "astId": 13435,
            "contract": "contracts/AuctionManage.sol:AuctionManager",
            "label": "collection",
            "offset": 1,
            "slot": "0",
            "type": "t_address"
          },
          {
            "astId": 13437,
            "contract": "contracts/AuctionManage.sol:AuctionManager",
            "label": "tokenId",
            "offset": 0,
            "slot": "1",
            "type": "t_uint256"
          },
          {
            "astId": 13439,
            "contract": "contracts/AuctionManage.sol:AuctionManager",
            "label": "paymentToken",
            "offset": 0,
            "slot": "2",
            "type": "t_address"
          },
          {
            "astId": 13441,
            "contract": "contracts/AuctionManage.sol:AuctionManager",
            "label": "minPrice",
            "offset": 0,
            "slot": "3",
            "type": "t_uint256"
          },
          {
            "astId": 13443,
            "contract": "contracts/AuctionManage.sol:AuctionManager",
            "label": "lastBidder",
            "offset": 0,
            "slot": "4",
            "type": "t_address"
          },
          {
            "astId": 13445,
            "contract": "contracts/AuctionManage.sol:AuctionManager",
            "label": "bidPrice",
            "offset": 0,
            "slot": "5",
            "type": "t_uint256"
          },
          {
            "astId": 13447,
            "contract": "contracts/AuctionManage.sol:AuctionManager",
            "label": "startTime",
            "offset": 0,
            "slot": "6",
            "type": "t_uint256"
          },
          {
            "astId": 13449,
            "contract": "contracts/AuctionManage.sol:AuctionManager",
            "label": "endTime",
            "offset": 0,
            "slot": "7",
            "type": "t_uint256"
          },
          {
            "astId": 13451,
            "contract": "contracts/AuctionManage.sol:AuctionManager",
            "label": "owner",
            "offset": 0,
            "slot": "8",
            "type": "t_address"
          }
        ],
        "numberOfBytes": "288"
      },
      "t_uint256": {
        "encoding": "inplace",
        "label": "uint256",
        "numberOfBytes": "32"
      }
    }
  }
}