{
  "address": "0x3B97e4f82C0CF081fDe56e9f6De5d6f112ec1c19",
  "abi": [
    {
      "inputs": [],
      "stateMutability": "nonpayable",
      "type": "constructor"
    },
    {
      "anonymous": false,
      "inputs": [
        {
          "indexed": false,
          "internalType": "address",
          "name": "previousAdmin",
          "type": "address"
        },
        {
          "indexed": false,
          "internalType": "address",
          "name": "newAdmin",
          "type": "address"
        }
      ],
      "name": "AdminChanged",
      "type": "event"
    },
    {
      "anonymous": false,
      "inputs": [
        {
          "indexed": true,
          "internalType": "bytes32",
          "name": "id",
          "type": "bytes32"
        },
        {
          "indexed": true,
          "internalType": "address",
          "name": "collection",
          "type": "address"
        },
        {
          "indexed": false,
          "internalType": "address",
          "name": "paymentToken",
          "type": "address"
        },
        {
          "indexed": false,
          "internalType": "uint256",
          "name": "tokenId",
          "type": "uint256"
        },
        {
          "indexed": false,
          "internalType": "uint256",
          "name": "minPrice",
          "type": "uint256"
        },
        {
          "indexed": false,
          "internalType": "uint256",
          "name": "startTime",
          "type": "uint256"
        },
        {
          "indexed": false,
          "internalType": "uint256",
          "name": "endTime",
          "type": "uint256"
        },
        {
          "components": [
            {
              "internalType": "uint16",
              "name": "rate",
              "type": "uint16"
            },
            {
              "internalType": "address payable",
              "name": "recipient",
              "type": "address"
            }
          ],
          "indexed": false,
          "internalType": "struct Fee[]",
          "name": "fees",
          "type": "tuple[]"
        }
      ],
      "name": "AuctionStarted",
      "type": "event"
    },
    {
      "anonymous": false,
      "inputs": [
        {
          "indexed": true,
          "internalType": "bytes32",
          "name": "id",
          "type": "bytes32"
        },
        {
          "indexed": false,
          "internalType": "uint256",
          "name": "endTime",
          "type": "uint256"
        }
      ],
      "name": "AuctionTimeExtended",
      "type": "event"
    },
    {
      "anonymous": false,
      "inputs": [
        {
          "indexed": true,
          "internalType": "address",
          "name": "beacon",
          "type": "address"
        }
      ],
      "name": "BeaconUpgraded",
      "type": "event"
    },
    {
      "anonymous": false,
      "inputs": [
        {
          "indexed": true,
          "internalType": "bytes32",
          "name": "id",
          "type": "bytes32"
        },
        {
          "indexed": true,
          "internalType": "address",
          "name": "winner",
          "type": "address"
        },
        {
          "indexed": true,
          "internalType": "uint256",
          "name": "bidPrice",
          "type": "uint256"
        }
      ],
      "name": "Finished",
      "type": "event"
    },
    {
      "anonymous": false,
      "inputs": [
        {
          "indexed": false,
          "internalType": "uint8",
          "name": "version",
          "type": "uint8"
        }
      ],
      "name": "Initialized",
      "type": "event"
    },
    {
      "anonymous": false,
      "inputs": [
        {
          "indexed": true,
          "internalType": "bytes32",
          "name": "id",
          "type": "bytes32"
        },
        {
          "indexed": true,
          "internalType": "address",
          "name": "bidder",
          "type": "address"
        },
        {
          "indexed": true,
          "internalType": "uint256",
          "name": "bidPrice",
          "type": "uint256"
        }
      ],
      "name": "NewBid",
      "type": "event"
    },
    {
      "anonymous": false,
      "inputs": [
        {
          "indexed": false,
          "internalType": "contract IExecutionDelegate",
          "name": "executionDelegate",
          "type": "address"
        }
      ],
      "name": "NewExecutionDelegate",
      "type": "event"
    },
    {
      "anonymous": false,
      "inputs": [
        {
          "indexed": true,
          "internalType": "address",
          "name": "previousOwner",
          "type": "address"
        },
        {
          "indexed": true,
          "internalType": "address",
          "name": "newOwner",
          "type": "address"
        }
      ],
      "name": "OwnershipTransferred",
      "type": "event"
    },
    {
      "anonymous": false,
      "inputs": [
        {
          "indexed": true,
          "internalType": "address",
          "name": "implementation",
          "type": "address"
        }
      ],
      "name": "Upgraded",
      "type": "event"
    },
    {
      "inputs": [],
      "name": "INVERSE_BASIS_POINT",
      "outputs": [
        {
          "internalType": "uint256",
          "name": "",
          "type": "uint256"
        }
      ],
      "stateMutability": "view",
      "type": "function"
    },
    {
      "inputs": [
        {
          "internalType": "bytes32",
          "name": "",
          "type": "bytes32"
        }
      ],
      "name": "auctions",
      "outputs": [
        {
          "internalType": "enum AssetType",
          "name": "assetType",
          "type": "uint8"
        },
        {
          "internalType": "address",
          "name": "collection",
          "type": "address"
        },
        {
          "internalType": "uint256",
          "name": "tokenId",
          "type": "uint256"
        },
        {
          "internalType": "address",
          "name": "paymentToken",
          "type": "address"
        },
        {
          "internalType": "uint256",
          "name": "minPrice",
          "type": "uint256"
        },
        {
          "internalType": "address",
          "name": "lastBidder",
          "type": "address"
        },
        {
          "internalType": "uint256",
          "name": "bidPrice",
          "type": "uint256"
        },
        {
          "internalType": "uint256",
          "name": "startTime",
          "type": "uint256"
        },
        {
          "internalType": "uint256",
          "name": "endTime",
          "type": "uint256"
        },
        {
          "internalType": "uint256",
          "name": "amount",
          "type": "uint256"
        },
        {
          "internalType": "address",
          "name": "owner",
          "type": "address"
        }
      ],
      "stateMutability": "view",
      "type": "function"
    },
    {
      "inputs": [
        {
          "internalType": "bytes32",
          "name": "_id",
          "type": "bytes32"
        },
        {
          "internalType": "uint256",
          "name": "_price",
          "type": "uint256"
        }
      ],
      "name": "bid",
      "outputs": [],
      "stateMutability": "payable",
      "type": "function"
    },
    {
      "inputs": [
        {
          "internalType": "address",
          "name": "_collection",
          "type": "address"
        },
        {
          "internalType": "uint256",
          "name": "_tokenId",
          "type": "uint256"
        },
        {
          "internalType": "address",
          "name": "_paymentToken",
          "type": "address"
        },
        {
          "internalType": "uint256",
          "name": "_minPrice",
          "type": "uint256"
        },
        {
          "internalType": "uint256",
          "name": "_startTime",
          "type": "uint256"
        },
        {
          "internalType": "uint256",
          "name": "_duration",
          "type": "uint256"
        },
        {
          "components": [
            {
              "internalType": "uint16",
              "name": "rate",
              "type": "uint16"
            },
            {
              "internalType": "address payable",
              "name": "recipient",
              "type": "address"
            }
          ],
          "internalType": "struct Fee[]",
          "name": "_fees",
          "type": "tuple[]"
        }
      ],
      "name": "createAuction",
      "outputs": [],
      "stateMutability": "nonpayable",
      "type": "function"
    },
    {
      "inputs": [],
      "name": "executionDelegate",
      "outputs": [
        {
          "internalType": "contract IExecutionDelegate",
          "name": "",
          "type": "address"
        }
      ],
      "stateMutability": "view",
      "type": "function"
    },
    {
      "inputs": [
        {
          "internalType": "bytes32",
          "name": "_id",
          "type": "bytes32"
        }
      ],
      "name": "finish",
      "outputs": [],
      "stateMutability": "nonpayable",
      "type": "function"
    },
    {
      "inputs": [
        {
          "internalType": "contract IExecutionDelegate",
          "name": "_executionDelegate",
          "type": "address"
        }
      ],
      "name": "initialize",
      "outputs": [],
      "stateMutability": "nonpayable",
      "type": "function"
    },
    {
      "inputs": [
        {
          "internalType": "address",
          "name": "",
          "type": "address"
        },
        {
          "internalType": "address",
          "name": "",
          "type": "address"
        },
        {
          "internalType": "uint256[]",
          "name": "",
          "type": "uint256[]"
        },
        {
          "internalType": "uint256[]",
          "name": "",
          "type": "uint256[]"
        },
        {
          "internalType": "bytes",
          "name": "",
          "type": "bytes"
        }
      ],
      "name": "onERC1155BatchReceived",
      "outputs": [
        {
          "internalType": "bytes4",
          "name": "",
          "type": "bytes4"
        }
      ],
      "stateMutability": "nonpayable",
      "type": "function"
    },
    {
      "inputs": [
        {
          "internalType": "address",
          "name": "",
          "type": "address"
        },
        {
          "internalType": "address",
          "name": "",
          "type": "address"
        },
        {
          "internalType": "uint256",
          "name": "",
          "type": "uint256"
        },
        {
          "internalType": "uint256",
          "name": "",
          "type": "uint256"
        },
        {
          "internalType": "bytes",
          "name": "",
          "type": "bytes"
        }
      ],
      "name": "onERC1155Received",
      "outputs": [
        {
          "internalType": "bytes4",
          "name": "",
          "type": "bytes4"
        }
      ],
      "stateMutability": "nonpayable",
      "type": "function"
    },
    {
      "inputs": [
        {
          "internalType": "address",
          "name": "",
          "type": "address"
        },
        {
          "internalType": "address",
          "name": "",
          "type": "address"
        },
        {
          "internalType": "uint256",
          "name": "",
          "type": "uint256"
        },
        {
          "internalType": "bytes",
          "name": "",
          "type": "bytes"
        }
      ],
      "name": "onERC721Received",
      "outputs": [
        {
          "internalType": "bytes4",
          "name": "",
          "type": "bytes4"
        }
      ],
      "stateMutability": "nonpayable",
      "type": "function"
    },
    {
      "inputs": [],
      "name": "owner",
      "outputs": [
        {
          "internalType": "address",
          "name": "",
          "type": "address"
        }
      ],
      "stateMutability": "view",
      "type": "function"
    },
    {
      "inputs": [],
      "name": "proxiableUUID",
      "outputs": [
        {
          "internalType": "bytes32",
          "name": "",
          "type": "bytes32"
        }
      ],
      "stateMutability": "view",
      "type": "function"
    },
    {
      "inputs": [],
      "name": "renounceOwnership",
      "outputs": [],
      "stateMutability": "nonpayable",
      "type": "function"
    },
    {
      "inputs": [
        {
          "internalType": "contract IExecutionDelegate",
          "name": "_executionDelegate",
          "type": "address"
        }
      ],
      "name": "setExecutionDelegate",
      "outputs": [],
      "stateMutability": "nonpayable",
      "type": "function"
    },
    {
      "inputs": [
        {
          "internalType": "bytes4",
          "name": "interfaceId",
          "type": "bytes4"
        }
      ],
      "name": "supportsInterface",
      "outputs": [
        {
          "internalType": "bool",
          "name": "",
          "type": "bool"
        }
      ],
      "stateMutability": "view",
      "type": "function"
    },
    {
      "inputs": [
        {
          "internalType": "address",
          "name": "newOwner",
          "type": "address"
        }
      ],
      "name": "transferOwnership",
      "outputs": [],
      "stateMutability": "nonpayable",
      "type": "function"
    },
    {
      "inputs": [
        {
          "internalType": "address",
          "name": "newImplementation",
          "type": "address"
        }
      ],
      "name": "upgradeTo",
      "outputs": [],
      "stateMutability": "nonpayable",
      "type": "function"
    },
    {
      "inputs": [
        {
          "internalType": "address",
          "name": "newImplementation",
          "type": "address"
        },
        {
          "internalType": "bytes",
          "name": "data",
          "type": "bytes"
        }
      ],
      "name": "upgradeToAndCall",
      "outputs": [],
      "stateMutability": "payable",
      "type": "function"
    }
  ],
  "transactionHash": "0xc01472280b5483c384f1c6a1528599903cd407e5d5c0cbe979a29ce12ff9865b",
  "args": [],
  "numDeployments": 6,
  "solcInputHash": "de5d1eb410c699c3141c12c446ab8a04",
  "bytecode": "0x60a06040523060805234801561001457600080fd5b5060016000556080516127fe610051600039600081816104a9015281816104e901528181610571015281816105b1015261062d01526127fe6000f3fe6080604052600436106100d95760003560e01c806301ffc9a7146100de578063037c9be214610113578063150b7a02146101355780631edbc5be146101625780633659cfe6146101f65780634f1ef2861461021657806352d1902d14610229578063715018a61461024c5780638da5cb5b14610261578063986c9b2014610283578063bc197c81146102a3578063be7f10f5146102cf578063c4d66de8146102ef578063cae6047f1461030f578063cd772f5c14610325578063f23a6e6114610338578063f2fde38b14610364578063fde6305614610384575b600080fd5b3480156100ea57600080fd5b506100fe6100f9366004611d9a565b6103a4565b60405190151581526020015b60405180910390f35b34801561011f57600080fd5b5061013361012e366004611dd9565b6103db565b005b34801561014157600080fd5b50610155610150366004611ed3565b61048e565b60405161010a9190611f3e565b34801561016e57600080fd5b506101df61017d366004611f53565b60ca60205260009081526040902080546001820154600283015460038401546004850154600586015460068701546007880154600889015460099099015460ff8916996001600160a01b03610100909a048a169997881697958616959091168b565b60405161010a9b9a99989796959493929190611f8f565b34801561020257600080fd5b50610133610211366004611dd9565b61049f565b610133610224366004612023565b610567565b34801561023557600080fd5b5061023e610620565b60405190815260200161010a565b34801561025857600080fd5b506101336106ce565b34801561026d57600080fd5b506102766106e2565b60405161010a9190612072565b34801561028f57600080fd5b5060cb54610276906001600160a01b031681565b3480156102af57600080fd5b506101556102be366004612114565b63bc197c8160e01b95945050505050565b3480156102db57600080fd5b506101336102ea3660046121d1565b6106f1565b3480156102fb57600080fd5b5061013361030a366004611dd9565b610b89565b34801561031b57600080fd5b5061023e61271081565b6101336103333660046122e7565b610cb6565b34801561034457600080fd5b50610155610353366004612309565b63f23a6e6160e01b95945050505050565b34801561037057600080fd5b5061013361037f366004611dd9565b611038565b34801561039057600080fd5b5061013361039f366004611f53565b6110ae565b60006001600160e01b03198216630271189760e51b14806103d557506301ffc9a760e01b6001600160e01b03198316145b92915050565b6103e3611362565b6001600160a01b0381166104375760405162461bcd60e51b8152602060048201526016602482015275416464726573732063616e6e6f74206265207a65726f60501b60448201526064015b60405180910390fd5b60cb80546001600160a01b0319166001600160a01b0383169081179091556040517ff9a0f356a7ef079355de09d32ce45cc3cfabc8f118681c19a17501f005a376ac9161048391612072565b60405180910390a150565b630a85bd0160e11b5b949350505050565b6001600160a01b037f00000000000000000000000000000000000000000000000000000000000000001630036104e75760405162461bcd60e51b815260040161042e90612371565b7f00000000000000000000000000000000000000000000000000000000000000006001600160a01b03166105196113c1565b6001600160a01b03161461053f5760405162461bcd60e51b815260040161042e906123bd565b610548816113dd565b60408051600080825260208201909252610564918391906113e5565b50565b6001600160a01b037f00000000000000000000000000000000000000000000000000000000000000001630036105af5760405162461bcd60e51b815260040161042e90612371565b7f00000000000000000000000000000000000000000000000000000000000000006001600160a01b03166105e16113c1565b6001600160a01b0316146106075760405162461bcd60e51b815260040161042e906123bd565b610610826113dd565b61061c828260016113e5565b5050565b6000306001600160a01b037f000000000000000000000000000000000000000000000000000000000000000016146106bb5760405162461bcd60e51b815260206004820152603860248201527f555550535570677261646561626c653a206d757374206e6f742062652063616c6044820152771b1959081d1a1c9bdd59da0819195b1959d85d1958d85b1b60421b606482015260840161042e565b506000805160206127ab83398151915290565b6106d6611362565b6106e06000611555565b565b6034546001600160a01b031690565b4283101561073f5760405162461bcd60e51b815260206004820152601b60248201527a41756374696f6e3a20696e76616c69642073746172742074696d6560281b604482015260640161042e565b6040516301ffc9a760e01b81526000906001600160a01b038916906301ffc9a790610775906380ac58cd60e01b90600401611f3e565b602060405180830381865afa158015610792573d6000803e3d6000fd5b505050506040513d601f19601f820116820180604052508101906107b69190612409565b156107c357506000610898565b6040516301ffc9a760e01b81526001600160a01b038916906301ffc9a7906107f690636cdb3d1360e11b90600401611f3e565b602060405180830381865afa158015610813573d6000803e3d6000fd5b505050506040513d601f19601f820116820180604052508101906108379190612409565b1561084457506001610898565b60405162461bcd60e51b815260206004820152602360248201527f41756374696f6e3a20696e76616c696420636f6c6c656374696f6e206164647260448201526265737360e81b606482015260840161042e565b6000610907898989896040516001600160601b031933606090811b8216602084015286811b821660348401526048830186905284901b166068820152607c810182905243609c82015260009060bc01604051602081830303815290604052805190602001209050949350505050565b600081815260ca602052604090208054919250908390829060ff19166001838181111561093657610936611f6c565b02179055508054610100600160a81b0319166101006001600160a01b038c811691909102919091178255600182018a90556002820180546001600160a01b031916918a1691909117905560038101879055600681018690556109988587612441565b6007820155600160088201556009810180546001600160a01b0319163317905560005b8451811015610a3e5781600a018582815181106109da576109da612454565b602090810291909101810151825460018101845560009384529282902081519301805491909201516001600160a01b031662010000026001600160b01b031990911661ffff9093169290921791909117905580610a368161246a565b9150506109bb565b506000836001811115610a5357610a53611f6c565b03610abf57604051632142170760e11b81526001600160a01b038b16906342842e0e90610a8890339030908e90600401612483565b600060405180830381600087803b158015610aa257600080fd5b505af1158015610ab6573d6000803e3d6000fd5b50505050610b25565b604051637921219560e11b81526001600160a01b038b169063f242432a90610af290339030908e906001906004016124a7565b600060405180830381600087803b158015610b0c57600080fd5b505af1158015610b20573d6000803e3d6000fd5b505050505b6001600160a01b038a16827f930f4300b68e9f43d3f2ed84493ffeffaf3469c27a2fa9b822b7180f9bf28ce98a8c8b8b610b5f8c82612441565b88600a01604051610b7596959493929190612536565b60405180910390a350505050505050505050565b600154610100900460ff1615808015610ba657506001805460ff16105b80610bc65750610bb5306115a7565b158015610bc657506001805460ff16145b610c295760405162461bcd60e51b815260206004820152602e60248201527f496e697469616c697a61626c653a20636f6e747261637420697320616c72656160448201526d191e481a5b9a5d1a585b1a5e995960921b606482015260840161042e565b6001805460ff1916811790558015610c4b576001805461ff0019166101001790555b610c536115b6565b60cb80546001600160a01b0319166001600160a01b038416179055801561061c576001805461ff00191681556040519081527f7f26b83ff96e1f2b6a682f133852f6798a09c465da95921460cefb38474024989060200160405180910390a15050565b600260005403610d085760405162461bcd60e51b815260206004820152601f60248201527f5265656e7472616e637947756172643a207265656e7472616e742063616c6c00604482015260640161042e565b6002600090815582815260ca60205260409020600701544210610d7c5760405162461bcd60e51b815260206004820152602660248201527f41756374696f6e3a20546869732061756374696f6e20616c72656164792066696044820152651b9a5cda195960d21b606482015260840161042e565b600082815260ca6020526040902060030154811015610df25760405162461bcd60e51b815260206004820152602c60248201527f41756374696f6e3a20626964207072696365206973206c6f77207468616e206d60448201526b696e696d756d20707269636560a01b606482015260840161042e565b600082815260ca60205260409020600501548111610e625760405162461bcd60e51b815260206004820152602760248201527f41756374696f6e3a20626964207072696365206973206c6f77207468616e206c604482015266617374206f6e6560c81b606482015260840161042e565b600082815260ca602052604090206004810180546005830180546001600160a01b03198316331790935584905560078301546001600160a01b039091169190610ead42610384612441565b1115610f0957610384836007016000828254610ec99190612441565b9091555050600783015460405190815285907f0268ffa9ab9e25f14e7f0a1c5fcfd253e78d8258af9dbc5a6cd3f4c9c64650a49060200160405180910390a25b6001600160a01b03821615610f7f5760028301546001600160a01b0316610f66576040516001600160a01b0383169082156108fc029083906000818181858888f19350505050158015610f60573d6000803e3d6000fd5b50610f7f565b6002830154610f7f906001600160a01b031683836115e5565b60028301546001600160a01b0316610fe357348414610fde5760405162461bcd60e51b815260206004820152601b60248201527a105d58dd1a5bdb8e881a5b9d985b1a5908195d1a08185b5bdd5b9d602a1b604482015260640161042e565b610ffd565b6002830154610ffd906001600160a01b0316333087611648565b6040518490339087907fb556ff269c1b6714f432c36431e2041d28436a73b6c3f19c021827bbdc6bfc2990600090a450506001600055505050565b611040611362565b6001600160a01b0381166110a55760405162461bcd60e51b815260206004820152602660248201527f4f776e61626c653a206e6577206f776e657220697320746865207a65726f206160448201526564647265737360d01b606482015260840161042e565b61056481611555565b600081815260ca6020526040902060070154421161110e5760405162461bcd60e51b815260206004820152601d60248201527f41756374696f6e3a2061756374696f6e206e6f742066696e6973686564000000604482015260640161042e565b600081815260ca60205260409020600901546001600160a01b031633148061114f5750600081815260ca60205260409020600401546001600160a01b031633145b6111ac5760405162461bcd60e51b815260206004820152602860248201527f41756374696f6e3a20646f6e27742068617665207065726d697373696f6e20746044820152670de40ccd2dcd2e6d60c31b606482015260840161042e565b600081815260ca60205260408120600401546001600160a01b03166111ec5750600081815260ca60205260409020600901546001600160a01b0316611209565b50600081815260ca60205260409020600401546001600160a01b03165b60cb54600083815260ca602052604080822080546001820154925163377c8e3960e11b815293946001600160a01b0390811694636ef91c729461125c9461010090940490921692600a019060040161257b565b600060405180830381865afa158015611279573d6000803e3d6000fd5b505050506040513d6000823e601f3d908101601f191682016040526112a191908101906125ab565b600084815260ca60205260409020600981015460028201546005909201549293506112dd926001600160a01b039182169290911690849061166f565b600083815260ca6020526040902080546001820154600890920154611316926001600160a01b036101008404169286929060ff166116aa565b600083815260ca602052604080822060050154905190916001600160a01b0385169186917fd698efed43caa57c551ea82d130cb267e986a6575baa1093173ab63a6dd28d3e91a4505050565b3361136b6106e2565b6001600160a01b0316146106e05760405162461bcd60e51b815260206004820181905260248201527f4f776e61626c653a2063616c6c6572206973206e6f7420746865206f776e6572604482015260640161042e565b6000805160206127ab833981519152546001600160a01b031690565b610564611362565b7f4910fdfa16fed3260ed0e7147f7cc6da11a60208b5b9406d12a635614ffd91435460ff161561141d57611418836117f8565b505050565b826001600160a01b03166352d1902d6040518163ffffffff1660e01b8152600401602060405180830381865afa925050508015611477575060408051601f3d908101601f1916820190925261147491810190612668565b60015b6114da5760405162461bcd60e51b815260206004820152602e60248201527f45524331393637557067726164653a206e657720696d706c656d656e7461746960448201526d6f6e206973206e6f74205555505360901b606482015260840161042e565b6000805160206127ab83398151915281146115495760405162461bcd60e51b815260206004820152602960248201527f45524331393637557067726164653a20756e737570706f727465642070726f786044820152681a58589b195555525160ba1b606482015260840161042e565b50611418838383611892565b603480546001600160a01b038381166001600160a01b0319831681179093556040519116919082907f8be0079c531659141344cd1fd0a4f28419497f9722a3daafe3b4186f6b6457e090600090a35050565b6001600160a01b03163b151590565b600154610100900460ff166115dd5760405162461bcd60e51b815260040161042e90612681565b6106e06118b7565b6040516001600160a01b03831660248201526044810182905261141890849063a9059cbb60e01b906064015b60408051601f198184030181529190526020810180516001600160e01b03166001600160e01b0319909316929092179091526118e7565b611669846323b872dd60e01b85858560405160240161161193929190612483565b50505050565b6001600160a01b0383166116895780341461168957600080fd5b60006116968385846119bc565b90506116a3848683611ad5565b5050505050565b843b6116f45760405162461bcd60e51b815260206004820152601960248201527810dbdb1b1958dd1a5bdb88191bd95cc81b9bdd08195e1a5cdd603a1b604482015260640161042e565b600081600181111561170857611708611f6c565b0361177457604051632142170760e11b81526001600160a01b038616906342842e0e9061173d90309088908890600401612483565b600060405180830381600087803b15801561175757600080fd5b505af115801561176b573d6000803e3d6000fd5b505050506116a3565b600181600181111561178857611788611f6c565b036116a357604051637921219560e11b81526001600160a01b0386169063f242432a906117bf9030908890889088906004016124a7565b600060405180830381600087803b1580156117d957600080fd5b505af11580156117ed573d6000803e3d6000fd5b505050505050505050565b611801816115a7565b6118635760405162461bcd60e51b815260206004820152602d60248201527f455243313936373a206e657720696d706c656d656e746174696f6e206973206e60448201526c1bdd08184818dbdb9d1c9858dd609a1b606482015260840161042e565b6000805160206127ab83398151915280546001600160a01b0319166001600160a01b0392909216919091179055565b61189b83611b3a565b6000825111806118a85750805b15611418576116698383611b7a565b600154610100900460ff166118de5760405162461bcd60e51b815260040161042e90612681565b6106e033611555565b600061193c826040518060400160405280602081526020017f5361666545524332303a206c6f772d6c6576656c2063616c6c206661696c6564815250856001600160a01b0316611ba69092919063ffffffff16565b905080516000148061195d57508080602001905181019061195d9190612409565b6114185760405162461bcd60e51b815260206004820152602a60248201527f5361666545524332303a204552433230206f7065726174696f6e20646964206e6044820152691bdd081cdd58d8d9595960b21b606482015260840161042e565b600080805b85518160ff161015611a59576000612710878360ff16815181106119e7576119e7612454565b60200260200101516000015161ffff1686611a0291906126cc565b611a0c91906126e3565b9050611a3986888460ff1681518110611a2757611a27612454565b60200260200101516020015183611ad5565b611a438184612441565b9250508080611a5190612705565b9150506119c1565b5082811115611abf5760405162461bcd60e51b815260206004820152602c60248201527f546f74616c20616d6f756e74206f66206665657320617265206d6f726520746860448201526b616e2074686520707269636560a01b606482015260840161042e565b6000611acb8285612724565b9695505050505050565b80600003611ae257505050565b6001600160a01b038316611b26576040516001600160a01b0383169082156108fc029083906000818181858888f19350505050158015611669573d6000803e3d6000fd5b6114186001600160a01b03841683836115e5565b611b43816117f8565b6040516001600160a01b038216907fbc7cd75a20ee27fd9adebab32041f755214dbc6bffa90cc0225b39da2e5c2d3b90600090a250565b6060611b9f83836040518060600160405280602781526020016127cb60279139611bb5565b9392505050565b60606104978484600085611c23565b6060600080856001600160a01b031685604051611bd2919061275b565b600060405180830381855af49150503d8060008114611c0d576040519150601f19603f3d011682016040523d82523d6000602084013e611c12565b606091505b5091509150611acb86838387611cfe565b606082471015611c845760405162461bcd60e51b815260206004820152602660248201527f416464726573733a20696e73756666696369656e742062616c616e636520666f6044820152651c8818d85b1b60d21b606482015260840161042e565b600080866001600160a01b03168587604051611ca0919061275b565b60006040518083038185875af1925050503d8060008114611cdd576040519150601f19603f3d011682016040523d82523d6000602084013e611ce2565b606091505b5091509150611cf387838387611cfe565b979650505050505050565b60608315611d6b578251600003611d6457611d18856115a7565b611d645760405162461bcd60e51b815260206004820152601d60248201527f416464726573733a2063616c6c20746f206e6f6e2d636f6e7472616374000000604482015260640161042e565b5081610497565b6104978383815115611d805781518083602001fd5b8060405162461bcd60e51b815260040161042e9190612777565b600060208284031215611dac57600080fd5b81356001600160e01b031981168114611b9f57600080fd5b6001600160a01b038116811461056457600080fd5b600060208284031215611deb57600080fd5b8135611b9f81611dc4565b634e487b7160e01b600052604160045260246000fd5b604080519081016001600160401b0381118282101715611e2e57611e2e611df6565b60405290565b604051601f8201601f191681016001600160401b0381118282101715611e5c57611e5c611df6565b604052919050565b600082601f830112611e7557600080fd5b81356001600160401b03811115611e8e57611e8e611df6565b611ea1601f8201601f1916602001611e34565b818152846020838601011115611eb657600080fd5b816020850160208301376000918101602001919091529392505050565b60008060008060808587031215611ee957600080fd5b8435611ef481611dc4565b93506020850135611f0481611dc4565b92506040850135915060608501356001600160401b03811115611f2657600080fd5b611f3287828801611e64565b91505092959194509250565b6001600160e01b031991909116815260200190565b600060208284031215611f6557600080fd5b5035919050565b634e487b7160e01b600052602160045260246000fd5b6001600160a01b03169052565b610160810160028d10611fb257634e487b7160e01b600052602160045260246000fd5b8c82526001600160a01b038c166020830152604082018b9052611fd8606083018b611f82565b886080830152611feb60a0830189611f82565b8660c08301528560e08301528461010083015283610120830152612013610140830184611f82565b9c9b505050505050505050505050565b6000806040838503121561203657600080fd5b823561204181611dc4565b915060208301356001600160401b0381111561205c57600080fd5b61206885828601611e64565b9150509250929050565b6001600160a01b0391909116815260200190565b60006001600160401b0382111561209f5761209f611df6565b5060051b60200190565b600082601f8301126120ba57600080fd5b813560206120cf6120ca83612086565b611e34565b82815260059290921b840181019181810190868411156120ee57600080fd5b8286015b8481101561210957803583529183019183016120f2565b509695505050505050565b600080600080600060a0868803121561212c57600080fd5b853561213781611dc4565b9450602086013561214781611dc4565b935060408601356001600160401b038082111561216357600080fd5b61216f89838a016120a9565b9450606088013591508082111561218557600080fd5b61219189838a016120a9565b935060808801359150808211156121a757600080fd5b506121b488828901611e64565b9150509295509295909350565b61ffff8116811461056457600080fd5b600080600080600080600060e0888a0312156121ec57600080fd5b87356121f781611dc4565b96506020888101359650604089013561220f81611dc4565b9550606089013594506080890135935060a0890135925060c08901356001600160401b0381111561223f57600080fd5b8901601f81018b1361225057600080fd5b803561225e6120ca82612086565b81815260069190911b8201830190838101908d83111561227d57600080fd5b928401925b828410156122d3576040848f03121561229b5760008081fd5b6122a3611e0c565b84356122ae816121c1565b8152848601356122bd81611dc4565b8187015282526040939093019290840190612282565b809550505050505092959891949750929550565b600080604083850312156122fa57600080fd5b50508035926020909101359150565b600080600080600060a0868803121561232157600080fd5b853561232c81611dc4565b9450602086013561233c81611dc4565b9350604086013592506060860135915060808601356001600160401b0381111561236557600080fd5b6121b488828901611e64565b6020808252602c908201527f46756e6374696f6e206d7573742062652063616c6c6564207468726f7567682060408201526b19195b1959d85d1958d85b1b60a21b606082015260800190565b6020808252602c908201527f46756e6374696f6e206d7573742062652063616c6c6564207468726f7567682060408201526b6163746976652070726f787960a01b606082015260800190565b60006020828403121561241b57600080fd5b81518015158114611b9f57600080fd5b634e487b7160e01b600052601160045260246000fd5b808201808211156103d5576103d561242b565b634e487b7160e01b600052603260045260246000fd5b60006001820161247c5761247c61242b565b5060010190565b6001600160a01b039384168152919092166020820152604081019190915260600190565b6001600160a01b0394851681529290931660208301526040820152606081019190915260a06080820181905260009082015260c00190565b6000815480845260208085019450836000528060002060005b8381101561252b57815461ffff8116885260101c6001600160a01b031683880152604090960195600191820191016124f8565b509495945050505050565b60018060a01b038716815285602082015284604082015283606082015282608082015260c060a0820152600061256f60c08301846124df565b98975050505050505050565b60018060a01b03841681528260208201526060604082015260006125a260608301846124df565b95945050505050565b600060208083850312156125be57600080fd5b82516001600160401b038111156125d457600080fd5b8301601f810185136125e557600080fd5b80516125f36120ca82612086565b81815260069190911b8201830190838101908783111561261257600080fd5b928401925b82841015611cf357604084890312156126305760008081fd5b612638611e0c565b8451612643816121c1565b81528486015161265281611dc4565b8187015282526040939093019290840190612617565b60006020828403121561267a57600080fd5b5051919050565b6020808252602b908201527f496e697469616c697a61626c653a20636f6e7472616374206973206e6f74206960408201526a6e697469616c697a696e6760a81b606082015260800190565b80820281158282048414176103d5576103d561242b565b60008261270057634e487b7160e01b600052601260045260246000fd5b500490565b600060ff821660ff810361271b5761271b61242b565b60010192915050565b818103818111156103d5576103d561242b565b60005b8381101561275257818101518382015260200161273a565b50506000910152565b6000825161276d818460208701612737565b9190910192915050565b6020815260008251806020840152612796816040850160208701612737565b601f01601f1916919091016040019291505056fe360894a13ba1a3210667c828492db98dca3e2076cc3735a920a3ca505d382bbc416464726573733a206c6f772d6c6576656c2064656c65676174652063616c6c206661696c6564a164736f6c6343000813000a",
  "devdoc": {
    "events": {
      "AdminChanged(address,address)": {
        "details": "Emitted when the admin account has changed."
      },
      "AuctionStarted(bytes32,address,address,uint256,uint256,uint256,uint256,(uint16,address)[])": {
        "details": "emit this event when auction started"
      },
      "AuctionTimeExtended(bytes32,uint256)": {
        "details": "emit this event when bid makes in 15 minutes from endTime"
      },
      "BeaconUpgraded(address)": {
        "details": "Emitted when the beacon is changed."
      },
      "Finished(bytes32,address,uint256)": {
        "details": "emit this event when auction finished"
      },
      "Initialized(uint8)": {
        "details": "Triggered when the contract has been initialized or reinitialized."
      },
      "NewBid(bytes32,address,uint256)": {
        "details": "emit this event when new bid added"
      },
      "Upgraded(address)": {
        "details": "Emitted when the implementation is upgraded."
      }
    },
    "kind": "dev",
    "methods": {
      "bid(bytes32,uint256)": {
        "details": "This functions changes last bid params, and release last bidder's token      and locks new bidder's token",
        "params": {
          "_id": "id of auction",
          "_price": "new bidding price"
        }
      },
      "createAuction(address,uint256,address,uint256,uint256,uint256,(uint16,address)[])": {
        "params": {
          "_collection": "address of collection",
          "_duration": "duration of auction",
          "_fees": "fee data",
          "_minPrice": "minimum price of bidF",
          "_paymentToken": "address of bid token",
          "_startTime": "time to start auction",
          "_tokenId": "token id of nft"
        }
      },
      "finish(bytes32)": {
        "details": "This function finishs auction.      Sends asset to winner and sends bid token to owner.",
        "params": {
          "_id": "id of auction"
        }
      },
      "initialize(address)": {
        "params": {
          "_executionDelegate": "execution delegate address"
        }
      },
      "onERC721Received(address,address,uint256,bytes)": {
        "details": "See {IERC721Receiver-onERC721Received}. Always returns `IERC721Receiver.onERC721Received.selector`."
      },
      "owner()": {
        "details": "Returns the address of the current owner."
      },
      "proxiableUUID()": {
        "details": "Implementation of the ERC1822 {proxiableUUID} function. This returns the storage slot used by the implementation. It is used to validate the implementation's compatibility when performing an upgrade. IMPORTANT: A proxy pointing at a proxiable contract should not be considered proxiable itself, because this risks bricking a proxy that upgrades to it, by delegating to itself until out of gas. Thus it is critical that this function revert if invoked through a proxy. This is guaranteed by the `notDelegated` modifier."
      },
      "renounceOwnership()": {
        "details": "Leaves the contract without owner. It will not be possible to call `onlyOwner` functions. Can only be called by the current owner. NOTE: Renouncing ownership will leave the contract without an owner, thereby disabling any functionality that is only available to the owner."
      },
      "supportsInterface(bytes4)": {
        "details": "See {IERC165-supportsInterface}."
      },
      "transferOwnership(address)": {
        "details": "Transfers ownership of the contract to a new account (`newOwner`). Can only be called by the current owner."
      },
      "upgradeTo(address)": {
        "custom:oz-upgrades-unsafe-allow-reachable": "delegatecall",
        "details": "Upgrade the implementation of the proxy to `newImplementation`. Calls {_authorizeUpgrade}. Emits an {Upgraded} event."
      },
      "upgradeToAndCall(address,bytes)": {
        "custom:oz-upgrades-unsafe-allow-reachable": "delegatecall",
        "details": "Upgrade the implementation of the proxy to `newImplementation`, and subsequently execute the function call encoded in `data`. Calls {_authorizeUpgrade}. Emits an {Upgraded} event."
      }
    },
    "stateVariables": {
      "auctions": {
        "details": "acutions"
      },
      "executionDelegate": {
        "details": "execution delegate"
      }
    },
    "title": "English Auction Manager Contract",
    "version": 1
  },
  "userdoc": {
    "kind": "user",
    "methods": {
      "bid(bytes32,uint256)": {
        "notice": "make a new bid"
      },
      "createAuction(address,uint256,address,uint256,uint256,uint256,(uint16,address)[])": {
        "notice": "create auction"
      },
      "finish(bytes32)": {
        "notice": "finish auction"
      }
    },
    "version": 1
  },
  "storageLayout": {
    "storage": [
      {
        "astId": 3595,
        "contract": "contracts/AuctionManage.sol:AuctionManager",
        "label": "_status",
        "offset": 0,
        "slot": "0",
        "type": "t_uint256"
      },
      {
        "astId": 503,
        "contract": "contracts/AuctionManage.sol:AuctionManager",
        "label": "_initialized",
        "offset": 0,
        "slot": "1",
        "type": "t_uint8"
      },
      {
        "astId": 506,
        "contract": "contracts/AuctionManage.sol:AuctionManager",
        "label": "_initializing",
        "offset": 1,
        "slot": "1",
        "type": "t_bool"
      },
      {
        "astId": 1172,
        "contract": "contracts/AuctionManage.sol:AuctionManager",
        "label": "__gap",
        "offset": 0,
        "slot": "2",
        "type": "t_array(t_uint256)50_storage"
      },
      {
        "astId": 10,
        "contract": "contracts/AuctionManage.sol:AuctionManager",
        "label": "_owner",
        "offset": 0,
        "slot": "52",
        "type": "t_address"
      },
      {
        "astId": 130,
        "contract": "contracts/AuctionManage.sol:AuctionManager",
        "label": "__gap",
        "offset": 0,
        "slot": "53",
        "type": "t_array(t_uint256)49_storage"
      },
      {
        "astId": 485,
        "contract": "contracts/AuctionManage.sol:AuctionManager",
        "label": "__gap",
        "offset": 0,
        "slot": "102",
        "type": "t_array(t_uint256)50_storage"
      },
      {
        "astId": 800,
        "contract": "contracts/AuctionManage.sol:AuctionManager",
        "label": "__gap",
        "offset": 0,
        "slot": "152",
        "type": "t_array(t_uint256)50_storage"
      },
      {
        "astId": 2598,
        "contract": "contracts/AuctionManage.sol:AuctionManager",
        "label": "auctions",
        "offset": 0,
        "slot": "202",
        "type": "t_mapping(t_bytes32,t_struct(Auction)3715_storage)"
      },
      {
        "astId": 2602,
        "contract": "contracts/AuctionManage.sol:AuctionManager",
        "label": "executionDelegate",
        "offset": 0,
        "slot": "203",
        "type": "t_contract(IExecutionDelegate)3584"
      }
    ],
    "types": {
      "t_address": {
        "encoding": "inplace",
        "label": "address",
        "numberOfBytes": "20"
      },
      "t_address_payable": {
        "encoding": "inplace",
        "label": "address payable",
        "numberOfBytes": "20"
      },
      "t_array(t_struct(Fee)3640_storage)dyn_storage": {
        "base": "t_struct(Fee)3640_storage",
        "encoding": "dynamic_array",
        "label": "struct Fee[]",
        "numberOfBytes": "32"
      },
      "t_array(t_uint256)49_storage": {
        "base": "t_uint256",
        "encoding": "inplace",
        "label": "uint256[49]",
        "numberOfBytes": "1568"
      },
      "t_array(t_uint256)50_storage": {
        "base": "t_uint256",
        "encoding": "inplace",
        "label": "uint256[50]",
        "numberOfBytes": "1600"
      },
      "t_bool": {
        "encoding": "inplace",
        "label": "bool",
        "numberOfBytes": "1"
      },
      "t_bytes32": {
        "encoding": "inplace",
        "label": "bytes32",
        "numberOfBytes": "32"
      },
      "t_contract(IExecutionDelegate)3584": {
        "encoding": "inplace",
        "label": "contract IExecutionDelegate",
        "numberOfBytes": "20"
      },
      "t_enum(AssetType)3635": {
        "encoding": "inplace",
        "label": "enum AssetType",
        "numberOfBytes": "1"
      },
      "t_mapping(t_bytes32,t_struct(Auction)3715_storage)": {
        "encoding": "mapping",
        "key": "t_bytes32",
        "label": "mapping(bytes32 => struct Auction)",
        "numberOfBytes": "32",
        "value": "t_struct(Auction)3715_storage"
      },
      "t_struct(Auction)3715_storage": {
        "encoding": "inplace",
        "label": "struct Auction",
        "members": [
          {
            "astId": 3690,
            "contract": "contracts/AuctionManage.sol:AuctionManager",
            "label": "assetType",
            "offset": 0,
            "slot": "0",
            "type": "t_enum(AssetType)3635"
          },
          {
            "astId": 3692,
            "contract": "contracts/AuctionManage.sol:AuctionManager",
            "label": "collection",
            "offset": 1,
            "slot": "0",
            "type": "t_address"
          },
          {
            "astId": 3694,
            "contract": "contracts/AuctionManage.sol:AuctionManager",
            "label": "tokenId",
            "offset": 0,
            "slot": "1",
            "type": "t_uint256"
          },
          {
            "astId": 3696,
            "contract": "contracts/AuctionManage.sol:AuctionManager",
            "label": "paymentToken",
            "offset": 0,
            "slot": "2",
            "type": "t_address"
          },
          {
            "astId": 3698,
            "contract": "contracts/AuctionManage.sol:AuctionManager",
            "label": "minPrice",
            "offset": 0,
            "slot": "3",
            "type": "t_uint256"
          },
          {
            "astId": 3700,
            "contract": "contracts/AuctionManage.sol:AuctionManager",
            "label": "lastBidder",
            "offset": 0,
            "slot": "4",
            "type": "t_address"
          },
          {
            "astId": 3702,
            "contract": "contracts/AuctionManage.sol:AuctionManager",
            "label": "bidPrice",
            "offset": 0,
            "slot": "5",
            "type": "t_uint256"
          },
          {
            "astId": 3704,
            "contract": "contracts/AuctionManage.sol:AuctionManager",
            "label": "startTime",
            "offset": 0,
            "slot": "6",
            "type": "t_uint256"
          },
          {
            "astId": 3706,
            "contract": "contracts/AuctionManage.sol:AuctionManager",
            "label": "endTime",
            "offset": 0,
            "slot": "7",
            "type": "t_uint256"
          },
          {
            "astId": 3708,
            "contract": "contracts/AuctionManage.sol:AuctionManager",
            "label": "amount",
            "offset": 0,
            "slot": "8",
            "type": "t_uint256"
          },
          {
            "astId": 3710,
            "contract": "contracts/AuctionManage.sol:AuctionManager",
            "label": "owner",
            "offset": 0,
            "slot": "9",
            "type": "t_address"
          },
          {
            "astId": 3714,
            "contract": "contracts/AuctionManage.sol:AuctionManager",
            "label": "fees",
            "offset": 0,
            "slot": "10",
            "type": "t_array(t_struct(Fee)3640_storage)dyn_storage"
          }
        ],
        "numberOfBytes": "352"
      },
      "t_struct(Fee)3640_storage": {
        "encoding": "inplace",
        "label": "struct Fee",
        "members": [
          {
            "astId": 3637,
            "contract": "contracts/AuctionManage.sol:AuctionManager",
            "label": "rate",
            "offset": 0,
            "slot": "0",
            "type": "t_uint16"
          },
          {
            "astId": 3639,
            "contract": "contracts/AuctionManage.sol:AuctionManager",
            "label": "recipient",
            "offset": 2,
            "slot": "0",
            "type": "t_address_payable"
          }
        ],
        "numberOfBytes": "32"
      },
      "t_uint16": {
        "encoding": "inplace",
        "label": "uint16",
        "numberOfBytes": "2"
      },
      "t_uint256": {
        "encoding": "inplace",
        "label": "uint256",
        "numberOfBytes": "32"
      },
      "t_uint8": {
        "encoding": "inplace",
        "label": "uint8",
        "numberOfBytes": "1"
      }
    }
  }
}