{
  "address": "0x5825A8E8d83a89E2220Ed0897bbba7DF7269c1cE",
  "abi": [
    {
      "inputs": [
        {
          "internalType": "string",
          "name": "_name",
          "type": "string"
        },
        {
          "internalType": "string",
          "name": "_symbol",
          "type": "string"
        },
        {
          "internalType": "string",
          "name": "_contractURI",
          "type": "string"
        },
        {
          "internalType": "address",
          "name": "_signer",
          "type": "address"
        },
        {
          "internalType": "address",
          "name": "_executionDelegate",
          "type": "address"
        }
      ],
      "stateMutability": "nonpayable",
      "type": "constructor"
    },
    {
      "anonymous": false,
      "inputs": [
        {
          "indexed": true,
          "internalType": "address",
          "name": "account",
          "type": "address"
        },
        {
          "indexed": true,
          "internalType": "address",
          "name": "operator",
          "type": "address"
        },
        {
          "indexed": false,
          "internalType": "bool",
          "name": "approved",
          "type": "bool"
        }
      ],
      "name": "ApprovalForAll",
      "type": "event"
    },
    {
      "anonymous": false,
      "inputs": [
        {
          "indexed": false,
          "internalType": "string",
          "name": "_contractURI",
          "type": "string"
        }
      ],
      "name": "ContractURIChanged",
      "type": "event"
    },
    {
      "anonymous": false,
      "inputs": [
        {
          "indexed": true,
          "internalType": "address",
          "name": "previousOwner",
          "type": "address"
        },
        {
          "indexed": true,
          "internalType": "address",
          "name": "newOwner",
          "type": "address"
        }
      ],
      "name": "OwnershipTransferred",
      "type": "event"
    },
    {
      "anonymous": false,
      "inputs": [
        {
          "indexed": true,
          "internalType": "address",
          "name": "signer",
          "type": "address"
        }
      ],
      "name": "SignerUpdated",
      "type": "event"
    },
    {
      "anonymous": false,
      "inputs": [
        {
          "indexed": true,
          "internalType": "address",
          "name": "exhibition",
          "type": "address"
        },
        {
          "indexed": false,
          "internalType": "string",
          "name": "name",
          "type": "string"
        },
        {
          "indexed": false,
          "internalType": "string",
          "name": "symbol",
          "type": "string"
        },
        {
          "indexed": false,
          "internalType": "string",
          "name": "contractURI",
          "type": "string"
        },
        {
          "indexed": false,
          "internalType": "address",
          "name": "owner",
          "type": "address"
        }
      ],
      "name": "SuperChiefExhibitonCreated",
      "type": "event"
    },
    {
      "anonymous": false,
      "inputs": [
        {
          "indexed": false,
          "internalType": "uint256",
          "name": "tokenId",
          "type": "uint256"
        },
        {
          "indexed": false,
          "internalType": "address",
          "name": "owner",
          "type": "address"
        },
        {
          "indexed": false,
          "internalType": "uint256",
          "name": "amount",
          "type": "uint256"
        },
        {
          "indexed": false,
          "internalType": "string",
          "name": "tokenUri",
          "type": "string"
        }
      ],
      "name": "SuperChiefNftMinted",
      "type": "event"
    },
    {
      "anonymous": false,
      "inputs": [
        {
          "indexed": true,
          "internalType": "address",
          "name": "operator",
          "type": "address"
        },
        {
          "indexed": true,
          "internalType": "address",
          "name": "from",
          "type": "address"
        },
        {
          "indexed": true,
          "internalType": "address",
          "name": "to",
          "type": "address"
        },
        {
          "indexed": false,
          "internalType": "uint256[]",
          "name": "ids",
          "type": "uint256[]"
        },
        {
          "indexed": false,
          "internalType": "uint256[]",
          "name": "values",
          "type": "uint256[]"
        }
      ],
      "name": "SuperChiefTransferBatch",
      "type": "event"
    },
    {
      "anonymous": false,
      "inputs": [
        {
          "indexed": true,
          "internalType": "address",
          "name": "operator",
          "type": "address"
        },
        {
          "indexed": true,
          "internalType": "address",
          "name": "from",
          "type": "address"
        },
        {
          "indexed": true,
          "internalType": "address",
          "name": "to",
          "type": "address"
        },
        {
          "indexed": false,
          "internalType": "uint256",
          "name": "id",
          "type": "uint256"
        },
        {
          "indexed": false,
          "internalType": "uint256",
          "name": "value",
          "type": "uint256"
        }
      ],
      "name": "SuperChiefTransferSingle",
      "type": "event"
    },
    {
      "anonymous": false,
      "inputs": [
        {
          "indexed": true,
          "internalType": "address",
          "name": "operator",
          "type": "address"
        },
        {
          "indexed": true,
          "internalType": "address",
          "name": "from",
          "type": "address"
        },
        {
          "indexed": true,
          "internalType": "address",
          "name": "to",
          "type": "address"
        },
        {
          "indexed": false,
          "internalType": "uint256[]",
          "name": "ids",
          "type": "uint256[]"
        },
        {
          "indexed": false,
          "internalType": "uint256[]",
          "name": "values",
          "type": "uint256[]"
        }
      ],
      "name": "TransferBatch",
      "type": "event"
    },
    {
      "anonymous": false,
      "inputs": [
        {
          "indexed": true,
          "internalType": "address",
          "name": "operator",
          "type": "address"
        },
        {
          "indexed": true,
          "internalType": "address",
          "name": "from",
          "type": "address"
        },
        {
          "indexed": true,
          "internalType": "address",
          "name": "to",
          "type": "address"
        },
        {
          "indexed": false,
          "internalType": "uint256",
          "name": "id",
          "type": "uint256"
        },
        {
          "indexed": false,
          "internalType": "uint256",
          "name": "value",
          "type": "uint256"
        }
      ],
      "name": "TransferSingle",
      "type": "event"
    },
    {
      "anonymous": false,
      "inputs": [
        {
          "indexed": false,
          "internalType": "string",
          "name": "value",
          "type": "string"
        },
        {
          "indexed": true,
          "internalType": "uint256",
          "name": "id",
          "type": "uint256"
        }
      ],
      "name": "URI",
      "type": "event"
    },
    {
      "inputs": [
        {
          "internalType": "address",
          "name": "account",
          "type": "address"
        },
        {
          "internalType": "uint256",
          "name": "id",
          "type": "uint256"
        }
      ],
      "name": "balanceOf",
      "outputs": [
        {
          "internalType": "uint256",
          "name": "",
          "type": "uint256"
        }
      ],
      "stateMutability": "view",
      "type": "function"
    },
    {
      "inputs": [
        {
          "internalType": "address[]",
          "name": "accounts",
          "type": "address[]"
        },
        {
          "internalType": "uint256[]",
          "name": "ids",
          "type": "uint256[]"
        }
      ],
      "name": "balanceOfBatch",
      "outputs": [
        {
          "internalType": "uint256[]",
          "name": "",
          "type": "uint256[]"
        }
      ],
      "stateMutability": "view",
      "type": "function"
    },
    {
      "inputs": [],
      "name": "contractURI",
      "outputs": [
        {
          "internalType": "string",
          "name": "",
          "type": "string"
        }
      ],
      "stateMutability": "view",
      "type": "function"
    },
    {
      "inputs": [],
      "name": "executionDelegate",
      "outputs": [
        {
          "internalType": "contract IExecutionDelegate",
          "name": "",
          "type": "address"
        }
      ],
      "stateMutability": "view",
      "type": "function"
    },
    {
      "inputs": [
        {
          "internalType": "address",
          "name": "account",
          "type": "address"
        },
        {
          "internalType": "address",
          "name": "operator",
          "type": "address"
        }
      ],
      "name": "isApprovedForAll",
      "outputs": [
        {
          "internalType": "bool",
          "name": "",
          "type": "bool"
        }
      ],
      "stateMutability": "view",
      "type": "function"
    },
    {
      "inputs": [],
      "name": "maxId",
      "outputs": [
        {
          "internalType": "uint256",
          "name": "",
          "type": "uint256"
        }
      ],
      "stateMutability": "view",
      "type": "function"
    },
    {
      "inputs": [
        {
          "internalType": "address",
          "name": "to",
          "type": "address"
        },
        {
          "internalType": "uint256",
          "name": "amount",
          "type": "uint256"
        },
        {
          "internalType": "string",
          "name": "tokenUri",
          "type": "string"
        },
        {
          "components": [
            {
              "internalType": "bytes32",
              "name": "r",
              "type": "bytes32"
            },
            {
              "internalType": "bytes32",
              "name": "s",
              "type": "bytes32"
            },
            {
              "internalType": "uint8",
              "name": "v",
              "type": "uint8"
            }
          ],
          "internalType": "struct Sig",
          "name": "sig",
          "type": "tuple"
        },
        {
          "internalType": "uint96",
          "name": "feeRate",
          "type": "uint96"
        },
        {
          "internalType": "address",
          "name": "receiver",
          "type": "address"
        }
      ],
      "name": "mint",
      "outputs": [
        {
          "internalType": "uint256",
          "name": "",
          "type": "uint256"
        }
      ],
      "stateMutability": "nonpayable",
      "type": "function"
    },
    {
      "inputs": [],
      "name": "name",
      "outputs": [
        {
          "internalType": "string",
          "name": "",
          "type": "string"
        }
      ],
      "stateMutability": "view",
      "type": "function"
    },
    {
      "inputs": [
        {
          "internalType": "address",
          "name": "",
          "type": "address"
        },
        {
          "internalType": "address",
          "name": "",
          "type": "address"
        },
        {
          "internalType": "uint256[]",
          "name": "",
          "type": "uint256[]"
        },
        {
          "internalType": "uint256[]",
          "name": "",
          "type": "uint256[]"
        },
        {
          "internalType": "bytes",
          "name": "",
          "type": "bytes"
        }
      ],
      "name": "onERC1155BatchReceived",
      "outputs": [
        {
          "internalType": "bytes4",
          "name": "",
          "type": "bytes4"
        }
      ],
      "stateMutability": "nonpayable",
      "type": "function"
    },
    {
      "inputs": [
        {
          "internalType": "address",
          "name": "",
          "type": "address"
        },
        {
          "internalType": "address",
          "name": "",
          "type": "address"
        },
        {
          "internalType": "uint256",
          "name": "",
          "type": "uint256"
        },
        {
          "internalType": "uint256",
          "name": "",
          "type": "uint256"
        },
        {
          "internalType": "bytes",
          "name": "",
          "type": "bytes"
        }
      ],
      "name": "onERC1155Received",
      "outputs": [
        {
          "internalType": "bytes4",
          "name": "",
          "type": "bytes4"
        }
      ],
      "stateMutability": "nonpayable",
      "type": "function"
    },
    {
      "inputs": [],
      "name": "owner",
      "outputs": [
        {
          "internalType": "address",
          "name": "",
          "type": "address"
        }
      ],
      "stateMutability": "view",
      "type": "function"
    },
    {
      "inputs": [],
      "name": "renounceOwnership",
      "outputs": [],
      "stateMutability": "nonpayable",
      "type": "function"
    },
    {
      "inputs": [
        {
          "internalType": "uint256",
          "name": "tokenId",
          "type": "uint256"
        },
        {
          "internalType": "uint256",
          "name": "salePrice",
          "type": "uint256"
        }
      ],
      "name": "royaltyInfo",
      "outputs": [
        {
          "internalType": "address",
          "name": "",
          "type": "address"
        },
        {
          "internalType": "uint256",
          "name": "",
          "type": "uint256"
        }
      ],
      "stateMutability": "view",
      "type": "function"
    },
    {
      "inputs": [
        {
          "internalType": "address",
          "name": "from",
          "type": "address"
        },
        {
          "internalType": "address",
          "name": "to",
          "type": "address"
        },
        {
          "internalType": "uint256[]",
          "name": "ids",
          "type": "uint256[]"
        },
        {
          "internalType": "uint256[]",
          "name": "amounts",
          "type": "uint256[]"
        },
        {
          "internalType": "bytes",
          "name": "data",
          "type": "bytes"
        }
      ],
      "name": "safeBatchTransferFrom",
      "outputs": [],
      "stateMutability": "nonpayable",
      "type": "function"
    },
    {
      "inputs": [
        {
          "internalType": "address",
          "name": "from",
          "type": "address"
        },
        {
          "internalType": "address",
          "name": "to",
          "type": "address"
        },
        {
          "internalType": "uint256",
          "name": "id",
          "type": "uint256"
        },
        {
          "internalType": "uint256",
          "name": "amount",
          "type": "uint256"
        },
        {
          "internalType": "bytes",
          "name": "data",
          "type": "bytes"
        }
      ],
      "name": "safeTransferFrom",
      "outputs": [],
      "stateMutability": "nonpayable",
      "type": "function"
    },
    {
      "inputs": [
        {
          "internalType": "address",
          "name": "operator",
          "type": "address"
        },
        {
          "internalType": "bool",
          "name": "approved",
          "type": "bool"
        }
      ],
      "name": "setApprovalForAll",
      "outputs": [],
      "stateMutability": "nonpayable",
      "type": "function"
    },
    {
      "inputs": [
        {
          "internalType": "string",
          "name": "_contractURI",
          "type": "string"
        }
      ],
      "name": "setContractURI",
      "outputs": [],
      "stateMutability": "nonpayable",
      "type": "function"
    },
    {
      "inputs": [],
      "name": "signer",
      "outputs": [
        {
          "internalType": "address",
          "name": "",
          "type": "address"
        }
      ],
      "stateMutability": "view",
      "type": "function"
    },
    {
      "inputs": [
        {
          "internalType": "bytes4",
          "name": "interfaceId",
          "type": "bytes4"
        }
      ],
      "name": "supportsInterface",
      "outputs": [
        {
          "internalType": "bool",
          "name": "",
          "type": "bool"
        }
      ],
      "stateMutability": "view",
      "type": "function"
    },
    {
      "inputs": [],
      "name": "symbol",
      "outputs": [
        {
          "internalType": "string",
          "name": "",
          "type": "string"
        }
      ],
      "stateMutability": "view",
      "type": "function"
    },
    {
      "inputs": [
        {
          "internalType": "address",
          "name": "newOwner",
          "type": "address"
        }
      ],
      "name": "transferOwnership",
      "outputs": [],
      "stateMutability": "nonpayable",
      "type": "function"
    },
    {
      "inputs": [
        {
          "internalType": "address",
          "name": "_signer",
          "type": "address"
        }
      ],
      "name": "updateSigner",
      "outputs": [],
      "stateMutability": "nonpayable",
      "type": "function"
    },
    {
      "inputs": [
        {
          "internalType": "uint256",
          "name": "tokenId",
          "type": "uint256"
        }
      ],
      "name": "uri",
      "outputs": [
        {
          "internalType": "string",
          "name": "",
          "type": "string"
        }
      ],
      "stateMutability": "view",
      "type": "function"
    }
  ],
  "transactionHash": "0xa123dc1b9eea9d2a685da45b91487feb5faeb3451f85d2c1caa493b3369e2da2",
  "args": [
    "Test Exhibition",
    "TE",
    "",
    "0xa2E6F8392CF06f611C10764aA50F20E41aD30d23",
    "0x75b986415756ACDdCC5830fDF383EBbAa37608C2"
  ],
  "numDeployments": 1,
  "solcInputHash": "fa97f7343770aacf15ca0c42476b72fe",
  "bytecode": "0x60a0604052600060809081526003906200001a908262000323565b503480156200002857600080fd5b5060405162002c7a38038062002c7a8339810160408190526200004b91620004c3565b848484836040518060200160405280600081525062000070816200016460201b60201c565b506200007c3362000176565b60086200008a858262000323565b50600962000099848262000323565b50600c80546001600160a01b0319166001600160a01b038316179055620000c082620001c8565b5050600e80546001600160a01b0319166001600160a01b038616179055505060405130907fddadf1e7238704bf9a6fe3d7e7bf932397428ecfe504880780d28310467a561c9062000119908890889088903390620005a8565b60405180910390a2600e546040516001600160a01b03909116907f5553331329228fbd4123164423717a4a7539f6dfa1c3279a923b98fd681a6c7390600090a250505050506200061d565b600262000172828262000323565b5050565b600780546001600160a01b038381166001600160a01b0319831681179093556040519116919082907f8be0079c531659141344cd1fd0a4f28419497f9722a3daafe3b4186f6b6457e090600090a35050565b620001d26200021d565b600a620001e0828262000323565b507fd5ee5eaf65263bab5d569890714d123ad48a9e54409d35e71d374f3dd300bba08160405162000212919062000601565b60405180910390a150565b6007546001600160a01b031633146200027c5760405162461bcd60e51b815260206004820181905260248201527f4f776e61626c653a2063616c6c6572206973206e6f7420746865206f776e6572604482015260640160405180910390fd5b565b634e487b7160e01b600052604160045260246000fd5b600181811c90821680620002a957607f821691505b602082108103620002ca57634e487b7160e01b600052602260045260246000fd5b50919050565b601f8211156200031e57600081815260208120601f850160051c81016020861015620002f95750805b601f850160051c820191505b818110156200031a5782815560010162000305565b5050505b505050565b81516001600160401b038111156200033f576200033f6200027e565b620003578162000350845462000294565b84620002d0565b602080601f8311600181146200038f5760008415620003765750858301515b600019600386901b1c1916600185901b1785556200031a565b600085815260208120601f198616915b82811015620003c0578886015182559484019460019091019084016200039f565b5085821015620003df5787850151600019600388901b60f8161c191681555b5050505050600190811b01905550565b60005b838110156200040c578181015183820152602001620003f2565b50506000910152565b600082601f8301126200042757600080fd5b81516001600160401b03808211156200044457620004446200027e565b604051601f8301601f19908116603f011681019082821181831017156200046f576200046f6200027e565b816040528381528660208588010111156200048957600080fd5b6200049c846020830160208901620003ef565b9695505050505050565b80516001600160a01b0381168114620004be57600080fd5b919050565b600080600080600060a08688031215620004dc57600080fd5b85516001600160401b0380821115620004f457600080fd5b6200050289838a0162000415565b965060208801519150808211156200051957600080fd5b6200052789838a0162000415565b955060408801519150808211156200053e57600080fd5b506200054d8882890162000415565b9350506200055e60608701620004a6565b91506200056e60808701620004a6565b90509295509295909350565b6000815180845262000594816020860160208601620003ef565b601f01601f19169290920160200192915050565b608081526000620005bd60808301876200057a565b8281036020840152620005d181876200057a565b90508281036040840152620005e781866200057a565b91505060018060a01b038316606083015295945050505050565b6020815260006200061660208301846200057a565b9392505050565b61264d806200062d6000396000f3fe608060405234801561001057600080fd5b506004361061011c5760003560e01c8062fdd58e1461012157806301ffc9a71461014757806306fdde031461016a57806307efad301461017f5780630e89341c14610192578063238ac933146101a55780632a55205a146101c55780632eb2c2d6146101f75780634e1273f41461020c578063715018a61461022c5780638da5cb5b14610234578063938e3d7b1461023c57806395d89b411461024f578063986c9b2014610257578063a22cb4651461026a578063a7ecd37e1461027d578063bc197c8114610290578063c5ea3c65146102c8578063e8a3d485146102d1578063e985e9c5146102d9578063f23a6e6114610315578063f242432a14610334578063f2fde38b14610347575b600080fd5b61013461012f366004611a4a565b61035a565b6040519081526020015b60405180910390f35b61015a610155366004611a8a565b6103f3565b604051901515815260200161013e565b610172610469565b60405161013e9190611af7565b61013461018d366004611b39565b6104f7565b6101726101a0366004611bf9565b610686565b600e546101b8906001600160a01b031681565b60405161013e9190611c12565b6101d86101d3366004611c26565b610766565b604080516001600160a01b03909316835260208301919091520161013e565b61020a610205366004611d9b565b610812565b005b61021f61021a366004611e44565b61085e565b60405161013e9190611f49565b61020a610987565b6101b861099b565b61020a61024a366004611f5c565b6109aa565b6101726109f9565b600c546101b8906001600160a01b031681565b61020a610278366004611fba565b610a06565b61020a61028b366004611ff1565b610a15565b6102af61029e366004611d9b565b63bc197c8160e01b95945050505050565b6040516001600160e01b0319909116815260200161013e565b610134600d5481565b610172610a67565b61015a6102e736600461200c565b6001600160a01b03918216600090815260016020908152604080832093909416825291909152205460ff1690565b6102af61032336600461203f565b63f23a6e6160e01b95945050505050565b61020a61034236600461203f565b610a74565b61020a610355366004611ff1565b610ab9565b60006001600160a01b0383166103ca5760405162461bcd60e51b815260206004820152602a60248201527f455243313135353a2061646472657373207a65726f206973206e6f742061207660448201526930b634b21037bbb732b960b11b60648201526084015b60405180910390fd5b506000818152602081815260408083206001600160a01b03861684529091529020545b92915050565b60006001600160e01b03198216636cdb3d1360e11b148061042457506001600160e01b031982166303a24d0760e21b145b8061043f57506001600160e01b0319821663152a902d60e11b145b8061045a57506001600160e01b03198216630271189760e51b145b806103ed57506103ed82610b32565b60088054610476906120a3565b80601f01602080910402602001604051908101604052809291908181526020018280546104a2906120a3565b80156104ef5780601f106104c4576101008083540402835291602001916104ef565b820191906000526020600020905b8154815290600101906020018083116104d257829003601f168201915b505050505081565b6000610504888886610b57565b6105445760405162461bcd60e51b8152602060048201526011602482015270496e76616c6964207369676e617475726560781b60448201526064016103c1565b610708836001600160601b031611156105b55760405162461bcd60e51b815260206004820152602d60248201527f537570657243686965663a2063726561746f7220666565206d7573742062652060448201526c6c657373207468616e2031382560981b60648201526084016103c1565b600d80549060006105c5836120ed565b91905055506105e788600d548960405180602001604052806000815250610c84565b610629600d5487878080601f016020809104026020016040519081016040528093929190818152602001838380828437600092019190915250610ccd92505050565b610636600d548385610d2a565b7f56b4786b6decf6289ff33667699d3216ea7bc8b79327262d8a3f8b7f1de7c702600d548989898960405161066f959493929190612106565b60405180910390a150600d54979650505050505050565b6000818152600460205260408120805460609291906106a4906120a3565b80601f01602080910402602001604051908101604052809291908181526020018280546106d0906120a3565b801561071d5780601f106106f25761010080835404028352916020019161071d565b820191906000526020600020905b81548152906001019060200180831161070057829003601f168201915b50505050509050600081511161073b5761073683610e36565b61075f565b60038160405160200161074f929190612155565b6040516020818303038152906040525b9392505050565b60008281526006602090815260408083208151808301909252546001600160a01b038116808352600160a01b9091046001600160601b03169282019290925282916107db5750604080518082019091526005546001600160a01b0381168252600160a01b90046001600160601b031660208201525b6020810151600090612710906107fa906001600160601b0316876121dc565b61080491906121f3565b915196919550909350505050565b6001600160a01b03851633148061082e575061082e85336102e7565b61084a5760405162461bcd60e51b81526004016103c190612215565b6108578585858585610eca565b5050505050565b606081518351146108c35760405162461bcd60e51b815260206004820152602960248201527f455243313135353a206163636f756e747320616e6420696473206c656e677468604482015268040dad2e6dac2e8c6d60bb1b60648201526084016103c1565b600083516001600160401b038111156108de576108de611c48565b604051908082528060200260200182016040528015610907578160200160208202803683370190505b50905060005b845181101561097f5761095285828151811061092b5761092b612263565b602002602001015185838151811061094557610945612263565b602002602001015161035a565b82828151811061096457610964612263565b6020908102919091010152610978816120ed565b905061090d565b509392505050565b61098f6110b5565b6109996000611114565b565b6007546001600160a01b031690565b6109b26110b5565b600a6109be82826122c4565b507fd5ee5eaf65263bab5d569890714d123ad48a9e54409d35e71d374f3dd300bba0816040516109ee9190611af7565b60405180910390a150565b60098054610476906120a3565b610a11338383611166565b5050565b610a1d6110b5565b600e80546001600160a01b0319166001600160a01b0383169081179091556040517f5553331329228fbd4123164423717a4a7539f6dfa1c3279a923b98fd681a6c7390600090a250565b600a8054610476906120a3565b6001600160a01b038516331480610a905750610a9085336102e7565b610aac5760405162461bcd60e51b81526004016103c190612215565b6108578585858585611246565b610ac16110b5565b6001600160a01b038116610b265760405162461bcd60e51b815260206004820152602660248201527f4f776e61626c653a206e6577206f776e657220697320746865207a65726f206160448201526564647265737360d01b60648201526084016103c1565b610b2f81611114565b50565b60006001600160e01b0319821663152a902d60e11b14806103ed57506103ed826112ef565b6040805133606090811b6001600160601b03199081166020808501919091526034840187905287831b821660548501523090921b1660688301528251605c818403018152607c830190935282519201919091207b0ca2ba3432b932bab69029b4b3b732b21026b2b9b9b0b3b29d05199960211b609c83015260b88201819052600091829060d801604051602081830303815290604052805190602001209050600181856040016020810190610c0c9190612383565b604080516000815260208181018084529490945260ff909216908201528635606082015290860135608082015260a0016020604051602081039080840390855afa158015610c5e573d6000803e3d6000fd5b5050604051601f190151600e546001600160a01b03918216911614979650505050505050565b610c9030848484611314565b6000838152600b602090815260408083206001600160a01b038816845290915281208054849290610cc29084906123a6565b909155505050505050565b6000828152600460205260409020610ce582826122c4565b50817f6bb7ff708619ba0610cba295a58592e0451dee2622938c8755667688daf3529b610d1184610686565b604051610d1e9190611af7565b60405180910390a25050565b6127106001600160601b0382161115610d985760405162461bcd60e51b815260206004820152602a60248201527f455243323938313a20726f79616c7479206665652077696c6c206578636565646044820152692073616c65507269636560b01b60648201526084016103c1565b6001600160a01b038216610dec5760405162461bcd60e51b815260206004820152601b60248201527a455243323938313a20496e76616c696420706172616d657465727360281b60448201526064016103c1565b6040805180820182526001600160a01b0393841681526001600160601b0392831660208083019182526000968752600690529190942093519051909116600160a01b029116179055565b606060028054610e45906120a3565b80601f0160208091040260200160405190810160405280929190818152602001828054610e71906120a3565b8015610ebe5780601f10610e9357610100808354040283529160200191610ebe565b820191906000526020600020905b815481529060010190602001808311610ea157829003601f168201915b50505050509050919050565b8151835114610f2c5760405162461bcd60e51b815260206004820152602860248201527f455243313135353a2069647320616e6420616d6f756e7473206c656e677468206044820152670dad2e6dac2e8c6d60c31b60648201526084016103c1565b6001600160a01b038416610f525760405162461bcd60e51b81526004016103c1906123b9565b33610f61818787878787611437565b60005b8451811015611047576000858281518110610f8157610f81612263565b602002602001015190506000858381518110610f9f57610f9f612263565b602090810291909101810151600084815280835260408082206001600160a01b038e168352909352919091205490915081811015610fef5760405162461bcd60e51b81526004016103c1906123fe565b6000838152602081815260408083206001600160a01b038e8116855292528083208585039055908b1682528120805484929061102c9084906123a6565b9250508190555050505080611040906120ed565b9050610f64565b50846001600160a01b0316866001600160a01b0316826001600160a01b03167f4a39dc06d4c0dbc64b70af90fd698a233a518aa5d07e595d983b8c0526c8f7fb8787604051611097929190612448565b60405180910390a46110ad818787878787611628565b505050505050565b336110be61099b565b6001600160a01b0316146109995760405162461bcd60e51b815260206004820181905260248201527f4f776e61626c653a2063616c6c6572206973206e6f7420746865206f776e657260448201526064016103c1565b600780546001600160a01b038381166001600160a01b0319831681179093556040519116919082907f8be0079c531659141344cd1fd0a4f28419497f9722a3daafe3b4186f6b6457e090600090a35050565b816001600160a01b0316836001600160a01b0316036111d95760405162461bcd60e51b815260206004820152602960248201527f455243313135353a2073657474696e6720617070726f76616c20737461747573604482015268103337b91039b2b63360b91b60648201526084016103c1565b6001600160a01b03838116600081815260016020908152604080832094871680845294825291829020805460ff191686151590811790915591519182527f17307eab39ab6107e8899845ad3d59bd9653f200f220920489ca2b5937696c31910160405180910390a3505050565b6000838152600b602090815260408083206001600160a01b038916845290915290205482116112e2576001600160a01b03851633148061128b575061128b85336102e7565b6112a75760405162461bcd60e51b81526004016103c190612215565b6112b4308585858561178a565b6000838152600b602090815260408083206001600160a01b0389168452909152902080548390039055610857565b610857858585858561178a565b60006001600160e01b03198216630271189760e51b14806103ed57506103ed826118c2565b6001600160a01b0384166113745760405162461bcd60e51b815260206004820152602160248201527f455243313135353a206d696e7420746f20746865207a65726f206164647265736044820152607360f81b60648201526084016103c1565b33600061138085611912565b9050600061138d85611912565b905061139e83600089858589611437565b6000868152602081815260408083206001600160a01b038b168452909152812080548792906113ce9084906123a6565b909155505060408051878152602081018790526001600160a01b03808a1692600092918716917fc3d58168c5ae7397731d063d5bbf3d657854427343f4c083240f7aacaa2d0f62910160405180910390a461142e8360008989898961195d565b50505050505050565b63ffffffff333b1615806114555750600c546001600160a01b031633145b806114cc5750600c546040516369dc9ff360e01b81526001600160a01b03909116906369dc9ff39061148b903390600401611c12565b602060405180830381865afa1580156114a8573d6000803e3d6000fd5b505050506040513d601f19601f820116820180604052508101906114cc9190612476565b6115275760405162461bcd60e51b815260206004820152602660248201527f53757065724368696566436f6c6c656374696f6e3a20696e76616c696420657860448201526532b1baba37b960d11b60648201526084016103c1565b82516001036115c957836001600160a01b0316856001600160a01b0316876001600160a01b03167fd48ad9d92eb2bee871bfd6a85c5f2180ed816c399fd1badf4822ae9dc81142088660008151811061158257611582612263565b60200260200101518660008151811061159d5761159d612263565b60200260200101516040516115bc929190918252602082015260400190565b60405180910390a46110ad565b836001600160a01b0316856001600160a01b0316876001600160a01b03167f49876febbe0ea912b4ec921d511c6362238d93026319b1e8ccbe949ec5512d6b8686604051611618929190612448565b60405180910390a4505050505050565b61163a846001600160a01b0316611a1f565b156110ad5760405163bc197c8160e01b81526001600160a01b0385169063bc197c81906116739089908990889088908890600401612493565b6020604051808303816000875af19250505080156116ae575060408051601f3d908101601f191682019092526116ab918101906124f1565b60015b61175a576116ba61250e565b806308c379a0036116f357506116ce61252a565b806116d957506116f5565b8060405162461bcd60e51b81526004016103c19190611af7565b505b60405162461bcd60e51b815260206004820152603460248201527f455243313135353a207472616e7366657220746f206e6f6e2d455243313135356044820152732932b1b2b4bb32b91034b6b83632b6b2b73a32b960611b60648201526084016103c1565b6001600160e01b0319811663bc197c8160e01b1461142e5760405162461bcd60e51b81526004016103c1906125b3565b6001600160a01b0384166117b05760405162461bcd60e51b81526004016103c1906123b9565b3360006117bc85611912565b905060006117c985611912565b90506117d9838989858589611437565b6000868152602081815260408083206001600160a01b038c1684529091529020548581101561181a5760405162461bcd60e51b81526004016103c1906123fe565b6000878152602081815260408083206001600160a01b038d8116855292528083208985039055908a168252812080548892906118579084906123a6565b909155505060408051888152602081018890526001600160a01b03808b16928c821692918816917fc3d58168c5ae7397731d063d5bbf3d657854427343f4c083240f7aacaa2d0f62910160405180910390a46118b7848a8a8a8a8a61195d565b505050505050505050565b60006001600160e01b03198216636cdb3d1360e11b14806118f357506001600160e01b031982166303a24d0760e21b145b806103ed57506301ffc9a760e01b6001600160e01b03198316146103ed565b6040805160018082528183019092526060916000919060208083019080368337019050509050828160008151811061194c5761194c612263565b602090810291909101015292915050565b61196f846001600160a01b0316611a1f565b156110ad5760405163f23a6e6160e01b81526001600160a01b0385169063f23a6e61906119a890899089908890889088906004016125fb565b6020604051808303816000875af19250505080156119e3575060408051601f3d908101601f191682019092526119e0918101906124f1565b60015b6119ef576116ba61250e565b6001600160e01b0319811663f23a6e6160e01b1461142e5760405162461bcd60e51b81526004016103c1906125b3565b6001600160a01b03163b151590565b80356001600160a01b0381168114611a4557600080fd5b919050565b60008060408385031215611a5d57600080fd5b611a6683611a2e565b946020939093013593505050565b6001600160e01b031981168114610b2f57600080fd5b600060208284031215611a9c57600080fd5b813561075f81611a74565b60005b83811015611ac2578181015183820152602001611aaa565b50506000910152565b60008151808452611ae3816020860160208601611aa7565b601f01601f19169290920160200192915050565b60208152600061075f6020830184611acb565b600060608284031215611b1c57600080fd5b50919050565b80356001600160601b0381168114611a4557600080fd5b6000806000806000806000610100888a031215611b5557600080fd5b611b5e88611a2e565b96506020880135955060408801356001600160401b0380821115611b8157600080fd5b818a0191508a601f830112611b9557600080fd5b813581811115611ba457600080fd5b8b6020828501011115611bb657600080fd5b602083019750809650505050611bcf8960608a01611b0a565b9250611bdd60c08901611b22565b9150611beb60e08901611a2e565b905092959891949750929550565b600060208284031215611c0b57600080fd5b5035919050565b6001600160a01b0391909116815260200190565b60008060408385031215611c3957600080fd5b50508035926020909101359150565b634e487b7160e01b600052604160045260246000fd5b601f8201601f191681016001600160401b0381118282101715611c8357611c83611c48565b6040525050565b60006001600160401b03821115611ca357611ca3611c48565b5060051b60200190565b600082601f830112611cbe57600080fd5b81356020611ccb82611c8a565b604051611cd88282611c5e565b83815260059390931b8501820192828101915086841115611cf857600080fd5b8286015b84811015611d135780358352918301918301611cfc565b509695505050505050565b60006001600160401b03831115611d3757611d37611c48565b604051611d4e601f8501601f191660200182611c5e565b809150838152848484011115611d6357600080fd5b83836020830137600060208583010152509392505050565b600082601f830112611d8c57600080fd5b61075f83833560208501611d1e565b600080600080600060a08688031215611db357600080fd5b611dbc86611a2e565b9450611dca60208701611a2e565b935060408601356001600160401b0380821115611de657600080fd5b611df289838a01611cad565b94506060880135915080821115611e0857600080fd5b611e1489838a01611cad565b93506080880135915080821115611e2a57600080fd5b50611e3788828901611d7b565b9150509295509295909350565b60008060408385031215611e5757600080fd5b82356001600160401b0380821115611e6e57600080fd5b818501915085601f830112611e8257600080fd5b81356020611e8f82611c8a565b604051611e9c8282611c5e565b83815260059390931b8501820192828101915089841115611ebc57600080fd5b948201945b83861015611ee157611ed286611a2e565b82529482019490820190611ec1565b96505086013592505080821115611ef757600080fd5b50611f0485828601611cad565b9150509250929050565b600081518084526020808501945080840160005b83811015611f3e57815187529582019590820190600101611f22565b509495945050505050565b60208152600061075f6020830184611f0e565b600060208284031215611f6e57600080fd5b81356001600160401b03811115611f8457600080fd5b8201601f81018413611f9557600080fd5b611fa484823560208401611d1e565b949350505050565b8015158114610b2f57600080fd5b60008060408385031215611fcd57600080fd5b611fd683611a2e565b91506020830135611fe681611fac565b809150509250929050565b60006020828403121561200357600080fd5b61075f82611a2e565b6000806040838503121561201f57600080fd5b61202883611a2e565b915061203660208401611a2e565b90509250929050565b600080600080600060a0868803121561205757600080fd5b61206086611a2e565b945061206e60208701611a2e565b9350604086013592506060860135915060808601356001600160401b0381111561209757600080fd5b611e3788828901611d7b565b600181811c908216806120b757607f821691505b602082108103611b1c57634e487b7160e01b600052602260045260246000fd5b634e487b7160e01b600052601160045260246000fd5b6000600182016120ff576120ff6120d7565b5060010190565b8581526001600160a01b0385166020820152604081018490526080606082018190528101829052818360a0830137600081830160a090810191909152601f909201601f19160101949350505050565b6000808454612163816120a3565b6001828116801561217b5760018114612190576121bf565b60ff19841687528215158302870194506121bf565b8860005260208060002060005b858110156121b65781548a82015290840190820161219d565b50505082870194505b5050505083516121d3818360208801611aa7565b01949350505050565b80820281158282048414176103ed576103ed6120d7565b60008261221057634e487b7160e01b600052601260045260246000fd5b500490565b6020808252602e908201527f455243313135353a2063616c6c6572206973206e6f7420746f6b656e206f776e60408201526d195c881bdc88185c1c1c9bdd995960921b606082015260800190565b634e487b7160e01b600052603260045260246000fd5b601f8211156122bf57600081815260208120601f850160051c810160208610156122a05750805b601f850160051c820191505b818110156110ad578281556001016122ac565b505050565b81516001600160401b038111156122dd576122dd611c48565b6122f1816122eb84546120a3565b84612279565b602080601f831160018114612326576000841561230e5750858301515b600019600386901b1c1916600185901b1785556110ad565b600085815260208120601f198616915b8281101561235557888601518255948401946001909101908401612336565b50858210156123735787850151600019600388901b60f8161c191681555b5050505050600190811b01905550565b60006020828403121561239557600080fd5b813560ff8116811461075f57600080fd5b808201808211156103ed576103ed6120d7565b60208082526025908201527f455243313135353a207472616e7366657220746f20746865207a65726f206164604082015264647265737360d81b606082015260800190565b6020808252602a908201527f455243313135353a20696e73756666696369656e742062616c616e636520666f60408201526939103a3930b739b332b960b11b606082015260800190565b60408152600061245b6040830185611f0e565b828103602084015261246d8185611f0e565b95945050505050565b60006020828403121561248857600080fd5b815161075f81611fac565b6001600160a01b0386811682528516602082015260a0604082018190526000906124bf90830186611f0e565b82810360608401526124d18186611f0e565b905082810360808401526124e58185611acb565b98975050505050505050565b60006020828403121561250357600080fd5b815161075f81611a74565b600060033d11156125275760046000803e5060005160e01c5b90565b600060443d10156125385790565b6040516003193d81016004833e81513d6001600160401b03816024840111818411171561256757505050505090565b828501915081518181111561257f5750505050505090565b843d87010160208285010111156125995750505050505090565b6125a860208286010187611c5e565b509095945050505050565b60208082526028908201527f455243313135353a204552433131353552656365697665722072656a656374656040820152676420746f6b656e7360c01b606082015260800190565b6001600160a01b03868116825285166020820152604081018490526060810183905260a06080820181905260009061263590830184611acb565b97965050505050505056fea164736f6c6343000813000a",
  "devdoc": {
    "details": "use ERC1155URIStorage standard",
    "events": {
      "ApprovalForAll(address,address,bool)": {
        "details": "Emitted when `account` grants or revokes permission to `operator` to transfer their tokens, according to `approved`."
      },
      "ContractURIChanged(string)": {
        "details": "fires when contract uri changed"
      },
      "SuperChiefTransferBatch(address,address,address,uint256[],uint256[])": {
        "details": "Equivalent to multiple {SuperChief} events, where `operator`, `from` and `to` are the same for all transfers."
      },
      "SuperChiefTransferSingle(address,address,address,uint256,uint256)": {
        "details": "Emitted when `value` tokens of token type `id` are transferred from `from` to `to` by `operator`."
      },
      "TransferBatch(address,address,address,uint256[],uint256[])": {
        "details": "Equivalent to multiple {TransferSingle} events, where `operator`, `from` and `to` are the same for all transfers."
      },
      "TransferSingle(address,address,address,uint256,uint256)": {
        "details": "Emitted when `value` tokens of token type `id` are transferred from `from` to `to` by `operator`."
      },
      "URI(string,uint256)": {
        "details": "Emitted when the URI for token type `id` changes to `value`, if it is a non-programmatic URI. If an {URI} event was emitted for `id`, the standard https://eips.ethereum.org/EIPS/eip-1155#metadata-extensions[guarantees] that `value` will equal the value returned by {IERC1155MetadataURI-uri}."
      }
    },
    "kind": "dev",
    "methods": {
      "balanceOf(address,uint256)": {
        "details": "See {IERC1155-balanceOf}. Requirements: - `account` cannot be the zero address."
      },
      "balanceOfBatch(address[],uint256[])": {
        "details": "See {IERC1155-balanceOfBatch}. Requirements: - `accounts` and `ids` must have the same length."
      },
      "constructor": {
        "details": "sets contract params",
        "params": {
          "_contractURI": "uri of contract",
          "_executionDelegate": "addres of execution delegate",
          "_name": "name of collection",
          "_signer": "signer address",
          "_symbol": "symbol of collection"
        }
      },
      "isApprovedForAll(address,address)": {
        "details": "See {IERC1155-isApprovedForAll}."
      },
      "mint(address,uint256,string,(bytes32,bytes32,uint8),uint96,address)": {
        "params": {
          "amount": "amount of NFT",
          "feeRate": "fee rate",
          "receiver": "fee receiver address",
          "sig": "signature of signer",
          "to": "owner of NFT",
          "tokenUri": "uri of NFT"
        }
      },
      "owner()": {
        "details": "Returns the address of the current owner."
      },
      "renounceOwnership()": {
        "details": "Leaves the contract without owner. It will not be possible to call `onlyOwner` functions. Can only be called by the current owner. NOTE: Renouncing ownership will leave the contract without an owner, thereby disabling any functionality that is only available to the owner."
      },
      "royaltyInfo(uint256,uint256)": {
        "details": "Returns how much royalty is owed and to whom, based on a sale price that may be denominated in any unit of exchange. The royalty amount is denominated and should be paid in that same unit of exchange."
      },
      "safeBatchTransferFrom(address,address,uint256[],uint256[],bytes)": {
        "details": "See {IERC1155-safeBatchTransferFrom}."
      },
      "safeTransferFrom(address,address,uint256,uint256,bytes)": {
        "details": "See {IERC1155-safeTransferFrom}."
      },
      "setApprovalForAll(address,bool)": {
        "details": "See {IERC1155-setApprovalForAll}."
      },
      "setContractURI(string)": {
        "details": "Set contract url",
        "params": {
          "_contractURI": "IPFS url for contract metadata"
        }
      },
      "supportsInterface(bytes4)": {
        "details": "See {IERC165-supportsInterface}."
      },
      "transferOwnership(address)": {
        "details": "Transfers ownership of the contract to a new account (`newOwner`). Can only be called by the current owner."
      },
      "uri(uint256)": {
        "details": "See {IERC1155MetadataURI-uri}. This implementation returns the concatenation of the `_baseURI` and the token-specific uri if the latter is set This enables the following behaviors: - if `_tokenURIs[tokenId]` is set, then the result is the concatenation   of `_baseURI` and `_tokenURIs[tokenId]` (keep in mind that `_baseURI`   is empty per default); - if `_tokenURIs[tokenId]` is NOT set then we fallback to `super.uri()`   which in most cases will contain `ERC1155._uri`; - if `_tokenURIs[tokenId]` is NOT set, and if the parents do not have a   uri value set, then the result is empty."
      }
    },
    "stateVariables": {
      "maxId": {
        "details": "current max token id"
      },
      "signer": {
        "details": "signer address"
      }
    },
    "title": "SuperChief Exhibition contract",
    "version": 1
  },
  "userdoc": {
    "kind": "user",
    "methods": {
      "mint(address,uint256,string,(bytes32,bytes32,uint8),uint96,address)": {
        "notice": "mints token to address by amount with tokenUri"
      },
      "updateSigner(address)": {
        "notice": "updates signer"
      }
    },
    "version": 1
  },
  "storageLayout": {
    "storage": [
      {
        "astId": 1903,
        "contract": "contracts/collections/ERC1155Exhibition.sol:ERC1155Exhibition",
        "label": "_balances",
        "offset": 0,
        "slot": "0",
        "type": "t_mapping(t_uint256,t_mapping(t_address,t_uint256))"
      },
      {
        "astId": 1909,
        "contract": "contracts/collections/ERC1155Exhibition.sol:ERC1155Exhibition",
        "label": "_operatorApprovals",
        "offset": 0,
        "slot": "1",
        "type": "t_mapping(t_address,t_mapping(t_address,t_bool))"
      },
      {
        "astId": 1911,
        "contract": "contracts/collections/ERC1155Exhibition.sol:ERC1155Exhibition",
        "label": "_uri",
        "offset": 0,
        "slot": "2",
        "type": "t_string_storage"
      },
      {
        "astId": 3276,
        "contract": "contracts/collections/ERC1155Exhibition.sol:ERC1155Exhibition",
        "label": "_baseURI",
        "offset": 0,
        "slot": "3",
        "type": "t_string_storage"
      },
      {
        "astId": 3280,
        "contract": "contracts/collections/ERC1155Exhibition.sol:ERC1155Exhibition",
        "label": "_tokenURIs",
        "offset": 0,
        "slot": "4",
        "type": "t_mapping(t_uint256,t_string_storage)"
      },
      {
        "astId": 6226,
        "contract": "contracts/collections/ERC1155Exhibition.sol:ERC1155Exhibition",
        "label": "_defaultRoyaltyInfo",
        "offset": 0,
        "slot": "5",
        "type": "t_struct(RoyaltyInfo)6223_storage"
      },
      {
        "astId": 6231,
        "contract": "contracts/collections/ERC1155Exhibition.sol:ERC1155Exhibition",
        "label": "_tokenRoyaltyInfo",
        "offset": 0,
        "slot": "6",
        "type": "t_mapping(t_uint256,t_struct(RoyaltyInfo)6223_storage)"
      },
      {
        "astId": 1291,
        "contract": "contracts/collections/ERC1155Exhibition.sol:ERC1155Exhibition",
        "label": "_owner",
        "offset": 0,
        "slot": "7",
        "type": "t_address"
      },
      {
        "astId": 15239,
        "contract": "contracts/collections/ERC1155Exhibition.sol:ERC1155Exhibition",
        "label": "name",
        "offset": 0,
        "slot": "8",
        "type": "t_string_storage"
      },
      {
        "astId": 15241,
        "contract": "contracts/collections/ERC1155Exhibition.sol:ERC1155Exhibition",
        "label": "symbol",
        "offset": 0,
        "slot": "9",
        "type": "t_string_storage"
      },
      {
        "astId": 15243,
        "contract": "contracts/collections/ERC1155Exhibition.sol:ERC1155Exhibition",
        "label": "contractURI",
        "offset": 0,
        "slot": "10",
        "type": "t_string_storage"
      },
      {
        "astId": 15249,
        "contract": "contracts/collections/ERC1155Exhibition.sol:ERC1155Exhibition",
        "label": "_listingBalances",
        "offset": 0,
        "slot": "11",
        "type": "t_mapping(t_uint256,t_mapping(t_address,t_uint256))"
      },
      {
        "astId": 15253,
        "contract": "contracts/collections/ERC1155Exhibition.sol:ERC1155Exhibition",
        "label": "executionDelegate",
        "offset": 0,
        "slot": "12",
        "type": "t_contract(IExecutionDelegate)14520"
      },
      {
        "astId": 13887,
        "contract": "contracts/collections/ERC1155Exhibition.sol:ERC1155Exhibition",
        "label": "maxId",
        "offset": 0,
        "slot": "13",
        "type": "t_uint256"
      },
      {
        "astId": 13890,
        "contract": "contracts/collections/ERC1155Exhibition.sol:ERC1155Exhibition",
        "label": "signer",
        "offset": 0,
        "slot": "14",
        "type": "t_address"
      }
    ],
    "types": {
      "t_address": {
        "encoding": "inplace",
        "label": "address",
        "numberOfBytes": "20"
      },
      "t_bool": {
        "encoding": "inplace",
        "label": "bool",
        "numberOfBytes": "1"
      },
      "t_contract(IExecutionDelegate)14520": {
        "encoding": "inplace",
        "label": "contract IExecutionDelegate",
        "numberOfBytes": "20"
      },
      "t_mapping(t_address,t_bool)": {
        "encoding": "mapping",
        "key": "t_address",
        "label": "mapping(address => bool)",
        "numberOfBytes": "32",
        "value": "t_bool"
      },
      "t_mapping(t_address,t_mapping(t_address,t_bool))": {
        "encoding": "mapping",
        "key": "t_address",
        "label": "mapping(address => mapping(address => bool))",
        "numberOfBytes": "32",
        "value": "t_mapping(t_address,t_bool)"
      },
      "t_mapping(t_address,t_uint256)": {
        "encoding": "mapping",
        "key": "t_address",
        "label": "mapping(address => uint256)",
        "numberOfBytes": "32",
        "value": "t_uint256"
      },
      "t_mapping(t_uint256,t_mapping(t_address,t_uint256))": {
        "encoding": "mapping",
        "key": "t_uint256",
        "label": "mapping(uint256 => mapping(address => uint256))",
        "numberOfBytes": "32",
        "value": "t_mapping(t_address,t_uint256)"
      },
      "t_mapping(t_uint256,t_string_storage)": {
        "encoding": "mapping",
        "key": "t_uint256",
        "label": "mapping(uint256 => string)",
        "numberOfBytes": "32",
        "value": "t_string_storage"
      },
      "t_mapping(t_uint256,t_struct(RoyaltyInfo)6223_storage)": {
        "encoding": "mapping",
        "key": "t_uint256",
        "label": "mapping(uint256 => struct ERC2981.RoyaltyInfo)",
        "numberOfBytes": "32",
        "value": "t_struct(RoyaltyInfo)6223_storage"
      },
      "t_string_storage": {
        "encoding": "bytes",
        "label": "string",
        "numberOfBytes": "32"
      },
      "t_struct(RoyaltyInfo)6223_storage": {
        "encoding": "inplace",
        "label": "struct ERC2981.RoyaltyInfo",
        "members": [
          {
            "astId": 6220,
            "contract": "contracts/collections/ERC1155Exhibition.sol:ERC1155Exhibition",
            "label": "receiver",
            "offset": 0,
            "slot": "0",
            "type": "t_address"
          },
          {
            "astId": 6222,
            "contract": "contracts/collections/ERC1155Exhibition.sol:ERC1155Exhibition",
            "label": "royaltyFraction",
            "offset": 20,
            "slot": "0",
            "type": "t_uint96"
          }
        ],
        "numberOfBytes": "32"
      },
      "t_uint256": {
        "encoding": "inplace",
        "label": "uint256",
        "numberOfBytes": "32"
      },
      "t_uint96": {
        "encoding": "inplace",
        "label": "uint96",
        "numberOfBytes": "12"
      }
    }
  }
}