{
  "address": "0xB04fC1447Fcf30FcdCE9a96d6F5D0459F81741db",
  "abi": [
    {
      "anonymous": false,
      "inputs": [
        {
          "indexed": false,
          "internalType": "address",
          "name": "_to",
          "type": "address"
        },
        {
          "indexed": false,
          "internalType": "string",
          "name": "name",
          "type": "string"
        }
      ],
      "name": "AddedBlackList",
      "type": "event"
    },
    {
      "anonymous": false,
      "inputs": [
        {
          "indexed": true,
          "internalType": "address",
          "name": "_contract",
          "type": "address"
        }
      ],
      "name": "ApproveContract",
      "type": "event"
    },
    {
      "anonymous": false,
      "inputs": [],
      "name": "ClearedBaseFee",
      "type": "event"
    },
    {
      "anonymous": false,
      "inputs": [
        {
          "indexed": true,
          "internalType": "address",
          "name": "_contract",
          "type": "address"
        }
      ],
      "name": "DenyContract",
      "type": "event"
    },
    {
      "anonymous": false,
      "inputs": [
        {
          "indexed": true,
          "internalType": "address",
          "name": "user",
          "type": "address"
        }
      ],
      "name": "GrantApproval",
      "type": "event"
    },
    {
      "anonymous": false,
      "inputs": [
        {
          "indexed": false,
          "internalType": "uint8",
          "name": "version",
          "type": "uint8"
        }
      ],
      "name": "Initialized",
      "type": "event"
    },
    {
      "anonymous": false,
      "inputs": [
        {
          "indexed": false,
          "internalType": "uint16",
          "name": "id",
          "type": "uint16"
        },
        {
          "indexed": false,
          "internalType": "string",
          "name": "label",
          "type": "string"
        },
        {
          "indexed": false,
          "internalType": "uint16",
          "name": "rate",
          "type": "uint16"
        },
        {
          "indexed": false,
          "internalType": "address",
          "name": "receipt",
          "type": "address"
        }
      ],
      "name": "NewBaseFee",
      "type": "event"
    },
    {
      "anonymous": false,
      "inputs": [
        {
          "indexed": true,
          "internalType": "address",
          "name": "previousOwner",
          "type": "address"
        },
        {
          "indexed": true,
          "internalType": "address",
          "name": "newOwner",
          "type": "address"
        }
      ],
      "name": "OwnershipTransferred",
      "type": "event"
    },
    {
      "anonymous": false,
      "inputs": [
        {
          "indexed": false,
          "internalType": "address",
          "name": "_to",
          "type": "address"
        }
      ],
      "name": "RemovedBlackList",
      "type": "event"
    },
    {
      "anonymous": false,
      "inputs": [
        {
          "indexed": true,
          "internalType": "address",
          "name": "user",
          "type": "address"
        }
      ],
      "name": "RevokeApproval",
      "type": "event"
    },
    {
      "inputs": [
        {
          "internalType": "string",
          "name": "label",
          "type": "string"
        },
        {
          "internalType": "uint16",
          "name": "rate",
          "type": "uint16"
        },
        {
          "internalType": "address",
          "name": "receiver",
          "type": "address"
        },
        {
          "components": [
            {
              "internalType": "bytes32",
              "name": "r",
              "type": "bytes32"
            },
            {
              "internalType": "bytes32",
              "name": "s",
              "type": "bytes32"
            },
            {
              "internalType": "uint8",
              "name": "v",
              "type": "uint8"
            }
          ],
          "internalType": "struct Sig",
          "name": "sig",
          "type": "tuple"
        }
      ],
      "name": "addBaseFee",
      "outputs": [],
      "stateMutability": "nonpayable",
      "type": "function"
    },
    {
      "inputs": [
        {
          "internalType": "address",
          "name": "_to",
          "type": "address"
        },
        {
          "internalType": "string",
          "name": "_name",
          "type": "string"
        },
        {
          "components": [
            {
              "internalType": "bytes32",
              "name": "r",
              "type": "bytes32"
            },
            {
              "internalType": "bytes32",
              "name": "s",
              "type": "bytes32"
            },
            {
              "internalType": "uint8",
              "name": "v",
              "type": "uint8"
            }
          ],
          "internalType": "struct Sig",
          "name": "_sig",
          "type": "tuple"
        }
      ],
      "name": "addBlacklist",
      "outputs": [],
      "stateMutability": "nonpayable",
      "type": "function"
    },
    {
      "inputs": [
        {
          "internalType": "address",
          "name": "_contract",
          "type": "address"
        }
      ],
      "name": "approveContract",
      "outputs": [],
      "stateMutability": "nonpayable",
      "type": "function"
    },
    {
      "inputs": [
        {
          "internalType": "uint256",
          "name": "",
          "type": "uint256"
        }
      ],
      "name": "baseFee",
      "outputs": [
        {
          "internalType": "uint16",
          "name": "rate",
          "type": "uint16"
        },
        {
          "internalType": "address payable",
          "name": "recipient",
          "type": "address"
        }
      ],
      "stateMutability": "view",
      "type": "function"
    },
    {
      "inputs": [
        {
          "internalType": "address",
          "name": "",
          "type": "address"
        }
      ],
      "name": "blacklisted",
      "outputs": [
        {
          "internalType": "bool",
          "name": "",
          "type": "bool"
        }
      ],
      "stateMutability": "view",
      "type": "function"
    },
    {
      "inputs": [
        {
          "internalType": "address",
          "name": "_collection",
          "type": "address"
        },
        {
          "internalType": "uint256",
          "name": "_tokenId",
          "type": "uint256"
        },
        {
          "components": [
            {
              "internalType": "uint16",
              "name": "rate",
              "type": "uint16"
            },
            {
              "internalType": "address payable",
              "name": "recipient",
              "type": "address"
            }
          ],
          "internalType": "struct Fee[]",
          "name": "_fees",
          "type": "tuple[]"
        }
      ],
      "name": "calcuateFee",
      "outputs": [
        {
          "components": [
            {
              "internalType": "uint16",
              "name": "rate",
              "type": "uint16"
            },
            {
              "internalType": "address payable",
              "name": "recipient",
              "type": "address"
            }
          ],
          "internalType": "struct Fee[]",
          "name": "fees",
          "type": "tuple[]"
        }
      ],
      "stateMutability": "view",
      "type": "function"
    },
    {
      "inputs": [
        {
          "components": [
            {
              "internalType": "bytes32",
              "name": "r",
              "type": "bytes32"
            },
            {
              "internalType": "bytes32",
              "name": "s",
              "type": "bytes32"
            },
            {
              "internalType": "uint8",
              "name": "v",
              "type": "uint8"
            }
          ],
          "internalType": "struct Sig",
          "name": "sig",
          "type": "tuple"
        }
      ],
      "name": "clearBaseFee",
      "outputs": [],
      "stateMutability": "nonpayable",
      "type": "function"
    },
    {
      "inputs": [
        {
          "internalType": "address",
          "name": "",
          "type": "address"
        }
      ],
      "name": "contracts",
      "outputs": [
        {
          "internalType": "bool",
          "name": "",
          "type": "bool"
        }
      ],
      "stateMutability": "view",
      "type": "function"
    },
    {
      "inputs": [
        {
          "internalType": "address",
          "name": "_contract",
          "type": "address"
        }
      ],
      "name": "denyContract",
      "outputs": [],
      "stateMutability": "nonpayable",
      "type": "function"
    },
    {
      "inputs": [],
      "name": "grantApproval",
      "outputs": [],
      "stateMutability": "nonpayable",
      "type": "function"
    },
    {
      "inputs": [
        {
          "internalType": "address",
          "name": "_signer",
          "type": "address"
        }
      ],
      "name": "initialize",
      "outputs": [],
      "stateMutability": "nonpayable",
      "type": "function"
    },
    {
      "inputs": [
        {
          "internalType": "address",
          "name": "",
          "type": "address"
        }
      ],
      "name": "nonce",
      "outputs": [
        {
          "internalType": "uint256",
          "name": "",
          "type": "uint256"
        }
      ],
      "stateMutability": "view",
      "type": "function"
    },
    {
      "inputs": [],
      "name": "owner",
      "outputs": [
        {
          "internalType": "address",
          "name": "",
          "type": "address"
        }
      ],
      "stateMutability": "view",
      "type": "function"
    },
    {
      "inputs": [
        {
          "internalType": "address",
          "name": "_to",
          "type": "address"
        },
        {
          "components": [
            {
              "internalType": "bytes32",
              "name": "r",
              "type": "bytes32"
            },
            {
              "internalType": "bytes32",
              "name": "s",
              "type": "bytes32"
            },
            {
              "internalType": "uint8",
              "name": "v",
              "type": "uint8"
            }
          ],
          "internalType": "struct Sig",
          "name": "_sig",
          "type": "tuple"
        }
      ],
      "name": "removeBlacklist",
      "outputs": [],
      "stateMutability": "nonpayable",
      "type": "function"
    },
    {
      "inputs": [],
      "name": "renounceOwnership",
      "outputs": [],
      "stateMutability": "nonpayable",
      "type": "function"
    },
    {
      "inputs": [],
      "name": "revokeApproval",
      "outputs": [],
      "stateMutability": "nonpayable",
      "type": "function"
    },
    {
      "inputs": [
        {
          "internalType": "address",
          "name": "",
          "type": "address"
        }
      ],
      "name": "revokedApproval",
      "outputs": [
        {
          "internalType": "bool",
          "name": "",
          "type": "bool"
        }
      ],
      "stateMutability": "view",
      "type": "function"
    },
    {
      "inputs": [],
      "name": "signer",
      "outputs": [
        {
          "internalType": "address",
          "name": "",
          "type": "address"
        }
      ],
      "stateMutability": "view",
      "type": "function"
    },
    {
      "inputs": [
        {
          "internalType": "address",
          "name": "collection",
          "type": "address"
        },
        {
          "internalType": "address",
          "name": "from",
          "type": "address"
        },
        {
          "internalType": "address",
          "name": "to",
          "type": "address"
        },
        {
          "internalType": "uint256",
          "name": "tokenId",
          "type": "uint256"
        },
        {
          "internalType": "uint256",
          "name": "amount",
          "type": "uint256"
        }
      ],
      "name": "transferERC1155",
      "outputs": [],
      "stateMutability": "nonpayable",
      "type": "function"
    },
    {
      "inputs": [
        {
          "internalType": "address",
          "name": "token",
          "type": "address"
        },
        {
          "internalType": "address",
          "name": "from",
          "type": "address"
        },
        {
          "internalType": "address",
          "name": "to",
          "type": "address"
        },
        {
          "internalType": "uint256",
          "name": "amount",
          "type": "uint256"
        }
      ],
      "name": "transferERC20",
      "outputs": [
        {
          "internalType": "bool",
          "name": "",
          "type": "bool"
        }
      ],
      "stateMutability": "nonpayable",
      "type": "function"
    },
    {
      "inputs": [
        {
          "internalType": "address",
          "name": "collection",
          "type": "address"
        },
        {
          "internalType": "address",
          "name": "from",
          "type": "address"
        },
        {
          "internalType": "address",
          "name": "to",
          "type": "address"
        },
        {
          "internalType": "uint256",
          "name": "tokenId",
          "type": "uint256"
        }
      ],
      "name": "transferERC721",
      "outputs": [],
      "stateMutability": "nonpayable",
      "type": "function"
    },
    {
      "inputs": [
        {
          "internalType": "address",
          "name": "collection",
          "type": "address"
        },
        {
          "internalType": "address",
          "name": "from",
          "type": "address"
        },
        {
          "internalType": "address",
          "name": "to",
          "type": "address"
        },
        {
          "internalType": "uint256",
          "name": "tokenId",
          "type": "uint256"
        }
      ],
      "name": "transferERC721Unsafe",
      "outputs": [],
      "stateMutability": "nonpayable",
      "type": "function"
    },
    {
      "inputs": [
        {
          "internalType": "address",
          "name": "newOwner",
          "type": "address"
        }
      ],
      "name": "transferOwnership",
      "outputs": [],
      "stateMutability": "nonpayable",
      "type": "function"
    },
    {
      "inputs": [
        {
          "internalType": "uint16",
          "name": "id",
          "type": "uint16"
        },
        {
          "internalType": "string",
          "name": "label",
          "type": "string"
        },
        {
          "internalType": "uint16",
          "name": "rate",
          "type": "uint16"
        },
        {
          "internalType": "address",
          "name": "receiver",
          "type": "address"
        },
        {
          "components": [
            {
              "internalType": "bytes32",
              "name": "r",
              "type": "bytes32"
            },
            {
              "internalType": "bytes32",
              "name": "s",
              "type": "bytes32"
            },
            {
              "internalType": "uint8",
              "name": "v",
              "type": "uint8"
            }
          ],
          "internalType": "struct Sig",
          "name": "sig",
          "type": "tuple"
        }
      ],
      "name": "updateBaseFee",
      "outputs": [],
      "stateMutability": "nonpayable",
      "type": "function"
    },
    {
      "inputs": [
        {
          "internalType": "address",
          "name": "_signer",
          "type": "address"
        }
      ],
      "name": "updateSigner",
      "outputs": [],
      "stateMutability": "nonpayable",
      "type": "function"
    },
    {
      "inputs": [
        {
          "internalType": "address",
          "name": "sender",
          "type": "address"
        },
        {
          "components": [
            {
              "internalType": "bytes32",
              "name": "r",
              "type": "bytes32"
            },
            {
              "internalType": "bytes32",
              "name": "s",
              "type": "bytes32"
            },
            {
              "internalType": "uint8",
              "name": "v",
              "type": "uint8"
            }
          ],
          "internalType": "struct Sig",
          "name": "sig",
          "type": "tuple"
        }
      ],
      "name": "validateSign",
      "outputs": [
        {
          "internalType": "bool",
          "name": "",
          "type": "bool"
        }
      ],
      "stateMutability": "view",
      "type": "function"
    }
  ],
  "transactionHash": "0x8cdecceba30ba81391744b1d9ba05ae324d99750263b68349b59370f5cd493cd",
  "args": [],
  "numDeployments": 5,
  "solcInputHash": "d6fecbc142873f283141cf694c9b3b50",
  "bytecode": "0x608060405234801561001057600080fd5b50611d44806100206000396000f3fe608060405234801561001057600080fd5b506004361061013e5760003560e01c806307f7aafb14610143578063238ac9331461015857806325b4f64a146101815780632a312fe3146101945780632ad0c62f146101c957806333578c7a146101dc5780634a3e3a1f146101ef57806369dc9ff3146102225780636ef91c721461024557806370ae92d214610265578063715018a61461029357806374a9402e1461029b578063789f93f6146102ae5780638da5cb5b146102c157806390d02b3c146102c957806398c7f322146102d1578063a7ecd37e146102e4578063a8034df1146102f7578063a8a48414146102ff578063b7e2077e14610312578063c4d66de814610325578063ca72da8e14610338578063da3e8ce41461034b578063dbac26e91461035e578063f2fde38b14610381578063fb36cf5714610394575b600080fd5b6101566101513660046115e0565b6103a7565b005b60695461016b906001600160a01b031681565b6040516101789190611604565b60405180910390f35b61015661018f3660046116e9565b6103fb565b6101a76101a236600461176b565b61056c565b6040805161ffff90931683526001600160a01b03909116602083015201610178565b6101566101d7366004611784565b6105a1565b6101566101ea3660046117ba565b610668565b6102126101fd3660046115e0565b60666020526000908152604090205460ff1681565b6040519015158152602001610178565b6102126102303660046115e0565b60656020526000908152604090205460ff1681565b6102586102533660046117d6565b61070c565b6040516101789190611861565b6102856102733660046115e0565b60676020526000908152604090205481565b604051908152602001610178565b610156610b52565b6101566102a93660046118bd565b610b66565b6101566102bc366004611918565b610c54565b61016b610d24565b610156610d33565b6101566102df366004611969565b610d75565b6101566102f23660046115e0565b610e42565b610156610e6c565b61015661030d3660046119c9565b610eab565b6101566103203660046115e0565b610fd2565b6101566103333660046115e0565b611023565b610156610346366004611918565b611150565b610212610359366004611918565b6111e8565b61021261036c3660046115e0565b60686020526000908152604090205460ff1681565b61015661038f3660046115e0565b6112cc565b6102126103a2366004611784565b611345565b6103af611468565b6001600160a01b038116600081815260656020526040808220805460ff19166001179055517f283ffe02a14663588cf87ba17adbc21c9ce0d0cdb15655926bf2b987af3075fe9190a250565b806104063382611345565b806104295750610414610d24565b6001600160a01b0316336001600160a01b0316145b61044e5760405162461bcd60e51b815260040161044590611a3a565b60405180910390fd5b33600090815260676020526040812080549161046983611a7f565b9091555050606a5461ffff8716106104b05760405162461bcd60e51b815260206004820152600a602482015269125b9d985b1a59081a5960b21b6044820152606401610445565b60405180604001604052808561ffff168152602001846001600160a01b0316815250606a8761ffff16815481106104e9576104e9611a98565b600091825260209182902083519101805493909201516001600160a01b031662010000026001600160b01b031990931661ffff909116179190911790556040517f83cd0831fbb6aa52b27dd0da185dc6de621a5c8a5ceeaf5ab862da1e6b9b651c9061055c908890889088908890611af4565b60405180910390a1505050505050565b606a818154811061057c57600080fd5b60009182526020909120015461ffff811691506201000090046001600160a01b031682565b806105ac3382611345565b806105cf57506105ba610d24565b6001600160a01b0316336001600160a01b0316145b6105eb5760405162461bcd60e51b815260040161044590611a3a565b33600090815260676020526040812080549161060683611a7f565b90915550506001600160a01b03831660009081526068602052604090819020805460ff19169055517fd7e9ec6e6ecd65492dce6bf513cd6867560d49544421d0783ddf06e76c24470c9061065b908590611604565b60405180910390a1505050565b806106733382611345565b806106965750610681610d24565b6001600160a01b0316336001600160a01b0316145b6106b25760405162461bcd60e51b815260040161044590611a3a565b3360009081526067602052604081208054916106cd83611a7f565b909155506106df9050606a6000611573565b6040517f387e35327f81a7d341fd6081651a5e0ea126e8119a1847de9075cf31875973de90600090a15050565b6040805160008082526020820190925260609161073f565b61072c611591565b8152602001906001900390816107245790505b506040516301ffc9a760e01b815263152a902d60e11b60048201529091506001600160a01b038616906301ffc9a790602401602060405180830381865afa15801561078e573d6000803e3d6000fd5b505050506040513d601f19601f820116820180604052508101906107b29190611b32565b156109eb57606a546107c49083611b54565b6107cf906001611b54565b6001600160401b038111156107e6576107e661162f565b60405190808252806020026020018201604052801561081f57816020015b61080c611591565b8152602001906001900390816108045790505b5060405163152a902d60e11b815260048101869052612710602482015290915060009081906001600160a01b03881690632a55205a906044016040805180830381865afa158015610874573d6000803e3d6000fd5b505050506040513d601f19601f820116820180604052508101906108989190611b67565b9150915060405180604001604052808261ffff168152602001836001600160a01b0316815250836000815181106108d1576108d1611a98565b602002602001018190525060005b84811015610949578585828181106108f9576108f9611a98565b90506040020180360381019061090f9190611b95565b8461091b836001611b54565b8151811061092b5761092b611a98565b6020026020010181905250808061094190611a7f565b9150506108df565b5060005b606a548110156109e357606a818154811061096a5761096a611a98565b60009182526020918290206040805180820190915291015461ffff811682526201000090046001600160a01b031691810191909152846109aa8784611b54565b6109b5906001611b54565b815181106109c5576109c5611a98565b602002602001018190525080806109db90611a7f565b91505061094d565b505050610b4a565b606a546109f89083611b54565b610a03906001611b54565b6001600160401b03811115610a1a57610a1a61162f565b604051908082528060200260200182016040528015610a5357816020015b610a40611591565b815260200190600190039081610a385790505b50905060005b82811015610ab957838382818110610a7357610a73611a98565b905060400201803603810190610a899190611b95565b828281518110610a9b57610a9b611a98565b60200260200101819052508080610ab190611a7f565b915050610a59565b5060005b606a54811015610b4857606a8181548110610ada57610ada611a98565b60009182526020918290206040805180820190915291015461ffff811682526201000090046001600160a01b03169181019190915282610b1a8584611b54565b81518110610b2a57610b2a611a98565b60200260200101819052508080610b4090611a7f565b915050610abd565b505b949350505050565b610b5a611468565b610b6460006114c7565b565b3360009081526065602052604090205460ff16610b955760405162461bcd60e51b815260040161044590611bf1565b6001600160a01b03841660009081526066602052604090205460ff1615610bce5760405162461bcd60e51b815260040161044590611c3b565b604051637921219560e11b81526001600160a01b0385811660048301528481166024830152604482018490526064820183905260a06084830152600060a483015286169063f242432a9060c401600060405180830381600087803b158015610c3557600080fd5b505af1158015610c49573d6000803e3d6000fd5b505050505050505050565b3360009081526065602052604090205460ff16610c835760405162461bcd60e51b815260040161044590611bf1565b6001600160a01b03831660009081526066602052604090205460ff1615610cbc5760405162461bcd60e51b815260040161044590611c3b565b604051632142170760e11b81526001600160a01b038516906342842e0e90610cec90869086908690600401611c6e565b600060405180830381600087803b158015610d0657600080fd5b505af1158015610d1a573d6000803e3d6000fd5b5050505050505050565b6033546001600160a01b031690565b33600081815260666020526040808220805460ff19166001179055517fdddeac663983b1e35153215a4578fecbb5921d12e660b3c4259aa7d9dbb9709f9190a2565b80610d803382611345565b80610da35750610d8e610d24565b6001600160a01b0316336001600160a01b0316145b610dbf5760405162461bcd60e51b815260040161044590611a3a565b336000908152606760205260408120805491610dda83611a7f565b90915550506001600160a01b03841660009081526068602052604090819020805460ff19166001179055517fef5c34fe025bfe6f4c66484ced7e7da3f0f7c8c3b65f9a9113cbdff66ce1c4e990610e349086908690611c92565b60405180910390a150505050565b610e4a611468565b606980546001600160a01b0319166001600160a01b0392909216919091179055565b33600081815260666020526040808220805460ff19169055517f120d91a0121c2d5a7ce9638fce4bd262d4b443568fce40f681f50dca814a629a9190a2565b80610eb63382611345565b80610ed95750610ec4610d24565b6001600160a01b0316336001600160a01b0316145b610ef55760405162461bcd60e51b815260040161044590611a3a565b336000908152606760205260408120805491610f1083611a7f565b90915550506040805180820190915261ffff80861682526001600160a01b0380861660208401908152606a805460018181018355600083905286517f116fea137db6e131133e7f2bab296045d8f41cc5607279db17b218cab0929a519092018054945190951662010000026001600160b01b0319909416919095161791909117909155547f83cd0831fbb6aa52b27dd0da185dc6de621a5c8a5ceeaf5ab862da1e6b9b651c91610fbf91611cb6565b87878760405161055c9493929190611af4565b610fda611468565b6001600160a01b038116600081815260656020526040808220805460ff19169055517f2b35b0a030b4f4cef0a9e8d01828235bb82a11ec4e37c11bd6d8770d9aafb17c9190a250565b600054610100900460ff16158080156110435750600054600160ff909116105b8061105d5750303b15801561105d575060005460ff166001145b6110c05760405162461bcd60e51b815260206004820152602e60248201527f496e697469616c697a61626c653a20636f6e747261637420697320616c72656160448201526d191e481a5b9a5d1a585b1a5e995960921b6064820152608401610445565b6000805460ff1916600117905580156110e3576000805461ff0019166101001790555b6110eb611519565b606980546001600160a01b0319166001600160a01b038416179055801561114c576000805461ff0019169055604051600181527f7f26b83ff96e1f2b6a682f133852f6798a09c465da95921460cefb38474024989060200160405180910390a15b5050565b3360009081526065602052604090205460ff1661117f5760405162461bcd60e51b815260040161044590611bf1565b6001600160a01b03831660009081526066602052604090205460ff16156111b85760405162461bcd60e51b815260040161044590611c3b565b6040516323b872dd60e01b81526001600160a01b038516906323b872dd90610cec90869086908690600401611c6e565b3360009081526065602052604081205460ff166112175760405162461bcd60e51b815260040161044590611bf1565b6001600160a01b03841660009081526066602052604090205460ff16156112505760405162461bcd60e51b815260040161044590611c3b565b6040516323b872dd60e01b81526001600160a01b038616906323b872dd9061128090879087908790600401611c6e565b6020604051808303816000875af115801561129f573d6000803e3d6000fd5b505050506040513d601f19601f820116820180604052508101906112c39190611b32565b95945050505050565b6112d4611468565b6001600160a01b0381166113395760405162461bcd60e51b815260206004820152602660248201527f4f776e61626c653a206e6577206f776e657220697320746865207a65726f206160448201526564647265737360d01b6064820152608401610445565b611342816114c7565b50565b336000908152606760209081526040808320548151606087901b6001600160601b03191681850152603480820192909252825180820390920182526054810190925280519201919091207b0ca2ba3432b932bab69029b4b3b732b21026b2b9b9b0b3b29d05199960211b60748301526090820181905290829060b0016040516020818303038152906040528051906020012090506001818560400160208101906113ef9190611cc9565b604080516000815260208181018084529490945260ff909216908201528635606082015290860135608082015260a0016020604051602081039080840390855afa158015611441573d6000803e3d6000fd5b5050604051601f1901516069546001600160a01b0390811691161493505050505b92915050565b33611471610d24565b6001600160a01b031614610b645760405162461bcd60e51b815260206004820181905260248201527f4f776e61626c653a2063616c6c6572206973206e6f7420746865206f776e65726044820152606401610445565b603380546001600160a01b038381166001600160a01b0319831681179093556040519116919082907f8be0079c531659141344cd1fd0a4f28419497f9722a3daafe3b4186f6b6457e090600090a35050565b600054610100900460ff166115405760405162461bcd60e51b815260040161044590611cec565b610b64600054610100900460ff1661156a5760405162461bcd60e51b815260040161044590611cec565b610b64336114c7565b508054600082559060005260206000209081019061134291906115a8565b604080518082019091526000808252602082015290565b5b808211156115c75780546001600160b01b03191681556001016115a9565b5090565b6001600160a01b038116811461134257600080fd5b6000602082840312156115f257600080fd5b81356115fd816115cb565b9392505050565b6001600160a01b0391909116815260200190565b803561ffff8116811461162a57600080fd5b919050565b634e487b7160e01b600052604160045260246000fd5b600082601f83011261165657600080fd5b81356001600160401b03808211156116705761167061162f565b604051601f8301601f19908116603f011681019082821181831017156116985761169861162f565b816040528381528660208588010111156116b157600080fd5b836020870160208301376000602085830101528094505050505092915050565b6000606082840312156116e357600080fd5b50919050565b600080600080600060e0868803121561170157600080fd5b61170a86611618565b945060208601356001600160401b0381111561172557600080fd5b61173188828901611645565b94505061174060408701611618565b92506060860135611750816115cb565b915061175f87608088016116d1565b90509295509295909350565b60006020828403121561177d57600080fd5b5035919050565b6000806080838503121561179757600080fd5b82356117a2816115cb565b91506117b184602085016116d1565b90509250929050565b6000606082840312156117cc57600080fd5b6115fd83836116d1565b600080600080606085870312156117ec57600080fd5b84356117f7816115cb565b93506020850135925060408501356001600160401b038082111561181a57600080fd5b818701915087601f83011261182e57600080fd5b81358181111561183d57600080fd5b8860208260061b850101111561185257600080fd5b95989497505060200194505050565b602080825282518282018190526000919060409081850190868401855b828110156118b0578151805161ffff1685528601516001600160a01b031686850152928401929085019060010161187e565b5091979650505050505050565b600080600080600060a086880312156118d557600080fd5b85356118e0816115cb565b945060208601356118f0816115cb565b93506040860135611900816115cb565b94979396509394606081013594506080013592915050565b6000806000806080858703121561192e57600080fd5b8435611939816115cb565b93506020850135611949816115cb565b92506040850135611959816115cb565b9396929550929360600135925050565b600080600060a0848603121561197e57600080fd5b8335611989816115cb565b925060208401356001600160401b038111156119a457600080fd5b6119b086828701611645565b9250506119c085604086016116d1565b90509250925092565b60008060008060c085870312156119df57600080fd5b84356001600160401b038111156119f557600080fd5b611a0187828801611645565b945050611a1060208601611618565b92506040850135611a20816115cb565b9150611a2f86606087016116d1565b905092959194509250565b60208082526015908201527413dddb995c881cda59db881a5cc81a5b9d985b1a59605a1b604082015260600190565b634e487b7160e01b600052601160045260246000fd5b600060018201611a9157611a91611a69565b5060010190565b634e487b7160e01b600052603260045260246000fd5b6000815180845260005b81811015611ad457602081850181015186830182015201611ab8565b506000602082860101526020601f19601f83011685010191505092915050565b600061ffff808716835260806020840152611b126080840187611aae565b94166040830152506001600160a01b039190911660609091015292915050565b600060208284031215611b4457600080fd5b815180151581146115fd57600080fd5b8082018082111561146257611462611a69565b60008060408385031215611b7a57600080fd5b8251611b85816115cb565b6020939093015192949293505050565b600060408284031215611ba757600080fd5b604051604081018181106001600160401b0382111715611bc957611bc961162f565b604052611bd583611618565b81526020830135611be5816115cb565b60208201529392505050565b6020808252602a908201527f436f6e7472616374206973206e6f7420617070726f76656420746f206d616b65604082015269207472616e736665727360b01b606082015260800190565b602080825260199082015278155cd95c881a185cc81c995d9bdad95908185c1c1c9bdd985b603a1b604082015260600190565b6001600160a01b039384168152919092166020820152604081019190915260600190565b6001600160a01b0383168152604060208201819052600090610b4a90830184611aae565b8181038181111561146257611462611a69565b600060208284031215611cdb57600080fd5b813560ff811681146115fd57600080fd5b6020808252602b908201527f496e697469616c697a61626c653a20636f6e7472616374206973206e6f74206960408201526a6e697469616c697a696e6760a81b60608201526080019056fea164736f6c6343000813000a",
  "devdoc": {
    "details": "Proxy contract to manage user token approvals",
    "events": {
      "Initialized(uint8)": {
        "details": "Triggered when the contract has been initialized or reinitialized."
      }
    },
    "kind": "dev",
    "methods": {
      "addBaseFee(string,uint16,address,(bytes32,bytes32,uint8))": {
        "details": "update base fees",
        "params": {
          "label": "label of fee",
          "rate": "fees rate to add",
          "receiver": "receiver of fee to add"
        }
      },
      "addBlacklist(address,string,(bytes32,bytes32,uint8))": {
        "details": "adds address to blacklist",
        "params": {
          "_name": "name of contract",
          "_sig": "sign of owner",
          "_to": "address to add blacklist"
        }
      },
      "approveContract(address)": {
        "details": "Approve contract to call transfer functions",
        "params": {
          "_contract": "address of contract to approve"
        }
      },
      "calcuateFee(address,uint256,(uint16,address)[])": {
        "details": "caculates fee",
        "params": {
          "_collection": "collection address",
          "_fees": "requesting fee",
          "_tokenId": "id of token"
        },
        "returns": {
          "fees": "cauculated fee"
        }
      },
      "clearBaseFee((bytes32,bytes32,uint8))": {
        "details": "clears all base fee"
      },
      "denyContract(address)": {
        "details": "Revoke approval of contract to call transfer functions",
        "params": {
          "_contract": "address of contract to revoke approval"
        }
      },
      "grantApproval()": {
        "details": "Allow contract to make transfers on-behalf of a specific user"
      },
      "initialize(address)": {
        "params": {
          "_signer": "signer address"
        }
      },
      "owner()": {
        "details": "Returns the address of the current owner."
      },
      "removeBlacklist(address,(bytes32,bytes32,uint8))": {
        "details": "adds address to blacklist",
        "params": {
          "_sig": "sign of owner",
          "_to": "address to add blacklist"
        }
      },
      "renounceOwnership()": {
        "details": "Leaves the contract without owner. It will not be possible to call `onlyOwner` functions. Can only be called by the current owner. NOTE: Renouncing ownership will leave the contract without an owner, thereby disabling any functionality that is only available to the owner."
      },
      "revokeApproval()": {
        "details": "Block contract from making transfers on-behalf of a specific user"
      },
      "transferERC1155(address,address,address,uint256,uint256)": {
        "details": "Transfer ERC1155 token using `safeTransferFrom`",
        "params": {
          "amount": "amount",
          "collection": "address of the collection",
          "from": "address of the sender",
          "to": "address of the recipient",
          "tokenId": "tokenId"
        }
      },
      "transferERC20(address,address,address,uint256)": {
        "details": "Transfer ERC20 token",
        "params": {
          "amount": "amount",
          "from": "address of the sender",
          "to": "address of the recipient",
          "token": "address of the token"
        }
      },
      "transferERC721(address,address,address,uint256)": {
        "details": "Transfer ERC721 token using `safeTransferFrom`",
        "params": {
          "collection": "address of the collection",
          "from": "address of the sender",
          "to": "address of the recipient",
          "tokenId": "tokenId"
        }
      },
      "transferERC721Unsafe(address,address,address,uint256)": {
        "details": "Transfer ERC721 token using `transferFrom`",
        "params": {
          "collection": "address of the collection",
          "from": "address of the sender",
          "to": "address of the recipient",
          "tokenId": "tokenId"
        }
      },
      "transferOwnership(address)": {
        "details": "Transfers ownership of the contract to a new account (`newOwner`). Can only be called by the current owner."
      },
      "updateBaseFee(uint16,string,uint16,address,(bytes32,bytes32,uint8))": {
        "details": "update base fees",
        "params": {
          "id": "id of fee",
          "label": "label of fee",
          "rate": "fee rate",
          "receiver": "fee receiver",
          "sig": "signature of owner wallet"
        }
      },
      "validateSign(address,(bytes32,bytes32,uint8))": {
        "details": "validate signature of contract owner",
        "params": {
          "sender": "address of sender",
          "sig": "sign of owner"
        }
      }
    },
    "title": "ExecutionDelegate",
    "version": 1
  },
  "userdoc": {
    "kind": "user",
    "methods": {},
    "version": 1
  },
  "storageLayout": {
    "storage": [
      {
        "astId": 503,
        "contract": "contracts/ExecutionDelegate.sol:ExecutionDelegate",
        "label": "_initialized",
        "offset": 0,
        "slot": "0",
        "type": "t_uint8"
      },
      {
        "astId": 506,
        "contract": "contracts/ExecutionDelegate.sol:ExecutionDelegate",
        "label": "_initializing",
        "offset": 1,
        "slot": "0",
        "type": "t_bool"
      },
      {
        "astId": 1172,
        "contract": "contracts/ExecutionDelegate.sol:ExecutionDelegate",
        "label": "__gap",
        "offset": 0,
        "slot": "1",
        "type": "t_array(t_uint256)50_storage"
      },
      {
        "astId": 10,
        "contract": "contracts/ExecutionDelegate.sol:ExecutionDelegate",
        "label": "_owner",
        "offset": 0,
        "slot": "51",
        "type": "t_address"
      },
      {
        "astId": 130,
        "contract": "contracts/ExecutionDelegate.sol:ExecutionDelegate",
        "label": "__gap",
        "offset": 0,
        "slot": "52",
        "type": "t_array(t_uint256)49_storage"
      },
      {
        "astId": 8740,
        "contract": "contracts/ExecutionDelegate.sol:ExecutionDelegate",
        "label": "contracts",
        "offset": 0,
        "slot": "101",
        "type": "t_mapping(t_address,t_bool)"
      },
      {
        "astId": 8744,
        "contract": "contracts/ExecutionDelegate.sol:ExecutionDelegate",
        "label": "revokedApproval",
        "offset": 0,
        "slot": "102",
        "type": "t_mapping(t_address,t_bool)"
      },
      {
        "astId": 8748,
        "contract": "contracts/ExecutionDelegate.sol:ExecutionDelegate",
        "label": "nonce",
        "offset": 0,
        "slot": "103",
        "type": "t_mapping(t_address,t_uint256)"
      },
      {
        "astId": 8752,
        "contract": "contracts/ExecutionDelegate.sol:ExecutionDelegate",
        "label": "blacklisted",
        "offset": 0,
        "slot": "104",
        "type": "t_mapping(t_address,t_bool)"
      },
      {
        "astId": 8754,
        "contract": "contracts/ExecutionDelegate.sol:ExecutionDelegate",
        "label": "signer",
        "offset": 0,
        "slot": "105",
        "type": "t_address"
      },
      {
        "astId": 8758,
        "contract": "contracts/ExecutionDelegate.sol:ExecutionDelegate",
        "label": "baseFee",
        "offset": 0,
        "slot": "106",
        "type": "t_array(t_struct(Fee)13667_storage)dyn_storage"
      }
    ],
    "types": {
      "t_address": {
        "encoding": "inplace",
        "label": "address",
        "numberOfBytes": "20"
      },
      "t_address_payable": {
        "encoding": "inplace",
        "label": "address payable",
        "numberOfBytes": "20"
      },
      "t_array(t_struct(Fee)13667_storage)dyn_storage": {
        "base": "t_struct(Fee)13667_storage",
        "encoding": "dynamic_array",
        "label": "struct Fee[]",
        "numberOfBytes": "32"
      },
      "t_array(t_uint256)49_storage": {
        "base": "t_uint256",
        "encoding": "inplace",
        "label": "uint256[49]",
        "numberOfBytes": "1568"
      },
      "t_array(t_uint256)50_storage": {
        "base": "t_uint256",
        "encoding": "inplace",
        "label": "uint256[50]",
        "numberOfBytes": "1600"
      },
      "t_bool": {
        "encoding": "inplace",
        "label": "bool",
        "numberOfBytes": "1"
      },
      "t_mapping(t_address,t_bool)": {
        "encoding": "mapping",
        "key": "t_address",
        "label": "mapping(address => bool)",
        "numberOfBytes": "32",
        "value": "t_bool"
      },
      "t_mapping(t_address,t_uint256)": {
        "encoding": "mapping",
        "key": "t_address",
        "label": "mapping(address => uint256)",
        "numberOfBytes": "32",
        "value": "t_uint256"
      },
      "t_struct(Fee)13667_storage": {
        "encoding": "inplace",
        "label": "struct Fee",
        "members": [
          {
            "astId": 13664,
            "contract": "contracts/ExecutionDelegate.sol:ExecutionDelegate",
            "label": "rate",
            "offset": 0,
            "slot": "0",
            "type": "t_uint16"
          },
          {
            "astId": 13666,
            "contract": "contracts/ExecutionDelegate.sol:ExecutionDelegate",
            "label": "recipient",
            "offset": 2,
            "slot": "0",
            "type": "t_address_payable"
          }
        ],
        "numberOfBytes": "32"
      },
      "t_uint16": {
        "encoding": "inplace",
        "label": "uint16",
        "numberOfBytes": "2"
      },
      "t_uint256": {
        "encoding": "inplace",
        "label": "uint256",
        "numberOfBytes": "32"
      },
      "t_uint8": {
        "encoding": "inplace",
        "label": "uint8",
        "numberOfBytes": "1"
      }
    }
  }
}