{
  "address": "0x9967aD1f2683877A9A4e1028Fb863FbE77dcd720",
  "abi": [
    {
      "anonymous": false,
      "inputs": [
        {
          "indexed": true,
          "internalType": "address",
          "name": "_contract",
          "type": "address"
        }
      ],
      "name": "ApproveContract",
      "type": "event"
    },
    {
      "anonymous": false,
      "inputs": [
        {
          "indexed": true,
          "internalType": "address",
          "name": "_contract",
          "type": "address"
        }
      ],
      "name": "DenyContract",
      "type": "event"
    },
    {
      "anonymous": false,
      "inputs": [
        {
          "indexed": true,
          "internalType": "address",
          "name": "user",
          "type": "address"
        }
      ],
      "name": "GrantApproval",
      "type": "event"
    },
    {
      "anonymous": false,
      "inputs": [
        {
          "components": [
            {
              "internalType": "uint16",
              "name": "rate",
              "type": "uint16"
            },
            {
              "internalType": "address payable",
              "name": "recipient",
              "type": "address"
            }
          ],
          "indexed": false,
          "internalType": "struct Fee[]",
          "name": "fees",
          "type": "tuple[]"
        }
      ],
      "name": "NewBaseFee",
      "type": "event"
    },
    {
      "anonymous": false,
      "inputs": [
        {
          "indexed": true,
          "internalType": "address",
          "name": "previousOwner",
          "type": "address"
        },
        {
          "indexed": true,
          "internalType": "address",
          "name": "newOwner",
          "type": "address"
        }
      ],
      "name": "OwnershipTransferred",
      "type": "event"
    },
    {
      "anonymous": false,
      "inputs": [
        {
          "indexed": true,
          "internalType": "address",
          "name": "user",
          "type": "address"
        }
      ],
      "name": "RevokeApproval",
      "type": "event"
    },
    {
      "inputs": [
        {
          "internalType": "uint16",
          "name": "rate",
          "type": "uint16"
        },
        {
          "internalType": "address",
          "name": "receiver",
          "type": "address"
        }
      ],
      "name": "addBaseFee",
      "outputs": [],
      "stateMutability": "nonpayable",
      "type": "function"
    },
    {
      "inputs": [
        {
          "internalType": "address",
          "name": "_contract",
          "type": "address"
        }
      ],
      "name": "approveContract",
      "outputs": [],
      "stateMutability": "nonpayable",
      "type": "function"
    },
    {
      "inputs": [
        {
          "internalType": "uint256",
          "name": "",
          "type": "uint256"
        }
      ],
      "name": "baseFee",
      "outputs": [
        {
          "internalType": "uint16",
          "name": "rate",
          "type": "uint16"
        },
        {
          "internalType": "address payable",
          "name": "recipient",
          "type": "address"
        }
      ],
      "stateMutability": "view",
      "type": "function"
    },
    {
      "inputs": [
        {
          "internalType": "address",
          "name": "_collection",
          "type": "address"
        },
        {
          "internalType": "uint256",
          "name": "_tokenId",
          "type": "uint256"
        },
        {
          "components": [
            {
              "internalType": "uint16",
              "name": "rate",
              "type": "uint16"
            },
            {
              "internalType": "address payable",
              "name": "recipient",
              "type": "address"
            }
          ],
          "internalType": "struct Fee[]",
          "name": "_fees",
          "type": "tuple[]"
        }
      ],
      "name": "calcuateFee",
      "outputs": [
        {
          "components": [
            {
              "internalType": "uint16",
              "name": "rate",
              "type": "uint16"
            },
            {
              "internalType": "address payable",
              "name": "recipient",
              "type": "address"
            }
          ],
          "internalType": "struct Fee[]",
          "name": "fees",
          "type": "tuple[]"
        }
      ],
      "stateMutability": "view",
      "type": "function"
    },
    {
      "inputs": [],
      "name": "clearBaseFee",
      "outputs": [],
      "stateMutability": "nonpayable",
      "type": "function"
    },
    {
      "inputs": [
        {
          "internalType": "address",
          "name": "",
          "type": "address"
        }
      ],
      "name": "contracts",
      "outputs": [
        {
          "internalType": "bool",
          "name": "",
          "type": "bool"
        }
      ],
      "stateMutability": "view",
      "type": "function"
    },
    {
      "inputs": [
        {
          "internalType": "address",
          "name": "_contract",
          "type": "address"
        }
      ],
      "name": "denyContract",
      "outputs": [],
      "stateMutability": "nonpayable",
      "type": "function"
    },
    {
      "inputs": [],
      "name": "grantApproval",
      "outputs": [],
      "stateMutability": "nonpayable",
      "type": "function"
    },
    {
      "inputs": [],
      "name": "owner",
      "outputs": [
        {
          "internalType": "address",
          "name": "",
          "type": "address"
        }
      ],
      "stateMutability": "view",
      "type": "function"
    },
    {
      "inputs": [],
      "name": "renounceOwnership",
      "outputs": [],
      "stateMutability": "nonpayable",
      "type": "function"
    },
    {
      "inputs": [],
      "name": "revokeApproval",
      "outputs": [],
      "stateMutability": "nonpayable",
      "type": "function"
    },
    {
      "inputs": [
        {
          "internalType": "address",
          "name": "",
          "type": "address"
        }
      ],
      "name": "revokedApproval",
      "outputs": [
        {
          "internalType": "bool",
          "name": "",
          "type": "bool"
        }
      ],
      "stateMutability": "view",
      "type": "function"
    },
    {
      "inputs": [
        {
          "internalType": "address",
          "name": "collection",
          "type": "address"
        },
        {
          "internalType": "address",
          "name": "from",
          "type": "address"
        },
        {
          "internalType": "address",
          "name": "to",
          "type": "address"
        },
        {
          "internalType": "uint256",
          "name": "tokenId",
          "type": "uint256"
        },
        {
          "internalType": "uint256",
          "name": "amount",
          "type": "uint256"
        }
      ],
      "name": "transferERC1155",
      "outputs": [],
      "stateMutability": "nonpayable",
      "type": "function"
    },
    {
      "inputs": [
        {
          "internalType": "address",
          "name": "token",
          "type": "address"
        },
        {
          "internalType": "address",
          "name": "from",
          "type": "address"
        },
        {
          "internalType": "address",
          "name": "to",
          "type": "address"
        },
        {
          "internalType": "uint256",
          "name": "amount",
          "type": "uint256"
        }
      ],
      "name": "transferERC20",
      "outputs": [
        {
          "internalType": "bool",
          "name": "",
          "type": "bool"
        }
      ],
      "stateMutability": "nonpayable",
      "type": "function"
    },
    {
      "inputs": [
        {
          "internalType": "address",
          "name": "collection",
          "type": "address"
        },
        {
          "internalType": "address",
          "name": "from",
          "type": "address"
        },
        {
          "internalType": "address",
          "name": "to",
          "type": "address"
        },
        {
          "internalType": "uint256",
          "name": "tokenId",
          "type": "uint256"
        }
      ],
      "name": "transferERC721",
      "outputs": [],
      "stateMutability": "nonpayable",
      "type": "function"
    },
    {
      "inputs": [
        {
          "internalType": "address",
          "name": "collection",
          "type": "address"
        },
        {
          "internalType": "address",
          "name": "from",
          "type": "address"
        },
        {
          "internalType": "address",
          "name": "to",
          "type": "address"
        },
        {
          "internalType": "uint256",
          "name": "tokenId",
          "type": "uint256"
        }
      ],
      "name": "transferERC721Unsafe",
      "outputs": [],
      "stateMutability": "nonpayable",
      "type": "function"
    },
    {
      "inputs": [
        {
          "internalType": "address",
          "name": "newOwner",
          "type": "address"
        }
      ],
      "name": "transferOwnership",
      "outputs": [],
      "stateMutability": "nonpayable",
      "type": "function"
    },
    {
      "inputs": [
        {
          "components": [
            {
              "internalType": "uint16",
              "name": "rate",
              "type": "uint16"
            },
            {
              "internalType": "address payable",
              "name": "recipient",
              "type": "address"
            }
          ],
          "internalType": "struct Fee[]",
          "name": "fees",
          "type": "tuple[]"
        }
      ],
      "name": "updateBaseFee",
      "outputs": [],
      "stateMutability": "nonpayable",
      "type": "function"
    }
  ],
  "transactionHash": "0x7c7056c4e97558842615b8ed482232fb3b2250613aec3165ffe55c891a285a79",
  "args": [],
  "numDeployments": 2,
  "solcInputHash": "69631710e4d570fdd1575ca96ae093de",
  "bytecode": "0x608060405234801561001057600080fd5b5061001a3361001f565b61006f565b600080546001600160a01b038381166001600160a01b0319831681178455604051919092169283917f8be0079c531659141344cd1fd0a4f28419497f9722a3daafe3b4186f6b6457e09190a35050565b61142b8061007e6000396000f3fe608060405234801561001057600080fd5b50600436106100e65760003560e01c806307f7aafb146100eb5780632a312fe3146101005780634a3e3a1f1461013a57806369dc9ff31461016d5780636ef91c7214610190578063715018a6146101b057806374a9402e146101b8578063789f93f6146101cb5780638da5cb5b146101de57806390d02b3c146101fe578063a8034df114610206578063b7e2077e1461020e578063ca72da8e14610221578063cb35c13914610234578063d411581b14610247578063da3e8ce41461025a578063f2fde38b1461026d578063f76304bb14610280575b600080fd5b6100fe6100f9366004610eaa565b610288565b005b61011361010e366004610ece565b6102df565b6040805161ffff90931683526001600160a01b039091166020830152015b60405180910390f35b61015d610148366004610eaa565b60026020526000908152604090205460ff1681565b6040519015158152602001610131565b61015d61017b366004610eaa565b60016020526000908152604090205460ff1681565b6101a361019e366004610f32565b610314565b6040516101319190610f8d565b6100fe61075a565b6100fe6101c6366004610fe9565b61076e565b6100fe6101d9366004611044565b610865565b6101e6610935565b6040516001600160a01b039091168152602001610131565b6100fe610944565b6100fe610986565b6100fe61021c366004610eaa565b6109c5565b6100fe61022f366004611044565b610a16565b6100fe610242366004611095565b610aae565b6100fe6102553660046110e6565b610b4e565b61015d610268366004611044565b610bfa565b6100fe61027b366004610eaa565b610cde565b6100fe610d57565b610290610d93565b6001600160a01b0381166000818152600160208190526040808320805460ff1916909217909155517f283ffe02a14663588cf87ba17adbc21c9ce0d0cdb15655926bf2b987af3075fe9190a250565b600381815481106102ef57600080fd5b60009182526020909120015461ffff811691506201000090046001600160a01b031682565b60408051600080825260208201909252606091610347565b610334610e42565b81526020019060019003908161032c5790505b506040516301ffc9a760e01b815263152a902d60e11b60048201529091506001600160a01b038616906301ffc9a790602401602060405180830381865afa158015610396573d6000803e3d6000fd5b505050506040513d601f19601f820116820180604052508101906103ba9190611135565b156105f3576003546103cc908361116d565b6103d790600161116d565b6001600160401b038111156103ee576103ee61111f565b60405190808252806020026020018201604052801561042757816020015b610414610e42565b81526020019060019003908161040c5790505b5060405163152a902d60e11b815260048101869052612710602482015290915060009081906001600160a01b03881690632a55205a906044016040805180830381865afa15801561047c573d6000803e3d6000fd5b505050506040513d601f19601f820116820180604052508101906104a09190611186565b9150915060405180604001604052808261ffff168152602001836001600160a01b0316815250836000815181106104d9576104d96111b4565b602002602001018190525060005b8481101561055157858582818110610501576105016111b4565b90506040020180360381019061051791906111ca565b8461052383600161116d565b81518110610533576105336111b4565b6020026020010181905250808061054990611236565b9150506104e7565b5060005b6003548110156105eb5760038181548110610572576105726111b4565b60009182526020918290206040805180820190915291015461ffff811682526201000090046001600160a01b031691810191909152846105b2878461116d565b6105bd90600161116d565b815181106105cd576105cd6111b4565b602002602001018190525080806105e390611236565b915050610555565b505050610752565b600354610600908361116d565b61060b90600161116d565b6001600160401b038111156106225761062261111f565b60405190808252806020026020018201604052801561065b57816020015b610648610e42565b8152602001906001900390816106405790505b50905060005b828110156106c15783838281811061067b5761067b6111b4565b90506040020180360381019061069191906111ca565b8282815181106106a3576106a36111b4565b602002602001018190525080806106b990611236565b915050610661565b5060005b60035481101561075057600381815481106106e2576106e26111b4565b60009182526020918290206040805180820190915291015461ffff811682526201000090046001600160a01b03169181019190915282610722858461116d565b81518110610732576107326111b4565b6020026020010181905250808061074890611236565b9150506106c5565b505b949350505050565b610762610d93565b61076c6000610df2565b565b3360009081526001602052604090205460ff166107a65760405162461bcd60e51b815260040161079d9061124f565b60405180910390fd5b6001600160a01b03841660009081526002602052604090205460ff16156107df5760405162461bcd60e51b815260040161079d90611299565b604051637921219560e11b81526001600160a01b0385811660048301528481166024830152604482018490526064820183905260a06084830152600060a483015286169063f242432a9060c401600060405180830381600087803b15801561084657600080fd5b505af115801561085a573d6000803e3d6000fd5b505050505050505050565b3360009081526001602052604090205460ff166108945760405162461bcd60e51b815260040161079d9061124f565b6001600160a01b03831660009081526002602052604090205460ff16156108cd5760405162461bcd60e51b815260040161079d90611299565b604051632142170760e11b81526001600160a01b038516906342842e0e906108fd908690869086906004016112cc565b600060405180830381600087803b15801561091757600080fd5b505af115801561092b573d6000803e3d6000fd5b5050505050505050565b6000546001600160a01b031690565b33600081815260026020526040808220805460ff19166001179055517fdddeac663983b1e35153215a4578fecbb5921d12e660b3c4259aa7d9dbb9709f9190a2565b33600081815260026020526040808220805460ff19169055517f120d91a0121c2d5a7ce9638fce4bd262d4b443568fce40f681f50dca814a629a9190a2565b6109cd610d93565b6001600160a01b038116600081815260016020526040808220805460ff19169055517f2b35b0a030b4f4cef0a9e8d01828235bb82a11ec4e37c11bd6d8770d9aafb17c9190a250565b3360009081526001602052604090205460ff16610a455760405162461bcd60e51b815260040161079d9061124f565b6001600160a01b03831660009081526002602052604090205460ff1615610a7e5760405162461bcd60e51b815260040161079d90611299565b6040516323b872dd60e01b81526001600160a01b038516906323b872dd906108fd908690869086906004016112cc565b610ab6610d93565b610ac260036000610e59565b60005b81811015610b22576003838383818110610ae157610ae16111b4565b83546001810185556000948552602090942060409091029290920192919091019050610b0d82826112f0565b50508080610b1a90611236565b915050610ac5565b506000805160206113ff8339815191528282604051610b42929190611343565b60405180910390a15050565b610b56610d93565b60408051808201825261ffff80851682526001600160a01b038085166020840190815260038054600181018255600082905285517fc2575a0e9e593c00f959f8c92f12db2869c3395a3b0502d05e2516446f71f85b9091018054935190941662010000026001600160b01b0319909316941693909317179055915190916000805160206113ff83398151915291610bed91906113a9565b60405180910390a1505050565b3360009081526001602052604081205460ff16610c295760405162461bcd60e51b815260040161079d9061124f565b6001600160a01b03841660009081526002602052604090205460ff1615610c625760405162461bcd60e51b815260040161079d90611299565b6040516323b872dd60e01b81526001600160a01b038616906323b872dd90610c92908790879087906004016112cc565b6020604051808303816000875af1158015610cb1573d6000803e3d6000fd5b505050506040513d601f19601f82011682018060405250810190610cd59190611135565b95945050505050565b610ce6610d93565b6001600160a01b038116610d4b5760405162461bcd60e51b815260206004820152602660248201527f4f776e61626c653a206e6577206f776e657220697320746865207a65726f206160448201526564647265737360d01b606482015260840161079d565b610d5481610df2565b50565b610d5f610d93565b610d6b60036000610e59565b6000805160206113ff8339815191526003604051610d8991906113a9565b60405180910390a1565b33610d9c610935565b6001600160a01b03161461076c5760405162461bcd60e51b815260206004820181905260248201527f4f776e61626c653a2063616c6c6572206973206e6f7420746865206f776e6572604482015260640161079d565b600080546001600160a01b038381166001600160a01b0319831681178455604051919092169283917f8be0079c531659141344cd1fd0a4f28419497f9722a3daafe3b4186f6b6457e09190a35050565b604080518082019091526000808252602082015290565b5080546000825590600052602060002090810190610d5491905b80821115610e915780546001600160b01b0319168155600101610e73565b5090565b6001600160a01b0381168114610d5457600080fd5b600060208284031215610ebc57600080fd5b8135610ec781610e95565b9392505050565b600060208284031215610ee057600080fd5b5035919050565b60008083601f840112610ef957600080fd5b5081356001600160401b03811115610f1057600080fd5b6020830191508360208260061b8501011115610f2b57600080fd5b9250929050565b60008060008060608587031215610f4857600080fd5b8435610f5381610e95565b93506020850135925060408501356001600160401b03811115610f7557600080fd5b610f8187828801610ee7565b95989497509550505050565b602080825282518282018190526000919060409081850190868401855b82811015610fdc578151805161ffff1685528601516001600160a01b0316868501529284019290850190600101610faa565b5091979650505050505050565b600080600080600060a0868803121561100157600080fd5b853561100c81610e95565b9450602086013561101c81610e95565b9350604086013561102c81610e95565b94979396509394606081013594506080013592915050565b6000806000806080858703121561105a57600080fd5b843561106581610e95565b9350602085013561107581610e95565b9250604085013561108581610e95565b9396929550929360600135925050565b600080602083850312156110a857600080fd5b82356001600160401b038111156110be57600080fd5b6110ca85828601610ee7565b90969095509350505050565b61ffff81168114610d5457600080fd5b600080604083850312156110f957600080fd5b8235611104816110d6565b9150602083013561111481610e95565b809150509250929050565b634e487b7160e01b600052604160045260246000fd5b60006020828403121561114757600080fd5b81518015158114610ec757600080fd5b634e487b7160e01b600052601160045260246000fd5b8082018082111561118057611180611157565b92915050565b6000806040838503121561119957600080fd5b82516111a481610e95565b6020939093015192949293505050565b634e487b7160e01b600052603260045260246000fd5b6000604082840312156111dc57600080fd5b604051604081018181106001600160401b038211171561120c57634e487b7160e01b600052604160045260246000fd5b604052823561121a816110d6565b8152602083013561122a81610e95565b60208201529392505050565b60006001820161124857611248611157565b5060010190565b6020808252602a908201527f436f6e7472616374206973206e6f7420617070726f76656420746f206d616b65604082015269207472616e736665727360b01b606082015260800190565b602080825260199082015278155cd95c881a185cc81c995d9bdad95908185c1c1c9bdd985b603a1b604082015260600190565b6001600160a01b039384168152919092166020820152604081019190915260600190565b81356112fb816110d6565b61ffff8116905081548161ffff198216178355602084013561131c81610e95565b6001600160b01b03199190911690911760109190911b62010000600160b01b031617905550565b6020808252818101839052600090604080840186845b8781101561139c57813561136c816110d6565b61ffff1683528185013561137f81610e95565b6001600160a01b0316838601529183019190830190600101611359565b5090979650505050505050565b60006020808301818452808554808352604092508286019150866000528360002060005b82811015610fdc57815461ffff8116855260101c6001600160a01b03168685015292840192600191820191016113cd56fe3a08e273a52ce6fad29142988478aaf1351afec0a4e1f2ff42382ad0872713bfa164736f6c6343000813000a",
  "devdoc": {
    "details": "Proxy contract to manage user token approvals",
    "kind": "dev",
    "methods": {
      "addBaseFee(uint16,address)": {
        "details": "update base fees",
        "params": {
          "rate": "fees rate to add",
          "receiver": "receiver of fee to add"
        }
      },
      "approveContract(address)": {
        "details": "Approve contract to call transfer functions",
        "params": {
          "_contract": "address of contract to approve"
        }
      },
      "calcuateFee(address,uint256,(uint16,address)[])": {
        "details": "caculates fee",
        "params": {
          "_collection": "collection address",
          "_fees": "requesting fee",
          "_tokenId": "id of token"
        },
        "returns": {
          "fees": "cauculated fee"
        }
      },
      "clearBaseFee()": {
        "details": "clears base fee data"
      },
      "denyContract(address)": {
        "details": "Revoke approval of contract to call transfer functions",
        "params": {
          "_contract": "address of contract to revoke approval"
        }
      },
      "grantApproval()": {
        "details": "Allow contract to make transfers on-behalf of a specific user"
      },
      "owner()": {
        "details": "Returns the address of the current owner."
      },
      "renounceOwnership()": {
        "details": "Leaves the contract without owner. It will not be possible to call `onlyOwner` functions. Can only be called by the current owner. NOTE: Renouncing ownership will leave the contract without an owner, thereby disabling any functionality that is only available to the owner."
      },
      "revokeApproval()": {
        "details": "Block contract from making transfers on-behalf of a specific user"
      },
      "transferERC1155(address,address,address,uint256,uint256)": {
        "details": "Transfer ERC1155 token using `safeTransferFrom`",
        "params": {
          "amount": "amount",
          "collection": "address of the collection",
          "from": "address of the sender",
          "to": "address of the recipient",
          "tokenId": "tokenId"
        }
      },
      "transferERC20(address,address,address,uint256)": {
        "details": "Transfer ERC20 token",
        "params": {
          "amount": "amount",
          "from": "address of the sender",
          "to": "address of the recipient",
          "token": "address of the token"
        }
      },
      "transferERC721(address,address,address,uint256)": {
        "details": "Transfer ERC721 token using `safeTransferFrom`",
        "params": {
          "collection": "address of the collection",
          "from": "address of the sender",
          "to": "address of the recipient",
          "tokenId": "tokenId"
        }
      },
      "transferERC721Unsafe(address,address,address,uint256)": {
        "details": "Transfer ERC721 token using `transferFrom`",
        "params": {
          "collection": "address of the collection",
          "from": "address of the sender",
          "to": "address of the recipient",
          "tokenId": "tokenId"
        }
      },
      "transferOwnership(address)": {
        "details": "Transfers ownership of the contract to a new account (`newOwner`). Can only be called by the current owner."
      },
      "updateBaseFee((uint16,address)[])": {
        "details": "update base fees",
        "params": {
          "fees": "fees to update"
        }
      }
    },
    "title": "ExecutionDelegate",
    "version": 1
  },
  "userdoc": {
    "kind": "user",
    "methods": {},
    "version": 1
  },
  "storageLayout": {
    "storage": [
      {
        "astId": 1291,
        "contract": "contracts/ExecutionDelegate.sol:ExecutionDelegate",
        "label": "_owner",
        "offset": 0,
        "slot": "0",
        "type": "t_address"
      },
      {
        "astId": 9687,
        "contract": "contracts/ExecutionDelegate.sol:ExecutionDelegate",
        "label": "contracts",
        "offset": 0,
        "slot": "1",
        "type": "t_mapping(t_address,t_bool)"
      },
      {
        "astId": 9691,
        "contract": "contracts/ExecutionDelegate.sol:ExecutionDelegate",
        "label": "revokedApproval",
        "offset": 0,
        "slot": "2",
        "type": "t_mapping(t_address,t_bool)"
      },
      {
        "astId": 9695,
        "contract": "contracts/ExecutionDelegate.sol:ExecutionDelegate",
        "label": "baseFee",
        "offset": 0,
        "slot": "3",
        "type": "t_array(t_struct(Fee)14958_storage)dyn_storage"
      }
    ],
    "types": {
      "t_address": {
        "encoding": "inplace",
        "label": "address",
        "numberOfBytes": "20"
      },
      "t_address_payable": {
        "encoding": "inplace",
        "label": "address payable",
        "numberOfBytes": "20"
      },
      "t_array(t_struct(Fee)14958_storage)dyn_storage": {
        "base": "t_struct(Fee)14958_storage",
        "encoding": "dynamic_array",
        "label": "struct Fee[]",
        "numberOfBytes": "32"
      },
      "t_bool": {
        "encoding": "inplace",
        "label": "bool",
        "numberOfBytes": "1"
      },
      "t_mapping(t_address,t_bool)": {
        "encoding": "mapping",
        "key": "t_address",
        "label": "mapping(address => bool)",
        "numberOfBytes": "32",
        "value": "t_bool"
      },
      "t_struct(Fee)14958_storage": {
        "encoding": "inplace",
        "label": "struct Fee",
        "members": [
          {
            "astId": 14955,
            "contract": "contracts/ExecutionDelegate.sol:ExecutionDelegate",
            "label": "rate",
            "offset": 0,
            "slot": "0",
            "type": "t_uint16"
          },
          {
            "astId": 14957,
            "contract": "contracts/ExecutionDelegate.sol:ExecutionDelegate",
            "label": "recipient",
            "offset": 2,
            "slot": "0",
            "type": "t_address_payable"
          }
        ],
        "numberOfBytes": "32"
      },
      "t_uint16": {
        "encoding": "inplace",
        "label": "uint16",
        "numberOfBytes": "2"
      }
    }
  }
}