{
  "address": "0x77106590CD4639eBeb1Ecd2157Cb2eC94a849840",
  "abi": [
    {
      "anonymous": false,
      "inputs": [
        {
          "indexed": true,
          "internalType": "address",
          "name": "_contract",
          "type": "address"
        }
      ],
      "name": "ApproveContract",
      "type": "event"
    },
    {
      "anonymous": false,
      "inputs": [],
      "name": "ClearedBaseFee",
      "type": "event"
    },
    {
      "anonymous": false,
      "inputs": [
        {
          "indexed": true,
          "internalType": "address",
          "name": "_contract",
          "type": "address"
        }
      ],
      "name": "DenyContract",
      "type": "event"
    },
    {
      "anonymous": false,
      "inputs": [
        {
          "indexed": true,
          "internalType": "address",
          "name": "user",
          "type": "address"
        }
      ],
      "name": "GrantApproval",
      "type": "event"
    },
    {
      "anonymous": false,
      "inputs": [
        {
          "indexed": false,
          "internalType": "uint16",
          "name": "id",
          "type": "uint16"
        },
        {
          "indexed": false,
          "internalType": "string",
          "name": "label",
          "type": "string"
        },
        {
          "indexed": false,
          "internalType": "uint16",
          "name": "rate",
          "type": "uint16"
        },
        {
          "indexed": false,
          "internalType": "address",
          "name": "receipt",
          "type": "address"
        }
      ],
      "name": "NewBaseFee",
      "type": "event"
    },
    {
      "anonymous": false,
      "inputs": [
        {
          "indexed": true,
          "internalType": "address",
          "name": "previousOwner",
          "type": "address"
        },
        {
          "indexed": true,
          "internalType": "address",
          "name": "newOwner",
          "type": "address"
        }
      ],
      "name": "OwnershipTransferred",
      "type": "event"
    },
    {
      "anonymous": false,
      "inputs": [
        {
          "indexed": true,
          "internalType": "address",
          "name": "user",
          "type": "address"
        }
      ],
      "name": "RevokeApproval",
      "type": "event"
    },
    {
      "inputs": [
        {
          "internalType": "string",
          "name": "label",
          "type": "string"
        },
        {
          "internalType": "uint16",
          "name": "rate",
          "type": "uint16"
        },
        {
          "internalType": "address",
          "name": "receiver",
          "type": "address"
        },
        {
          "components": [
            {
              "internalType": "bytes32",
              "name": "r",
              "type": "bytes32"
            },
            {
              "internalType": "bytes32",
              "name": "s",
              "type": "bytes32"
            },
            {
              "internalType": "uint8",
              "name": "v",
              "type": "uint8"
            }
          ],
          "internalType": "struct Sig",
          "name": "sig",
          "type": "tuple"
        }
      ],
      "name": "addBaseFee",
      "outputs": [],
      "stateMutability": "nonpayable",
      "type": "function"
    },
    {
      "inputs": [
        {
          "internalType": "address",
          "name": "_contract",
          "type": "address"
        }
      ],
      "name": "approveContract",
      "outputs": [],
      "stateMutability": "nonpayable",
      "type": "function"
    },
    {
      "inputs": [
        {
          "internalType": "uint256",
          "name": "",
          "type": "uint256"
        }
      ],
      "name": "baseFee",
      "outputs": [
        {
          "internalType": "uint16",
          "name": "rate",
          "type": "uint16"
        },
        {
          "internalType": "address payable",
          "name": "recipient",
          "type": "address"
        }
      ],
      "stateMutability": "view",
      "type": "function"
    },
    {
      "inputs": [
        {
          "internalType": "address",
          "name": "_collection",
          "type": "address"
        },
        {
          "internalType": "uint256",
          "name": "_tokenId",
          "type": "uint256"
        },
        {
          "components": [
            {
              "internalType": "uint16",
              "name": "rate",
              "type": "uint16"
            },
            {
              "internalType": "address payable",
              "name": "recipient",
              "type": "address"
            }
          ],
          "internalType": "struct Fee[]",
          "name": "_fees",
          "type": "tuple[]"
        }
      ],
      "name": "calcuateFee",
      "outputs": [
        {
          "components": [
            {
              "internalType": "uint16",
              "name": "rate",
              "type": "uint16"
            },
            {
              "internalType": "address payable",
              "name": "recipient",
              "type": "address"
            }
          ],
          "internalType": "struct Fee[]",
          "name": "fees",
          "type": "tuple[]"
        }
      ],
      "stateMutability": "view",
      "type": "function"
    },
    {
      "inputs": [
        {
          "components": [
            {
              "internalType": "bytes32",
              "name": "r",
              "type": "bytes32"
            },
            {
              "internalType": "bytes32",
              "name": "s",
              "type": "bytes32"
            },
            {
              "internalType": "uint8",
              "name": "v",
              "type": "uint8"
            }
          ],
          "internalType": "struct Sig",
          "name": "sig",
          "type": "tuple"
        }
      ],
      "name": "clearBaseFee",
      "outputs": [],
      "stateMutability": "nonpayable",
      "type": "function"
    },
    {
      "inputs": [
        {
          "internalType": "address",
          "name": "",
          "type": "address"
        }
      ],
      "name": "contracts",
      "outputs": [
        {
          "internalType": "bool",
          "name": "",
          "type": "bool"
        }
      ],
      "stateMutability": "view",
      "type": "function"
    },
    {
      "inputs": [
        {
          "internalType": "address",
          "name": "_contract",
          "type": "address"
        }
      ],
      "name": "denyContract",
      "outputs": [],
      "stateMutability": "nonpayable",
      "type": "function"
    },
    {
      "inputs": [],
      "name": "grantApproval",
      "outputs": [],
      "stateMutability": "nonpayable",
      "type": "function"
    },
    {
      "inputs": [
        {
          "internalType": "address",
          "name": "",
          "type": "address"
        }
      ],
      "name": "nonce",
      "outputs": [
        {
          "internalType": "uint256",
          "name": "",
          "type": "uint256"
        }
      ],
      "stateMutability": "view",
      "type": "function"
    },
    {
      "inputs": [],
      "name": "owner",
      "outputs": [
        {
          "internalType": "address",
          "name": "",
          "type": "address"
        }
      ],
      "stateMutability": "view",
      "type": "function"
    },
    {
      "inputs": [],
      "name": "renounceOwnership",
      "outputs": [],
      "stateMutability": "nonpayable",
      "type": "function"
    },
    {
      "inputs": [],
      "name": "revokeApproval",
      "outputs": [],
      "stateMutability": "nonpayable",
      "type": "function"
    },
    {
      "inputs": [
        {
          "internalType": "address",
          "name": "",
          "type": "address"
        }
      ],
      "name": "revokedApproval",
      "outputs": [
        {
          "internalType": "bool",
          "name": "",
          "type": "bool"
        }
      ],
      "stateMutability": "view",
      "type": "function"
    },
    {
      "inputs": [
        {
          "internalType": "address",
          "name": "collection",
          "type": "address"
        },
        {
          "internalType": "address",
          "name": "from",
          "type": "address"
        },
        {
          "internalType": "address",
          "name": "to",
          "type": "address"
        },
        {
          "internalType": "uint256",
          "name": "tokenId",
          "type": "uint256"
        },
        {
          "internalType": "uint256",
          "name": "amount",
          "type": "uint256"
        }
      ],
      "name": "transferERC1155",
      "outputs": [],
      "stateMutability": "nonpayable",
      "type": "function"
    },
    {
      "inputs": [
        {
          "internalType": "address",
          "name": "token",
          "type": "address"
        },
        {
          "internalType": "address",
          "name": "from",
          "type": "address"
        },
        {
          "internalType": "address",
          "name": "to",
          "type": "address"
        },
        {
          "internalType": "uint256",
          "name": "amount",
          "type": "uint256"
        }
      ],
      "name": "transferERC20",
      "outputs": [
        {
          "internalType": "bool",
          "name": "",
          "type": "bool"
        }
      ],
      "stateMutability": "nonpayable",
      "type": "function"
    },
    {
      "inputs": [
        {
          "internalType": "address",
          "name": "collection",
          "type": "address"
        },
        {
          "internalType": "address",
          "name": "from",
          "type": "address"
        },
        {
          "internalType": "address",
          "name": "to",
          "type": "address"
        },
        {
          "internalType": "uint256",
          "name": "tokenId",
          "type": "uint256"
        }
      ],
      "name": "transferERC721",
      "outputs": [],
      "stateMutability": "nonpayable",
      "type": "function"
    },
    {
      "inputs": [
        {
          "internalType": "address",
          "name": "collection",
          "type": "address"
        },
        {
          "internalType": "address",
          "name": "from",
          "type": "address"
        },
        {
          "internalType": "address",
          "name": "to",
          "type": "address"
        },
        {
          "internalType": "uint256",
          "name": "tokenId",
          "type": "uint256"
        }
      ],
      "name": "transferERC721Unsafe",
      "outputs": [],
      "stateMutability": "nonpayable",
      "type": "function"
    },
    {
      "inputs": [
        {
          "internalType": "address",
          "name": "newOwner",
          "type": "address"
        }
      ],
      "name": "transferOwnership",
      "outputs": [],
      "stateMutability": "nonpayable",
      "type": "function"
    },
    {
      "inputs": [
        {
          "internalType": "uint16",
          "name": "id",
          "type": "uint16"
        },
        {
          "internalType": "string",
          "name": "label",
          "type": "string"
        },
        {
          "internalType": "uint16",
          "name": "rate",
          "type": "uint16"
        },
        {
          "internalType": "address",
          "name": "receiver",
          "type": "address"
        },
        {
          "components": [
            {
              "internalType": "bytes32",
              "name": "r",
              "type": "bytes32"
            },
            {
              "internalType": "bytes32",
              "name": "s",
              "type": "bytes32"
            },
            {
              "internalType": "uint8",
              "name": "v",
              "type": "uint8"
            }
          ],
          "internalType": "struct Sig",
          "name": "sig",
          "type": "tuple"
        }
      ],
      "name": "updateBaseFee",
      "outputs": [],
      "stateMutability": "nonpayable",
      "type": "function"
    }
  ],
  "transactionHash": "0xf7aa503f546cf7edd3338b7cffc0b017ef9a849c8765a22d401c93e2566e402c",
  "args": [],
  "numDeployments": 4,
  "solcInputHash": "038186d96a176c9b9eb62ed5f197ded2",
  "bytecode": "0x608060405234801561001057600080fd5b5061001a3361001f565b61006f565b600080546001600160a01b038381166001600160a01b0319831681178455604051919092169283917f8be0079c531659141344cd1fd0a4f28419497f9722a3daafe3b4186f6b6457e09190a35050565b61179d8061007e6000396000f3fe608060405234801561001057600080fd5b50600436106100f15760003560e01c806307f7aafb146100f657806325b4f64a1461010b5780632a312fe31461011e57806333578c7a146101585780634a3e3a1f1461016b57806369dc9ff31461019e5780636ef91c72146101c157806370ae92d2146101e1578063715018a61461020f57806374a9402e14610217578063789f93f61461022a5780638da5cb5b1461023d57806390d02b3c1461025d578063a8034df114610265578063a8a484141461026d578063b7e2077e14610280578063ca72da8e14610293578063da3e8ce4146102a6578063f2fde38b146102b9575b600080fd5b61010961010436600461115a565b6102cc565b005b61010961011936600461124f565b610323565b61013161012c3660046112d1565b610470565b6040805161ffff90931683526001600160a01b039091166020830152015b60405180910390f35b6101096101663660046112ea565b6104a5565b61018e61017936600461115a565b60026020526000908152604090205460ff1681565b604051901515815260200161014f565b61018e6101ac36600461115a565b60016020526000908152604090205460ff1681565b6101d46101cf366004611306565b610525565b60405161014f9190611391565b6102016101ef36600461115a565b60036020526000908152604090205481565b60405190815260200161014f565b61010961096b565b6101096102253660046113ed565b61097f565b610109610238366004611448565b610a6d565b610245610b3d565b6040516001600160a01b03909116815260200161014f565b610109610b4c565b610109610b8e565b61010961027b366004611499565b610bcd565b61010961028e36600461115a565b610cd0565b6101096102a1366004611448565b610d21565b61018e6102b4366004611448565b610db9565b6101096102c736600461115a565b610e9d565b6102d4610f16565b6001600160a01b0381166000818152600160208190526040808320805460ff1916909217909155517f283ffe02a14663588cf87ba17adbc21c9ce0d0cdb15655926bf2b987af3075fe9190a250565b8061032d81610f75565b6103525760405162461bcd60e51b81526004016103499061150a565b60405180910390fd5b33600090815260036020526040812080549161036d83611550565b909155505060045461ffff8716106103b45760405162461bcd60e51b815260206004820152600a602482015269125b9d985b1a59081a5960b21b6044820152606401610349565b60405180604001604052808561ffff168152602001846001600160a01b031681525060048761ffff16815481106103ed576103ed611569565b600091825260209182902083519101805493909201516001600160a01b031662010000026001600160b01b031990931661ffff909116179190911790556040517f83cd0831fbb6aa52b27dd0da185dc6de621a5c8a5ceeaf5ab862da1e6b9b651c9061046090889088908890889061157f565b60405180910390a1505050505050565b6004818154811061048057600080fd5b60009182526020909120015461ffff811691506201000090046001600160a01b031682565b806104af81610f75565b6104cb5760405162461bcd60e51b81526004016103499061150a565b3360009081526003602052604081208054916104e683611550565b909155506104f89050600460006110ed565b6040517f387e35327f81a7d341fd6081651a5e0ea126e8119a1847de9075cf31875973de90600090a15050565b60408051600080825260208201909252606091610558565b61054561110b565b81526020019060019003908161053d5790505b506040516301ffc9a760e01b815263152a902d60e11b60048201529091506001600160a01b038616906301ffc9a790602401602060405180830381865afa1580156105a7573d6000803e3d6000fd5b505050506040513d601f19601f820116820180604052508101906105cb91906115f4565b15610804576004546105dd9083611616565b6105e8906001611616565b6001600160401b038111156105ff576105ff611195565b60405190808252806020026020018201604052801561063857816020015b61062561110b565b81526020019060019003908161061d5790505b5060405163152a902d60e11b815260048101869052612710602482015290915060009081906001600160a01b03881690632a55205a906044016040805180830381865afa15801561068d573d6000803e3d6000fd5b505050506040513d601f19601f820116820180604052508101906106b1919061162f565b9150915060405180604001604052808261ffff168152602001836001600160a01b0316815250836000815181106106ea576106ea611569565b602002602001018190525060005b848110156107625785858281811061071257610712611569565b905060400201803603810190610728919061165d565b84610734836001611616565b8151811061074457610744611569565b6020026020010181905250808061075a90611550565b9150506106f8565b5060005b6004548110156107fc576004818154811061078357610783611569565b60009182526020918290206040805180820190915291015461ffff811682526201000090046001600160a01b031691810191909152846107c38784611616565b6107ce906001611616565b815181106107de576107de611569565b602002602001018190525080806107f490611550565b915050610766565b505050610963565b6004546108119083611616565b61081c906001611616565b6001600160401b0381111561083357610833611195565b60405190808252806020026020018201604052801561086c57816020015b61085961110b565b8152602001906001900390816108515790505b50905060005b828110156108d25783838281811061088c5761088c611569565b9050604002018036038101906108a2919061165d565b8282815181106108b4576108b4611569565b602002602001018190525080806108ca90611550565b915050610872565b5060005b60045481101561096157600481815481106108f3576108f3611569565b60009182526020918290206040805180820190915291015461ffff811682526201000090046001600160a01b031691810191909152826109338584611616565b8151811061094357610943611569565b6020026020010181905250808061095990611550565b9150506108d6565b505b949350505050565b610973610f16565b61097d600061109d565b565b3360009081526001602052604090205460ff166109ae5760405162461bcd60e51b8152600401610349906116b9565b6001600160a01b03841660009081526002602052604090205460ff16156109e75760405162461bcd60e51b815260040161034990611703565b604051637921219560e11b81526001600160a01b0385811660048301528481166024830152604482018490526064820183905260a06084830152600060a483015286169063f242432a9060c401600060405180830381600087803b158015610a4e57600080fd5b505af1158015610a62573d6000803e3d6000fd5b505050505050505050565b3360009081526001602052604090205460ff16610a9c5760405162461bcd60e51b8152600401610349906116b9565b6001600160a01b03831660009081526002602052604090205460ff1615610ad55760405162461bcd60e51b815260040161034990611703565b604051632142170760e11b81526001600160a01b038516906342842e0e90610b0590869086908690600401611736565b600060405180830381600087803b158015610b1f57600080fd5b505af1158015610b33573d6000803e3d6000fd5b5050505050505050565b6000546001600160a01b031690565b33600081815260026020526040808220805460ff19166001179055517fdddeac663983b1e35153215a4578fecbb5921d12e660b3c4259aa7d9dbb9709f9190a2565b33600081815260026020526040808220805460ff19169055517f120d91a0121c2d5a7ce9638fce4bd262d4b443568fce40f681f50dca814a629a9190a2565b80610bd781610f75565b610bf35760405162461bcd60e51b81526004016103499061150a565b336000908152600360205260408120805491610c0e83611550565b90915550506040805180820190915261ffff80861682526001600160a01b03808616602084019081526004805460018181018355600083905286517f8a35acfbc15ff81a39ae7d344fd709f28e8600b4aa8c65c6b64bfe7fe36bd19b9092018054945190951662010000026001600160b01b0319909416919095161791909117909155547f83cd0831fbb6aa52b27dd0da185dc6de621a5c8a5ceeaf5ab862da1e6b9b651c91610cbd9161175a565b878787604051610460949392919061157f565b610cd8610f16565b6001600160a01b038116600081815260016020526040808220805460ff19169055517f2b35b0a030b4f4cef0a9e8d01828235bb82a11ec4e37c11bd6d8770d9aafb17c9190a250565b3360009081526001602052604090205460ff16610d505760405162461bcd60e51b8152600401610349906116b9565b6001600160a01b03831660009081526002602052604090205460ff1615610d895760405162461bcd60e51b815260040161034990611703565b6040516323b872dd60e01b81526001600160a01b038516906323b872dd90610b0590869086908690600401611736565b3360009081526001602052604081205460ff16610de85760405162461bcd60e51b8152600401610349906116b9565b6001600160a01b03841660009081526002602052604090205460ff1615610e215760405162461bcd60e51b815260040161034990611703565b6040516323b872dd60e01b81526001600160a01b038616906323b872dd90610e5190879087908790600401611736565b6020604051808303816000875af1158015610e70573d6000803e3d6000fd5b505050506040513d601f19601f82011682018060405250810190610e9491906115f4565b95945050505050565b610ea5610f16565b6001600160a01b038116610f0a5760405162461bcd60e51b815260206004820152602660248201527f4f776e61626c653a206e6577206f776e657220697320746865207a65726f206160448201526564647265737360d01b6064820152608401610349565b610f138161109d565b50565b33610f1f610b3d565b6001600160a01b03161461097d5760405162461bcd60e51b815260206004820181905260248201527f4f776e61626c653a2063616c6c6572206973206e6f7420746865206f776e65726044820152606401610349565b33600081815260036020908152604080832054815160609590951b6001600160601b03191685840152603480860191909152815180860390910181526054850190915280519101207b0ca2ba3432b932bab69029b4b3b732b21026b2b9b9b0b3b29d05199960211b6074840152609083018190529091829060b00160405160208183030381529060405280519060200120905060018185604001602081019061101e919061176d565b604080516000815260208181018084529490945260ff909216908201528635606082015290860135608082015260a0016020604051602081039080840390855afa158015611070573d6000803e3d6000fd5b505050602060405103516001600160a01b031661108b610b3d565b6001600160a01b031614949350505050565b600080546001600160a01b038381166001600160a01b0319831681178455604051919092169283917f8be0079c531659141344cd1fd0a4f28419497f9722a3daafe3b4186f6b6457e09190a35050565b5080546000825590600052602060002090810190610f139190611122565b604080518082019091526000808252602082015290565b5b808211156111415780546001600160b01b0319168155600101611123565b5090565b6001600160a01b0381168114610f1357600080fd5b60006020828403121561116c57600080fd5b813561117781611145565b9392505050565b803561ffff8116811461119057600080fd5b919050565b634e487b7160e01b600052604160045260246000fd5b600082601f8301126111bc57600080fd5b81356001600160401b03808211156111d6576111d6611195565b604051601f8301601f19908116603f011681019082821181831017156111fe576111fe611195565b8160405283815286602085880101111561121757600080fd5b836020870160208301376000602085830101528094505050505092915050565b60006060828403121561124957600080fd5b50919050565b600080600080600060e0868803121561126757600080fd5b6112708661117e565b945060208601356001600160401b0381111561128b57600080fd5b611297888289016111ab565b9450506112a66040870161117e565b925060608601356112b681611145565b91506112c58760808801611237565b90509295509295909350565b6000602082840312156112e357600080fd5b5035919050565b6000606082840312156112fc57600080fd5b6111778383611237565b6000806000806060858703121561131c57600080fd5b843561132781611145565b93506020850135925060408501356001600160401b038082111561134a57600080fd5b818701915087601f83011261135e57600080fd5b81358181111561136d57600080fd5b8860208260061b850101111561138257600080fd5b95989497505060200194505050565b602080825282518282018190526000919060409081850190868401855b828110156113e0578151805161ffff1685528601516001600160a01b03168685015292840192908501906001016113ae565b5091979650505050505050565b600080600080600060a0868803121561140557600080fd5b853561141081611145565b9450602086013561142081611145565b9350604086013561143081611145565b94979396509394606081013594506080013592915050565b6000806000806080858703121561145e57600080fd5b843561146981611145565b9350602085013561147981611145565b9250604085013561148981611145565b9396929550929360600135925050565b60008060008060c085870312156114af57600080fd5b84356001600160401b038111156114c557600080fd5b6114d1878288016111ab565b9450506114e06020860161117e565b925060408501356114f081611145565b91506114ff8660608701611237565b905092959194509250565b6020808252601690820152754f776e6572207369676e20697320696e76616c69646560501b604082015260600190565b634e487b7160e01b600052601160045260246000fd5b6000600182016115625761156261153a565b5060010190565b634e487b7160e01b600052603260045260246000fd5b600061ffff80871683526020608081850152865180608086015260005b818110156115b85788810183015186820160a00152820161159c565b50600085820160a090810191909152969092166040850152506001600160a01b0393909316606083015250601f909101601f1916010192915050565b60006020828403121561160657600080fd5b8151801515811461117757600080fd5b808201808211156116295761162961153a565b92915050565b6000806040838503121561164257600080fd5b825161164d81611145565b6020939093015192949293505050565b60006040828403121561166f57600080fd5b604051604081018181106001600160401b038211171561169157611691611195565b60405261169d8361117e565b815260208301356116ad81611145565b60208201529392505050565b6020808252602a908201527f436f6e7472616374206973206e6f7420617070726f76656420746f206d616b65604082015269207472616e736665727360b01b606082015260800190565b602080825260199082015278155cd95c881a185cc81c995d9bdad95908185c1c1c9bdd985b603a1b604082015260600190565b6001600160a01b039384168152919092166020820152604081019190915260600190565b818103818111156116295761162961153a565b60006020828403121561177f57600080fd5b813560ff8116811461117757600080fdfea164736f6c6343000813000a",
  "devdoc": {
    "details": "Proxy contract to manage user token approvals",
    "kind": "dev",
    "methods": {
      "addBaseFee(string,uint16,address,(bytes32,bytes32,uint8))": {
        "details": "update base fees",
        "params": {
          "label": "label of fee",
          "rate": "fees rate to add",
          "receiver": "receiver of fee to add"
        }
      },
      "approveContract(address)": {
        "details": "Approve contract to call transfer functions",
        "params": {
          "_contract": "address of contract to approve"
        }
      },
      "calcuateFee(address,uint256,(uint16,address)[])": {
        "details": "caculates fee",
        "params": {
          "_collection": "collection address",
          "_fees": "requesting fee",
          "_tokenId": "id of token"
        },
        "returns": {
          "fees": "cauculated fee"
        }
      },
      "clearBaseFee((bytes32,bytes32,uint8))": {
        "details": "clears all base fee"
      },
      "denyContract(address)": {
        "details": "Revoke approval of contract to call transfer functions",
        "params": {
          "_contract": "address of contract to revoke approval"
        }
      },
      "grantApproval()": {
        "details": "Allow contract to make transfers on-behalf of a specific user"
      },
      "owner()": {
        "details": "Returns the address of the current owner."
      },
      "renounceOwnership()": {
        "details": "Leaves the contract without owner. It will not be possible to call `onlyOwner` functions. Can only be called by the current owner. NOTE: Renouncing ownership will leave the contract without an owner, thereby disabling any functionality that is only available to the owner."
      },
      "revokeApproval()": {
        "details": "Block contract from making transfers on-behalf of a specific user"
      },
      "transferERC1155(address,address,address,uint256,uint256)": {
        "details": "Transfer ERC1155 token using `safeTransferFrom`",
        "params": {
          "amount": "amount",
          "collection": "address of the collection",
          "from": "address of the sender",
          "to": "address of the recipient",
          "tokenId": "tokenId"
        }
      },
      "transferERC20(address,address,address,uint256)": {
        "details": "Transfer ERC20 token",
        "params": {
          "amount": "amount",
          "from": "address of the sender",
          "to": "address of the recipient",
          "token": "address of the token"
        }
      },
      "transferERC721(address,address,address,uint256)": {
        "details": "Transfer ERC721 token using `safeTransferFrom`",
        "params": {
          "collection": "address of the collection",
          "from": "address of the sender",
          "to": "address of the recipient",
          "tokenId": "tokenId"
        }
      },
      "transferERC721Unsafe(address,address,address,uint256)": {
        "details": "Transfer ERC721 token using `transferFrom`",
        "params": {
          "collection": "address of the collection",
          "from": "address of the sender",
          "to": "address of the recipient",
          "tokenId": "tokenId"
        }
      },
      "transferOwnership(address)": {
        "details": "Transfers ownership of the contract to a new account (`newOwner`). Can only be called by the current owner."
      },
      "updateBaseFee(uint16,string,uint16,address,(bytes32,bytes32,uint8))": {
        "details": "update base fees",
        "params": {
          "id": "id of fee",
          "label": "label of fee",
          "rate": "fee rate",
          "receiver": "fee receiver",
          "sig": "signature of owner wallet"
        }
      }
    },
    "title": "ExecutionDelegate",
    "version": 1
  },
  "userdoc": {
    "kind": "user",
    "methods": {},
    "version": 1
  },
  "storageLayout": {
    "storage": [
      {
        "astId": 1291,
        "contract": "contracts/ExecutionDelegate.sol:ExecutionDelegate",
        "label": "_owner",
        "offset": 0,
        "slot": "0",
        "type": "t_address"
      },
      {
        "astId": 9688,
        "contract": "contracts/ExecutionDelegate.sol:ExecutionDelegate",
        "label": "contracts",
        "offset": 0,
        "slot": "1",
        "type": "t_mapping(t_address,t_bool)"
      },
      {
        "astId": 9692,
        "contract": "contracts/ExecutionDelegate.sol:ExecutionDelegate",
        "label": "revokedApproval",
        "offset": 0,
        "slot": "2",
        "type": "t_mapping(t_address,t_bool)"
      },
      {
        "astId": 9696,
        "contract": "contracts/ExecutionDelegate.sol:ExecutionDelegate",
        "label": "nonce",
        "offset": 0,
        "slot": "3",
        "type": "t_mapping(t_address,t_uint256)"
      },
      {
        "astId": 9700,
        "contract": "contracts/ExecutionDelegate.sol:ExecutionDelegate",
        "label": "baseFee",
        "offset": 0,
        "slot": "4",
        "type": "t_array(t_struct(Fee)15061_storage)dyn_storage"
      }
    ],
    "types": {
      "t_address": {
        "encoding": "inplace",
        "label": "address",
        "numberOfBytes": "20"
      },
      "t_address_payable": {
        "encoding": "inplace",
        "label": "address payable",
        "numberOfBytes": "20"
      },
      "t_array(t_struct(Fee)15061_storage)dyn_storage": {
        "base": "t_struct(Fee)15061_storage",
        "encoding": "dynamic_array",
        "label": "struct Fee[]",
        "numberOfBytes": "32"
      },
      "t_bool": {
        "encoding": "inplace",
        "label": "bool",
        "numberOfBytes": "1"
      },
      "t_mapping(t_address,t_bool)": {
        "encoding": "mapping",
        "key": "t_address",
        "label": "mapping(address => bool)",
        "numberOfBytes": "32",
        "value": "t_bool"
      },
      "t_mapping(t_address,t_uint256)": {
        "encoding": "mapping",
        "key": "t_address",
        "label": "mapping(address => uint256)",
        "numberOfBytes": "32",
        "value": "t_uint256"
      },
      "t_struct(Fee)15061_storage": {
        "encoding": "inplace",
        "label": "struct Fee",
        "members": [
          {
            "astId": 15058,
            "contract": "contracts/ExecutionDelegate.sol:ExecutionDelegate",
            "label": "rate",
            "offset": 0,
            "slot": "0",
            "type": "t_uint16"
          },
          {
            "astId": 15060,
            "contract": "contracts/ExecutionDelegate.sol:ExecutionDelegate",
            "label": "recipient",
            "offset": 2,
            "slot": "0",
            "type": "t_address_payable"
          }
        ],
        "numberOfBytes": "32"
      },
      "t_uint16": {
        "encoding": "inplace",
        "label": "uint16",
        "numberOfBytes": "2"
      },
      "t_uint256": {
        "encoding": "inplace",
        "label": "uint256",
        "numberOfBytes": "32"
      }
    }
  }
}