{
  "address": "0x3332f97497cf0e094C41FEAaA0312b1123F363eD",
  "abi": [
    {
      "anonymous": false,
      "inputs": [
        {
          "indexed": true,
          "internalType": "address",
          "name": "_contract",
          "type": "address"
        },
        {
          "indexed": false,
          "internalType": "string",
          "name": "name",
          "type": "string"
        }
      ],
      "name": "ApproveContract",
      "type": "event"
    },
    {
      "anonymous": false,
      "inputs": [],
      "name": "ClearedBaseFee",
      "type": "event"
    },
    {
      "anonymous": false,
      "inputs": [
        {
          "indexed": true,
          "internalType": "address",
          "name": "_contract",
          "type": "address"
        }
      ],
      "name": "DenyContract",
      "type": "event"
    },
    {
      "anonymous": false,
      "inputs": [
        {
          "indexed": true,
          "internalType": "address",
          "name": "user",
          "type": "address"
        }
      ],
      "name": "GrantApproval",
      "type": "event"
    },
    {
      "anonymous": false,
      "inputs": [
        {
          "indexed": false,
          "internalType": "uint8",
          "name": "version",
          "type": "uint8"
        }
      ],
      "name": "Initialized",
      "type": "event"
    },
    {
      "anonymous": false,
      "inputs": [
        {
          "indexed": false,
          "internalType": "uint16",
          "name": "id",
          "type": "uint16"
        },
        {
          "indexed": false,
          "internalType": "string",
          "name": "label",
          "type": "string"
        },
        {
          "indexed": false,
          "internalType": "uint16",
          "name": "rate",
          "type": "uint16"
        },
        {
          "indexed": false,
          "internalType": "address",
          "name": "receipt",
          "type": "address"
        }
      ],
      "name": "NewBaseFee",
      "type": "event"
    },
    {
      "anonymous": false,
      "inputs": [
        {
          "indexed": true,
          "internalType": "address",
          "name": "previousOwner",
          "type": "address"
        },
        {
          "indexed": true,
          "internalType": "address",
          "name": "newOwner",
          "type": "address"
        }
      ],
      "name": "OwnershipTransferred",
      "type": "event"
    },
    {
      "anonymous": false,
      "inputs": [
        {
          "indexed": true,
          "internalType": "address",
          "name": "user",
          "type": "address"
        }
      ],
      "name": "RevokeApproval",
      "type": "event"
    },
    {
      "inputs": [
        {
          "internalType": "string",
          "name": "label",
          "type": "string"
        },
        {
          "internalType": "uint16",
          "name": "rate",
          "type": "uint16"
        },
        {
          "internalType": "address",
          "name": "receiver",
          "type": "address"
        },
        {
          "components": [
            {
              "internalType": "bytes32",
              "name": "r",
              "type": "bytes32"
            },
            {
              "internalType": "bytes32",
              "name": "s",
              "type": "bytes32"
            },
            {
              "internalType": "uint8",
              "name": "v",
              "type": "uint8"
            }
          ],
          "internalType": "struct Sig",
          "name": "sig",
          "type": "tuple"
        }
      ],
      "name": "addBaseFee",
      "outputs": [],
      "stateMutability": "nonpayable",
      "type": "function"
    },
    {
      "inputs": [
        {
          "internalType": "address",
          "name": "_contract",
          "type": "address"
        },
        {
          "internalType": "string",
          "name": "_name",
          "type": "string"
        },
        {
          "components": [
            {
              "internalType": "bytes32",
              "name": "r",
              "type": "bytes32"
            },
            {
              "internalType": "bytes32",
              "name": "s",
              "type": "bytes32"
            },
            {
              "internalType": "uint8",
              "name": "v",
              "type": "uint8"
            }
          ],
          "internalType": "struct Sig",
          "name": "sig",
          "type": "tuple"
        }
      ],
      "name": "approveContract",
      "outputs": [],
      "stateMutability": "nonpayable",
      "type": "function"
    },
    {
      "inputs": [
        {
          "internalType": "uint256",
          "name": "",
          "type": "uint256"
        }
      ],
      "name": "baseFee",
      "outputs": [
        {
          "internalType": "uint16",
          "name": "rate",
          "type": "uint16"
        },
        {
          "internalType": "address payable",
          "name": "recipient",
          "type": "address"
        }
      ],
      "stateMutability": "view",
      "type": "function"
    },
    {
      "inputs": [
        {
          "internalType": "address",
          "name": "_collection",
          "type": "address"
        },
        {
          "internalType": "uint256",
          "name": "_tokenId",
          "type": "uint256"
        },
        {
          "components": [
            {
              "internalType": "uint16",
              "name": "rate",
              "type": "uint16"
            },
            {
              "internalType": "address payable",
              "name": "recipient",
              "type": "address"
            }
          ],
          "internalType": "struct Fee[]",
          "name": "_fees",
          "type": "tuple[]"
        }
      ],
      "name": "calcuateFee",
      "outputs": [
        {
          "components": [
            {
              "internalType": "uint16",
              "name": "rate",
              "type": "uint16"
            },
            {
              "internalType": "address payable",
              "name": "recipient",
              "type": "address"
            }
          ],
          "internalType": "struct Fee[]",
          "name": "fees",
          "type": "tuple[]"
        }
      ],
      "stateMutability": "view",
      "type": "function"
    },
    {
      "inputs": [
        {
          "components": [
            {
              "internalType": "bytes32",
              "name": "r",
              "type": "bytes32"
            },
            {
              "internalType": "bytes32",
              "name": "s",
              "type": "bytes32"
            },
            {
              "internalType": "uint8",
              "name": "v",
              "type": "uint8"
            }
          ],
          "internalType": "struct Sig",
          "name": "sig",
          "type": "tuple"
        }
      ],
      "name": "clearBaseFee",
      "outputs": [],
      "stateMutability": "nonpayable",
      "type": "function"
    },
    {
      "inputs": [
        {
          "internalType": "address",
          "name": "",
          "type": "address"
        }
      ],
      "name": "contracts",
      "outputs": [
        {
          "internalType": "bool",
          "name": "",
          "type": "bool"
        }
      ],
      "stateMutability": "view",
      "type": "function"
    },
    {
      "inputs": [
        {
          "internalType": "address",
          "name": "_contract",
          "type": "address"
        },
        {
          "components": [
            {
              "internalType": "bytes32",
              "name": "r",
              "type": "bytes32"
            },
            {
              "internalType": "bytes32",
              "name": "s",
              "type": "bytes32"
            },
            {
              "internalType": "uint8",
              "name": "v",
              "type": "uint8"
            }
          ],
          "internalType": "struct Sig",
          "name": "sig",
          "type": "tuple"
        }
      ],
      "name": "denyContract",
      "outputs": [],
      "stateMutability": "nonpayable",
      "type": "function"
    },
    {
      "inputs": [],
      "name": "grantApproval",
      "outputs": [],
      "stateMutability": "nonpayable",
      "type": "function"
    },
    {
      "inputs": [
        {
          "internalType": "address",
          "name": "_signer",
          "type": "address"
        }
      ],
      "name": "initialize",
      "outputs": [],
      "stateMutability": "nonpayable",
      "type": "function"
    },
    {
      "inputs": [
        {
          "internalType": "address",
          "name": "",
          "type": "address"
        }
      ],
      "name": "nonce",
      "outputs": [
        {
          "internalType": "uint256",
          "name": "",
          "type": "uint256"
        }
      ],
      "stateMutability": "view",
      "type": "function"
    },
    {
      "inputs": [],
      "name": "owner",
      "outputs": [
        {
          "internalType": "address",
          "name": "",
          "type": "address"
        }
      ],
      "stateMutability": "view",
      "type": "function"
    },
    {
      "inputs": [],
      "name": "renounceOwnership",
      "outputs": [],
      "stateMutability": "nonpayable",
      "type": "function"
    },
    {
      "inputs": [],
      "name": "revokeApproval",
      "outputs": [],
      "stateMutability": "nonpayable",
      "type": "function"
    },
    {
      "inputs": [
        {
          "internalType": "address",
          "name": "",
          "type": "address"
        }
      ],
      "name": "revokedApproval",
      "outputs": [
        {
          "internalType": "bool",
          "name": "",
          "type": "bool"
        }
      ],
      "stateMutability": "view",
      "type": "function"
    },
    {
      "inputs": [],
      "name": "signer",
      "outputs": [
        {
          "internalType": "address",
          "name": "",
          "type": "address"
        }
      ],
      "stateMutability": "view",
      "type": "function"
    },
    {
      "inputs": [
        {
          "internalType": "address",
          "name": "collection",
          "type": "address"
        },
        {
          "internalType": "address",
          "name": "from",
          "type": "address"
        },
        {
          "internalType": "address",
          "name": "to",
          "type": "address"
        },
        {
          "internalType": "uint256",
          "name": "tokenId",
          "type": "uint256"
        },
        {
          "internalType": "uint256",
          "name": "amount",
          "type": "uint256"
        }
      ],
      "name": "transferERC1155",
      "outputs": [],
      "stateMutability": "nonpayable",
      "type": "function"
    },
    {
      "inputs": [
        {
          "internalType": "address",
          "name": "token",
          "type": "address"
        },
        {
          "internalType": "address",
          "name": "from",
          "type": "address"
        },
        {
          "internalType": "address",
          "name": "to",
          "type": "address"
        },
        {
          "internalType": "uint256",
          "name": "amount",
          "type": "uint256"
        }
      ],
      "name": "transferERC20",
      "outputs": [
        {
          "internalType": "bool",
          "name": "",
          "type": "bool"
        }
      ],
      "stateMutability": "nonpayable",
      "type": "function"
    },
    {
      "inputs": [
        {
          "internalType": "address",
          "name": "collection",
          "type": "address"
        },
        {
          "internalType": "address",
          "name": "from",
          "type": "address"
        },
        {
          "internalType": "address",
          "name": "to",
          "type": "address"
        },
        {
          "internalType": "uint256",
          "name": "tokenId",
          "type": "uint256"
        }
      ],
      "name": "transferERC721",
      "outputs": [],
      "stateMutability": "nonpayable",
      "type": "function"
    },
    {
      "inputs": [
        {
          "internalType": "address",
          "name": "collection",
          "type": "address"
        },
        {
          "internalType": "address",
          "name": "from",
          "type": "address"
        },
        {
          "internalType": "address",
          "name": "to",
          "type": "address"
        },
        {
          "internalType": "uint256",
          "name": "tokenId",
          "type": "uint256"
        }
      ],
      "name": "transferERC721Unsafe",
      "outputs": [],
      "stateMutability": "nonpayable",
      "type": "function"
    },
    {
      "inputs": [
        {
          "internalType": "address",
          "name": "newOwner",
          "type": "address"
        }
      ],
      "name": "transferOwnership",
      "outputs": [],
      "stateMutability": "nonpayable",
      "type": "function"
    },
    {
      "inputs": [
        {
          "internalType": "uint16",
          "name": "id",
          "type": "uint16"
        },
        {
          "internalType": "string",
          "name": "label",
          "type": "string"
        },
        {
          "internalType": "uint16",
          "name": "rate",
          "type": "uint16"
        },
        {
          "internalType": "address",
          "name": "receiver",
          "type": "address"
        },
        {
          "components": [
            {
              "internalType": "bytes32",
              "name": "r",
              "type": "bytes32"
            },
            {
              "internalType": "bytes32",
              "name": "s",
              "type": "bytes32"
            },
            {
              "internalType": "uint8",
              "name": "v",
              "type": "uint8"
            }
          ],
          "internalType": "struct Sig",
          "name": "sig",
          "type": "tuple"
        }
      ],
      "name": "updateBaseFee",
      "outputs": [],
      "stateMutability": "nonpayable",
      "type": "function"
    },
    {
      "inputs": [
        {
          "internalType": "address",
          "name": "_signer",
          "type": "address"
        }
      ],
      "name": "updateSigner",
      "outputs": [],
      "stateMutability": "nonpayable",
      "type": "function"
    }
  ],
  "transactionHash": "0x40222b5a256c4e81f0255ad67cb9703a6d03f824bc68aa3bf6ba164483c9dfad",
  "args": [],
  "numDeployments": 1,
  "solcInputHash": "d3f787e27c62a8ce08222aa643483610",
  "bytecode": "0x608060405234801561001057600080fd5b50611be2806100206000396000f3fe608060405234801561001057600080fd5b50600436106101125760003560e01c806301b6eb0314610117578063238ac9331461012c57806325b4f64a1461015c5780632a312fe31461016f57806333578c7a146101a45780634a3e3a1f146101b757806369dc9ff3146101ea5780636ef91c721461020d57806370ae92d21461022d578063715018a61461025b57806371700f7f1461026357806374a9402e14610276578063789f93f6146102895780638da5cb5b1461029c57806390d02b3c146102a4578063a7ecd37e146102ac578063a8034df1146102bf578063a8a48414146102c7578063c4d66de8146102da578063ca72da8e146102ed578063da3e8ce414610300578063f2fde38b14610313575b600080fd5b61012a6101253660046114b5565b610326565b005b60685461013f906001600160a01b031681565b6040516001600160a01b0390911681526020015b60405180910390f35b61012a61016a3660046115a4565b6103e3565b61018261017d366004611626565b61054a565b6040805161ffff90931683526001600160a01b03909116602083015201610153565b61012a6101b236600461163f565b61057f565b6101da6101c5366004611662565b60666020526000908152604090205460ff1681565b6040519015158152602001610153565b6101da6101f8366004611662565b60656020526000908152604090205460ff1681565b61022061021b36600461167f565b610622565b604051610153919061170a565b61024d61023b366004611662565b60676020526000908152604090205481565b604051908152602001610153565b61012a610a68565b61012a610271366004611766565b610a7c565b61012a6102843660046117c6565b610b46565b61012a610297366004611821565b610c34565b61013f610d04565b61012a610d13565b61012a6102ba366004611662565b610d55565b61012a610d7f565b61012a6102d5366004611872565b610dbe565b61012a6102e8366004611662565b610ee4565b61012a6102fb366004611821565b611011565b6101da61030e366004611821565b6110a9565b61012a610321366004611662565b61118d565b8061033081611206565b80610353575061033e610d04565b6001600160a01b0316336001600160a01b0316145b6103785760405162461bcd60e51b815260040161036f906118e3565b60405180910390fd5b33600090815260676020526040812080549161039383611928565b90915550506001600160a01b038316600081815260656020526040808220805460ff19169055517f2b35b0a030b4f4cef0a9e8d01828235bb82a11ec4e37c11bd6d8770d9aafb17c9190a2505050565b806103ed81611206565b8061041057506103fb610d04565b6001600160a01b0316336001600160a01b0316145b61042c5760405162461bcd60e51b815260040161036f906118e3565b33600090815260676020526040812080549161044783611928565b909155505060695461ffff87161061048e5760405162461bcd60e51b815260206004820152600a602482015269125b9d985b1a59081a5960b21b604482015260640161036f565b60405180604001604052808561ffff168152602001846001600160a01b031681525060698761ffff16815481106104c7576104c7611941565b600091825260209182902083519101805493909201516001600160a01b031662010000026001600160b01b031990931661ffff909116179190911790556040517f83cd0831fbb6aa52b27dd0da185dc6de621a5c8a5ceeaf5ab862da1e6b9b651c9061053a90889088908890889061199d565b60405180910390a1505050505050565b6069818154811061055a57600080fd5b60009182526020909120015461ffff811691506201000090046001600160a01b031682565b8061058981611206565b806105ac5750610597610d04565b6001600160a01b0316336001600160a01b0316145b6105c85760405162461bcd60e51b815260040161036f906118e3565b3360009081526067602052604081208054916105e383611928565b909155506105f5905060696000611430565b6040517f387e35327f81a7d341fd6081651a5e0ea126e8119a1847de9075cf31875973de90600090a15050565b60408051600080825260208201909252606091610655565b61064261144e565b81526020019060019003908161063a5790505b506040516301ffc9a760e01b815263152a902d60e11b60048201529091506001600160a01b038616906301ffc9a790602401602060405180830381865afa1580156106a4573d6000803e3d6000fd5b505050506040513d601f19601f820116820180604052508101906106c891906119db565b15610901576069546106da90836119fd565b6106e59060016119fd565b6001600160401b038111156106fc576106fc611502565b60405190808252806020026020018201604052801561073557816020015b61072261144e565b81526020019060019003908161071a5790505b5060405163152a902d60e11b815260048101869052612710602482015290915060009081906001600160a01b03881690632a55205a906044016040805180830381865afa15801561078a573d6000803e3d6000fd5b505050506040513d601f19601f820116820180604052508101906107ae9190611a16565b9150915060405180604001604052808261ffff168152602001836001600160a01b0316815250836000815181106107e7576107e7611941565b602002602001018190525060005b8481101561085f5785858281811061080f5761080f611941565b9050604002018036038101906108259190611a44565b846108318360016119fd565b8151811061084157610841611941565b6020026020010181905250808061085790611928565b9150506107f5565b5060005b6069548110156108f9576069818154811061088057610880611941565b60009182526020918290206040805180820190915291015461ffff811682526201000090046001600160a01b031691810191909152846108c087846119fd565b6108cb9060016119fd565b815181106108db576108db611941565b602002602001018190525080806108f190611928565b915050610863565b505050610a60565b60695461090e90836119fd565b6109199060016119fd565b6001600160401b0381111561093057610930611502565b60405190808252806020026020018201604052801561096957816020015b61095661144e565b81526020019060019003908161094e5790505b50905060005b828110156109cf5783838281811061098957610989611941565b90506040020180360381019061099f9190611a44565b8282815181106109b1576109b1611941565b602002602001018190525080806109c790611928565b91505061096f565b5060005b606954811015610a5e57606981815481106109f0576109f0611941565b60009182526020918290206040805180820190915291015461ffff811682526201000090046001600160a01b03169181019190915282610a3085846119fd565b81518110610a4057610a40611941565b60200260200101819052508080610a5690611928565b9150506109d3565b505b949350505050565b610a70611325565b610a7a6000611384565b565b80610a8681611206565b80610aa95750610a94610d04565b6001600160a01b0316336001600160a01b0316145b610ac55760405162461bcd60e51b815260040161036f906118e3565b336000908152606760205260408120805491610ae083611928565b90915550506001600160a01b03841660008181526065602052604090819020805460ff19166001179055517fc3b068c64ebae27f0a33c3aa1bf750569fbc20e8fbb7574e6ae3e3b155c4670090610b38908690611aa0565b60405180910390a250505050565b3360009081526065602052604090205460ff16610b755760405162461bcd60e51b815260040161036f90611ab3565b6001600160a01b03841660009081526066602052604090205460ff1615610bae5760405162461bcd60e51b815260040161036f90611afd565b604051637921219560e11b81526001600160a01b0385811660048301528481166024830152604482018490526064820183905260a06084830152600060a483015286169063f242432a9060c401600060405180830381600087803b158015610c1557600080fd5b505af1158015610c29573d6000803e3d6000fd5b505050505050505050565b3360009081526065602052604090205460ff16610c635760405162461bcd60e51b815260040161036f90611ab3565b6001600160a01b03831660009081526066602052604090205460ff1615610c9c5760405162461bcd60e51b815260040161036f90611afd565b604051632142170760e11b81526001600160a01b038516906342842e0e90610ccc90869086908690600401611b30565b600060405180830381600087803b158015610ce657600080fd5b505af1158015610cfa573d6000803e3d6000fd5b5050505050505050565b6033546001600160a01b031690565b33600081815260666020526040808220805460ff19166001179055517fdddeac663983b1e35153215a4578fecbb5921d12e660b3c4259aa7d9dbb9709f9190a2565b610d5d611325565b606880546001600160a01b0319166001600160a01b0392909216919091179055565b33600081815260666020526040808220805460ff19169055517f120d91a0121c2d5a7ce9638fce4bd262d4b443568fce40f681f50dca814a629a9190a2565b80610dc881611206565b80610deb5750610dd6610d04565b6001600160a01b0316336001600160a01b0316145b610e075760405162461bcd60e51b815260040161036f906118e3565b336000908152606760205260408120805491610e2283611928565b90915550506040805180820190915261ffff80861682526001600160a01b03808616602084019081526069805460018181018355600083905286517f7fb4302e8e91f9110a6554c2c0a24601252c2a42c2220ca988efcfe3999143089092018054945190951662010000026001600160b01b0319909416919095161791909117909155547f83cd0831fbb6aa52b27dd0da185dc6de621a5c8a5ceeaf5ab862da1e6b9b651c91610ed191611b54565b87878760405161053a949392919061199d565b600054610100900460ff1615808015610f045750600054600160ff909116105b80610f1e5750303b158015610f1e575060005460ff166001145b610f815760405162461bcd60e51b815260206004820152602e60248201527f496e697469616c697a61626c653a20636f6e747261637420697320616c72656160448201526d191e481a5b9a5d1a585b1a5e995960921b606482015260840161036f565b6000805460ff191660011790558015610fa4576000805461ff0019166101001790555b610fac6113d6565b606880546001600160a01b0319166001600160a01b038416179055801561100d576000805461ff0019169055604051600181527f7f26b83ff96e1f2b6a682f133852f6798a09c465da95921460cefb38474024989060200160405180910390a15b5050565b3360009081526065602052604090205460ff166110405760405162461bcd60e51b815260040161036f90611ab3565b6001600160a01b03831660009081526066602052604090205460ff16156110795760405162461bcd60e51b815260040161036f90611afd565b6040516323b872dd60e01b81526001600160a01b038516906323b872dd90610ccc90869086908690600401611b30565b3360009081526065602052604081205460ff166110d85760405162461bcd60e51b815260040161036f90611ab3565b6001600160a01b03841660009081526066602052604090205460ff16156111115760405162461bcd60e51b815260040161036f90611afd565b6040516323b872dd60e01b81526001600160a01b038616906323b872dd9061114190879087908790600401611b30565b6020604051808303816000875af1158015611160573d6000803e3d6000fd5b505050506040513d601f19601f8201168201806040525081019061118491906119db565b95945050505050565b611195611325565b6001600160a01b0381166111fa5760405162461bcd60e51b815260206004820152602660248201527f4f776e61626c653a206e6577206f776e657220697320746865207a65726f206160448201526564647265737360d01b606482015260840161036f565b61120381611384565b50565b33600081815260676020908152604080832054815160609590951b6001600160601b03191685840152603480860191909152815180860390910181526054850190915280519101207b0ca2ba3432b932bab69029b4b3b732b21026b2b9b9b0b3b29d05199960211b6074840152609083018190529091829060b0016040516020818303038152906040528051906020012090506001818560400160208101906112af9190611b67565b604080516000815260208181018084529490945260ff909216908201528635606082015290860135608082015260a0016020604051602081039080840390855afa158015611301573d6000803e3d6000fd5b5050604051601f1901516068546001600160a01b0390811691161495945050505050565b3361132e610d04565b6001600160a01b031614610a7a5760405162461bcd60e51b815260206004820181905260248201527f4f776e61626c653a2063616c6c6572206973206e6f7420746865206f776e6572604482015260640161036f565b603380546001600160a01b038381166001600160a01b0319831681179093556040519116919082907f8be0079c531659141344cd1fd0a4f28419497f9722a3daafe3b4186f6b6457e090600090a35050565b600054610100900460ff166113fd5760405162461bcd60e51b815260040161036f90611b8a565b610a7a600054610100900460ff166114275760405162461bcd60e51b815260040161036f90611b8a565b610a7a33611384565b50805460008255906000526020600020908101906112039190611465565b604080518082019091526000808252602082015290565b5b808211156114845780546001600160b01b0319168155600101611466565b5090565b6001600160a01b038116811461120357600080fd5b6000606082840312156114af57600080fd5b50919050565b600080608083850312156114c857600080fd5b82356114d381611488565b91506114e2846020850161149d565b90509250929050565b803561ffff811681146114fd57600080fd5b919050565b634e487b7160e01b600052604160045260246000fd5b600082601f83011261152957600080fd5b81356001600160401b038082111561154357611543611502565b604051601f8301601f19908116603f0116810190828211818310171561156b5761156b611502565b8160405283815286602085880101111561158457600080fd5b836020870160208301376000602085830101528094505050505092915050565b600080600080600060e086880312156115bc57600080fd5b6115c5866114eb565b945060208601356001600160401b038111156115e057600080fd5b6115ec88828901611518565b9450506115fb604087016114eb565b9250606086013561160b81611488565b915061161a876080880161149d565b90509295509295909350565b60006020828403121561163857600080fd5b5035919050565b60006060828403121561165157600080fd5b61165b838361149d565b9392505050565b60006020828403121561167457600080fd5b813561165b81611488565b6000806000806060858703121561169557600080fd5b84356116a081611488565b93506020850135925060408501356001600160401b03808211156116c357600080fd5b818701915087601f8301126116d757600080fd5b8135818111156116e657600080fd5b8860208260061b85010111156116fb57600080fd5b95989497505060200194505050565b602080825282518282018190526000919060409081850190868401855b82811015611759578151805161ffff1685528601516001600160a01b0316868501529284019290850190600101611727565b5091979650505050505050565b600080600060a0848603121561177b57600080fd5b833561178681611488565b925060208401356001600160401b038111156117a157600080fd5b6117ad86828701611518565b9250506117bd856040860161149d565b90509250925092565b600080600080600060a086880312156117de57600080fd5b85356117e981611488565b945060208601356117f981611488565b9350604086013561180981611488565b94979396509394606081013594506080013592915050565b6000806000806080858703121561183757600080fd5b843561184281611488565b9350602085013561185281611488565b9250604085013561186281611488565b9396929550929360600135925050565b60008060008060c0858703121561188857600080fd5b84356001600160401b0381111561189e57600080fd5b6118aa87828801611518565b9450506118b9602086016114eb565b925060408501356118c981611488565b91506118d8866060870161149d565b905092959194509250565b60208082526015908201527413dddb995c881cda59db881a5cc81a5b9d985b1a59605a1b604082015260600190565b634e487b7160e01b600052601160045260246000fd5b60006001820161193a5761193a611912565b5060010190565b634e487b7160e01b600052603260045260246000fd5b6000815180845260005b8181101561197d57602081850181015186830182015201611961565b506000602082860101526020601f19601f83011685010191505092915050565b600061ffff8087168352608060208401526119bb6080840187611957565b94166040830152506001600160a01b039190911660609091015292915050565b6000602082840312156119ed57600080fd5b8151801515811461165b57600080fd5b80820180821115611a1057611a10611912565b92915050565b60008060408385031215611a2957600080fd5b8251611a3481611488565b6020939093015192949293505050565b600060408284031215611a5657600080fd5b604051604081018181106001600160401b0382111715611a7857611a78611502565b604052611a84836114eb565b81526020830135611a9481611488565b60208201529392505050565b60208152600061165b6020830184611957565b6020808252602a908201527f436f6e7472616374206973206e6f7420617070726f76656420746f206d616b65604082015269207472616e736665727360b01b606082015260800190565b602080825260199082015278155cd95c881a185cc81c995d9bdad95908185c1c1c9bdd985b603a1b604082015260600190565b6001600160a01b039384168152919092166020820152604081019190915260600190565b81810381811115611a1057611a10611912565b600060208284031215611b7957600080fd5b813560ff8116811461165b57600080fd5b6020808252602b908201527f496e697469616c697a61626c653a20636f6e7472616374206973206e6f74206960408201526a6e697469616c697a696e6760a81b60608201526080019056fea164736f6c6343000813000a",
  "devdoc": {
    "details": "Proxy contract to manage user token approvals",
    "events": {
      "Initialized(uint8)": {
        "details": "Triggered when the contract has been initialized or reinitialized."
      }
    },
    "kind": "dev",
    "methods": {
      "addBaseFee(string,uint16,address,(bytes32,bytes32,uint8))": {
        "details": "update base fees",
        "params": {
          "label": "label of fee",
          "rate": "fees rate to add",
          "receiver": "receiver of fee to add"
        }
      },
      "approveContract(address,string,(bytes32,bytes32,uint8))": {
        "details": "Approve contract to call transfer functions",
        "params": {
          "_contract": "address of contract to approve"
        }
      },
      "calcuateFee(address,uint256,(uint16,address)[])": {
        "details": "caculates fee",
        "params": {
          "_collection": "collection address",
          "_fees": "requesting fee",
          "_tokenId": "id of token"
        },
        "returns": {
          "fees": "cauculated fee"
        }
      },
      "clearBaseFee((bytes32,bytes32,uint8))": {
        "details": "clears all base fee"
      },
      "denyContract(address,(bytes32,bytes32,uint8))": {
        "details": "Revoke approval of contract to call transfer functions",
        "params": {
          "_contract": "address of contract to revoke approval"
        }
      },
      "grantApproval()": {
        "details": "Allow contract to make transfers on-behalf of a specific user"
      },
      "initialize(address)": {
        "params": {
          "_signer": "signer address"
        }
      },
      "owner()": {
        "details": "Returns the address of the current owner."
      },
      "renounceOwnership()": {
        "details": "Leaves the contract without owner. It will not be possible to call `onlyOwner` functions. Can only be called by the current owner. NOTE: Renouncing ownership will leave the contract without an owner, thereby disabling any functionality that is only available to the owner."
      },
      "revokeApproval()": {
        "details": "Block contract from making transfers on-behalf of a specific user"
      },
      "transferERC1155(address,address,address,uint256,uint256)": {
        "details": "Transfer ERC1155 token using `safeTransferFrom`",
        "params": {
          "amount": "amount",
          "collection": "address of the collection",
          "from": "address of the sender",
          "to": "address of the recipient",
          "tokenId": "tokenId"
        }
      },
      "transferERC20(address,address,address,uint256)": {
        "details": "Transfer ERC20 token",
        "params": {
          "amount": "amount",
          "from": "address of the sender",
          "to": "address of the recipient",
          "token": "address of the token"
        }
      },
      "transferERC721(address,address,address,uint256)": {
        "details": "Transfer ERC721 token using `safeTransferFrom`",
        "params": {
          "collection": "address of the collection",
          "from": "address of the sender",
          "to": "address of the recipient",
          "tokenId": "tokenId"
        }
      },
      "transferERC721Unsafe(address,address,address,uint256)": {
        "details": "Transfer ERC721 token using `transferFrom`",
        "params": {
          "collection": "address of the collection",
          "from": "address of the sender",
          "to": "address of the recipient",
          "tokenId": "tokenId"
        }
      },
      "transferOwnership(address)": {
        "details": "Transfers ownership of the contract to a new account (`newOwner`). Can only be called by the current owner."
      },
      "updateBaseFee(uint16,string,uint16,address,(bytes32,bytes32,uint8))": {
        "details": "update base fees",
        "params": {
          "id": "id of fee",
          "label": "label of fee",
          "rate": "fee rate",
          "receiver": "fee receiver",
          "sig": "signature of owner wallet"
        }
      }
    },
    "title": "ExecutionDelegate",
    "version": 1
  },
  "userdoc": {
    "kind": "user",
    "methods": {},
    "version": 1
  },
  "storageLayout": {
    "storage": [
      {
        "astId": 503,
        "contract": "contracts/ExecutionDelegate.sol:ExecutionDelegate",
        "label": "_initialized",
        "offset": 0,
        "slot": "0",
        "type": "t_uint8"
      },
      {
        "astId": 506,
        "contract": "contracts/ExecutionDelegate.sol:ExecutionDelegate",
        "label": "_initializing",
        "offset": 1,
        "slot": "0",
        "type": "t_bool"
      },
      {
        "astId": 1172,
        "contract": "contracts/ExecutionDelegate.sol:ExecutionDelegate",
        "label": "__gap",
        "offset": 0,
        "slot": "1",
        "type": "t_array(t_uint256)50_storage"
      },
      {
        "astId": 10,
        "contract": "contracts/ExecutionDelegate.sol:ExecutionDelegate",
        "label": "_owner",
        "offset": 0,
        "slot": "51",
        "type": "t_address"
      },
      {
        "astId": 130,
        "contract": "contracts/ExecutionDelegate.sol:ExecutionDelegate",
        "label": "__gap",
        "offset": 0,
        "slot": "52",
        "type": "t_array(t_uint256)49_storage"
      },
      {
        "astId": 10051,
        "contract": "contracts/ExecutionDelegate.sol:ExecutionDelegate",
        "label": "contracts",
        "offset": 0,
        "slot": "101",
        "type": "t_mapping(t_address,t_bool)"
      },
      {
        "astId": 10055,
        "contract": "contracts/ExecutionDelegate.sol:ExecutionDelegate",
        "label": "revokedApproval",
        "offset": 0,
        "slot": "102",
        "type": "t_mapping(t_address,t_bool)"
      },
      {
        "astId": 10059,
        "contract": "contracts/ExecutionDelegate.sol:ExecutionDelegate",
        "label": "nonce",
        "offset": 0,
        "slot": "103",
        "type": "t_mapping(t_address,t_uint256)"
      },
      {
        "astId": 10061,
        "contract": "contracts/ExecutionDelegate.sol:ExecutionDelegate",
        "label": "signer",
        "offset": 0,
        "slot": "104",
        "type": "t_address"
      },
      {
        "astId": 10065,
        "contract": "contracts/ExecutionDelegate.sol:ExecutionDelegate",
        "label": "baseFee",
        "offset": 0,
        "slot": "105",
        "type": "t_array(t_struct(Fee)15481_storage)dyn_storage"
      }
    ],
    "types": {
      "t_address": {
        "encoding": "inplace",
        "label": "address",
        "numberOfBytes": "20"
      },
      "t_address_payable": {
        "encoding": "inplace",
        "label": "address payable",
        "numberOfBytes": "20"
      },
      "t_array(t_struct(Fee)15481_storage)dyn_storage": {
        "base": "t_struct(Fee)15481_storage",
        "encoding": "dynamic_array",
        "label": "struct Fee[]",
        "numberOfBytes": "32"
      },
      "t_array(t_uint256)49_storage": {
        "base": "t_uint256",
        "encoding": "inplace",
        "label": "uint256[49]",
        "numberOfBytes": "1568"
      },
      "t_array(t_uint256)50_storage": {
        "base": "t_uint256",
        "encoding": "inplace",
        "label": "uint256[50]",
        "numberOfBytes": "1600"
      },
      "t_bool": {
        "encoding": "inplace",
        "label": "bool",
        "numberOfBytes": "1"
      },
      "t_mapping(t_address,t_bool)": {
        "encoding": "mapping",
        "key": "t_address",
        "label": "mapping(address => bool)",
        "numberOfBytes": "32",
        "value": "t_bool"
      },
      "t_mapping(t_address,t_uint256)": {
        "encoding": "mapping",
        "key": "t_address",
        "label": "mapping(address => uint256)",
        "numberOfBytes": "32",
        "value": "t_uint256"
      },
      "t_struct(Fee)15481_storage": {
        "encoding": "inplace",
        "label": "struct Fee",
        "members": [
          {
            "astId": 15478,
            "contract": "contracts/ExecutionDelegate.sol:ExecutionDelegate",
            "label": "rate",
            "offset": 0,
            "slot": "0",
            "type": "t_uint16"
          },
          {
            "astId": 15480,
            "contract": "contracts/ExecutionDelegate.sol:ExecutionDelegate",
            "label": "recipient",
            "offset": 2,
            "slot": "0",
            "type": "t_address_payable"
          }
        ],
        "numberOfBytes": "32"
      },
      "t_uint16": {
        "encoding": "inplace",
        "label": "uint16",
        "numberOfBytes": "2"
      },
      "t_uint256": {
        "encoding": "inplace",
        "label": "uint256",
        "numberOfBytes": "32"
      },
      "t_uint8": {
        "encoding": "inplace",
        "label": "uint8",
        "numberOfBytes": "1"
      }
    }
  }
}