{
  "address": "0x0AF11E8B2F0af822843bc67267C0997fC637Ef6d",
  "abi": [
    {
      "inputs": [],
      "stateMutability": "nonpayable",
      "type": "constructor"
    },
    {
      "anonymous": false,
      "inputs": [
        {
          "indexed": false,
          "internalType": "address",
          "name": "previousAdmin",
          "type": "address"
        },
        {
          "indexed": false,
          "internalType": "address",
          "name": "newAdmin",
          "type": "address"
        }
      ],
      "name": "AdminChanged",
      "type": "event"
    },
    {
      "anonymous": false,
      "inputs": [
        {
          "indexed": true,
          "internalType": "address",
          "name": "beacon",
          "type": "address"
        }
      ],
      "name": "BeaconUpgraded",
      "type": "event"
    },
    {
      "anonymous": false,
      "inputs": [],
      "name": "Closed",
      "type": "event"
    },
    {
      "anonymous": false,
      "inputs": [
        {
          "indexed": false,
          "internalType": "uint8",
          "name": "version",
          "type": "uint8"
        }
      ],
      "name": "Initialized",
      "type": "event"
    },
    {
      "anonymous": false,
      "inputs": [
        {
          "indexed": false,
          "internalType": "uint256",
          "name": "blockRange",
          "type": "uint256"
        }
      ],
      "name": "NewBlockRange",
      "type": "event"
    },
    {
      "anonymous": false,
      "inputs": [
        {
          "indexed": false,
          "internalType": "contract IExecutionDelegate",
          "name": "executionDelegate",
          "type": "address"
        }
      ],
      "name": "NewExecutionDelegate",
      "type": "event"
    },
    {
      "anonymous": false,
      "inputs": [
        {
          "indexed": false,
          "internalType": "address",
          "name": "oracle",
          "type": "address"
        }
      ],
      "name": "NewOracle",
      "type": "event"
    },
    {
      "anonymous": false,
      "inputs": [
        {
          "indexed": false,
          "internalType": "contract IPolicyManager",
          "name": "policyManager",
          "type": "address"
        }
      ],
      "name": "NewPolicyManager",
      "type": "event"
    },
    {
      "anonymous": false,
      "inputs": [
        {
          "indexed": false,
          "internalType": "address",
          "name": "trader",
          "type": "address"
        },
        {
          "indexed": false,
          "internalType": "uint256",
          "name": "newNonce",
          "type": "uint256"
        }
      ],
      "name": "NonceIncremented",
      "type": "event"
    },
    {
      "anonymous": false,
      "inputs": [],
      "name": "Opened",
      "type": "event"
    },
    {
      "anonymous": false,
      "inputs": [
        {
          "indexed": false,
          "internalType": "bytes32",
          "name": "hash",
          "type": "bytes32"
        }
      ],
      "name": "OrderCancelled",
      "type": "event"
    },
    {
      "anonymous": false,
      "inputs": [
        {
          "indexed": true,
          "internalType": "address",
          "name": "maker",
          "type": "address"
        },
        {
          "indexed": true,
          "internalType": "address",
          "name": "taker",
          "type": "address"
        },
        {
          "components": [
            {
              "internalType": "address",
              "name": "trader",
              "type": "address"
            },
            {
              "internalType": "enum Side",
              "name": "side",
              "type": "uint8"
            },
            {
              "internalType": "address",
              "name": "matchingPolicy",
              "type": "address"
            },
            {
              "internalType": "address",
              "name": "collection",
              "type": "address"
            },
            {
              "internalType": "uint256",
              "name": "tokenId",
              "type": "uint256"
            },
            {
              "internalType": "uint256",
              "name": "amount",
              "type": "uint256"
            },
            {
              "internalType": "address",
              "name": "paymentToken",
              "type": "address"
            },
            {
              "internalType": "uint256",
              "name": "price",
              "type": "uint256"
            },
            {
              "internalType": "uint256",
              "name": "listingTime",
              "type": "uint256"
            },
            {
              "internalType": "uint256",
              "name": "expirationTime",
              "type": "uint256"
            },
            {
              "components": [
                {
                  "internalType": "uint16",
                  "name": "rate",
                  "type": "uint16"
                },
                {
                  "internalType": "address payable",
                  "name": "recipient",
                  "type": "address"
                }
              ],
              "internalType": "struct Fee[]",
              "name": "fees",
              "type": "tuple[]"
            },
            {
              "internalType": "uint256",
              "name": "salt",
              "type": "uint256"
            },
            {
              "internalType": "bytes",
              "name": "extraParams",
              "type": "bytes"
            }
          ],
          "indexed": false,
          "internalType": "struct Order",
          "name": "sell",
          "type": "tuple"
        },
        {
          "indexed": false,
          "internalType": "bytes32",
          "name": "sellHash",
          "type": "bytes32"
        },
        {
          "components": [
            {
              "internalType": "address",
              "name": "trader",
              "type": "address"
            },
            {
              "internalType": "enum Side",
              "name": "side",
              "type": "uint8"
            },
            {
              "internalType": "address",
              "name": "matchingPolicy",
              "type": "address"
            },
            {
              "internalType": "address",
              "name": "collection",
              "type": "address"
            },
            {
              "internalType": "uint256",
              "name": "tokenId",
              "type": "uint256"
            },
            {
              "internalType": "uint256",
              "name": "amount",
              "type": "uint256"
            },
            {
              "internalType": "address",
              "name": "paymentToken",
              "type": "address"
            },
            {
              "internalType": "uint256",
              "name": "price",
              "type": "uint256"
            },
            {
              "internalType": "uint256",
              "name": "listingTime",
              "type": "uint256"
            },
            {
              "internalType": "uint256",
              "name": "expirationTime",
              "type": "uint256"
            },
            {
              "components": [
                {
                  "internalType": "uint16",
                  "name": "rate",
                  "type": "uint16"
                },
                {
                  "internalType": "address payable",
                  "name": "recipient",
                  "type": "address"
                }
              ],
              "internalType": "struct Fee[]",
              "name": "fees",
              "type": "tuple[]"
            },
            {
              "internalType": "uint256",
              "name": "salt",
              "type": "uint256"
            },
            {
              "internalType": "bytes",
              "name": "extraParams",
              "type": "bytes"
            }
          ],
          "indexed": false,
          "internalType": "struct Order",
          "name": "buy",
          "type": "tuple"
        },
        {
          "indexed": false,
          "internalType": "bytes32",
          "name": "buyHash",
          "type": "bytes32"
        }
      ],
      "name": "OrdersMatched",
      "type": "event"
    },
    {
      "anonymous": false,
      "inputs": [
        {
          "indexed": true,
          "internalType": "address",
          "name": "previousOwner",
          "type": "address"
        },
        {
          "indexed": true,
          "internalType": "address",
          "name": "newOwner",
          "type": "address"
        }
      ],
      "name": "OwnershipTransferred",
      "type": "event"
    },
    {
      "anonymous": false,
      "inputs": [
        {
          "indexed": true,
          "internalType": "address",
          "name": "implementation",
          "type": "address"
        }
      ],
      "name": "Upgraded",
      "type": "event"
    },
    {
      "inputs": [],
      "name": "FEE_TYPEHASH",
      "outputs": [
        {
          "internalType": "bytes32",
          "name": "",
          "type": "bytes32"
        }
      ],
      "stateMutability": "view",
      "type": "function"
    },
    {
      "inputs": [],
      "name": "INVERSE_BASIS_POINT",
      "outputs": [
        {
          "internalType": "uint256",
          "name": "",
          "type": "uint256"
        }
      ],
      "stateMutability": "view",
      "type": "function"
    },
    {
      "inputs": [],
      "name": "ORACLE_ORDER_TYPEHASH",
      "outputs": [
        {
          "internalType": "bytes32",
          "name": "",
          "type": "bytes32"
        }
      ],
      "stateMutability": "view",
      "type": "function"
    },
    {
      "inputs": [],
      "name": "ORDER_TYPEHASH",
      "outputs": [
        {
          "internalType": "bytes32",
          "name": "",
          "type": "bytes32"
        }
      ],
      "stateMutability": "view",
      "type": "function"
    },
    {
      "inputs": [],
      "name": "ROOT_TYPEHASH",
      "outputs": [
        {
          "internalType": "bytes32",
          "name": "",
          "type": "bytes32"
        }
      ],
      "stateMutability": "view",
      "type": "function"
    },
    {
      "inputs": [],
      "name": "blockRange",
      "outputs": [
        {
          "internalType": "uint256",
          "name": "",
          "type": "uint256"
        }
      ],
      "stateMutability": "view",
      "type": "function"
    },
    {
      "inputs": [
        {
          "components": [
            {
              "internalType": "address",
              "name": "trader",
              "type": "address"
            },
            {
              "internalType": "enum Side",
              "name": "side",
              "type": "uint8"
            },
            {
              "internalType": "address",
              "name": "matchingPolicy",
              "type": "address"
            },
            {
              "internalType": "address",
              "name": "collection",
              "type": "address"
            },
            {
              "internalType": "uint256",
              "name": "tokenId",
              "type": "uint256"
            },
            {
              "internalType": "uint256",
              "name": "amount",
              "type": "uint256"
            },
            {
              "internalType": "address",
              "name": "paymentToken",
              "type": "address"
            },
            {
              "internalType": "uint256",
              "name": "price",
              "type": "uint256"
            },
            {
              "internalType": "uint256",
              "name": "listingTime",
              "type": "uint256"
            },
            {
              "internalType": "uint256",
              "name": "expirationTime",
              "type": "uint256"
            },
            {
              "components": [
                {
                  "internalType": "uint16",
                  "name": "rate",
                  "type": "uint16"
                },
                {
                  "internalType": "address payable",
                  "name": "recipient",
                  "type": "address"
                }
              ],
              "internalType": "struct Fee[]",
              "name": "fees",
              "type": "tuple[]"
            },
            {
              "internalType": "uint256",
              "name": "salt",
              "type": "uint256"
            },
            {
              "internalType": "bytes",
              "name": "extraParams",
              "type": "bytes"
            }
          ],
          "internalType": "struct Order",
          "name": "order",
          "type": "tuple"
        }
      ],
      "name": "cancelOrder",
      "outputs": [],
      "stateMutability": "nonpayable",
      "type": "function"
    },
    {
      "inputs": [
        {
          "components": [
            {
              "internalType": "address",
              "name": "trader",
              "type": "address"
            },
            {
              "internalType": "enum Side",
              "name": "side",
              "type": "uint8"
            },
            {
              "internalType": "address",
              "name": "matchingPolicy",
              "type": "address"
            },
            {
              "internalType": "address",
              "name": "collection",
              "type": "address"
            },
            {
              "internalType": "uint256",
              "name": "tokenId",
              "type": "uint256"
            },
            {
              "internalType": "uint256",
              "name": "amount",
              "type": "uint256"
            },
            {
              "internalType": "address",
              "name": "paymentToken",
              "type": "address"
            },
            {
              "internalType": "uint256",
              "name": "price",
              "type": "uint256"
            },
            {
              "internalType": "uint256",
              "name": "listingTime",
              "type": "uint256"
            },
            {
              "internalType": "uint256",
              "name": "expirationTime",
              "type": "uint256"
            },
            {
              "components": [
                {
                  "internalType": "uint16",
                  "name": "rate",
                  "type": "uint16"
                },
                {
                  "internalType": "address payable",
                  "name": "recipient",
                  "type": "address"
                }
              ],
              "internalType": "struct Fee[]",
              "name": "fees",
              "type": "tuple[]"
            },
            {
              "internalType": "uint256",
              "name": "salt",
              "type": "uint256"
            },
            {
              "internalType": "bytes",
              "name": "extraParams",
              "type": "bytes"
            }
          ],
          "internalType": "struct Order[]",
          "name": "orders",
          "type": "tuple[]"
        }
      ],
      "name": "cancelOrders",
      "outputs": [],
      "stateMutability": "nonpayable",
      "type": "function"
    },
    {
      "inputs": [
        {
          "internalType": "bytes32",
          "name": "",
          "type": "bytes32"
        }
      ],
      "name": "cancelledOrFilled",
      "outputs": [
        {
          "internalType": "bool",
          "name": "",
          "type": "bool"
        }
      ],
      "stateMutability": "view",
      "type": "function"
    },
    {
      "inputs": [],
      "name": "close",
      "outputs": [],
      "stateMutability": "nonpayable",
      "type": "function"
    },
    {
      "inputs": [
        {
          "components": [
            {
              "components": [
                {
                  "internalType": "address",
                  "name": "trader",
                  "type": "address"
                },
                {
                  "internalType": "enum Side",
                  "name": "side",
                  "type": "uint8"
                },
                {
                  "internalType": "address",
                  "name": "matchingPolicy",
                  "type": "address"
                },
                {
                  "internalType": "address",
                  "name": "collection",
                  "type": "address"
                },
                {
                  "internalType": "uint256",
                  "name": "tokenId",
                  "type": "uint256"
                },
                {
                  "internalType": "uint256",
                  "name": "amount",
                  "type": "uint256"
                },
                {
                  "internalType": "address",
                  "name": "paymentToken",
                  "type": "address"
                },
                {
                  "internalType": "uint256",
                  "name": "price",
                  "type": "uint256"
                },
                {
                  "internalType": "uint256",
                  "name": "listingTime",
                  "type": "uint256"
                },
                {
                  "internalType": "uint256",
                  "name": "expirationTime",
                  "type": "uint256"
                },
                {
                  "components": [
                    {
                      "internalType": "uint16",
                      "name": "rate",
                      "type": "uint16"
                    },
                    {
                      "internalType": "address payable",
                      "name": "recipient",
                      "type": "address"
                    }
                  ],
                  "internalType": "struct Fee[]",
                  "name": "fees",
                  "type": "tuple[]"
                },
                {
                  "internalType": "uint256",
                  "name": "salt",
                  "type": "uint256"
                },
                {
                  "internalType": "bytes",
                  "name": "extraParams",
                  "type": "bytes"
                }
              ],
              "internalType": "struct Order",
              "name": "order",
              "type": "tuple"
            },
            {
              "internalType": "uint8",
              "name": "v",
              "type": "uint8"
            },
            {
              "internalType": "bytes32",
              "name": "r",
              "type": "bytes32"
            },
            {
              "internalType": "bytes32",
              "name": "s",
              "type": "bytes32"
            },
            {
              "internalType": "bytes",
              "name": "extraSignature",
              "type": "bytes"
            },
            {
              "internalType": "enum SignatureVersion",
              "name": "signatureVersion",
              "type": "uint8"
            },
            {
              "internalType": "uint256",
              "name": "blockNumber",
              "type": "uint256"
            }
          ],
          "internalType": "struct Input",
          "name": "sell",
          "type": "tuple"
        },
        {
          "components": [
            {
              "components": [
                {
                  "internalType": "address",
                  "name": "trader",
                  "type": "address"
                },
                {
                  "internalType": "enum Side",
                  "name": "side",
                  "type": "uint8"
                },
                {
                  "internalType": "address",
                  "name": "matchingPolicy",
                  "type": "address"
                },
                {
                  "internalType": "address",
                  "name": "collection",
                  "type": "address"
                },
                {
                  "internalType": "uint256",
                  "name": "tokenId",
                  "type": "uint256"
                },
                {
                  "internalType": "uint256",
                  "name": "amount",
                  "type": "uint256"
                },
                {
                  "internalType": "address",
                  "name": "paymentToken",
                  "type": "address"
                },
                {
                  "internalType": "uint256",
                  "name": "price",
                  "type": "uint256"
                },
                {
                  "internalType": "uint256",
                  "name": "listingTime",
                  "type": "uint256"
                },
                {
                  "internalType": "uint256",
                  "name": "expirationTime",
                  "type": "uint256"
                },
                {
                  "components": [
                    {
                      "internalType": "uint16",
                      "name": "rate",
                      "type": "uint16"
                    },
                    {
                      "internalType": "address payable",
                      "name": "recipient",
                      "type": "address"
                    }
                  ],
                  "internalType": "struct Fee[]",
                  "name": "fees",
                  "type": "tuple[]"
                },
                {
                  "internalType": "uint256",
                  "name": "salt",
                  "type": "uint256"
                },
                {
                  "internalType": "bytes",
                  "name": "extraParams",
                  "type": "bytes"
                }
              ],
              "internalType": "struct Order",
              "name": "order",
              "type": "tuple"
            },
            {
              "internalType": "uint8",
              "name": "v",
              "type": "uint8"
            },
            {
              "internalType": "bytes32",
              "name": "r",
              "type": "bytes32"
            },
            {
              "internalType": "bytes32",
              "name": "s",
              "type": "bytes32"
            },
            {
              "internalType": "bytes",
              "name": "extraSignature",
              "type": "bytes"
            },
            {
              "internalType": "enum SignatureVersion",
              "name": "signatureVersion",
              "type": "uint8"
            },
            {
              "internalType": "uint256",
              "name": "blockNumber",
              "type": "uint256"
            }
          ],
          "internalType": "struct Input",
          "name": "buy",
          "type": "tuple"
        }
      ],
      "name": "execute",
      "outputs": [],
      "stateMutability": "payable",
      "type": "function"
    },
    {
      "inputs": [],
      "name": "executionDelegate",
      "outputs": [
        {
          "internalType": "contract IExecutionDelegate",
          "name": "",
          "type": "address"
        }
      ],
      "stateMutability": "view",
      "type": "function"
    },
    {
      "inputs": [],
      "name": "incrementNonce",
      "outputs": [],
      "stateMutability": "nonpayable",
      "type": "function"
    },
    {
      "inputs": [
        {
          "internalType": "uint256",
          "name": "chainId",
          "type": "uint256"
        },
        {
          "internalType": "address",
          "name": "_weth",
          "type": "address"
        },
        {
          "internalType": "contract IExecutionDelegate",
          "name": "_executionDelegate",
          "type": "address"
        },
        {
          "internalType": "contract IPolicyManager",
          "name": "_policyManager",
          "type": "address"
        },
        {
          "internalType": "address",
          "name": "_oracle",
          "type": "address"
        },
        {
          "internalType": "uint256",
          "name": "_blockRange",
          "type": "uint256"
        }
      ],
      "name": "initialize",
      "outputs": [],
      "stateMutability": "nonpayable",
      "type": "function"
    },
    {
      "inputs": [],
      "name": "isOpen",
      "outputs": [
        {
          "internalType": "uint256",
          "name": "",
          "type": "uint256"
        }
      ],
      "stateMutability": "view",
      "type": "function"
    },
    {
      "inputs": [],
      "name": "name",
      "outputs": [
        {
          "internalType": "string",
          "name": "",
          "type": "string"
        }
      ],
      "stateMutability": "view",
      "type": "function"
    },
    {
      "inputs": [
        {
          "internalType": "address",
          "name": "",
          "type": "address"
        }
      ],
      "name": "nonces",
      "outputs": [
        {
          "internalType": "uint256",
          "name": "",
          "type": "uint256"
        }
      ],
      "stateMutability": "view",
      "type": "function"
    },
    {
      "inputs": [],
      "name": "open",
      "outputs": [],
      "stateMutability": "nonpayable",
      "type": "function"
    },
    {
      "inputs": [],
      "name": "oracle",
      "outputs": [
        {
          "internalType": "address",
          "name": "",
          "type": "address"
        }
      ],
      "stateMutability": "view",
      "type": "function"
    },
    {
      "inputs": [],
      "name": "owner",
      "outputs": [
        {
          "internalType": "address",
          "name": "",
          "type": "address"
        }
      ],
      "stateMutability": "view",
      "type": "function"
    },
    {
      "inputs": [],
      "name": "policyManager",
      "outputs": [
        {
          "internalType": "contract IPolicyManager",
          "name": "",
          "type": "address"
        }
      ],
      "stateMutability": "view",
      "type": "function"
    },
    {
      "inputs": [],
      "name": "proxiableUUID",
      "outputs": [
        {
          "internalType": "bytes32",
          "name": "",
          "type": "bytes32"
        }
      ],
      "stateMutability": "view",
      "type": "function"
    },
    {
      "inputs": [],
      "name": "renounceOwnership",
      "outputs": [],
      "stateMutability": "nonpayable",
      "type": "function"
    },
    {
      "inputs": [
        {
          "internalType": "uint256",
          "name": "_blockRange",
          "type": "uint256"
        }
      ],
      "name": "setBlockRange",
      "outputs": [],
      "stateMutability": "nonpayable",
      "type": "function"
    },
    {
      "inputs": [
        {
          "internalType": "contract IExecutionDelegate",
          "name": "_executionDelegate",
          "type": "address"
        }
      ],
      "name": "setExecutionDelegate",
      "outputs": [],
      "stateMutability": "nonpayable",
      "type": "function"
    },
    {
      "inputs": [
        {
          "internalType": "address",
          "name": "_oracle",
          "type": "address"
        }
      ],
      "name": "setOracle",
      "outputs": [],
      "stateMutability": "nonpayable",
      "type": "function"
    },
    {
      "inputs": [
        {
          "internalType": "contract IPolicyManager",
          "name": "_policyManager",
          "type": "address"
        }
      ],
      "name": "setPolicyManager",
      "outputs": [],
      "stateMutability": "nonpayable",
      "type": "function"
    },
    {
      "inputs": [
        {
          "internalType": "address",
          "name": "newOwner",
          "type": "address"
        }
      ],
      "name": "transferOwnership",
      "outputs": [],
      "stateMutability": "nonpayable",
      "type": "function"
    },
    {
      "inputs": [
        {
          "internalType": "address",
          "name": "newImplementation",
          "type": "address"
        }
      ],
      "name": "upgradeTo",
      "outputs": [],
      "stateMutability": "nonpayable",
      "type": "function"
    },
    {
      "inputs": [
        {
          "internalType": "address",
          "name": "newImplementation",
          "type": "address"
        },
        {
          "internalType": "bytes",
          "name": "data",
          "type": "bytes"
        }
      ],
      "name": "upgradeToAndCall",
      "outputs": [],
      "stateMutability": "payable",
      "type": "function"
    },
    {
      "inputs": [],
      "name": "version",
      "outputs": [
        {
          "internalType": "string",
          "name": "",
          "type": "string"
        }
      ],
      "stateMutability": "view",
      "type": "function"
    },
    {
      "inputs": [],
      "name": "weth",
      "outputs": [
        {
          "internalType": "address",
          "name": "",
          "type": "address"
        }
      ],
      "stateMutability": "view",
      "type": "function"
    }
  ],
  "transactionHash": "0xacef2043b33f612f4b317b50f2add35d2c310aa081c76c7e5d9f624ca549d493",
  "args": [],
  "numDeployments": 2,
  "solcInputHash": "69631710e4d570fdd1575ca96ae093de",
  "bytecode": "0x60a06040523060805234801561001457600080fd5b5060016000556080516135a361005160003960008181610677015281816106b701528181610953015281816109930152610a0f01526135a36000f3fe6080604052600436106101735760003560e01c8063037c9be21461017857806306fdde031461019a5780631d97c9bb146101f257806331e6d0fe146102345780633659cfe6146102685780633fc8cef31461028857806342de6699146102b557806343d726d6146102d557806347535d7b146102ea5780634832ede1146103005780634f1ef2861461033457806352d1902d1461034757806354fd4d501461035c5780635511f3191461038b578063627cdcb9146103cb5780636992aa36146103e0578063715018a6146104005780637adbf973146104155780637dc0d1d0146104355780637ecebe00146104555780638da5cb5b14610482578063986c9b20146104975780639a1fc3a7146104b7578063a4b2c674146104ca578063ab3dbf3b146104e0578063ab7e8cba14610500578063adde41e114610520578063cae6047f14610540578063f2fde38b14610556578063f4acd74014610576578063f973a20914610596578063fcfff16f146105ca575b600080fd5b34801561018457600080fd5b5061019861019336600461274e565b6105df565b005b3480156101a657600080fd5b506101dc6040518060400160405280601681526020017553757065724368696566204d61726b6574706c61636560501b81525081565b6040516101e9919061278f565b60405180910390f35b3480156101fe57600080fd5b506102267fd71080023d2f293ed0723dc287d6b2d4e7d27d0b6c12928e300721b7c78c748581565b6040519081526020016101e9565b34801561024057600080fd5b506102267f5bcf4b2eaff7fcdeb49f0bda53026b9ebdd93db566fe4c447125cb899e598c9081565b34801561027457600080fd5b5061019861028336600461274e565b61066d565b34801561029457600080fd5b5060cc546102a8906001600160a01b031681565b6040516101e991906127df565b3480156102c157600080fd5b506101986102d03660046127f3565b610735565b3480156102e157600080fd5b50610198610911565b3480156102f657600080fd5b5061022660cb5481565b34801561030c57600080fd5b506102267f05b43f730f67de334a342883f867101fc7ef3361dfdff4a29a7aa97e0920ef7a81565b6101986103423660046128d1565b610949565b34801561035357600080fd5b50610226610a02565b34801561036857600080fd5b506101dc604051806040016040528060038152602001620312e360ec1b81525081565b34801561039757600080fd5b506103bb6103a6366004612978565b60d16020526000908152604090205460ff1681565b60405190151581526020016101e9565b3480156103d757600080fd5b50610198610ab0565b3480156103ec57600080fd5b506101986103fb366004612978565b610b1f565b34801561040c57600080fd5b50610198610b5c565b34801561042157600080fd5b5061019861043036600461274e565b610b70565b34801561044157600080fd5b5060cf546102a8906001600160a01b031681565b34801561046157600080fd5b5061022661047036600461274e565b60d26020526000908152604090205481565b34801561048e57600080fd5b506102a8610bea565b3480156104a357600080fd5b5060cd546102a8906001600160a01b031681565b6101986104c53660046129a9565b610bf9565b3480156104d657600080fd5b5061022660d05481565b3480156104ec57600080fd5b5060ce546102a8906001600160a01b031681565b34801561050c57600080fd5b5061019861051b366004612a0c565b611166565b34801561052c57600080fd5b5061019861053b36600461274e565b6111b5565b34801561054c57600080fd5b5061022661271081565b34801561056257600080fd5b5061019861057136600461274e565b61122f565b34801561058257600080fd5b50610198610591366004612a80565b6112a5565b3480156105a257600080fd5b506102267f376bfbc394a7ba7fdf10f224572cef371358e3053e362f4554fcd2ad56329b3f81565b3480156105d657600080fd5b50610198611355565b6105e761138d565b6001600160a01b0381166106165760405162461bcd60e51b815260040161060d90612abb565b60405180910390fd5b60cd80546001600160a01b0319166001600160a01b0383169081179091556040517ff9a0f356a7ef079355de09d32ce45cc3cfabc8f118681c19a17501f005a376ac91610662916127df565b60405180910390a150565b6001600160a01b037f00000000000000000000000000000000000000000000000000000000000000001630036106b55760405162461bcd60e51b815260040161060d90612aeb565b7f00000000000000000000000000000000000000000000000000000000000000006001600160a01b03166106e76113ec565b6001600160a01b03161461070d5760405162461bcd60e51b815260040161060d90612b37565b61071681611408565b6040805160008082526020820190925261073291839190611410565b50565b600254610100900460ff16158080156107555750600254600160ff909116105b8061077657506107643061157b565b158015610776575060025460ff166001145b6107d95760405162461bcd60e51b815260206004820152602e60248201527f496e697469616c697a61626c653a20636f6e747261637420697320616c72656160448201526d191e481a5b9a5d1a585b1a5e995960921b606482015260840161060d565b6002805460ff1916600117905580156107fc576002805461ff0019166101001790555b61080461158a565b600160cb556040805160c0810182526016608082019081527553757065724368696566204d61726b6574706c61636560501b60a083015281528151808301835260038152620312e360ec1b602082810191909152820152908101889052306060820152610870906115b9565b60015560cc80546001600160a01b038089166001600160a01b03199283161790925560cd805488841690831617905560ce805487841690831617905560cf80549286169290911691909117905560d08290558015610908576002805461ff0019169055604051600181527f7f26b83ff96e1f2b6a682f133852f6798a09c465da95921460cefb38474024989060200160405180910390a15b50505050505050565b61091961138d565b600060cb8190556040517f1cdde67b72a90f19919ac732a437ac2f7a10fc128d28c2a6e525d89ce5cd9d3a9190a1565b6001600160a01b037f00000000000000000000000000000000000000000000000000000000000000001630036109915760405162461bcd60e51b815260040161060d90612aeb565b7f00000000000000000000000000000000000000000000000000000000000000006001600160a01b03166109c36113ec565b6001600160a01b0316146109e95760405162461bcd60e51b815260040161060d90612b37565b6109f282611408565b6109fe82826001611410565b5050565b6000306001600160a01b037f00000000000000000000000000000000000000000000000000000000000000001614610a9d5760405162461bcd60e51b815260206004820152603860248201527f555550535570677261646561626c653a206d757374206e6f742062652063616c6044820152771b1959081d1a1c9bdd59da0819195b1959d85d1958d85b1b60421b606482015260840161060d565b5060008051602061355083398151915290565b33600090815260d260205260408120805460019290610ad0908490612b99565b909155505033600081815260d26020908152604091829020548251938452908301527fa82a649bbd060c9099cd7b7326e2b0dc9e9af0836480e0f849dc9eaa79710b3b910160405180910390a1565b610b2761138d565b60d08190556040518181527f7706177c541ba1b858371bfc568aa77450b4713bbdbba62c730d4484ab6c125190602001610662565b610b6461138d565b610b6e6000611656565b565b610b7861138d565b6001600160a01b038116610b9e5760405162461bcd60e51b815260040161060d90612abb565b60cf80546001600160a01b0319166001600160a01b0383169081179091556040517fb3eacd0e351fafdfefdec84e1cd19679b38dbcd63ea7c2c24da17fd2bc3b3c0e91610662916127df565b6035546001600160a01b031690565b600260005403610c4b5760405162461bcd60e51b815260206004820152601f60248201527f5265656e7472616e637947756172643a207265656e7472616e742063616c6c00604482015260640161060d565b600260005560cb54600114610c8b5760405162461bcd60e51b815260206004820152600660248201526510db1bdcd95960d21b604482015260640161060d565b6001610c978380612bc2565b610ca8906040810190602001612bfb565b6001811115610cb957610cb9612bac565b14610cc357600080fd5b6000610d14610cd28480612bc2565b60d26000610ce08780612bc2565b610cee90602081019061274e565b6001600160a01b03166001600160a01b03168152602001908152602001600020546116a8565b90506000610d25610cd28480612bc2565b9050610d3a610d348580612bc2565b836117e9565b610d845760405162461bcd60e51b815260206004820152601b60248201527a53656c6c2068617320696e76616c696420706172616d657465727360281b604482015260640161060d565b610d97610d918480612bc2565b826117e9565b610de05760405162461bcd60e51b815260206004820152601a6024820152794275792068617320696e76616c696420706172616d657465727360301b604482015260640161060d565b610dea8483611841565b610e325760405162461bcd60e51b815260206004820152601960248201527829b2b636103330b4b632b21030baba3437b934bd30ba34b7b760391b604482015260640161060d565b610e3c8382611841565b610e835760405162461bcd60e51b8152602060048201526018602482015277213abc903330b4b632b21030baba3437b934bd30ba34b7b760411b604482015260640161060d565b6000808080610ea4610e958980612bc2565b610e9f8980612bc2565b61198a565b60cd54939750919550935091506000906001600160a01b0316636ef91c72610ecc8b80612bc2565b610edd90608081019060600161274e565b610ee78c80612bc2565b60800135610ef58d80612bc2565b610f0490610140810190612c18565b6040518563ffffffff1660e01b8152600401610f239493929190612cd9565b600060405180830381865afa158015610f40573d6000803e3d6000fd5b505050506040513d6000823e601f3d908101601f19168201604052610f689190810190612d24565b9050610fbf610f778a80612bc2565b610f8590602081019061274e565b610f8f8a80612bc2565b610f9d90602081019061274e565b610fa78c80612bc2565b610fb89060e081019060c00161274e565b8489611c43565b611015610fcc8a80612bc2565b610fdd90608081019060600161274e565b610fe78b80612bc2565b610ff590602081019061274e565b610fff8b80612bc2565b61100d90602081019061274e565b878787611c81565b600087815260d160205260408082208054600160ff199182168117909255898452919092208054909116909117905561104e8880612bc2565b610100013561105d8a80612bc2565b610100013511611084576110718880612bc2565b61107f90602081019061274e565b61109c565b61108e8980612bc2565b61109c90602081019061274e565b6001600160a01b03166110af8980612bc2565b61010001356110be8b80612bc2565b610100013511156110e6576110d38980612bc2565b6110e190602081019061274e565b6110fe565b6110f08a80612bc2565b6110fe90602081019061274e565b6001600160a01b03167f61cbb2a3dee0b6064c2e681aadd61677fb4ef319f0b547508d495626f5a62f646111328c80612bc2565b8a61113d8d80612bc2565b8b60405161114e9493929190612fcf565b60405180910390a35050600160005550505050505050565b60005b60ff81168211156111b05761119e83838360ff1681811061118c5761118c61300c565b90506020028101906105919190612bc2565b806111a881613022565b915050611169565b505050565b6111bd61138d565b6001600160a01b0381166111e35760405162461bcd60e51b815260040161060d90612abb565b60ce80546001600160a01b0319166001600160a01b0383169081179091556040517fdbe18f3fd927cc2aefe380ffd2abfdb8e13f0239c0258ccfc84c3d8fdd8c041891610662916127df565b61123761138d565b6001600160a01b03811661129c5760405162461bcd60e51b815260206004820152602660248201527f4f776e61626c653a206e6577206f776e657220697320746865207a65726f206160448201526564647265737360d01b606482015260840161060d565b61073281611656565b6112b2602082018261274e565b6001600160a01b0316336001600160a01b0316146112cf57600080fd5b60006112e58260d283610cee602084018461274e565b600081815260d1602052604090205490915060ff166109fe57600081815260d1602052604090819020805460ff19166001179055517f5152abf959f6564662358c2e52b702259b78bac5ee7842a0f01937e670efcc7d906113499083815260200190565b60405180910390a15050565b61135d61138d565b600160cb556040517fd1dcd00534373f20882b79e6ab6875a5c358c5bd576448757ed50e63069ab51890600090a1565b33611396610bea565b6001600160a01b031614610b6e5760405162461bcd60e51b815260206004820181905260248201527f4f776e61626c653a2063616c6c6572206973206e6f7420746865206f776e6572604482015260640161060d565b600080516020613550833981519152546001600160a01b031690565b61073261138d565b7f4910fdfa16fed3260ed0e7147f7cc6da11a60208b5b9406d12a635614ffd91435460ff1615611443576111b083611def565b826001600160a01b03166352d1902d6040518163ffffffff1660e01b8152600401602060405180830381865afa92505050801561149d575060408051601f3d908101601f1916820190925261149a91810190613041565b60015b6115005760405162461bcd60e51b815260206004820152602e60248201527f45524331393637557067726164653a206e657720696d706c656d656e7461746960448201526d6f6e206973206e6f74205555505360901b606482015260840161060d565b600080516020613550833981519152811461156f5760405162461bcd60e51b815260206004820152602960248201527f45524331393637557067726164653a20756e737570706f727465642070726f786044820152681a58589b195555525160ba1b606482015260840161060d565b506111b0838383611e89565b6001600160a01b03163b151590565b600254610100900460ff166115b15760405162461bcd60e51b815260040161060d9061305a565b610b6e611eb4565b60007f8b73c3c69bb8fe3d512ecc4cf759cc79239f7b179b0ffacaa9a75d522b39400f826000015180519060200120836020015180519060200120846040015185606001516040516020016116399594939291909485526020850193909352604084019190915260608301526001600160a01b0316608082015260a00190565b604051602081830303815290604052805190602001209050919050565b603580546001600160a01b038381166001600160a01b0319831681179093556040519116919082907f8be0079c531659141344cd1fd0a4f28419497f9722a3daafe3b4186f6b6457e090600090a35050565b60007f376bfbc394a7ba7fdf10f224572cef371358e3053e362f4554fcd2ad56329b3f6116d8602085018561274e565b6116e86040860160208701612bfb565b6116f8606087016040880161274e565b611708608088016060890161274e565b608088013560a089013561172260e08b0160c08c0161274e565b8a60e001358b61010001358c610120013561174c8e8061014001906117479190612c18565b611ee4565b8e61016001358f80610180019061176391906130a5565b6040516117719291906130eb565b6040519081900381206117939e9d9c9b9a9998979695949392916020016130fb565b60408051601f1981840301815282825260208301859052910160408051601f19818403018152908290526117ca929160200161318e565b6040516020818303038152906040528051906020012090505b92915050565b6000806117f9602085018561274e565b6001600160a01b03161415801561181f5750600082815260d1602052604090205460ff16155b801561183a575061183a836101000135846101200135611fb6565b9392505050565b60003361184e8480612bc2565b61185c90602081019061274e565b6001600160a01b031603611872575060016117e3565b6118ca826118808580612bc2565b61188e90602081019061274e565b61189e60408701602088016131ce565b604087013560608801356118b860c08a0160a08b01612bfb565b6118c560808b018b6130a5565b611fd2565b6118d6575060006117e3565b6118e08380612bc2565b61012001356000036119815760d0546118fd60c0850135436131e9565b1061194a5760405162461bcd60e51b815260206004820181905260248201527f5369676e656420626c6f636b206e756d626572206f7574206f662072616e6765604482015260640161060d565b6119758261195e60c0860160a08701612bfb565b61196b60808701876130a5565b8760c001356120e0565b611981575060006117e3565b50600192915050565b600080600080600085610100013587610100013511611acc5760ce546001600160a01b031663874516cd6119c460608a0160408b0161274e565b6040518263ffffffff1660e01b81526004016119e091906127df565b602060405180830381865afa1580156119fd573d6000803e3d6000fd5b505050506040513d601f19601f82011682018060405250810190611a21919061320c565b611a3d5760405162461bcd60e51b815260040161060d90613227565b611a4d606088016040890161274e565b6001600160a01b031663d5ec8c7788886040518363ffffffff1660e01b8152600401611a7a92919061325a565b60a060405180830381865afa158015611a97573d6000803e3d6000fd5b505050506040513d601f19601f82011682018060405250810190611abb9190613288565b929850909650945092509050611bf1565b60ce546001600160a01b031663874516cd611aed6060890160408a0161274e565b6040518263ffffffff1660e01b8152600401611b0991906127df565b602060405180830381865afa158015611b26573d6000803e3d6000fd5b505050506040513d601f19601f82011682018060405250810190611b4a919061320c565b611b665760405162461bcd60e51b815260040161060d90613227565b611b76606087016040880161274e565b6001600160a01b0316630813a76687896040518363ffffffff1660e01b8152600401611ba392919061325a565b60a060405180830381865afa158015611bc0573d6000803e3d6000fd5b505050506040513d601f19601f82011682018060405250810190611be49190613288565b9298509096509450925090505b80611c395760405162461bcd60e51b815260206004820152601860248201527713dc99195c9cc818d85b9b9bdd081899481b585d18da195960421b604482015260640161060d565b5092959194509250565b6001600160a01b038316611c5d57803414611c5d57600080fd5b6000611c6b83858785612170565b9050611c798486888461228d565b505050505050565b853b611ccb5760405162461bcd60e51b815260206004820152601960248201527810dbdb1b1958dd1a5bdb88191bd95cc81b9bdd08195e1a5cdd603a1b604482015260640161060d565b6000816001811115611cdf57611cdf612bac565b03611d515760cd54604051633c4fc9fb60e11b81526001600160a01b039091169063789f93f690611d1a9089908990899089906004016132dc565b600060405180830381600087803b158015611d3457600080fd5b505af1158015611d48573d6000803e3d6000fd5b50505050611c79565b6001816001811115611d6557611d65612bac565b03611c795760cd54604051633a54a01760e11b81526001600160a01b038881166004830152878116602483015286811660448301526064820186905260848201859052909116906374a9402e9060a401600060405180830381600087803b158015611dcf57600080fd5b505af1158015611de3573d6000803e3d6000fd5b50505050505050505050565b611df88161157b565b611e5a5760405162461bcd60e51b815260206004820152602d60248201527f455243313936373a206e657720696d706c656d656e746174696f6e206973206e60448201526c1bdd08184818dbdb9d1c9858dd609a1b606482015260840161060d565b60008051602061355083398151915280546001600160a01b0319166001600160a01b0392909216919091179055565b611e92836123b0565b600082511180611e9f5750805b156111b057611eae83836123f0565b50505050565b600254610100900460ff16611edb5760405162461bcd60e51b815260040161060d9061305a565b610b6e33611656565b600080826001600160401b03811115611eff57611eff612863565b604051908082528060200260200182016040528015611f28578160200160208202803683370190505b50905060005b83811015611f8557611f56858583818110611f4b57611f4b61300c565b905060400201612415565b828281518110611f6857611f6861300c565b602090810291909101015280611f7d81613306565b915050611f2e565b5080604051602001611f97919061331f565b6040516020818303038152906040528051906020012091505092915050565b6000428310801561183a575081158061183a5750504210919050565b60008080856001811115611fe857611fe8612bac565b03611ffd57611ff68a612485565b90506120b2565b600185600181111561201157612011612bac565b036120b2576000612024848601866133bb565b905060007375176B164941B463B46E619BE08083b1bE672270639c7bf9388d846040518363ffffffff1660e01b81526004016120619291906133ef565b602060405180830381865af415801561207e573d6000803e3d6000fd5b505050506040513d601f19601f820116820180604052508101906120a29190613041565b90506120ad8161249c565b925050505b886001600160a01b03166120c8828a8a8a6124fd565b6001600160a01b0316149a9950505050505050505050565b6000806120ed87846125bd565b9050600080808089600181111561210657612106612bac565b03612123576121178789018961343d565b91945092509050612158565b600189600181111561213757612137612bac565b03612158576000808061214c8a8c018c613470565b91985096509450505050505b60cf546001600160a01b03166120c8858585856124fd565b600080805b86518160ff16101561220e576000612710888360ff168151811061219b5761219b61300c565b60200260200101516000015161ffff16866121b691906134cc565b6121c091906134e3565b90506121ee87878a8560ff16815181106121dc576121dc61300c565b6020026020010151602001518461228d565b6121f88184612b99565b925050808061220690613022565b915050612175565b50828111156122745760405162461bcd60e51b815260206004820152602c60248201527f546f74616c20616d6f756e74206f66206665657320617265206d6f726520746860448201526b616e2074686520707269636560a01b606482015260840161060d565b600061228082856131e9565b925050505b949350505050565b8015611eae576001600160a01b0384166122dd576040516001600160a01b0383169082156108fc029083906000818181858888f193505050501580156122d7573d6000803e3d6000fd5b50611eae565b60cc546001600160a01b03908116908516036123705760cd5460cc5460405163368fa33960e21b81526001600160a01b039283169263da3e8ce49261232d929116908790879087906004016132dc565b6020604051808303816000875af115801561234c573d6000803e3d6000fd5b505050506040513d601f19601f820116820180604052508101906122d7919061320c565b60405162461bcd60e51b815260206004820152601560248201527424b73b30b634b2103830bcb6b2b73a103a37b5b2b760591b604482015260640161060d565b6123b981611def565b6040516001600160a01b038216907fbc7cd75a20ee27fd9adebab32041f755214dbc6bffa90cc0225b39da2e5c2d3b90600090a250565b606061183a838360405180606001604052806027815260200161357060279139612625565b60007f05b43f730f67de334a342883f867101fc7ef3361dfdff4a29a7aa97e0920ef7a6124456020840184613505565b612455604085016020860161274e565b6040516020016116399392919092835261ffff9190911660208301526001600160a01b0316604082015260600190565b600060015482604051602001611639929190613522565b600154604080517f5bcf4b2eaff7fcdeb49f0bda53026b9ebdd93db566fe4c447125cb899e598c9060208201529081018390526000919060600160405160208183030381529060405280519060200120604051602001611639929190613522565b60008360ff16601b148061251457508360ff16601c145b6125565760405162461bcd60e51b815260206004820152601360248201527224b73b30b634b2103b103830b930b6b2ba32b960691b604482015260640161060d565b60408051600081526020810180835287905260ff861691810191909152606081018490526080810183905260019060a0016020604051602081039080840390855afa1580156125a9573d6000803e3d6000fd5b5050604051601f1901519695505050505050565b600154604080517fd71080023d2f293ed0723dc287d6b2d4e7d27d0b6c12928e300721b7c78c748560208201529081018490526060810183905260009190608001604051602081830303815290604052805190602001206040516020016117ca929190613522565b6060600080856001600160a01b031685604051612642919061353d565b600060405180830381855af49150503d806000811461267d576040519150601f19603f3d011682016040523d82523d6000602084013e612682565b606091505b50915091506126938683838761269d565b9695505050505050565b6060831561270a578251600003612703576126b78561157b565b6127035760405162461bcd60e51b815260206004820152601d60248201527f416464726573733a2063616c6c20746f206e6f6e2d636f6e7472616374000000604482015260640161060d565b5081612285565b612285838381511561271f5781518083602001fd5b8060405162461bcd60e51b815260040161060d919061278f565b6001600160a01b038116811461073257600080fd5b60006020828403121561276057600080fd5b813561183a81612739565b60005b8381101561278657818101518382015260200161276e565b50506000910152565b60208152600082518060208401526127ae81604085016020870161276b565b601f01601f19169190910160400192915050565b80356127cd81612739565b919050565b6001600160a01b03169052565b6001600160a01b0391909116815260200190565b60008060008060008060c0878903121561280c57600080fd5b86359550602087013561281e81612739565b9450604087013561282e81612739565b9350606087013561283e81612739565b9250608087013561284e81612739565b8092505060a087013590509295509295509295565b634e487b7160e01b600052604160045260246000fd5b604080519081016001600160401b038111828210171561289b5761289b612863565b60405290565b604051601f8201601f191681016001600160401b03811182821017156128c9576128c9612863565b604052919050565b600080604083850312156128e457600080fd5b82356128ef81612739565b91506020838101356001600160401b038082111561290c57600080fd5b818601915086601f83011261292057600080fd5b81358181111561293257612932612863565b612944601f8201601f191685016128a1565b9150808252878482850101111561295a57600080fd5b80848401858401376000848284010152508093505050509250929050565b60006020828403121561298a57600080fd5b5035919050565b600060e082840312156129a357600080fd5b50919050565b600080604083850312156129bc57600080fd5b82356001600160401b03808211156129d357600080fd5b6129df86838701612991565b935060208501359150808211156129f557600080fd5b50612a0285828601612991565b9150509250929050565b60008060208385031215612a1f57600080fd5b82356001600160401b0380821115612a3657600080fd5b818501915085601f830112612a4a57600080fd5b813581811115612a5957600080fd5b8660208260051b8501011115612a6e57600080fd5b60209290920196919550909350505050565b600060208284031215612a9257600080fd5b81356001600160401b03811115612aa857600080fd5b82016101a0818503121561183a57600080fd5b602080825260169082015275416464726573732063616e6e6f74206265207a65726f60501b604082015260600190565b6020808252602c908201527f46756e6374696f6e206d7573742062652063616c6c6564207468726f7567682060408201526b19195b1959d85d1958d85b1b60a21b606082015260800190565b6020808252602c908201527f46756e6374696f6e206d7573742062652063616c6c6564207468726f7567682060408201526b6163746976652070726f787960a01b606082015260800190565b634e487b7160e01b600052601160045260246000fd5b808201808211156117e3576117e3612b83565b634e487b7160e01b600052602160045260246000fd5b6000823561019e19833603018112612bd957600080fd5b9190910192915050565b6002811061073257600080fd5b80356127cd81612be3565b600060208284031215612c0d57600080fd5b813561183a81612be3565b6000808335601e19843603018112612c2f57600080fd5b8301803591506001600160401b03821115612c4957600080fd5b6020019150600681901b3603821315612c6157600080fd5b9250929050565b61ffff8116811461073257600080fd5b8183526000602080850194508260005b85811015612cce578135612c9b81612c68565b61ffff16875281830135612cae81612739565b6001600160a01b0316878401526040968701969190910190600101612c88565b509495945050505050565b60018060a01b0385168152836020820152606060408201526000612693606083018486612c78565b60006001600160401b03821115612d1a57612d1a612863565b5060051b60200190565b60006020808385031215612d3757600080fd5b82516001600160401b03811115612d4d57600080fd5b8301601f81018513612d5e57600080fd5b8051612d71612d6c82612d01565b6128a1565b81815260069190911b82018301908381019087831115612d9057600080fd5b928401925b82841015612de65760408489031215612dae5760008081fd5b612db6612879565b8451612dc181612c68565b815284860151612dd081612739565b8187015282526040939093019290840190612d95565b979650505050505050565b60028110612e0f57634e487b7160e01b600052602160045260246000fd5b9052565b6000808335601e19843603018112612e2a57600080fd5b83016020810192503590506001600160401b03811115612e4957600080fd5b8060061b3603821315612c6157600080fd5b6000808335601e19843603018112612e7257600080fd5b83016020810192503590506001600160401b03811115612e9157600080fd5b803603821315612c6157600080fd5b81835281816020850137506000828201602090810191909152601f909101601f19169091010190565b60006101a0612ee084612edb856127c2565b6127d2565b612eec60208401612bf0565b612ef96020860182612df1565b50612f06604084016127c2565b612f1360408601826127d2565b50612f20606084016127c2565b612f2d60608601826127d2565b506080830135608085015260a083013560a0850152612f4e60c084016127c2565b612f5b60c08601826127d2565b5060e0838101359085015261010080840135908501526101208084013590850152610140612f8b81850185612e13565b8383880152612f9d8488018284612c78565b9350505050610160808401358186015250610180612fbd81850185612e5b565b86840383880152612de6848284612ea0565b608081526000612fe26080830187612ec9565b8560208401528281036040840152612ffa8186612ec9565b91505082606083015295945050505050565b634e487b7160e01b600052603260045260246000fd5b600060ff821660ff810361303857613038612b83565b60010192915050565b60006020828403121561305357600080fd5b5051919050565b6020808252602b908201527f496e697469616c697a61626c653a20636f6e7472616374206973206e6f74206960408201526a6e697469616c697a696e6760a81b606082015260800190565b6000808335601e198436030181126130bc57600080fd5b8301803591506001600160401b038211156130d657600080fd5b602001915036819003821315612c6157600080fd5b8183823760009101908152919050565b8e81526001600160a01b038e1660208201526101c0810161311f604083018f612df1565b6001600160a01b038d811660608401528c16608083015260a082018b905260c082018a905261315160e083018a6127d2565b8761010083015286610120830152856101408301528461016083015283610180830152826101a08301529f9e505050505050505050505050505050565b600083516131a081846020880161276b565b8351908301906131b481836020880161276b565b01949350505050565b803560ff811681146127cd57600080fd5b6000602082840312156131e057600080fd5b61183a826131bd565b818103818111156117e3576117e3612b83565b805180151581146127cd57600080fd5b60006020828403121561321e57600080fd5b61183a826131fc565b602080825260199082015278141bdb1a58de481a5cc81b9bdd081dda1a5d195b1a5cdd1959603a1b604082015260600190565b60408152600061326d6040830185612ec9565b828103602084015261327f8185612ec9565b95945050505050565b600080600080600060a086880312156132a057600080fd5b6132a9866131fc565b945060208601519350604086015192506060860151915060808601516132ce81612be3565b809150509295509295909350565b6001600160a01b039485168152928416602084015292166040820152606081019190915260800190565b60006001820161331857613318612b83565b5060010190565b815160009082906020808601845b838110156133495781518552938201939082019060010161332d565b50929695505050505050565b600082601f83011261336657600080fd5b81356020613376612d6c83612d01565b82815260059290921b8401810191818101908684111561339557600080fd5b8286015b848110156133b05780358352918301918301613399565b509695505050505050565b6000602082840312156133cd57600080fd5b81356001600160401b038111156133e357600080fd5b61228584828501613355565b6000604082018483526020604081850152818551808452606086019150828701935060005b8181101561343057845183529383019391830191600101613414565b5090979650505050505050565b60008060006060848603121561345257600080fd5b61345b846131bd565b95602085013595506040909401359392505050565b6000806000806080858703121561348657600080fd5b84356001600160401b0381111561349c57600080fd5b6134a887828801613355565b9450506134b7602086016131bd565b93969395505050506040820135916060013590565b80820281158282048414176117e3576117e3612b83565b60008261350057634e487b7160e01b600052601260045260246000fd5b500490565b60006020828403121561351757600080fd5b813561183a81612c68565b61190160f01b81526002810192909252602282015260420190565b60008251612bd981846020870161276b56fe360894a13ba1a3210667c828492db98dca3e2076cc3735a920a3ca505d382bbc416464726573733a206c6f772d6c6576656c2064656c65676174652063616c6c206661696c6564a164736f6c6343000813000a",
  "deployedBytecode": "0x6080604052600436106101735760003560e01c8063037c9be21461017857806306fdde031461019a5780631d97c9bb146101f257806331e6d0fe146102345780633659cfe6146102685780633fc8cef31461028857806342de6699146102b557806343d726d6146102d557806347535d7b146102ea5780634832ede1146103005780634f1ef2861461033457806352d1902d1461034757806354fd4d501461035c5780635511f3191461038b578063627cdcb9146103cb5780636992aa36146103e0578063715018a6146104005780637adbf973146104155780637dc0d1d0146104355780637ecebe00146104555780638da5cb5b14610482578063986c9b20146104975780639a1fc3a7146104b7578063a4b2c674146104ca578063ab3dbf3b146104e0578063ab7e8cba14610500578063adde41e114610520578063cae6047f14610540578063f2fde38b14610556578063f4acd74014610576578063f973a20914610596578063fcfff16f146105ca575b600080fd5b34801561018457600080fd5b5061019861019336600461274e565b6105df565b005b3480156101a657600080fd5b506101dc6040518060400160405280601681526020017553757065724368696566204d61726b6574706c61636560501b81525081565b6040516101e9919061278f565b60405180910390f35b3480156101fe57600080fd5b506102267fd71080023d2f293ed0723dc287d6b2d4e7d27d0b6c12928e300721b7c78c748581565b6040519081526020016101e9565b34801561024057600080fd5b506102267f5bcf4b2eaff7fcdeb49f0bda53026b9ebdd93db566fe4c447125cb899e598c9081565b34801561027457600080fd5b5061019861028336600461274e565b61066d565b34801561029457600080fd5b5060cc546102a8906001600160a01b031681565b6040516101e991906127df565b3480156102c157600080fd5b506101986102d03660046127f3565b610735565b3480156102e157600080fd5b50610198610911565b3480156102f657600080fd5b5061022660cb5481565b34801561030c57600080fd5b506102267f05b43f730f67de334a342883f867101fc7ef3361dfdff4a29a7aa97e0920ef7a81565b6101986103423660046128d1565b610949565b34801561035357600080fd5b50610226610a02565b34801561036857600080fd5b506101dc604051806040016040528060038152602001620312e360ec1b81525081565b34801561039757600080fd5b506103bb6103a6366004612978565b60d16020526000908152604090205460ff1681565b60405190151581526020016101e9565b3480156103d757600080fd5b50610198610ab0565b3480156103ec57600080fd5b506101986103fb366004612978565b610b1f565b34801561040c57600080fd5b50610198610b5c565b34801561042157600080fd5b5061019861043036600461274e565b610b70565b34801561044157600080fd5b5060cf546102a8906001600160a01b031681565b34801561046157600080fd5b5061022661047036600461274e565b60d26020526000908152604090205481565b34801561048e57600080fd5b506102a8610bea565b3480156104a357600080fd5b5060cd546102a8906001600160a01b031681565b6101986104c53660046129a9565b610bf9565b3480156104d657600080fd5b5061022660d05481565b3480156104ec57600080fd5b5060ce546102a8906001600160a01b031681565b34801561050c57600080fd5b5061019861051b366004612a0c565b611166565b34801561052c57600080fd5b5061019861053b36600461274e565b6111b5565b34801561054c57600080fd5b5061022661271081565b34801561056257600080fd5b5061019861057136600461274e565b61122f565b34801561058257600080fd5b50610198610591366004612a80565b6112a5565b3480156105a257600080fd5b506102267f376bfbc394a7ba7fdf10f224572cef371358e3053e362f4554fcd2ad56329b3f81565b3480156105d657600080fd5b50610198611355565b6105e761138d565b6001600160a01b0381166106165760405162461bcd60e51b815260040161060d90612abb565b60405180910390fd5b60cd80546001600160a01b0319166001600160a01b0383169081179091556040517ff9a0f356a7ef079355de09d32ce45cc3cfabc8f118681c19a17501f005a376ac91610662916127df565b60405180910390a150565b6001600160a01b037f00000000000000000000000000000000000000000000000000000000000000001630036106b55760405162461bcd60e51b815260040161060d90612aeb565b7f00000000000000000000000000000000000000000000000000000000000000006001600160a01b03166106e76113ec565b6001600160a01b03161461070d5760405162461bcd60e51b815260040161060d90612b37565b61071681611408565b6040805160008082526020820190925261073291839190611410565b50565b600254610100900460ff16158080156107555750600254600160ff909116105b8061077657506107643061157b565b158015610776575060025460ff166001145b6107d95760405162461bcd60e51b815260206004820152602e60248201527f496e697469616c697a61626c653a20636f6e747261637420697320616c72656160448201526d191e481a5b9a5d1a585b1a5e995960921b606482015260840161060d565b6002805460ff1916600117905580156107fc576002805461ff0019166101001790555b61080461158a565b600160cb556040805160c0810182526016608082019081527553757065724368696566204d61726b6574706c61636560501b60a083015281528151808301835260038152620312e360ec1b602082810191909152820152908101889052306060820152610870906115b9565b60015560cc80546001600160a01b038089166001600160a01b03199283161790925560cd805488841690831617905560ce805487841690831617905560cf80549286169290911691909117905560d08290558015610908576002805461ff0019169055604051600181527f7f26b83ff96e1f2b6a682f133852f6798a09c465da95921460cefb38474024989060200160405180910390a15b50505050505050565b61091961138d565b600060cb8190556040517f1cdde67b72a90f19919ac732a437ac2f7a10fc128d28c2a6e525d89ce5cd9d3a9190a1565b6001600160a01b037f00000000000000000000000000000000000000000000000000000000000000001630036109915760405162461bcd60e51b815260040161060d90612aeb565b7f00000000000000000000000000000000000000000000000000000000000000006001600160a01b03166109c36113ec565b6001600160a01b0316146109e95760405162461bcd60e51b815260040161060d90612b37565b6109f282611408565b6109fe82826001611410565b5050565b6000306001600160a01b037f00000000000000000000000000000000000000000000000000000000000000001614610a9d5760405162461bcd60e51b815260206004820152603860248201527f555550535570677261646561626c653a206d757374206e6f742062652063616c6044820152771b1959081d1a1c9bdd59da0819195b1959d85d1958d85b1b60421b606482015260840161060d565b5060008051602061355083398151915290565b33600090815260d260205260408120805460019290610ad0908490612b99565b909155505033600081815260d26020908152604091829020548251938452908301527fa82a649bbd060c9099cd7b7326e2b0dc9e9af0836480e0f849dc9eaa79710b3b910160405180910390a1565b610b2761138d565b60d08190556040518181527f7706177c541ba1b858371bfc568aa77450b4713bbdbba62c730d4484ab6c125190602001610662565b610b6461138d565b610b6e6000611656565b565b610b7861138d565b6001600160a01b038116610b9e5760405162461bcd60e51b815260040161060d90612abb565b60cf80546001600160a01b0319166001600160a01b0383169081179091556040517fb3eacd0e351fafdfefdec84e1cd19679b38dbcd63ea7c2c24da17fd2bc3b3c0e91610662916127df565b6035546001600160a01b031690565b600260005403610c4b5760405162461bcd60e51b815260206004820152601f60248201527f5265656e7472616e637947756172643a207265656e7472616e742063616c6c00604482015260640161060d565b600260005560cb54600114610c8b5760405162461bcd60e51b815260206004820152600660248201526510db1bdcd95960d21b604482015260640161060d565b6001610c978380612bc2565b610ca8906040810190602001612bfb565b6001811115610cb957610cb9612bac565b14610cc357600080fd5b6000610d14610cd28480612bc2565b60d26000610ce08780612bc2565b610cee90602081019061274e565b6001600160a01b03166001600160a01b03168152602001908152602001600020546116a8565b90506000610d25610cd28480612bc2565b9050610d3a610d348580612bc2565b836117e9565b610d845760405162461bcd60e51b815260206004820152601b60248201527a53656c6c2068617320696e76616c696420706172616d657465727360281b604482015260640161060d565b610d97610d918480612bc2565b826117e9565b610de05760405162461bcd60e51b815260206004820152601a6024820152794275792068617320696e76616c696420706172616d657465727360301b604482015260640161060d565b610dea8483611841565b610e325760405162461bcd60e51b815260206004820152601960248201527829b2b636103330b4b632b21030baba3437b934bd30ba34b7b760391b604482015260640161060d565b610e3c8382611841565b610e835760405162461bcd60e51b8152602060048201526018602482015277213abc903330b4b632b21030baba3437b934bd30ba34b7b760411b604482015260640161060d565b6000808080610ea4610e958980612bc2565b610e9f8980612bc2565b61198a565b60cd54939750919550935091506000906001600160a01b0316636ef91c72610ecc8b80612bc2565b610edd90608081019060600161274e565b610ee78c80612bc2565b60800135610ef58d80612bc2565b610f0490610140810190612c18565b6040518563ffffffff1660e01b8152600401610f239493929190612cd9565b600060405180830381865afa158015610f40573d6000803e3d6000fd5b505050506040513d6000823e601f3d908101601f19168201604052610f689190810190612d24565b9050610fbf610f778a80612bc2565b610f8590602081019061274e565b610f8f8a80612bc2565b610f9d90602081019061274e565b610fa78c80612bc2565b610fb89060e081019060c00161274e565b8489611c43565b611015610fcc8a80612bc2565b610fdd90608081019060600161274e565b610fe78b80612bc2565b610ff590602081019061274e565b610fff8b80612bc2565b61100d90602081019061274e565b878787611c81565b600087815260d160205260408082208054600160ff199182168117909255898452919092208054909116909117905561104e8880612bc2565b610100013561105d8a80612bc2565b610100013511611084576110718880612bc2565b61107f90602081019061274e565b61109c565b61108e8980612bc2565b61109c90602081019061274e565b6001600160a01b03166110af8980612bc2565b61010001356110be8b80612bc2565b610100013511156110e6576110d38980612bc2565b6110e190602081019061274e565b6110fe565b6110f08a80612bc2565b6110fe90602081019061274e565b6001600160a01b03167f61cbb2a3dee0b6064c2e681aadd61677fb4ef319f0b547508d495626f5a62f646111328c80612bc2565b8a61113d8d80612bc2565b8b60405161114e9493929190612fcf565b60405180910390a35050600160005550505050505050565b60005b60ff81168211156111b05761119e83838360ff1681811061118c5761118c61300c565b90506020028101906105919190612bc2565b806111a881613022565b915050611169565b505050565b6111bd61138d565b6001600160a01b0381166111e35760405162461bcd60e51b815260040161060d90612abb565b60ce80546001600160a01b0319166001600160a01b0383169081179091556040517fdbe18f3fd927cc2aefe380ffd2abfdb8e13f0239c0258ccfc84c3d8fdd8c041891610662916127df565b61123761138d565b6001600160a01b03811661129c5760405162461bcd60e51b815260206004820152602660248201527f4f776e61626c653a206e6577206f776e657220697320746865207a65726f206160448201526564647265737360d01b606482015260840161060d565b61073281611656565b6112b2602082018261274e565b6001600160a01b0316336001600160a01b0316146112cf57600080fd5b60006112e58260d283610cee602084018461274e565b600081815260d1602052604090205490915060ff166109fe57600081815260d1602052604090819020805460ff19166001179055517f5152abf959f6564662358c2e52b702259b78bac5ee7842a0f01937e670efcc7d906113499083815260200190565b60405180910390a15050565b61135d61138d565b600160cb556040517fd1dcd00534373f20882b79e6ab6875a5c358c5bd576448757ed50e63069ab51890600090a1565b33611396610bea565b6001600160a01b031614610b6e5760405162461bcd60e51b815260206004820181905260248201527f4f776e61626c653a2063616c6c6572206973206e6f7420746865206f776e6572604482015260640161060d565b600080516020613550833981519152546001600160a01b031690565b61073261138d565b7f4910fdfa16fed3260ed0e7147f7cc6da11a60208b5b9406d12a635614ffd91435460ff1615611443576111b083611def565b826001600160a01b03166352d1902d6040518163ffffffff1660e01b8152600401602060405180830381865afa92505050801561149d575060408051601f3d908101601f1916820190925261149a91810190613041565b60015b6115005760405162461bcd60e51b815260206004820152602e60248201527f45524331393637557067726164653a206e657720696d706c656d656e7461746960448201526d6f6e206973206e6f74205555505360901b606482015260840161060d565b600080516020613550833981519152811461156f5760405162461bcd60e51b815260206004820152602960248201527f45524331393637557067726164653a20756e737570706f727465642070726f786044820152681a58589b195555525160ba1b606482015260840161060d565b506111b0838383611e89565b6001600160a01b03163b151590565b600254610100900460ff166115b15760405162461bcd60e51b815260040161060d9061305a565b610b6e611eb4565b60007f8b73c3c69bb8fe3d512ecc4cf759cc79239f7b179b0ffacaa9a75d522b39400f826000015180519060200120836020015180519060200120846040015185606001516040516020016116399594939291909485526020850193909352604084019190915260608301526001600160a01b0316608082015260a00190565b604051602081830303815290604052805190602001209050919050565b603580546001600160a01b038381166001600160a01b0319831681179093556040519116919082907f8be0079c531659141344cd1fd0a4f28419497f9722a3daafe3b4186f6b6457e090600090a35050565b60007f376bfbc394a7ba7fdf10f224572cef371358e3053e362f4554fcd2ad56329b3f6116d8602085018561274e565b6116e86040860160208701612bfb565b6116f8606087016040880161274e565b611708608088016060890161274e565b608088013560a089013561172260e08b0160c08c0161274e565b8a60e001358b61010001358c610120013561174c8e8061014001906117479190612c18565b611ee4565b8e61016001358f80610180019061176391906130a5565b6040516117719291906130eb565b6040519081900381206117939e9d9c9b9a9998979695949392916020016130fb565b60408051601f1981840301815282825260208301859052910160408051601f19818403018152908290526117ca929160200161318e565b6040516020818303038152906040528051906020012090505b92915050565b6000806117f9602085018561274e565b6001600160a01b03161415801561181f5750600082815260d1602052604090205460ff16155b801561183a575061183a836101000135846101200135611fb6565b9392505050565b60003361184e8480612bc2565b61185c90602081019061274e565b6001600160a01b031603611872575060016117e3565b6118ca826118808580612bc2565b61188e90602081019061274e565b61189e60408701602088016131ce565b604087013560608801356118b860c08a0160a08b01612bfb565b6118c560808b018b6130a5565b611fd2565b6118d6575060006117e3565b6118e08380612bc2565b61012001356000036119815760d0546118fd60c0850135436131e9565b1061194a5760405162461bcd60e51b815260206004820181905260248201527f5369676e656420626c6f636b206e756d626572206f7574206f662072616e6765604482015260640161060d565b6119758261195e60c0860160a08701612bfb565b61196b60808701876130a5565b8760c001356120e0565b611981575060006117e3565b50600192915050565b600080600080600085610100013587610100013511611acc5760ce546001600160a01b031663874516cd6119c460608a0160408b0161274e565b6040518263ffffffff1660e01b81526004016119e091906127df565b602060405180830381865afa1580156119fd573d6000803e3d6000fd5b505050506040513d601f19601f82011682018060405250810190611a21919061320c565b611a3d5760405162461bcd60e51b815260040161060d90613227565b611a4d606088016040890161274e565b6001600160a01b031663d5ec8c7788886040518363ffffffff1660e01b8152600401611a7a92919061325a565b60a060405180830381865afa158015611a97573d6000803e3d6000fd5b505050506040513d601f19601f82011682018060405250810190611abb9190613288565b929850909650945092509050611bf1565b60ce546001600160a01b031663874516cd611aed6060890160408a0161274e565b6040518263ffffffff1660e01b8152600401611b0991906127df565b602060405180830381865afa158015611b26573d6000803e3d6000fd5b505050506040513d601f19601f82011682018060405250810190611b4a919061320c565b611b665760405162461bcd60e51b815260040161060d90613227565b611b76606087016040880161274e565b6001600160a01b0316630813a76687896040518363ffffffff1660e01b8152600401611ba392919061325a565b60a060405180830381865afa158015611bc0573d6000803e3d6000fd5b505050506040513d601f19601f82011682018060405250810190611be49190613288565b9298509096509450925090505b80611c395760405162461bcd60e51b815260206004820152601860248201527713dc99195c9cc818d85b9b9bdd081899481b585d18da195960421b604482015260640161060d565b5092959194509250565b6001600160a01b038316611c5d57803414611c5d57600080fd5b6000611c6b83858785612170565b9050611c798486888461228d565b505050505050565b853b611ccb5760405162461bcd60e51b815260206004820152601960248201527810dbdb1b1958dd1a5bdb88191bd95cc81b9bdd08195e1a5cdd603a1b604482015260640161060d565b6000816001811115611cdf57611cdf612bac565b03611d515760cd54604051633c4fc9fb60e11b81526001600160a01b039091169063789f93f690611d1a9089908990899089906004016132dc565b600060405180830381600087803b158015611d3457600080fd5b505af1158015611d48573d6000803e3d6000fd5b50505050611c79565b6001816001811115611d6557611d65612bac565b03611c795760cd54604051633a54a01760e11b81526001600160a01b038881166004830152878116602483015286811660448301526064820186905260848201859052909116906374a9402e9060a401600060405180830381600087803b158015611dcf57600080fd5b505af1158015611de3573d6000803e3d6000fd5b50505050505050505050565b611df88161157b565b611e5a5760405162461bcd60e51b815260206004820152602d60248201527f455243313936373a206e657720696d706c656d656e746174696f6e206973206e60448201526c1bdd08184818dbdb9d1c9858dd609a1b606482015260840161060d565b60008051602061355083398151915280546001600160a01b0319166001600160a01b0392909216919091179055565b611e92836123b0565b600082511180611e9f5750805b156111b057611eae83836123f0565b50505050565b600254610100900460ff16611edb5760405162461bcd60e51b815260040161060d9061305a565b610b6e33611656565b600080826001600160401b03811115611eff57611eff612863565b604051908082528060200260200182016040528015611f28578160200160208202803683370190505b50905060005b83811015611f8557611f56858583818110611f4b57611f4b61300c565b905060400201612415565b828281518110611f6857611f6861300c565b602090810291909101015280611f7d81613306565b915050611f2e565b5080604051602001611f97919061331f565b6040516020818303038152906040528051906020012091505092915050565b6000428310801561183a575081158061183a5750504210919050565b60008080856001811115611fe857611fe8612bac565b03611ffd57611ff68a612485565b90506120b2565b600185600181111561201157612011612bac565b036120b2576000612024848601866133bb565b9050600073__$ed053d8b3899615c4626b1ae19704d37b7$__639c7bf9388d846040518363ffffffff1660e01b81526004016120619291906133ef565b602060405180830381865af415801561207e573d6000803e3d6000fd5b505050506040513d601f19601f820116820180604052508101906120a29190613041565b90506120ad8161249c565b925050505b886001600160a01b03166120c8828a8a8a6124fd565b6001600160a01b0316149a9950505050505050505050565b6000806120ed87846125bd565b9050600080808089600181111561210657612106612bac565b03612123576121178789018961343d565b91945092509050612158565b600189600181111561213757612137612bac565b03612158576000808061214c8a8c018c613470565b91985096509450505050505b60cf546001600160a01b03166120c8858585856124fd565b600080805b86518160ff16101561220e576000612710888360ff168151811061219b5761219b61300c565b60200260200101516000015161ffff16866121b691906134cc565b6121c091906134e3565b90506121ee87878a8560ff16815181106121dc576121dc61300c565b6020026020010151602001518461228d565b6121f88184612b99565b925050808061220690613022565b915050612175565b50828111156122745760405162461bcd60e51b815260206004820152602c60248201527f546f74616c20616d6f756e74206f66206665657320617265206d6f726520746860448201526b616e2074686520707269636560a01b606482015260840161060d565b600061228082856131e9565b925050505b949350505050565b8015611eae576001600160a01b0384166122dd576040516001600160a01b0383169082156108fc029083906000818181858888f193505050501580156122d7573d6000803e3d6000fd5b50611eae565b60cc546001600160a01b03908116908516036123705760cd5460cc5460405163368fa33960e21b81526001600160a01b039283169263da3e8ce49261232d929116908790879087906004016132dc565b6020604051808303816000875af115801561234c573d6000803e3d6000fd5b505050506040513d601f19601f820116820180604052508101906122d7919061320c565b60405162461bcd60e51b815260206004820152601560248201527424b73b30b634b2103830bcb6b2b73a103a37b5b2b760591b604482015260640161060d565b6123b981611def565b6040516001600160a01b038216907fbc7cd75a20ee27fd9adebab32041f755214dbc6bffa90cc0225b39da2e5c2d3b90600090a250565b606061183a838360405180606001604052806027815260200161357060279139612625565b60007f05b43f730f67de334a342883f867101fc7ef3361dfdff4a29a7aa97e0920ef7a6124456020840184613505565b612455604085016020860161274e565b6040516020016116399392919092835261ffff9190911660208301526001600160a01b0316604082015260600190565b600060015482604051602001611639929190613522565b600154604080517f5bcf4b2eaff7fcdeb49f0bda53026b9ebdd93db566fe4c447125cb899e598c9060208201529081018390526000919060600160405160208183030381529060405280519060200120604051602001611639929190613522565b60008360ff16601b148061251457508360ff16601c145b6125565760405162461bcd60e51b815260206004820152601360248201527224b73b30b634b2103b103830b930b6b2ba32b960691b604482015260640161060d565b60408051600081526020810180835287905260ff861691810191909152606081018490526080810183905260019060a0016020604051602081039080840390855afa1580156125a9573d6000803e3d6000fd5b5050604051601f1901519695505050505050565b600154604080517fd71080023d2f293ed0723dc287d6b2d4e7d27d0b6c12928e300721b7c78c748560208201529081018490526060810183905260009190608001604051602081830303815290604052805190602001206040516020016117ca929190613522565b6060600080856001600160a01b031685604051612642919061353d565b600060405180830381855af49150503d806000811461267d576040519150601f19603f3d011682016040523d82523d6000602084013e612682565b606091505b50915091506126938683838761269d565b9695505050505050565b6060831561270a578251600003612703576126b78561157b565b6127035760405162461bcd60e51b815260206004820152601d60248201527f416464726573733a2063616c6c20746f206e6f6e2d636f6e7472616374000000604482015260640161060d565b5081612285565b612285838381511561271f5781518083602001fd5b8060405162461bcd60e51b815260040161060d919061278f565b6001600160a01b038116811461073257600080fd5b60006020828403121561276057600080fd5b813561183a81612739565b60005b8381101561278657818101518382015260200161276e565b50506000910152565b60208152600082518060208401526127ae81604085016020870161276b565b601f01601f19169190910160400192915050565b80356127cd81612739565b919050565b6001600160a01b03169052565b6001600160a01b0391909116815260200190565b60008060008060008060c0878903121561280c57600080fd5b86359550602087013561281e81612739565b9450604087013561282e81612739565b9350606087013561283e81612739565b9250608087013561284e81612739565b8092505060a087013590509295509295509295565b634e487b7160e01b600052604160045260246000fd5b604080519081016001600160401b038111828210171561289b5761289b612863565b60405290565b604051601f8201601f191681016001600160401b03811182821017156128c9576128c9612863565b604052919050565b600080604083850312156128e457600080fd5b82356128ef81612739565b91506020838101356001600160401b038082111561290c57600080fd5b818601915086601f83011261292057600080fd5b81358181111561293257612932612863565b612944601f8201601f191685016128a1565b9150808252878482850101111561295a57600080fd5b80848401858401376000848284010152508093505050509250929050565b60006020828403121561298a57600080fd5b5035919050565b600060e082840312156129a357600080fd5b50919050565b600080604083850312156129bc57600080fd5b82356001600160401b03808211156129d357600080fd5b6129df86838701612991565b935060208501359150808211156129f557600080fd5b50612a0285828601612991565b9150509250929050565b60008060208385031215612a1f57600080fd5b82356001600160401b0380821115612a3657600080fd5b818501915085601f830112612a4a57600080fd5b813581811115612a5957600080fd5b8660208260051b8501011115612a6e57600080fd5b60209290920196919550909350505050565b600060208284031215612a9257600080fd5b81356001600160401b03811115612aa857600080fd5b82016101a0818503121561183a57600080fd5b602080825260169082015275416464726573732063616e6e6f74206265207a65726f60501b604082015260600190565b6020808252602c908201527f46756e6374696f6e206d7573742062652063616c6c6564207468726f7567682060408201526b19195b1959d85d1958d85b1b60a21b606082015260800190565b6020808252602c908201527f46756e6374696f6e206d7573742062652063616c6c6564207468726f7567682060408201526b6163746976652070726f787960a01b606082015260800190565b634e487b7160e01b600052601160045260246000fd5b808201808211156117e3576117e3612b83565b634e487b7160e01b600052602160045260246000fd5b6000823561019e19833603018112612bd957600080fd5b9190910192915050565b6002811061073257600080fd5b80356127cd81612be3565b600060208284031215612c0d57600080fd5b813561183a81612be3565b6000808335601e19843603018112612c2f57600080fd5b8301803591506001600160401b03821115612c4957600080fd5b6020019150600681901b3603821315612c6157600080fd5b9250929050565b61ffff8116811461073257600080fd5b8183526000602080850194508260005b85811015612cce578135612c9b81612c68565b61ffff16875281830135612cae81612739565b6001600160a01b0316878401526040968701969190910190600101612c88565b509495945050505050565b60018060a01b0385168152836020820152606060408201526000612693606083018486612c78565b60006001600160401b03821115612d1a57612d1a612863565b5060051b60200190565b60006020808385031215612d3757600080fd5b82516001600160401b03811115612d4d57600080fd5b8301601f81018513612d5e57600080fd5b8051612d71612d6c82612d01565b6128a1565b81815260069190911b82018301908381019087831115612d9057600080fd5b928401925b82841015612de65760408489031215612dae5760008081fd5b612db6612879565b8451612dc181612c68565b815284860151612dd081612739565b8187015282526040939093019290840190612d95565b979650505050505050565b60028110612e0f57634e487b7160e01b600052602160045260246000fd5b9052565b6000808335601e19843603018112612e2a57600080fd5b83016020810192503590506001600160401b03811115612e4957600080fd5b8060061b3603821315612c6157600080fd5b6000808335601e19843603018112612e7257600080fd5b83016020810192503590506001600160401b03811115612e9157600080fd5b803603821315612c6157600080fd5b81835281816020850137506000828201602090810191909152601f909101601f19169091010190565b60006101a0612ee084612edb856127c2565b6127d2565b612eec60208401612bf0565b612ef96020860182612df1565b50612f06604084016127c2565b612f1360408601826127d2565b50612f20606084016127c2565b612f2d60608601826127d2565b506080830135608085015260a083013560a0850152612f4e60c084016127c2565b612f5b60c08601826127d2565b5060e0838101359085015261010080840135908501526101208084013590850152610140612f8b81850185612e13565b8383880152612f9d8488018284612c78565b9350505050610160808401358186015250610180612fbd81850185612e5b565b86840383880152612de6848284612ea0565b608081526000612fe26080830187612ec9565b8560208401528281036040840152612ffa8186612ec9565b91505082606083015295945050505050565b634e487b7160e01b600052603260045260246000fd5b600060ff821660ff810361303857613038612b83565b60010192915050565b60006020828403121561305357600080fd5b5051919050565b6020808252602b908201527f496e697469616c697a61626c653a20636f6e7472616374206973206e6f74206960408201526a6e697469616c697a696e6760a81b606082015260800190565b6000808335601e198436030181126130bc57600080fd5b8301803591506001600160401b038211156130d657600080fd5b602001915036819003821315612c6157600080fd5b8183823760009101908152919050565b8e81526001600160a01b038e1660208201526101c0810161311f604083018f612df1565b6001600160a01b038d811660608401528c16608083015260a082018b905260c082018a905261315160e083018a6127d2565b8761010083015286610120830152856101408301528461016083015283610180830152826101a08301529f9e505050505050505050505050505050565b600083516131a081846020880161276b565b8351908301906131b481836020880161276b565b01949350505050565b803560ff811681146127cd57600080fd5b6000602082840312156131e057600080fd5b61183a826131bd565b818103818111156117e3576117e3612b83565b805180151581146127cd57600080fd5b60006020828403121561321e57600080fd5b61183a826131fc565b602080825260199082015278141bdb1a58de481a5cc81b9bdd081dda1a5d195b1a5cdd1959603a1b604082015260600190565b60408152600061326d6040830185612ec9565b828103602084015261327f8185612ec9565b95945050505050565b600080600080600060a086880312156132a057600080fd5b6132a9866131fc565b945060208601519350604086015192506060860151915060808601516132ce81612be3565b809150509295509295909350565b6001600160a01b039485168152928416602084015292166040820152606081019190915260800190565b60006001820161331857613318612b83565b5060010190565b815160009082906020808601845b838110156133495781518552938201939082019060010161332d565b50929695505050505050565b600082601f83011261336657600080fd5b81356020613376612d6c83612d01565b82815260059290921b8401810191818101908684111561339557600080fd5b8286015b848110156133b05780358352918301918301613399565b509695505050505050565b6000602082840312156133cd57600080fd5b81356001600160401b038111156133e357600080fd5b61228584828501613355565b6000604082018483526020604081850152818551808452606086019150828701935060005b8181101561343057845183529383019391830191600101613414565b5090979650505050505050565b60008060006060848603121561345257600080fd5b61345b846131bd565b95602085013595506040909401359392505050565b6000806000806080858703121561348657600080fd5b84356001600160401b0381111561349c57600080fd5b6134a887828801613355565b9450506134b7602086016131bd565b93969395505050506040820135916060013590565b80820281158282048414176117e3576117e3612b83565b60008261350057634e487b7160e01b600052601260045260246000fd5b500490565b60006020828403121561351757600080fd5b813561183a81612c68565b61190160f01b81526002810192909252602282015260420190565b60008251612bd981846020870161276b56fe360894a13ba1a3210667c828492db98dca3e2076cc3735a920a3ca505d382bbc416464726573733a206c6f772d6c6576656c2064656c65676174652063616c6c206661696c6564a164736f6c6343000813000a",
  "libraries": {
    "MerkleVerifier": "0x75176B164941B463B46E619BE08083b1bE672270"
  },
  "devdoc": {
    "details": "Core marketplace contract",
    "events": {
      "AdminChanged(address,address)": {
        "details": "Emitted when the admin account has changed."
      },
      "BeaconUpgraded(address)": {
        "details": "Emitted when the beacon is changed."
      },
      "Initialized(uint8)": {
        "details": "Triggered when the contract has been initialized or reinitialized."
      },
      "Upgraded(address)": {
        "details": "Emitted when the implementation is upgraded."
      }
    },
    "kind": "dev",
    "methods": {
      "cancelOrder((address,uint8,address,address,uint256,uint256,address,uint256,uint256,uint256,(uint16,address)[],uint256,bytes))": {
        "details": "Cancel an order, preventing it from being matched. Must be called by the trader of the order",
        "params": {
          "order": "Order to cancel"
        }
      },
      "cancelOrders((address,uint8,address,address,uint256,uint256,address,uint256,uint256,uint256,(uint16,address)[],uint256,bytes)[])": {
        "details": "Cancel multiple orders",
        "params": {
          "orders": "Orders to cancel"
        }
      },
      "execute(((address,uint8,address,address,uint256,uint256,address,uint256,uint256,uint256,(uint16,address)[],uint256,bytes),uint8,bytes32,bytes32,bytes,uint8,uint256),((address,uint8,address,address,uint256,uint256,address,uint256,uint256,uint256,(uint16,address)[],uint256,bytes),uint8,bytes32,bytes32,bytes,uint8,uint256))": {
        "details": "Match two orders, ensuring validity of the match, and execute all associated state transitions. Protected against reentrancy by a contract-global lock.",
        "params": {
          "buy": "Buy input",
          "sell": "Sell input"
        }
      },
      "incrementNonce()": {
        "details": "Cancel all current orders for a user, preventing them from being matched. Must be called by the trader of the order"
      },
      "owner()": {
        "details": "Returns the address of the current owner."
      },
      "proxiableUUID()": {
        "details": "Implementation of the ERC1822 {proxiableUUID} function. This returns the storage slot used by the implementation. It is used to validate the implementation's compatibility when performing an upgrade. IMPORTANT: A proxy pointing at a proxiable contract should not be considered proxiable itself, because this risks bricking a proxy that upgrades to it, by delegating to itself until out of gas. Thus it is critical that this function revert if invoked through a proxy. This is guaranteed by the `notDelegated` modifier."
      },
      "renounceOwnership()": {
        "details": "Leaves the contract without owner. It will not be possible to call `onlyOwner` functions. Can only be called by the current owner. NOTE: Renouncing ownership will leave the contract without an owner, thereby disabling any functionality that is only available to the owner."
      },
      "transferOwnership(address)": {
        "details": "Transfers ownership of the contract to a new account (`newOwner`). Can only be called by the current owner."
      },
      "upgradeTo(address)": {
        "custom:oz-upgrades-unsafe-allow-reachable": "delegatecall",
        "details": "Upgrade the implementation of the proxy to `newImplementation`. Calls {_authorizeUpgrade}. Emits an {Upgraded} event."
      },
      "upgradeToAndCall(address,bytes)": {
        "custom:oz-upgrades-unsafe-allow-reachable": "delegatecall",
        "details": "Upgrade the implementation of the proxy to `newImplementation`, and subsequently execute the function call encoded in `data`. Calls {_authorizeUpgrade}. Emits an {Upgraded} event."
      }
    },
    "title": "Marketplace",
    "version": 1
  },
  "userdoc": {
    "kind": "user",
    "methods": {},
    "version": 1
  },
  "storageLayout": {
    "storage": [
      {
        "astId": 14913,
        "contract": "contracts/Marketplace.sol:Marketplace",
        "label": "_status",
        "offset": 0,
        "slot": "0",
        "type": "t_uint256"
      },
      {
        "astId": 14562,
        "contract": "contracts/Marketplace.sol:Marketplace",
        "label": "DOMAIN_SEPARATOR",
        "offset": 0,
        "slot": "1",
        "type": "t_bytes32"
      },
      {
        "astId": 503,
        "contract": "contracts/Marketplace.sol:Marketplace",
        "label": "_initialized",
        "offset": 0,
        "slot": "2",
        "type": "t_uint8"
      },
      {
        "astId": 506,
        "contract": "contracts/Marketplace.sol:Marketplace",
        "label": "_initializing",
        "offset": 1,
        "slot": "2",
        "type": "t_bool"
      },
      {
        "astId": 1172,
        "contract": "contracts/Marketplace.sol:Marketplace",
        "label": "__gap",
        "offset": 0,
        "slot": "3",
        "type": "t_array(t_uint256)50_storage"
      },
      {
        "astId": 10,
        "contract": "contracts/Marketplace.sol:Marketplace",
        "label": "_owner",
        "offset": 0,
        "slot": "53",
        "type": "t_address"
      },
      {
        "astId": 130,
        "contract": "contracts/Marketplace.sol:Marketplace",
        "label": "__gap",
        "offset": 0,
        "slot": "54",
        "type": "t_array(t_uint256)49_storage"
      },
      {
        "astId": 485,
        "contract": "contracts/Marketplace.sol:Marketplace",
        "label": "__gap",
        "offset": 0,
        "slot": "103",
        "type": "t_array(t_uint256)50_storage"
      },
      {
        "astId": 800,
        "contract": "contracts/Marketplace.sol:Marketplace",
        "label": "__gap",
        "offset": 0,
        "slot": "153",
        "type": "t_array(t_uint256)50_storage"
      },
      {
        "astId": 10260,
        "contract": "contracts/Marketplace.sol:Marketplace",
        "label": "isOpen",
        "offset": 0,
        "slot": "203",
        "type": "t_uint256"
      },
      {
        "astId": 10321,
        "contract": "contracts/Marketplace.sol:Marketplace",
        "label": "weth",
        "offset": 0,
        "slot": "204",
        "type": "t_address"
      },
      {
        "astId": 10324,
        "contract": "contracts/Marketplace.sol:Marketplace",
        "label": "executionDelegate",
        "offset": 0,
        "slot": "205",
        "type": "t_contract(IExecutionDelegate)14353"
      },
      {
        "astId": 10327,
        "contract": "contracts/Marketplace.sol:Marketplace",
        "label": "policyManager",
        "offset": 0,
        "slot": "206",
        "type": "t_contract(IPolicyManager)14520"
      },
      {
        "astId": 10329,
        "contract": "contracts/Marketplace.sol:Marketplace",
        "label": "oracle",
        "offset": 0,
        "slot": "207",
        "type": "t_address"
      },
      {
        "astId": 10331,
        "contract": "contracts/Marketplace.sol:Marketplace",
        "label": "blockRange",
        "offset": 0,
        "slot": "208",
        "type": "t_uint256"
      },
      {
        "astId": 10335,
        "contract": "contracts/Marketplace.sol:Marketplace",
        "label": "cancelledOrFilled",
        "offset": 0,
        "slot": "209",
        "type": "t_mapping(t_bytes32,t_bool)"
      },
      {
        "astId": 10339,
        "contract": "contracts/Marketplace.sol:Marketplace",
        "label": "nonces",
        "offset": 0,
        "slot": "210",
        "type": "t_mapping(t_address,t_uint256)"
      }
    ],
    "types": {
      "t_address": {
        "encoding": "inplace",
        "label": "address",
        "numberOfBytes": "20"
      },
      "t_array(t_uint256)49_storage": {
        "base": "t_uint256",
        "encoding": "inplace",
        "label": "uint256[49]",
        "numberOfBytes": "1568"
      },
      "t_array(t_uint256)50_storage": {
        "base": "t_uint256",
        "encoding": "inplace",
        "label": "uint256[50]",
        "numberOfBytes": "1600"
      },
      "t_bool": {
        "encoding": "inplace",
        "label": "bool",
        "numberOfBytes": "1"
      },
      "t_bytes32": {
        "encoding": "inplace",
        "label": "bytes32",
        "numberOfBytes": "32"
      },
      "t_contract(IExecutionDelegate)14353": {
        "encoding": "inplace",
        "label": "contract IExecutionDelegate",
        "numberOfBytes": "20"
      },
      "t_contract(IPolicyManager)14520": {
        "encoding": "inplace",
        "label": "contract IPolicyManager",
        "numberOfBytes": "20"
      },
      "t_mapping(t_address,t_uint256)": {
        "encoding": "mapping",
        "key": "t_address",
        "label": "mapping(address => uint256)",
        "numberOfBytes": "32",
        "value": "t_uint256"
      },
      "t_mapping(t_bytes32,t_bool)": {
        "encoding": "mapping",
        "key": "t_bytes32",
        "label": "mapping(bytes32 => bool)",
        "numberOfBytes": "32",
        "value": "t_bool"
      },
      "t_uint256": {
        "encoding": "inplace",
        "label": "uint256",
        "numberOfBytes": "32"
      },
      "t_uint8": {
        "encoding": "inplace",
        "label": "uint8",
        "numberOfBytes": "1"
      }
    }
  }
}