{
  "address": "0x226D5E13567B14D743270686EBC49956e4215Ce5",
  "abi": [
    {
      "inputs": [],
      "stateMutability": "nonpayable",
      "type": "constructor"
    },
    {
      "anonymous": false,
      "inputs": [
        {
          "indexed": false,
          "internalType": "address",
          "name": "previousAdmin",
          "type": "address"
        },
        {
          "indexed": false,
          "internalType": "address",
          "name": "newAdmin",
          "type": "address"
        }
      ],
      "name": "AdminChanged",
      "type": "event"
    },
    {
      "anonymous": false,
      "inputs": [
        {
          "indexed": true,
          "internalType": "address",
          "name": "beacon",
          "type": "address"
        }
      ],
      "name": "BeaconUpgraded",
      "type": "event"
    },
    {
      "anonymous": false,
      "inputs": [],
      "name": "Closed",
      "type": "event"
    },
    {
      "anonymous": false,
      "inputs": [
        {
          "indexed": false,
          "internalType": "uint8",
          "name": "version",
          "type": "uint8"
        }
      ],
      "name": "Initialized",
      "type": "event"
    },
    {
      "anonymous": false,
      "inputs": [
        {
          "components": [
            {
              "internalType": "uint16",
              "name": "rate",
              "type": "uint16"
            },
            {
              "internalType": "address payable",
              "name": "recipient",
              "type": "address"
            }
          ],
          "indexed": false,
          "internalType": "struct Fee[]",
          "name": "fees",
          "type": "tuple[]"
        }
      ],
      "name": "NewBaseFee",
      "type": "event"
    },
    {
      "anonymous": false,
      "inputs": [
        {
          "indexed": false,
          "internalType": "uint256",
          "name": "blockRange",
          "type": "uint256"
        }
      ],
      "name": "NewBlockRange",
      "type": "event"
    },
    {
      "anonymous": false,
      "inputs": [
        {
          "indexed": false,
          "internalType": "contract IExecutionDelegate",
          "name": "executionDelegate",
          "type": "address"
        }
      ],
      "name": "NewExecutionDelegate",
      "type": "event"
    },
    {
      "anonymous": false,
      "inputs": [
        {
          "indexed": false,
          "internalType": "address",
          "name": "oracle",
          "type": "address"
        }
      ],
      "name": "NewOracle",
      "type": "event"
    },
    {
      "anonymous": false,
      "inputs": [
        {
          "indexed": false,
          "internalType": "contract IPolicyManager",
          "name": "policyManager",
          "type": "address"
        }
      ],
      "name": "NewPolicyManager",
      "type": "event"
    },
    {
      "anonymous": false,
      "inputs": [
        {
          "indexed": false,
          "internalType": "address",
          "name": "trader",
          "type": "address"
        },
        {
          "indexed": false,
          "internalType": "uint256",
          "name": "newNonce",
          "type": "uint256"
        }
      ],
      "name": "NonceIncremented",
      "type": "event"
    },
    {
      "anonymous": false,
      "inputs": [],
      "name": "Opened",
      "type": "event"
    },
    {
      "anonymous": false,
      "inputs": [
        {
          "indexed": false,
          "internalType": "bytes32",
          "name": "hash",
          "type": "bytes32"
        }
      ],
      "name": "OrderCancelled",
      "type": "event"
    },
    {
      "anonymous": false,
      "inputs": [
        {
          "indexed": true,
          "internalType": "address",
          "name": "maker",
          "type": "address"
        },
        {
          "indexed": true,
          "internalType": "address",
          "name": "taker",
          "type": "address"
        },
        {
          "components": [
            {
              "internalType": "address",
              "name": "trader",
              "type": "address"
            },
            {
              "internalType": "enum Side",
              "name": "side",
              "type": "uint8"
            },
            {
              "internalType": "address",
              "name": "matchingPolicy",
              "type": "address"
            },
            {
              "internalType": "address",
              "name": "collection",
              "type": "address"
            },
            {
              "internalType": "uint256",
              "name": "tokenId",
              "type": "uint256"
            },
            {
              "internalType": "uint256",
              "name": "amount",
              "type": "uint256"
            },
            {
              "internalType": "address",
              "name": "paymentToken",
              "type": "address"
            },
            {
              "internalType": "uint256",
              "name": "price",
              "type": "uint256"
            },
            {
              "internalType": "uint256",
              "name": "listingTime",
              "type": "uint256"
            },
            {
              "internalType": "uint256",
              "name": "expirationTime",
              "type": "uint256"
            },
            {
              "components": [
                {
                  "internalType": "uint16",
                  "name": "rate",
                  "type": "uint16"
                },
                {
                  "internalType": "address payable",
                  "name": "recipient",
                  "type": "address"
                }
              ],
              "internalType": "struct Fee[]",
              "name": "fees",
              "type": "tuple[]"
            },
            {
              "internalType": "uint256",
              "name": "salt",
              "type": "uint256"
            },
            {
              "internalType": "bytes",
              "name": "extraParams",
              "type": "bytes"
            }
          ],
          "indexed": false,
          "internalType": "struct Order",
          "name": "sell",
          "type": "tuple"
        },
        {
          "indexed": false,
          "internalType": "bytes32",
          "name": "sellHash",
          "type": "bytes32"
        },
        {
          "components": [
            {
              "internalType": "address",
              "name": "trader",
              "type": "address"
            },
            {
              "internalType": "enum Side",
              "name": "side",
              "type": "uint8"
            },
            {
              "internalType": "address",
              "name": "matchingPolicy",
              "type": "address"
            },
            {
              "internalType": "address",
              "name": "collection",
              "type": "address"
            },
            {
              "internalType": "uint256",
              "name": "tokenId",
              "type": "uint256"
            },
            {
              "internalType": "uint256",
              "name": "amount",
              "type": "uint256"
            },
            {
              "internalType": "address",
              "name": "paymentToken",
              "type": "address"
            },
            {
              "internalType": "uint256",
              "name": "price",
              "type": "uint256"
            },
            {
              "internalType": "uint256",
              "name": "listingTime",
              "type": "uint256"
            },
            {
              "internalType": "uint256",
              "name": "expirationTime",
              "type": "uint256"
            },
            {
              "components": [
                {
                  "internalType": "uint16",
                  "name": "rate",
                  "type": "uint16"
                },
                {
                  "internalType": "address payable",
                  "name": "recipient",
                  "type": "address"
                }
              ],
              "internalType": "struct Fee[]",
              "name": "fees",
              "type": "tuple[]"
            },
            {
              "internalType": "uint256",
              "name": "salt",
              "type": "uint256"
            },
            {
              "internalType": "bytes",
              "name": "extraParams",
              "type": "bytes"
            }
          ],
          "indexed": false,
          "internalType": "struct Order",
          "name": "buy",
          "type": "tuple"
        },
        {
          "indexed": false,
          "internalType": "bytes32",
          "name": "buyHash",
          "type": "bytes32"
        }
      ],
      "name": "OrdersMatched",
      "type": "event"
    },
    {
      "anonymous": false,
      "inputs": [
        {
          "indexed": true,
          "internalType": "address",
          "name": "previousOwner",
          "type": "address"
        },
        {
          "indexed": true,
          "internalType": "address",
          "name": "newOwner",
          "type": "address"
        }
      ],
      "name": "OwnershipTransferred",
      "type": "event"
    },
    {
      "anonymous": false,
      "inputs": [
        {
          "indexed": true,
          "internalType": "address",
          "name": "implementation",
          "type": "address"
        }
      ],
      "name": "Upgraded",
      "type": "event"
    },
    {
      "inputs": [],
      "name": "FEE_TYPEHASH",
      "outputs": [
        {
          "internalType": "bytes32",
          "name": "",
          "type": "bytes32"
        }
      ],
      "stateMutability": "view",
      "type": "function"
    },
    {
      "inputs": [],
      "name": "INVERSE_BASIS_POINT",
      "outputs": [
        {
          "internalType": "uint256",
          "name": "",
          "type": "uint256"
        }
      ],
      "stateMutability": "view",
      "type": "function"
    },
    {
      "inputs": [],
      "name": "ORACLE_ORDER_TYPEHASH",
      "outputs": [
        {
          "internalType": "bytes32",
          "name": "",
          "type": "bytes32"
        }
      ],
      "stateMutability": "view",
      "type": "function"
    },
    {
      "inputs": [],
      "name": "ORDER_TYPEHASH",
      "outputs": [
        {
          "internalType": "bytes32",
          "name": "",
          "type": "bytes32"
        }
      ],
      "stateMutability": "view",
      "type": "function"
    },
    {
      "inputs": [],
      "name": "ROOT_TYPEHASH",
      "outputs": [
        {
          "internalType": "bytes32",
          "name": "",
          "type": "bytes32"
        }
      ],
      "stateMutability": "view",
      "type": "function"
    },
    {
      "inputs": [
        {
          "internalType": "uint16",
          "name": "rate",
          "type": "uint16"
        },
        {
          "internalType": "address",
          "name": "receiver",
          "type": "address"
        }
      ],
      "name": "addBaseFee",
      "outputs": [],
      "stateMutability": "nonpayable",
      "type": "function"
    },
    {
      "inputs": [
        {
          "internalType": "uint256",
          "name": "",
          "type": "uint256"
        }
      ],
      "name": "baseFee",
      "outputs": [
        {
          "internalType": "uint16",
          "name": "rate",
          "type": "uint16"
        },
        {
          "internalType": "address payable",
          "name": "recipient",
          "type": "address"
        }
      ],
      "stateMutability": "view",
      "type": "function"
    },
    {
      "inputs": [],
      "name": "blockRange",
      "outputs": [
        {
          "internalType": "uint256",
          "name": "",
          "type": "uint256"
        }
      ],
      "stateMutability": "view",
      "type": "function"
    },
    {
      "inputs": [
        {
          "components": [
            {
              "internalType": "address",
              "name": "trader",
              "type": "address"
            },
            {
              "internalType": "enum Side",
              "name": "side",
              "type": "uint8"
            },
            {
              "internalType": "address",
              "name": "matchingPolicy",
              "type": "address"
            },
            {
              "internalType": "address",
              "name": "collection",
              "type": "address"
            },
            {
              "internalType": "uint256",
              "name": "tokenId",
              "type": "uint256"
            },
            {
              "internalType": "uint256",
              "name": "amount",
              "type": "uint256"
            },
            {
              "internalType": "address",
              "name": "paymentToken",
              "type": "address"
            },
            {
              "internalType": "uint256",
              "name": "price",
              "type": "uint256"
            },
            {
              "internalType": "uint256",
              "name": "listingTime",
              "type": "uint256"
            },
            {
              "internalType": "uint256",
              "name": "expirationTime",
              "type": "uint256"
            },
            {
              "components": [
                {
                  "internalType": "uint16",
                  "name": "rate",
                  "type": "uint16"
                },
                {
                  "internalType": "address payable",
                  "name": "recipient",
                  "type": "address"
                }
              ],
              "internalType": "struct Fee[]",
              "name": "fees",
              "type": "tuple[]"
            },
            {
              "internalType": "uint256",
              "name": "salt",
              "type": "uint256"
            },
            {
              "internalType": "bytes",
              "name": "extraParams",
              "type": "bytes"
            }
          ],
          "internalType": "struct Order",
          "name": "order",
          "type": "tuple"
        }
      ],
      "name": "cancelOrder",
      "outputs": [],
      "stateMutability": "nonpayable",
      "type": "function"
    },
    {
      "inputs": [
        {
          "components": [
            {
              "internalType": "address",
              "name": "trader",
              "type": "address"
            },
            {
              "internalType": "enum Side",
              "name": "side",
              "type": "uint8"
            },
            {
              "internalType": "address",
              "name": "matchingPolicy",
              "type": "address"
            },
            {
              "internalType": "address",
              "name": "collection",
              "type": "address"
            },
            {
              "internalType": "uint256",
              "name": "tokenId",
              "type": "uint256"
            },
            {
              "internalType": "uint256",
              "name": "amount",
              "type": "uint256"
            },
            {
              "internalType": "address",
              "name": "paymentToken",
              "type": "address"
            },
            {
              "internalType": "uint256",
              "name": "price",
              "type": "uint256"
            },
            {
              "internalType": "uint256",
              "name": "listingTime",
              "type": "uint256"
            },
            {
              "internalType": "uint256",
              "name": "expirationTime",
              "type": "uint256"
            },
            {
              "components": [
                {
                  "internalType": "uint16",
                  "name": "rate",
                  "type": "uint16"
                },
                {
                  "internalType": "address payable",
                  "name": "recipient",
                  "type": "address"
                }
              ],
              "internalType": "struct Fee[]",
              "name": "fees",
              "type": "tuple[]"
            },
            {
              "internalType": "uint256",
              "name": "salt",
              "type": "uint256"
            },
            {
              "internalType": "bytes",
              "name": "extraParams",
              "type": "bytes"
            }
          ],
          "internalType": "struct Order[]",
          "name": "orders",
          "type": "tuple[]"
        }
      ],
      "name": "cancelOrders",
      "outputs": [],
      "stateMutability": "nonpayable",
      "type": "function"
    },
    {
      "inputs": [
        {
          "internalType": "bytes32",
          "name": "",
          "type": "bytes32"
        }
      ],
      "name": "cancelledOrFilled",
      "outputs": [
        {
          "internalType": "bool",
          "name": "",
          "type": "bool"
        }
      ],
      "stateMutability": "view",
      "type": "function"
    },
    {
      "inputs": [],
      "name": "clearBaseFee",
      "outputs": [],
      "stateMutability": "nonpayable",
      "type": "function"
    },
    {
      "inputs": [],
      "name": "close",
      "outputs": [],
      "stateMutability": "nonpayable",
      "type": "function"
    },
    {
      "inputs": [
        {
          "components": [
            {
              "components": [
                {
                  "internalType": "address",
                  "name": "trader",
                  "type": "address"
                },
                {
                  "internalType": "enum Side",
                  "name": "side",
                  "type": "uint8"
                },
                {
                  "internalType": "address",
                  "name": "matchingPolicy",
                  "type": "address"
                },
                {
                  "internalType": "address",
                  "name": "collection",
                  "type": "address"
                },
                {
                  "internalType": "uint256",
                  "name": "tokenId",
                  "type": "uint256"
                },
                {
                  "internalType": "uint256",
                  "name": "amount",
                  "type": "uint256"
                },
                {
                  "internalType": "address",
                  "name": "paymentToken",
                  "type": "address"
                },
                {
                  "internalType": "uint256",
                  "name": "price",
                  "type": "uint256"
                },
                {
                  "internalType": "uint256",
                  "name": "listingTime",
                  "type": "uint256"
                },
                {
                  "internalType": "uint256",
                  "name": "expirationTime",
                  "type": "uint256"
                },
                {
                  "components": [
                    {
                      "internalType": "uint16",
                      "name": "rate",
                      "type": "uint16"
                    },
                    {
                      "internalType": "address payable",
                      "name": "recipient",
                      "type": "address"
                    }
                  ],
                  "internalType": "struct Fee[]",
                  "name": "fees",
                  "type": "tuple[]"
                },
                {
                  "internalType": "uint256",
                  "name": "salt",
                  "type": "uint256"
                },
                {
                  "internalType": "bytes",
                  "name": "extraParams",
                  "type": "bytes"
                }
              ],
              "internalType": "struct Order",
              "name": "order",
              "type": "tuple"
            },
            {
              "internalType": "uint8",
              "name": "v",
              "type": "uint8"
            },
            {
              "internalType": "bytes32",
              "name": "r",
              "type": "bytes32"
            },
            {
              "internalType": "bytes32",
              "name": "s",
              "type": "bytes32"
            },
            {
              "internalType": "bytes",
              "name": "extraSignature",
              "type": "bytes"
            },
            {
              "internalType": "enum SignatureVersion",
              "name": "signatureVersion",
              "type": "uint8"
            },
            {
              "internalType": "uint256",
              "name": "blockNumber",
              "type": "uint256"
            }
          ],
          "internalType": "struct Input",
          "name": "sell",
          "type": "tuple"
        },
        {
          "components": [
            {
              "components": [
                {
                  "internalType": "address",
                  "name": "trader",
                  "type": "address"
                },
                {
                  "internalType": "enum Side",
                  "name": "side",
                  "type": "uint8"
                },
                {
                  "internalType": "address",
                  "name": "matchingPolicy",
                  "type": "address"
                },
                {
                  "internalType": "address",
                  "name": "collection",
                  "type": "address"
                },
                {
                  "internalType": "uint256",
                  "name": "tokenId",
                  "type": "uint256"
                },
                {
                  "internalType": "uint256",
                  "name": "amount",
                  "type": "uint256"
                },
                {
                  "internalType": "address",
                  "name": "paymentToken",
                  "type": "address"
                },
                {
                  "internalType": "uint256",
                  "name": "price",
                  "type": "uint256"
                },
                {
                  "internalType": "uint256",
                  "name": "listingTime",
                  "type": "uint256"
                },
                {
                  "internalType": "uint256",
                  "name": "expirationTime",
                  "type": "uint256"
                },
                {
                  "components": [
                    {
                      "internalType": "uint16",
                      "name": "rate",
                      "type": "uint16"
                    },
                    {
                      "internalType": "address payable",
                      "name": "recipient",
                      "type": "address"
                    }
                  ],
                  "internalType": "struct Fee[]",
                  "name": "fees",
                  "type": "tuple[]"
                },
                {
                  "internalType": "uint256",
                  "name": "salt",
                  "type": "uint256"
                },
                {
                  "internalType": "bytes",
                  "name": "extraParams",
                  "type": "bytes"
                }
              ],
              "internalType": "struct Order",
              "name": "order",
              "type": "tuple"
            },
            {
              "internalType": "uint8",
              "name": "v",
              "type": "uint8"
            },
            {
              "internalType": "bytes32",
              "name": "r",
              "type": "bytes32"
            },
            {
              "internalType": "bytes32",
              "name": "s",
              "type": "bytes32"
            },
            {
              "internalType": "bytes",
              "name": "extraSignature",
              "type": "bytes"
            },
            {
              "internalType": "enum SignatureVersion",
              "name": "signatureVersion",
              "type": "uint8"
            },
            {
              "internalType": "uint256",
              "name": "blockNumber",
              "type": "uint256"
            }
          ],
          "internalType": "struct Input",
          "name": "buy",
          "type": "tuple"
        }
      ],
      "name": "execute",
      "outputs": [],
      "stateMutability": "payable",
      "type": "function"
    },
    {
      "inputs": [],
      "name": "executionDelegate",
      "outputs": [
        {
          "internalType": "contract IExecutionDelegate",
          "name": "",
          "type": "address"
        }
      ],
      "stateMutability": "view",
      "type": "function"
    },
    {
      "inputs": [],
      "name": "incrementNonce",
      "outputs": [],
      "stateMutability": "nonpayable",
      "type": "function"
    },
    {
      "inputs": [
        {
          "internalType": "uint256",
          "name": "chainId",
          "type": "uint256"
        },
        {
          "internalType": "address",
          "name": "_weth",
          "type": "address"
        },
        {
          "internalType": "contract IExecutionDelegate",
          "name": "_executionDelegate",
          "type": "address"
        },
        {
          "internalType": "contract IPolicyManager",
          "name": "_policyManager",
          "type": "address"
        },
        {
          "internalType": "address",
          "name": "_oracle",
          "type": "address"
        },
        {
          "internalType": "uint256",
          "name": "_blockRange",
          "type": "uint256"
        }
      ],
      "name": "initialize",
      "outputs": [],
      "stateMutability": "nonpayable",
      "type": "function"
    },
    {
      "inputs": [],
      "name": "isOpen",
      "outputs": [
        {
          "internalType": "uint256",
          "name": "",
          "type": "uint256"
        }
      ],
      "stateMutability": "view",
      "type": "function"
    },
    {
      "inputs": [],
      "name": "name",
      "outputs": [
        {
          "internalType": "string",
          "name": "",
          "type": "string"
        }
      ],
      "stateMutability": "view",
      "type": "function"
    },
    {
      "inputs": [
        {
          "internalType": "address",
          "name": "",
          "type": "address"
        }
      ],
      "name": "nonces",
      "outputs": [
        {
          "internalType": "uint256",
          "name": "",
          "type": "uint256"
        }
      ],
      "stateMutability": "view",
      "type": "function"
    },
    {
      "inputs": [],
      "name": "open",
      "outputs": [],
      "stateMutability": "nonpayable",
      "type": "function"
    },
    {
      "inputs": [],
      "name": "oracle",
      "outputs": [
        {
          "internalType": "address",
          "name": "",
          "type": "address"
        }
      ],
      "stateMutability": "view",
      "type": "function"
    },
    {
      "inputs": [],
      "name": "owner",
      "outputs": [
        {
          "internalType": "address",
          "name": "",
          "type": "address"
        }
      ],
      "stateMutability": "view",
      "type": "function"
    },
    {
      "inputs": [],
      "name": "policyManager",
      "outputs": [
        {
          "internalType": "contract IPolicyManager",
          "name": "",
          "type": "address"
        }
      ],
      "stateMutability": "view",
      "type": "function"
    },
    {
      "inputs": [],
      "name": "proxiableUUID",
      "outputs": [
        {
          "internalType": "bytes32",
          "name": "",
          "type": "bytes32"
        }
      ],
      "stateMutability": "view",
      "type": "function"
    },
    {
      "inputs": [],
      "name": "renounceOwnership",
      "outputs": [],
      "stateMutability": "nonpayable",
      "type": "function"
    },
    {
      "inputs": [
        {
          "internalType": "uint256",
          "name": "_blockRange",
          "type": "uint256"
        }
      ],
      "name": "setBlockRange",
      "outputs": [],
      "stateMutability": "nonpayable",
      "type": "function"
    },
    {
      "inputs": [
        {
          "internalType": "contract IExecutionDelegate",
          "name": "_executionDelegate",
          "type": "address"
        }
      ],
      "name": "setExecutionDelegate",
      "outputs": [],
      "stateMutability": "nonpayable",
      "type": "function"
    },
    {
      "inputs": [
        {
          "internalType": "address",
          "name": "_oracle",
          "type": "address"
        }
      ],
      "name": "setOracle",
      "outputs": [],
      "stateMutability": "nonpayable",
      "type": "function"
    },
    {
      "inputs": [
        {
          "internalType": "contract IPolicyManager",
          "name": "_policyManager",
          "type": "address"
        }
      ],
      "name": "setPolicyManager",
      "outputs": [],
      "stateMutability": "nonpayable",
      "type": "function"
    },
    {
      "inputs": [
        {
          "internalType": "address",
          "name": "newOwner",
          "type": "address"
        }
      ],
      "name": "transferOwnership",
      "outputs": [],
      "stateMutability": "nonpayable",
      "type": "function"
    },
    {
      "inputs": [
        {
          "components": [
            {
              "internalType": "uint16",
              "name": "rate",
              "type": "uint16"
            },
            {
              "internalType": "address payable",
              "name": "recipient",
              "type": "address"
            }
          ],
          "internalType": "struct Fee[]",
          "name": "fees",
          "type": "tuple[]"
        }
      ],
      "name": "updateBaseFee",
      "outputs": [],
      "stateMutability": "nonpayable",
      "type": "function"
    },
    {
      "inputs": [
        {
          "internalType": "address",
          "name": "newImplementation",
          "type": "address"
        }
      ],
      "name": "upgradeTo",
      "outputs": [],
      "stateMutability": "nonpayable",
      "type": "function"
    },
    {
      "inputs": [
        {
          "internalType": "address",
          "name": "newImplementation",
          "type": "address"
        },
        {
          "internalType": "bytes",
          "name": "data",
          "type": "bytes"
        }
      ],
      "name": "upgradeToAndCall",
      "outputs": [],
      "stateMutability": "payable",
      "type": "function"
    },
    {
      "inputs": [],
      "name": "version",
      "outputs": [
        {
          "internalType": "string",
          "name": "",
          "type": "string"
        }
      ],
      "stateMutability": "view",
      "type": "function"
    },
    {
      "inputs": [],
      "name": "weth",
      "outputs": [
        {
          "internalType": "address",
          "name": "",
          "type": "address"
        }
      ],
      "stateMutability": "view",
      "type": "function"
    }
  ],
  "transactionHash": "0x6e6ad11996e664a2c6c28adecf144c260368e102f2615017c86bf3ee32275d38",
  "args": [],
  "numDeployments": 1,
  "solcInputHash": "cb0fbc285df3e3527849a107d84eba84",
  "bytecode": "0x60a06040523060805234801561001457600080fd5b506001600055608051613dba6100516000396000818161077f015281816107bf01528181610a5b01528181610a9b0152610b170152613dba6000f3fe6080604052600436106101af5760003560e01c80637adbf973116100e85780637adbf973146104935780637dc0d1d0146104b35780637ecebe00146104d35780638da5cb5b14610500578063986c9b20146105155780639a1fc3a714610535578063a4b2c67414610548578063ab3dbf3b1461055e578063ab7e8cba1461057e578063adde41e11461059e578063cae6047f146105be578063cb35c139146105d4578063d411581b146105f4578063f2fde38b14610614578063f4acd74014610634578063f76304bb14610654578063f973a20914610669578063fcfff16f1461069d57600080fd5b8063037c9be2146101b457806306fdde03146101d65780631d97c9bb1461022e5780632a312fe31461027057806331e6d0fe146102b25780633659cfe6146102e65780633fc8cef31461030657806342de66991461033357806343d726d61461035357806347535d7b146103685780634832ede11461037e5780634f1ef286146103b257806352d1902d146103c557806354fd4d50146103da5780635511f31914610409578063627cdcb9146104495780636992aa361461045e578063715018a61461047e575b600080fd5b3480156101c057600080fd5b506101d46101cf366004612e7c565b6106b2565b005b3480156101e257600080fd5b506102186040518060400160405280601681526020017553757065724368696566204d61726b6574706c61636560501b81525081565b6040516102259190612ebd565b60405180910390f35b34801561023a57600080fd5b506102627fd71080023d2f293ed0723dc287d6b2d4e7d27d0b6c12928e300721b7c78c748581565b604051908152602001610225565b34801561027c57600080fd5b5061029061028b366004612ef0565b610740565b6040805161ffff90931683526001600160a01b03909116602083015201610225565b3480156102be57600080fd5b506102627f5bcf4b2eaff7fcdeb49f0bda53026b9ebdd93db566fe4c447125cb899e598c9081565b3480156102f257600080fd5b506101d4610301366004612e7c565b610775565b34801561031257600080fd5b5060cc54610326906001600160a01b031681565b6040516102259190612f26565b34801561033f57600080fd5b506101d461034e366004612f3a565b61083d565b34801561035f57600080fd5b506101d4610a19565b34801561037457600080fd5b5061026260cb5481565b34801561038a57600080fd5b506102627f05b43f730f67de334a342883f867101fc7ef3361dfdff4a29a7aa97e0920ef7a81565b6101d46103c0366004612ff0565b610a51565b3480156103d157600080fd5b50610262610b0a565b3480156103e657600080fd5b50610218604051806040016040528060038152602001620312e360ec1b81525081565b34801561041557600080fd5b50610439610424366004612ef0565b60d26020526000908152604090205460ff1681565b6040519015158152602001610225565b34801561045557600080fd5b506101d4610bb8565b34801561046a57600080fd5b506101d4610479366004612ef0565b610c28565b34801561048a57600080fd5b506101d4610c65565b34801561049f57600080fd5b506101d46104ae366004612e7c565b610c79565b3480156104bf57600080fd5b5060cf54610326906001600160a01b031681565b3480156104df57600080fd5b506102626104ee366004612e7c565b60d36020526000908152604090205481565b34801561050c57600080fd5b50610326610cf3565b34801561052157600080fd5b5060cd54610326906001600160a01b031681565b6101d46105433660046130af565b610d02565b34801561055457600080fd5b5061026260d05481565b34801561056a57600080fd5b5060ce54610326906001600160a01b031681565b34801561058a57600080fd5b506101d4610599366004613112565b6116e6565b3480156105aa57600080fd5b506101d46105b9366004612e7c565b611735565b3480156105ca57600080fd5b5061026261271081565b3480156105e057600080fd5b506101d46105ef366004613186565b6117af565b34801561060057600080fd5b506101d461060f3660046131f8565b61184f565b34801561062057600080fd5b506101d461062f366004612e7c565b6118fb565b34801561064057600080fd5b506101d461064f366004613231565b611971565b34801561066057600080fd5b506101d4611a15565b34801561067557600080fd5b506102627f376bfbc394a7ba7fdf10f224572cef371358e3053e362f4554fcd2ad56329b3f81565b3480156106a957600080fd5b506101d4611a47565b6106ba611a7f565b6001600160a01b0381166106e95760405162461bcd60e51b81526004016106e09061326c565b60405180910390fd5b60cd80546001600160a01b0319166001600160a01b0383169081179091556040517ff9a0f356a7ef079355de09d32ce45cc3cfabc8f118681c19a17501f005a376ac9161073591612f26565b60405180910390a150565b60d1818154811061075057600080fd5b60009182526020909120015461ffff811691506201000090046001600160a01b031682565b6001600160a01b037f00000000000000000000000000000000000000000000000000000000000000001630036107bd5760405162461bcd60e51b81526004016106e09061329c565b7f00000000000000000000000000000000000000000000000000000000000000006001600160a01b03166107ef611ade565b6001600160a01b0316146108155760405162461bcd60e51b81526004016106e0906132e8565b61081e81611afa565b6040805160008082526020820190925261083a91839190611b02565b50565b600254610100900460ff161580801561085d5750600254600160ff909116105b8061087e575061086c30611c6d565b15801561087e575060025460ff166001145b6108e15760405162461bcd60e51b815260206004820152602e60248201527f496e697469616c697a61626c653a20636f6e747261637420697320616c72656160448201526d191e481a5b9a5d1a585b1a5e995960921b60648201526084016106e0565b6002805460ff191660011790558015610904576002805461ff0019166101001790555b61090c611c7c565b600160cb556040805160c0810182526016608082019081527553757065724368696566204d61726b6574706c61636560501b60a083015281528151808301835260038152620312e360ec1b60208281019190915282015290810188905230606082015261097890611cab565b60015560cc80546001600160a01b038089166001600160a01b03199283161790925560cd805488841690831617905560ce805487841690831617905560cf80549286169290911691909117905560d08290558015610a10576002805461ff0019169055604051600181527f7f26b83ff96e1f2b6a682f133852f6798a09c465da95921460cefb38474024989060200160405180910390a15b50505050505050565b610a21611a7f565b600060cb8190556040517f1cdde67b72a90f19919ac732a437ac2f7a10fc128d28c2a6e525d89ce5cd9d3a9190a1565b6001600160a01b037f0000000000000000000000000000000000000000000000000000000000000000163003610a995760405162461bcd60e51b81526004016106e09061329c565b7f00000000000000000000000000000000000000000000000000000000000000006001600160a01b0316610acb611ade565b6001600160a01b031614610af15760405162461bcd60e51b81526004016106e0906132e8565b610afa82611afa565b610b0682826001611b02565b5050565b6000306001600160a01b037f00000000000000000000000000000000000000000000000000000000000000001614610ba55760405162461bcd60e51b815260206004820152603860248201527f555550535570677261646561626c653a206d757374206e6f742062652063616c6044820152771b1959081d1a1c9bdd59da0819195b1959d85d1958d85b1b60421b60648201526084016106e0565b50600080516020613d6783398151915290565b33600090815260d360205260408120805460019290610bd890849061334a565b909155505033600081815260d36020908152604091829020548251938452908301527fa82a649bbd060c9099cd7b7326e2b0dc9e9af0836480e0f849dc9eaa79710b3b91015b60405180910390a1565b610c30611a7f565b60d08190556040518181527f7706177c541ba1b858371bfc568aa77450b4713bbdbba62c730d4484ab6c125190602001610735565b610c6d611a7f565b610c776000611d48565b565b610c81611a7f565b6001600160a01b038116610ca75760405162461bcd60e51b81526004016106e09061326c565b60cf80546001600160a01b0319166001600160a01b0383169081179091556040517fb3eacd0e351fafdfefdec84e1cd19679b38dbcd63ea7c2c24da17fd2bc3b3c0e9161073591612f26565b6035546001600160a01b031690565b600260005403610d545760405162461bcd60e51b815260206004820152601f60248201527f5265656e7472616e637947756172643a207265656e7472616e742063616c6c0060448201526064016106e0565b600260005560cb54600114610d945760405162461bcd60e51b815260206004820152600660248201526510db1bdcd95960d21b60448201526064016106e0565b6001610da08380613373565b610db19060408101906020016133ac565b6001811115610dc257610dc261335d565b14610dcc57600080fd5b6000610e1d610ddb8480613373565b60d36000610de98780613373565b610df7906020810190612e7c565b6001600160a01b03166001600160a01b0316815260200190815260200160002054611d9a565b90506000610e2e610ddb8480613373565b9050610e43610e3d8580613373565b83611edb565b610e8d5760405162461bcd60e51b815260206004820152601b60248201527a53656c6c2068617320696e76616c696420706172616d657465727360281b60448201526064016106e0565b610ea0610e9a8480613373565b82611edb565b610ee95760405162461bcd60e51b815260206004820152601a6024820152794275792068617320696e76616c696420706172616d657465727360301b60448201526064016106e0565b610ef38483611f33565b610f3b5760405162461bcd60e51b815260206004820152601960248201527829b2b636103330b4b632b21030baba3437b934bd30ba34b7b760391b60448201526064016106e0565b610f458382611f33565b610f8c5760405162461bcd60e51b8152602060048201526018602482015277213abc903330b4b632b21030baba3437b934bd30ba34b7b760411b60448201526064016106e0565b6000808080610fad610f9e8980613373565b610fa88980613373565b61207c565b929650909450925090506060610fc38980613373565b610fd4906080810190606001612e7c565b6040516301ffc9a760e01b815263152a902d60e11b60048201526001600160a01b0391909116906301ffc9a790602401602060405180830381865afa158015611021573d6000803e3d6000fd5b505050506040513d601f19601f8201168201806040525081019061104591906133d9565b1561131a5760d1546110578a80613373565b611066906101408101906133f4565b61107192915061334a565b61107c90600161334a565b6001600160401b0381111561109357611093612faa565b6040519080825280602002602001820160405280156110d857816020015b60408051808201909152600080825260208201528152602001906001900390816110b15790505b5090506000806110e88b80613373565b6110f9906080810190606001612e7c565b6001600160a01b0316632a55205a6111118d80613373565b6040516001600160e01b031960e084901b16815260809190910135600482015261271060248201526044016040805180830381865afa158015611158573d6000803e3d6000fd5b505050506040513d601f19601f8201168201806040525081019061117c9190613444565b9150915060405180604001604052808261ffff168152602001836001600160a01b0316815250836000815181106111b5576111b5613472565b602002602001018190525060005b6111cd8c80613373565b6111dc906101408101906133f4565b905081101561125e576111ef8c80613373565b6111fe906101408101906133f4565b8281811061120e5761120e613472565b9050604002018036038101906112249190613488565b8461123083600161334a565b8151811061124057611240613472565b60200260200101819052508080611256906134e6565b9150506111c3565b5060005b60d1548110156113125760d1818154811061127f5761127f613472565b60009182526020918290206040805180820190915291015461ffff811682526201000090046001600160a01b031691810191909152846112bf8e80613373565b6112ce906101408101906133f4565b6112d991508461334a565b6112e490600161334a565b815181106112f4576112f4613472565b6020026020010181905250808061130a906134e6565b915050611262565b5050506114ea565b60d1546113278a80613373565b611336906101408101906133f4565b61134192915061334a565b61134c90600161334a565b6001600160401b0381111561136357611363612faa565b6040519080825280602002602001820160405280156113a857816020015b60408051808201909152600080825260208201528152602001906001900390816113815790505b50905060005b6113b88a80613373565b6113c7906101408101906133f4565b905081101561143f576113da8a80613373565b6113e9906101408101906133f4565b828181106113f9576113f9613472565b90506040020180360381019061140f9190613488565b82828151811061142157611421613472565b60200260200101819052508080611437906134e6565b9150506113ae565b5060005b60d1548110156114e85760d1818154811061146057611460613472565b60009182526020918290206040805180820190915291015461ffff811682526201000090046001600160a01b031691810191909152826114a08c80613373565b6114af906101408101906133f4565b6114ba91508461334a565b815181106114ca576114ca613472565b602002602001018190525080806114e0906134e6565b915050611443565b505b61153f6114f78a80613373565b611505906020810190612e7c565b61150f8a80613373565b61151d906020810190612e7c565b6115278c80613373565b6115389060e081019060c001612e7c565b8489612335565b61159561154c8a80613373565b61155d906080810190606001612e7c565b6115678b80613373565b611575906020810190612e7c565b61157f8b80613373565b61158d906020810190612e7c565b878787612373565b600087815260d260205260408082208054600160ff19918216811790925589845291909220805490911690911790556115ce8880613373565b61010001356115dd8a80613373565b610100013511611604576115f18880613373565b6115ff906020810190612e7c565b61161c565b61160e8980613373565b61161c906020810190612e7c565b6001600160a01b031661162f8980613373565b610100013561163e8b80613373565b61010001351115611666576116538980613373565b611661906020810190612e7c565b61167e565b6116708a80613373565b61167e906020810190612e7c565b6001600160a01b03167f61cbb2a3dee0b6064c2e681aadd61677fb4ef319f0b547508d495626f5a62f646116b28c80613373565b8a6116bd8d80613373565b8b6040516116ce9493929190613749565b60405180910390a35050600160005550505050505050565b60005b60ff81168211156117305761171e83838360ff1681811061170c5761170c613472565b905060200281019061064f9190613373565b8061172881613786565b9150506116e9565b505050565b61173d611a7f565b6001600160a01b0381166117635760405162461bcd60e51b81526004016106e09061326c565b60ce80546001600160a01b0319166001600160a01b0383169081179091556040517fdbe18f3fd927cc2aefe380ffd2abfdb8e13f0239c0258ccfc84c3d8fdd8c04189161073591612f26565b6117b7611a7f565b6117c360d16000612e2b565b60005b818110156118235760d18383838181106117e2576117e2613472565b8354600181018555600094855260209094206040909102929092019291909101905061180e82826137a5565b5050808061181b906134e6565b9150506117c6565b50600080516020613d4783398151915282826040516118439291906137f8565b60405180910390a15050565b611857611a7f565b60408051808201825261ffff80851682526001600160a01b038085166020840190815260d18054600181018255600082905285517f695fb3134ad82c3b8022bc5464edd0bcc9424ef672b52245dcb6ab2374327ce39091018054935190941662010000026001600160b01b031990931694169390931717905591519091600080516020613d47833981519152916118ee919061380c565b60405180910390a1505050565b611903611a7f565b6001600160a01b0381166119685760405162461bcd60e51b815260206004820152602660248201527f4f776e61626c653a206e6577206f776e657220697320746865207a65726f206160448201526564647265737360d01b60648201526084016106e0565b61083a81611d48565b61197e6020820182612e7c565b6001600160a01b0316336001600160a01b03161461199b57600080fd5b60006119b18260d383610df76020840184612e7c565b600081815260d2602052604090205490915060ff16610b0657600081815260d2602052604090819020805460ff19166001179055517f5152abf959f6564662358c2e52b702259b78bac5ee7842a0f01937e670efcc7d906118439083815260200190565b611a1d611a7f565b611a2960d16000612e2b565b600080516020613d4783398151915260d1604051610c1e919061380c565b611a4f611a7f565b600160cb556040517fd1dcd00534373f20882b79e6ab6875a5c358c5bd576448757ed50e63069ab51890600090a1565b33611a88610cf3565b6001600160a01b031614610c775760405162461bcd60e51b815260206004820181905260248201527f4f776e61626c653a2063616c6c6572206973206e6f7420746865206f776e657260448201526064016106e0565b600080516020613d67833981519152546001600160a01b031690565b61083a611a7f565b7f4910fdfa16fed3260ed0e7147f7cc6da11a60208b5b9406d12a635614ffd91435460ff1615611b3557611730836124e1565b826001600160a01b03166352d1902d6040518163ffffffff1660e01b8152600401602060405180830381865afa925050508015611b8f575060408051601f3d908101601f19168201909252611b8c9181019061386e565b60015b611bf25760405162461bcd60e51b815260206004820152602e60248201527f45524331393637557067726164653a206e657720696d706c656d656e7461746960448201526d6f6e206973206e6f74205555505360901b60648201526084016106e0565b600080516020613d678339815191528114611c615760405162461bcd60e51b815260206004820152602960248201527f45524331393637557067726164653a20756e737570706f727465642070726f786044820152681a58589b195555525160ba1b60648201526084016106e0565b5061173083838361257b565b6001600160a01b03163b151590565b600254610100900460ff16611ca35760405162461bcd60e51b81526004016106e090613887565b610c776125a6565b60007f8b73c3c69bb8fe3d512ecc4cf759cc79239f7b179b0ffacaa9a75d522b39400f82600001518051906020012083602001518051906020012084604001518560600151604051602001611d2b9594939291909485526020850193909352604084019190915260608301526001600160a01b0316608082015260a00190565b604051602081830303815290604052805190602001209050919050565b603580546001600160a01b038381166001600160a01b0319831681179093556040519116919082907f8be0079c531659141344cd1fd0a4f28419497f9722a3daafe3b4186f6b6457e090600090a35050565b60007f376bfbc394a7ba7fdf10f224572cef371358e3053e362f4554fcd2ad56329b3f611dca6020850185612e7c565b611dda60408601602087016133ac565b611dea6060870160408801612e7c565b611dfa6080880160608901612e7c565b608088013560a0890135611e1460e08b0160c08c01612e7c565b8a60e001358b61010001358c6101200135611e3e8e806101400190611e3991906133f4565b6125d6565b8e61016001358f806101800190611e5591906138d2565b604051611e63929190613918565b604051908190038120611e859e9d9c9b9a999897969594939291602001613928565b60408051601f1981840301815282825260208301859052910160408051601f1981840301815290829052611ebc92916020016139bb565b6040516020818303038152906040528051906020012090505b92915050565b600080611eeb6020850185612e7c565b6001600160a01b031614158015611f115750600082815260d2602052604090205460ff16155b8015611f2c5750611f2c8361010001358461012001356126a8565b9392505050565b600033611f408480613373565b611f4e906020810190612e7c565b6001600160a01b031603611f6457506001611ed5565b611fbc82611f728580613373565b611f80906020810190612e7c565b611f9060408701602088016139fb565b60408701356060880135611faa60c08a0160a08b016133ac565b611fb760808b018b6138d2565b6126c4565b611fc857506000611ed5565b611fd28380613373565b61012001356000036120735760d054611fef60c085013543613a16565b1061203c5760405162461bcd60e51b815260206004820181905260248201527f5369676e656420626c6f636b206e756d626572206f7574206f662072616e676560448201526064016106e0565b6120678261205060c0860160a087016133ac565b61205d60808701876138d2565b8760c001356127d2565b61207357506000611ed5565b50600192915050565b6000806000806000856101000135876101000135116121be5760ce546001600160a01b031663874516cd6120b660608a0160408b01612e7c565b6040518263ffffffff1660e01b81526004016120d29190612f26565b602060405180830381865afa1580156120ef573d6000803e3d6000fd5b505050506040513d601f19601f8201168201806040525081019061211391906133d9565b61212f5760405162461bcd60e51b81526004016106e090613a29565b61213f6060880160408901612e7c565b6001600160a01b031663d5ec8c7788886040518363ffffffff1660e01b815260040161216c929190613a5c565b60a060405180830381865afa158015612189573d6000803e3d6000fd5b505050506040513d601f19601f820116820180604052508101906121ad9190613a8a565b9298509096509450925090506122e3565b60ce546001600160a01b031663874516cd6121df6060890160408a01612e7c565b6040518263ffffffff1660e01b81526004016121fb9190612f26565b602060405180830381865afa158015612218573d6000803e3d6000fd5b505050506040513d601f19601f8201168201806040525081019061223c91906133d9565b6122585760405162461bcd60e51b81526004016106e090613a29565b6122686060870160408801612e7c565b6001600160a01b0316630813a76687896040518363ffffffff1660e01b8152600401612295929190613a5c565b60a060405180830381865afa1580156122b2573d6000803e3d6000fd5b505050506040513d601f19601f820116820180604052508101906122d69190613a8a565b9298509096509450925090505b8061232b5760405162461bcd60e51b815260206004820152601860248201527713dc99195c9cc818d85b9b9bdd081899481b585d18da195960421b60448201526064016106e0565b5092959194509250565b6001600160a01b03831661234f5780341461234f57600080fd5b600061235d83858785612862565b905061236b8486888461297f565b505050505050565b853b6123bd5760405162461bcd60e51b815260206004820152601960248201527810dbdb1b1958dd1a5bdb88191bd95cc81b9bdd08195e1a5cdd603a1b60448201526064016106e0565b60008160018111156123d1576123d161335d565b036124435760cd54604051633c4fc9fb60e11b81526001600160a01b039091169063789f93f69061240c908990899089908990600401613ade565b600060405180830381600087803b15801561242657600080fd5b505af115801561243a573d6000803e3d6000fd5b5050505061236b565b60018160018111156124575761245761335d565b0361236b5760cd54604051633a54a01760e11b81526001600160a01b038881166004830152878116602483015286811660448301526064820186905260848201859052909116906374a9402e9060a401600060405180830381600087803b1580156124c157600080fd5b505af11580156124d5573d6000803e3d6000fd5b50505050505050505050565b6124ea81611c6d565b61254c5760405162461bcd60e51b815260206004820152602d60248201527f455243313936373a206e657720696d706c656d656e746174696f6e206973206e60448201526c1bdd08184818dbdb9d1c9858dd609a1b60648201526084016106e0565b600080516020613d6783398151915280546001600160a01b0319166001600160a01b0392909216919091179055565b61258483612aa2565b6000825111806125915750805b15611730576125a08383612ae2565b50505050565b600254610100900460ff166125cd5760405162461bcd60e51b81526004016106e090613887565b610c7733611d48565b600080826001600160401b038111156125f1576125f1612faa565b60405190808252806020026020018201604052801561261a578160200160208202803683370190505b50905060005b838110156126775761264885858381811061263d5761263d613472565b905060400201612b07565b82828151811061265a5761265a613472565b60209081029190910101528061266f816134e6565b915050612620565b50806040516020016126899190613b08565b6040516020818303038152906040528051906020012091505092915050565b60004283108015611f2c5750811580611f2c5750504210919050565b600080808560018111156126da576126da61335d565b036126ef576126e88a612b77565b90506127a4565b60018560018111156127035761270361335d565b036127a457600061271684860186613bb2565b905060007375176B164941B463B46E619BE08083b1bE672270639c7bf9388d846040518363ffffffff1660e01b8152600401612753929190613be6565b602060405180830381865af4158015612770573d6000803e3d6000fd5b505050506040513d601f19601f82011682018060405250810190612794919061386e565b905061279f81612b8e565b925050505b886001600160a01b03166127ba828a8a8a612bef565b6001600160a01b0316149a9950505050505050505050565b6000806127df8784612caf565b905060008080808960018111156127f8576127f861335d565b036128155761280987890189613c34565b9194509250905061284a565b60018960018111156128295761282961335d565b0361284a576000808061283e8a8c018c613c67565b91985096509450505050505b60cf546001600160a01b03166127ba85858585612bef565b600080805b86518160ff161015612900576000612710888360ff168151811061288d5761288d613472565b60200260200101516000015161ffff16866128a89190613cc3565b6128b29190613cda565b90506128e087878a8560ff16815181106128ce576128ce613472565b6020026020010151602001518461297f565b6128ea818461334a565b92505080806128f890613786565b915050612867565b50828111156129665760405162461bcd60e51b815260206004820152602c60248201527f546f74616c20616d6f756e74206f66206665657320617265206d6f726520746860448201526b616e2074686520707269636560a01b60648201526084016106e0565b60006129728285613a16565b925050505b949350505050565b80156125a0576001600160a01b0384166129cf576040516001600160a01b0383169082156108fc029083906000818181858888f193505050501580156129c9573d6000803e3d6000fd5b506125a0565b60cc546001600160a01b0390811690851603612a625760cd5460cc5460405163368fa33960e21b81526001600160a01b039283169263da3e8ce492612a1f92911690879087908790600401613ade565b6020604051808303816000875af1158015612a3e573d6000803e3d6000fd5b505050506040513d601f19601f820116820180604052508101906129c991906133d9565b60405162461bcd60e51b815260206004820152601560248201527424b73b30b634b2103830bcb6b2b73a103a37b5b2b760591b60448201526064016106e0565b612aab816124e1565b6040516001600160a01b038216907fbc7cd75a20ee27fd9adebab32041f755214dbc6bffa90cc0225b39da2e5c2d3b90600090a250565b6060611f2c8383604051806060016040528060278152602001613d8760279139612d17565b60007f05b43f730f67de334a342883f867101fc7ef3361dfdff4a29a7aa97e0920ef7a612b376020840184613cfc565b612b476040850160208601612e7c565b604051602001611d2b9392919092835261ffff9190911660208301526001600160a01b0316604082015260600190565b600060015482604051602001611d2b929190613d19565b600154604080517f5bcf4b2eaff7fcdeb49f0bda53026b9ebdd93db566fe4c447125cb899e598c9060208201529081018390526000919060600160405160208183030381529060405280519060200120604051602001611d2b929190613d19565b60008360ff16601b1480612c0657508360ff16601c145b612c485760405162461bcd60e51b815260206004820152601360248201527224b73b30b634b2103b103830b930b6b2ba32b960691b60448201526064016106e0565b60408051600081526020810180835287905260ff861691810191909152606081018490526080810183905260019060a0016020604051602081039080840390855afa158015612c9b573d6000803e3d6000fd5b5050604051601f1901519695505050505050565b600154604080517fd71080023d2f293ed0723dc287d6b2d4e7d27d0b6c12928e300721b7c78c74856020820152908101849052606081018390526000919060800160405160208183030381529060405280519060200120604051602001611ebc929190613d19565b6060600080856001600160a01b031685604051612d349190613d34565b600060405180830381855af49150503d8060008114612d6f576040519150601f19603f3d011682016040523d82523d6000602084013e612d74565b606091505b5091509150612d8586838387612d8f565b9695505050505050565b60608315612dfc578251600003612df557612da985611c6d565b612df55760405162461bcd60e51b815260206004820152601d60248201527f416464726573733a2063616c6c20746f206e6f6e2d636f6e747261637400000060448201526064016106e0565b5081612977565b6129778383815115612e115781518083602001fd5b8060405162461bcd60e51b81526004016106e09190612ebd565b508054600082559060005260206000209081019061083a91905b80821115612e635780546001600160b01b0319168155600101612e45565b5090565b6001600160a01b038116811461083a57600080fd5b600060208284031215612e8e57600080fd5b8135611f2c81612e67565b60005b83811015612eb4578181015183820152602001612e9c565b50506000910152565b6020815260008251806020840152612edc816040850160208701612e99565b601f01601f19169190910160400192915050565b600060208284031215612f0257600080fd5b5035919050565b6001600160a01b03169052565b8035612f2181612e67565b919050565b6001600160a01b0391909116815260200190565b60008060008060008060c08789031215612f5357600080fd5b863595506020870135612f6581612e67565b94506040870135612f7581612e67565b93506060870135612f8581612e67565b92506080870135612f9581612e67565b8092505060a087013590509295509295509295565b634e487b7160e01b600052604160045260246000fd5b604051601f8201601f191681016001600160401b0381118282101715612fe857612fe8612faa565b604052919050565b6000806040838503121561300357600080fd5b823561300e81612e67565b91506020838101356001600160401b038082111561302b57600080fd5b818601915086601f83011261303f57600080fd5b81358181111561305157613051612faa565b613063601f8201601f19168501612fc0565b9150808252878482850101111561307957600080fd5b80848401858401376000848284010152508093505050509250929050565b600060e082840312156130a957600080fd5b50919050565b600080604083850312156130c257600080fd5b82356001600160401b03808211156130d957600080fd5b6130e586838701613097565b935060208501359150808211156130fb57600080fd5b5061310885828601613097565b9150509250929050565b6000806020838503121561312557600080fd5b82356001600160401b038082111561313c57600080fd5b818501915085601f83011261315057600080fd5b81358181111561315f57600080fd5b8660208260051b850101111561317457600080fd5b60209290920196919550909350505050565b6000806020838503121561319957600080fd5b82356001600160401b03808211156131b057600080fd5b818501915085601f8301126131c457600080fd5b8135818111156131d357600080fd5b8660208260061b850101111561317457600080fd5b61ffff8116811461083a57600080fd5b6000806040838503121561320b57600080fd5b8235613216816131e8565b9150602083013561322681612e67565b809150509250929050565b60006020828403121561324357600080fd5b81356001600160401b0381111561325957600080fd5b82016101a08185031215611f2c57600080fd5b602080825260169082015275416464726573732063616e6e6f74206265207a65726f60501b604082015260600190565b6020808252602c908201527f46756e6374696f6e206d7573742062652063616c6c6564207468726f7567682060408201526b19195b1959d85d1958d85b1b60a21b606082015260800190565b6020808252602c908201527f46756e6374696f6e206d7573742062652063616c6c6564207468726f7567682060408201526b6163746976652070726f787960a01b606082015260800190565b634e487b7160e01b600052601160045260246000fd5b80820180821115611ed557611ed5613334565b634e487b7160e01b600052602160045260246000fd5b6000823561019e1983360301811261338a57600080fd5b9190910192915050565b6002811061083a57600080fd5b8035612f2181613394565b6000602082840312156133be57600080fd5b8135611f2c81613394565b80518015158114612f2157600080fd5b6000602082840312156133eb57600080fd5b611f2c826133c9565b6000808335601e1984360301811261340b57600080fd5b8301803591506001600160401b0382111561342557600080fd5b6020019150600681901b360382131561343d57600080fd5b9250929050565b6000806040838503121561345757600080fd5b825161346281612e67565b6020939093015192949293505050565b634e487b7160e01b600052603260045260246000fd5b60006040828403121561349a57600080fd5b604051604081018181106001600160401b03821117156134bc576134bc612faa565b60405282356134ca816131e8565b815260208301356134da81612e67565b60208201529392505050565b6000600182016134f8576134f8613334565b5060010190565b6002811061351d57634e487b7160e01b600052602160045260246000fd5b9052565b6000808335601e1984360301811261353857600080fd5b83016020810192503590506001600160401b0381111561355757600080fd5b8060061b360382131561343d57600080fd5b8183526000602080850194508260005b858110156135bf57813561358c816131e8565b61ffff1687528183013561359f81612e67565b6001600160a01b0316878401526040968701969190910190600101613579565b509495945050505050565b6000808335601e198436030181126135e157600080fd5b83016020810192503590506001600160401b0381111561360057600080fd5b80360382131561343d57600080fd5b81835281816020850137506000828201602090810191909152601f909101601f19169091010190565b60006101a061364f8461364a85612f16565b612f09565b61365b602084016133a1565b61366860208601826134ff565b5061367560408401612f16565b6136826040860182612f09565b5061368f60608401612f16565b61369c6060860182612f09565b506080830135608085015260a083013560a08501526136bd60c08401612f16565b6136ca60c0860182612f09565b5060e08381013590850152610100808401359085015261012080840135908501526101406136fa81850185613521565b838388015261370c8488018284613569565b935050505061016080840135818601525061018061372c818501856135ca565b8684038388015261373e84828461360f565b979650505050505050565b60808152600061375c6080830187613638565b85602084015282810360408401526137748186613638565b91505082606083015295945050505050565b600060ff821660ff810361379c5761379c613334565b60010192915050565b81356137b0816131e8565b61ffff8116905081548161ffff19821617835560208401356137d181612e67565b6001600160b01b03199190911690911760109190911b62010000600160b01b031617905550565b602081526000612977602083018486613569565b60006020808301818452808554808352604092508286019150866000528360002060005b8281101561386157815461ffff8116855260101c6001600160a01b0316868501529284019260019182019101613830565b5091979650505050505050565b60006020828403121561388057600080fd5b5051919050565b6020808252602b908201527f496e697469616c697a61626c653a20636f6e7472616374206973206e6f74206960408201526a6e697469616c697a696e6760a81b606082015260800190565b6000808335601e198436030181126138e957600080fd5b8301803591506001600160401b0382111561390357600080fd5b60200191503681900382131561343d57600080fd5b8183823760009101908152919050565b8e81526001600160a01b038e1660208201526101c0810161394c604083018f6134ff565b6001600160a01b038d811660608401528c16608083015260a082018b905260c082018a905261397e60e083018a612f09565b8761010083015286610120830152856101408301528461016083015283610180830152826101a08301529f9e505050505050505050505050505050565b600083516139cd818460208801612e99565b8351908301906139e1818360208801612e99565b01949350505050565b803560ff81168114612f2157600080fd5b600060208284031215613a0d57600080fd5b611f2c826139ea565b81810381811115611ed557611ed5613334565b602080825260199082015278141bdb1a58de481a5cc81b9bdd081dda1a5d195b1a5cdd1959603a1b604082015260600190565b604081526000613a6f6040830185613638565b8281036020840152613a818185613638565b95945050505050565b600080600080600060a08688031215613aa257600080fd5b613aab866133c9565b94506020860151935060408601519250606086015191506080860151613ad081613394565b809150509295509295909350565b6001600160a01b039485168152928416602084015292166040820152606081019190915260800190565b815160009082906020808601845b83811015613b3257815185529382019390820190600101613b16565b50929695505050505050565b600082601f830112613b4f57600080fd5b813560206001600160401b03821115613b6a57613b6a612faa565b8160051b613b79828201612fc0565b9283528481018201928281019087851115613b9357600080fd5b83870192505b8483101561373e57823582529183019190830190613b99565b600060208284031215613bc457600080fd5b81356001600160401b03811115613bda57600080fd5b61297784828501613b3e565b6000604082018483526020604081850152818551808452606086019150828701935060005b81811015613c2757845183529383019391830191600101613c0b565b5090979650505050505050565b600080600060608486031215613c4957600080fd5b613c52846139ea565b95602085013595506040909401359392505050565b60008060008060808587031215613c7d57600080fd5b84356001600160401b03811115613c9357600080fd5b613c9f87828801613b3e565b945050613cae602086016139ea565b93969395505050506040820135916060013590565b8082028115828204841417611ed557611ed5613334565b600082613cf757634e487b7160e01b600052601260045260246000fd5b500490565b600060208284031215613d0e57600080fd5b8135611f2c816131e8565b61190160f01b81526002810192909252602282015260420190565b6000825161338a818460208701612e9956fe3a08e273a52ce6fad29142988478aaf1351afec0a4e1f2ff42382ad0872713bf360894a13ba1a3210667c828492db98dca3e2076cc3735a920a3ca505d382bbc416464726573733a206c6f772d6c6576656c2064656c65676174652063616c6c206661696c6564a164736f6c6343000813000a",
  "deployedBytecode": "0x6080604052600436106101af5760003560e01c80637adbf973116100e85780637adbf973146104935780637dc0d1d0146104b35780637ecebe00146104d35780638da5cb5b14610500578063986c9b20146105155780639a1fc3a714610535578063a4b2c67414610548578063ab3dbf3b1461055e578063ab7e8cba1461057e578063adde41e11461059e578063cae6047f146105be578063cb35c139146105d4578063d411581b146105f4578063f2fde38b14610614578063f4acd74014610634578063f76304bb14610654578063f973a20914610669578063fcfff16f1461069d57600080fd5b8063037c9be2146101b457806306fdde03146101d65780631d97c9bb1461022e5780632a312fe31461027057806331e6d0fe146102b25780633659cfe6146102e65780633fc8cef31461030657806342de66991461033357806343d726d61461035357806347535d7b146103685780634832ede11461037e5780634f1ef286146103b257806352d1902d146103c557806354fd4d50146103da5780635511f31914610409578063627cdcb9146104495780636992aa361461045e578063715018a61461047e575b600080fd5b3480156101c057600080fd5b506101d46101cf366004612e7c565b6106b2565b005b3480156101e257600080fd5b506102186040518060400160405280601681526020017553757065724368696566204d61726b6574706c61636560501b81525081565b6040516102259190612ebd565b60405180910390f35b34801561023a57600080fd5b506102627fd71080023d2f293ed0723dc287d6b2d4e7d27d0b6c12928e300721b7c78c748581565b604051908152602001610225565b34801561027c57600080fd5b5061029061028b366004612ef0565b610740565b6040805161ffff90931683526001600160a01b03909116602083015201610225565b3480156102be57600080fd5b506102627f5bcf4b2eaff7fcdeb49f0bda53026b9ebdd93db566fe4c447125cb899e598c9081565b3480156102f257600080fd5b506101d4610301366004612e7c565b610775565b34801561031257600080fd5b5060cc54610326906001600160a01b031681565b6040516102259190612f26565b34801561033f57600080fd5b506101d461034e366004612f3a565b61083d565b34801561035f57600080fd5b506101d4610a19565b34801561037457600080fd5b5061026260cb5481565b34801561038a57600080fd5b506102627f05b43f730f67de334a342883f867101fc7ef3361dfdff4a29a7aa97e0920ef7a81565b6101d46103c0366004612ff0565b610a51565b3480156103d157600080fd5b50610262610b0a565b3480156103e657600080fd5b50610218604051806040016040528060038152602001620312e360ec1b81525081565b34801561041557600080fd5b50610439610424366004612ef0565b60d26020526000908152604090205460ff1681565b6040519015158152602001610225565b34801561045557600080fd5b506101d4610bb8565b34801561046a57600080fd5b506101d4610479366004612ef0565b610c28565b34801561048a57600080fd5b506101d4610c65565b34801561049f57600080fd5b506101d46104ae366004612e7c565b610c79565b3480156104bf57600080fd5b5060cf54610326906001600160a01b031681565b3480156104df57600080fd5b506102626104ee366004612e7c565b60d36020526000908152604090205481565b34801561050c57600080fd5b50610326610cf3565b34801561052157600080fd5b5060cd54610326906001600160a01b031681565b6101d46105433660046130af565b610d02565b34801561055457600080fd5b5061026260d05481565b34801561056a57600080fd5b5060ce54610326906001600160a01b031681565b34801561058a57600080fd5b506101d4610599366004613112565b6116e6565b3480156105aa57600080fd5b506101d46105b9366004612e7c565b611735565b3480156105ca57600080fd5b5061026261271081565b3480156105e057600080fd5b506101d46105ef366004613186565b6117af565b34801561060057600080fd5b506101d461060f3660046131f8565b61184f565b34801561062057600080fd5b506101d461062f366004612e7c565b6118fb565b34801561064057600080fd5b506101d461064f366004613231565b611971565b34801561066057600080fd5b506101d4611a15565b34801561067557600080fd5b506102627f376bfbc394a7ba7fdf10f224572cef371358e3053e362f4554fcd2ad56329b3f81565b3480156106a957600080fd5b506101d4611a47565b6106ba611a7f565b6001600160a01b0381166106e95760405162461bcd60e51b81526004016106e09061326c565b60405180910390fd5b60cd80546001600160a01b0319166001600160a01b0383169081179091556040517ff9a0f356a7ef079355de09d32ce45cc3cfabc8f118681c19a17501f005a376ac9161073591612f26565b60405180910390a150565b60d1818154811061075057600080fd5b60009182526020909120015461ffff811691506201000090046001600160a01b031682565b6001600160a01b037f00000000000000000000000000000000000000000000000000000000000000001630036107bd5760405162461bcd60e51b81526004016106e09061329c565b7f00000000000000000000000000000000000000000000000000000000000000006001600160a01b03166107ef611ade565b6001600160a01b0316146108155760405162461bcd60e51b81526004016106e0906132e8565b61081e81611afa565b6040805160008082526020820190925261083a91839190611b02565b50565b600254610100900460ff161580801561085d5750600254600160ff909116105b8061087e575061086c30611c6d565b15801561087e575060025460ff166001145b6108e15760405162461bcd60e51b815260206004820152602e60248201527f496e697469616c697a61626c653a20636f6e747261637420697320616c72656160448201526d191e481a5b9a5d1a585b1a5e995960921b60648201526084016106e0565b6002805460ff191660011790558015610904576002805461ff0019166101001790555b61090c611c7c565b600160cb556040805160c0810182526016608082019081527553757065724368696566204d61726b6574706c61636560501b60a083015281528151808301835260038152620312e360ec1b60208281019190915282015290810188905230606082015261097890611cab565b60015560cc80546001600160a01b038089166001600160a01b03199283161790925560cd805488841690831617905560ce805487841690831617905560cf80549286169290911691909117905560d08290558015610a10576002805461ff0019169055604051600181527f7f26b83ff96e1f2b6a682f133852f6798a09c465da95921460cefb38474024989060200160405180910390a15b50505050505050565b610a21611a7f565b600060cb8190556040517f1cdde67b72a90f19919ac732a437ac2f7a10fc128d28c2a6e525d89ce5cd9d3a9190a1565b6001600160a01b037f0000000000000000000000000000000000000000000000000000000000000000163003610a995760405162461bcd60e51b81526004016106e09061329c565b7f00000000000000000000000000000000000000000000000000000000000000006001600160a01b0316610acb611ade565b6001600160a01b031614610af15760405162461bcd60e51b81526004016106e0906132e8565b610afa82611afa565b610b0682826001611b02565b5050565b6000306001600160a01b037f00000000000000000000000000000000000000000000000000000000000000001614610ba55760405162461bcd60e51b815260206004820152603860248201527f555550535570677261646561626c653a206d757374206e6f742062652063616c6044820152771b1959081d1a1c9bdd59da0819195b1959d85d1958d85b1b60421b60648201526084016106e0565b50600080516020613d6783398151915290565b33600090815260d360205260408120805460019290610bd890849061334a565b909155505033600081815260d36020908152604091829020548251938452908301527fa82a649bbd060c9099cd7b7326e2b0dc9e9af0836480e0f849dc9eaa79710b3b91015b60405180910390a1565b610c30611a7f565b60d08190556040518181527f7706177c541ba1b858371bfc568aa77450b4713bbdbba62c730d4484ab6c125190602001610735565b610c6d611a7f565b610c776000611d48565b565b610c81611a7f565b6001600160a01b038116610ca75760405162461bcd60e51b81526004016106e09061326c565b60cf80546001600160a01b0319166001600160a01b0383169081179091556040517fb3eacd0e351fafdfefdec84e1cd19679b38dbcd63ea7c2c24da17fd2bc3b3c0e9161073591612f26565b6035546001600160a01b031690565b600260005403610d545760405162461bcd60e51b815260206004820152601f60248201527f5265656e7472616e637947756172643a207265656e7472616e742063616c6c0060448201526064016106e0565b600260005560cb54600114610d945760405162461bcd60e51b815260206004820152600660248201526510db1bdcd95960d21b60448201526064016106e0565b6001610da08380613373565b610db19060408101906020016133ac565b6001811115610dc257610dc261335d565b14610dcc57600080fd5b6000610e1d610ddb8480613373565b60d36000610de98780613373565b610df7906020810190612e7c565b6001600160a01b03166001600160a01b0316815260200190815260200160002054611d9a565b90506000610e2e610ddb8480613373565b9050610e43610e3d8580613373565b83611edb565b610e8d5760405162461bcd60e51b815260206004820152601b60248201527a53656c6c2068617320696e76616c696420706172616d657465727360281b60448201526064016106e0565b610ea0610e9a8480613373565b82611edb565b610ee95760405162461bcd60e51b815260206004820152601a6024820152794275792068617320696e76616c696420706172616d657465727360301b60448201526064016106e0565b610ef38483611f33565b610f3b5760405162461bcd60e51b815260206004820152601960248201527829b2b636103330b4b632b21030baba3437b934bd30ba34b7b760391b60448201526064016106e0565b610f458382611f33565b610f8c5760405162461bcd60e51b8152602060048201526018602482015277213abc903330b4b632b21030baba3437b934bd30ba34b7b760411b60448201526064016106e0565b6000808080610fad610f9e8980613373565b610fa88980613373565b61207c565b929650909450925090506060610fc38980613373565b610fd4906080810190606001612e7c565b6040516301ffc9a760e01b815263152a902d60e11b60048201526001600160a01b0391909116906301ffc9a790602401602060405180830381865afa158015611021573d6000803e3d6000fd5b505050506040513d601f19601f8201168201806040525081019061104591906133d9565b1561131a5760d1546110578a80613373565b611066906101408101906133f4565b61107192915061334a565b61107c90600161334a565b6001600160401b0381111561109357611093612faa565b6040519080825280602002602001820160405280156110d857816020015b60408051808201909152600080825260208201528152602001906001900390816110b15790505b5090506000806110e88b80613373565b6110f9906080810190606001612e7c565b6001600160a01b0316632a55205a6111118d80613373565b6040516001600160e01b031960e084901b16815260809190910135600482015261271060248201526044016040805180830381865afa158015611158573d6000803e3d6000fd5b505050506040513d601f19601f8201168201806040525081019061117c9190613444565b9150915060405180604001604052808261ffff168152602001836001600160a01b0316815250836000815181106111b5576111b5613472565b602002602001018190525060005b6111cd8c80613373565b6111dc906101408101906133f4565b905081101561125e576111ef8c80613373565b6111fe906101408101906133f4565b8281811061120e5761120e613472565b9050604002018036038101906112249190613488565b8461123083600161334a565b8151811061124057611240613472565b60200260200101819052508080611256906134e6565b9150506111c3565b5060005b60d1548110156113125760d1818154811061127f5761127f613472565b60009182526020918290206040805180820190915291015461ffff811682526201000090046001600160a01b031691810191909152846112bf8e80613373565b6112ce906101408101906133f4565b6112d991508461334a565b6112e490600161334a565b815181106112f4576112f4613472565b6020026020010181905250808061130a906134e6565b915050611262565b5050506114ea565b60d1546113278a80613373565b611336906101408101906133f4565b61134192915061334a565b61134c90600161334a565b6001600160401b0381111561136357611363612faa565b6040519080825280602002602001820160405280156113a857816020015b60408051808201909152600080825260208201528152602001906001900390816113815790505b50905060005b6113b88a80613373565b6113c7906101408101906133f4565b905081101561143f576113da8a80613373565b6113e9906101408101906133f4565b828181106113f9576113f9613472565b90506040020180360381019061140f9190613488565b82828151811061142157611421613472565b60200260200101819052508080611437906134e6565b9150506113ae565b5060005b60d1548110156114e85760d1818154811061146057611460613472565b60009182526020918290206040805180820190915291015461ffff811682526201000090046001600160a01b031691810191909152826114a08c80613373565b6114af906101408101906133f4565b6114ba91508461334a565b815181106114ca576114ca613472565b602002602001018190525080806114e0906134e6565b915050611443565b505b61153f6114f78a80613373565b611505906020810190612e7c565b61150f8a80613373565b61151d906020810190612e7c565b6115278c80613373565b6115389060e081019060c001612e7c565b8489612335565b61159561154c8a80613373565b61155d906080810190606001612e7c565b6115678b80613373565b611575906020810190612e7c565b61157f8b80613373565b61158d906020810190612e7c565b878787612373565b600087815260d260205260408082208054600160ff19918216811790925589845291909220805490911690911790556115ce8880613373565b61010001356115dd8a80613373565b610100013511611604576115f18880613373565b6115ff906020810190612e7c565b61161c565b61160e8980613373565b61161c906020810190612e7c565b6001600160a01b031661162f8980613373565b610100013561163e8b80613373565b61010001351115611666576116538980613373565b611661906020810190612e7c565b61167e565b6116708a80613373565b61167e906020810190612e7c565b6001600160a01b03167f61cbb2a3dee0b6064c2e681aadd61677fb4ef319f0b547508d495626f5a62f646116b28c80613373565b8a6116bd8d80613373565b8b6040516116ce9493929190613749565b60405180910390a35050600160005550505050505050565b60005b60ff81168211156117305761171e83838360ff1681811061170c5761170c613472565b905060200281019061064f9190613373565b8061172881613786565b9150506116e9565b505050565b61173d611a7f565b6001600160a01b0381166117635760405162461bcd60e51b81526004016106e09061326c565b60ce80546001600160a01b0319166001600160a01b0383169081179091556040517fdbe18f3fd927cc2aefe380ffd2abfdb8e13f0239c0258ccfc84c3d8fdd8c04189161073591612f26565b6117b7611a7f565b6117c360d16000612e2b565b60005b818110156118235760d18383838181106117e2576117e2613472565b8354600181018555600094855260209094206040909102929092019291909101905061180e82826137a5565b5050808061181b906134e6565b9150506117c6565b50600080516020613d4783398151915282826040516118439291906137f8565b60405180910390a15050565b611857611a7f565b60408051808201825261ffff80851682526001600160a01b038085166020840190815260d18054600181018255600082905285517f695fb3134ad82c3b8022bc5464edd0bcc9424ef672b52245dcb6ab2374327ce39091018054935190941662010000026001600160b01b031990931694169390931717905591519091600080516020613d47833981519152916118ee919061380c565b60405180910390a1505050565b611903611a7f565b6001600160a01b0381166119685760405162461bcd60e51b815260206004820152602660248201527f4f776e61626c653a206e6577206f776e657220697320746865207a65726f206160448201526564647265737360d01b60648201526084016106e0565b61083a81611d48565b61197e6020820182612e7c565b6001600160a01b0316336001600160a01b03161461199b57600080fd5b60006119b18260d383610df76020840184612e7c565b600081815260d2602052604090205490915060ff16610b0657600081815260d2602052604090819020805460ff19166001179055517f5152abf959f6564662358c2e52b702259b78bac5ee7842a0f01937e670efcc7d906118439083815260200190565b611a1d611a7f565b611a2960d16000612e2b565b600080516020613d4783398151915260d1604051610c1e919061380c565b611a4f611a7f565b600160cb556040517fd1dcd00534373f20882b79e6ab6875a5c358c5bd576448757ed50e63069ab51890600090a1565b33611a88610cf3565b6001600160a01b031614610c775760405162461bcd60e51b815260206004820181905260248201527f4f776e61626c653a2063616c6c6572206973206e6f7420746865206f776e657260448201526064016106e0565b600080516020613d67833981519152546001600160a01b031690565b61083a611a7f565b7f4910fdfa16fed3260ed0e7147f7cc6da11a60208b5b9406d12a635614ffd91435460ff1615611b3557611730836124e1565b826001600160a01b03166352d1902d6040518163ffffffff1660e01b8152600401602060405180830381865afa925050508015611b8f575060408051601f3d908101601f19168201909252611b8c9181019061386e565b60015b611bf25760405162461bcd60e51b815260206004820152602e60248201527f45524331393637557067726164653a206e657720696d706c656d656e7461746960448201526d6f6e206973206e6f74205555505360901b60648201526084016106e0565b600080516020613d678339815191528114611c615760405162461bcd60e51b815260206004820152602960248201527f45524331393637557067726164653a20756e737570706f727465642070726f786044820152681a58589b195555525160ba1b60648201526084016106e0565b5061173083838361257b565b6001600160a01b03163b151590565b600254610100900460ff16611ca35760405162461bcd60e51b81526004016106e090613887565b610c776125a6565b60007f8b73c3c69bb8fe3d512ecc4cf759cc79239f7b179b0ffacaa9a75d522b39400f82600001518051906020012083602001518051906020012084604001518560600151604051602001611d2b9594939291909485526020850193909352604084019190915260608301526001600160a01b0316608082015260a00190565b604051602081830303815290604052805190602001209050919050565b603580546001600160a01b038381166001600160a01b0319831681179093556040519116919082907f8be0079c531659141344cd1fd0a4f28419497f9722a3daafe3b4186f6b6457e090600090a35050565b60007f376bfbc394a7ba7fdf10f224572cef371358e3053e362f4554fcd2ad56329b3f611dca6020850185612e7c565b611dda60408601602087016133ac565b611dea6060870160408801612e7c565b611dfa6080880160608901612e7c565b608088013560a0890135611e1460e08b0160c08c01612e7c565b8a60e001358b61010001358c6101200135611e3e8e806101400190611e3991906133f4565b6125d6565b8e61016001358f806101800190611e5591906138d2565b604051611e63929190613918565b604051908190038120611e859e9d9c9b9a999897969594939291602001613928565b60408051601f1981840301815282825260208301859052910160408051601f1981840301815290829052611ebc92916020016139bb565b6040516020818303038152906040528051906020012090505b92915050565b600080611eeb6020850185612e7c565b6001600160a01b031614158015611f115750600082815260d2602052604090205460ff16155b8015611f2c5750611f2c8361010001358461012001356126a8565b9392505050565b600033611f408480613373565b611f4e906020810190612e7c565b6001600160a01b031603611f6457506001611ed5565b611fbc82611f728580613373565b611f80906020810190612e7c565b611f9060408701602088016139fb565b60408701356060880135611faa60c08a0160a08b016133ac565b611fb760808b018b6138d2565b6126c4565b611fc857506000611ed5565b611fd28380613373565b61012001356000036120735760d054611fef60c085013543613a16565b1061203c5760405162461bcd60e51b815260206004820181905260248201527f5369676e656420626c6f636b206e756d626572206f7574206f662072616e676560448201526064016106e0565b6120678261205060c0860160a087016133ac565b61205d60808701876138d2565b8760c001356127d2565b61207357506000611ed5565b50600192915050565b6000806000806000856101000135876101000135116121be5760ce546001600160a01b031663874516cd6120b660608a0160408b01612e7c565b6040518263ffffffff1660e01b81526004016120d29190612f26565b602060405180830381865afa1580156120ef573d6000803e3d6000fd5b505050506040513d601f19601f8201168201806040525081019061211391906133d9565b61212f5760405162461bcd60e51b81526004016106e090613a29565b61213f6060880160408901612e7c565b6001600160a01b031663d5ec8c7788886040518363ffffffff1660e01b815260040161216c929190613a5c565b60a060405180830381865afa158015612189573d6000803e3d6000fd5b505050506040513d601f19601f820116820180604052508101906121ad9190613a8a565b9298509096509450925090506122e3565b60ce546001600160a01b031663874516cd6121df6060890160408a01612e7c565b6040518263ffffffff1660e01b81526004016121fb9190612f26565b602060405180830381865afa158015612218573d6000803e3d6000fd5b505050506040513d601f19601f8201168201806040525081019061223c91906133d9565b6122585760405162461bcd60e51b81526004016106e090613a29565b6122686060870160408801612e7c565b6001600160a01b0316630813a76687896040518363ffffffff1660e01b8152600401612295929190613a5c565b60a060405180830381865afa1580156122b2573d6000803e3d6000fd5b505050506040513d601f19601f820116820180604052508101906122d69190613a8a565b9298509096509450925090505b8061232b5760405162461bcd60e51b815260206004820152601860248201527713dc99195c9cc818d85b9b9bdd081899481b585d18da195960421b60448201526064016106e0565b5092959194509250565b6001600160a01b03831661234f5780341461234f57600080fd5b600061235d83858785612862565b905061236b8486888461297f565b505050505050565b853b6123bd5760405162461bcd60e51b815260206004820152601960248201527810dbdb1b1958dd1a5bdb88191bd95cc81b9bdd08195e1a5cdd603a1b60448201526064016106e0565b60008160018111156123d1576123d161335d565b036124435760cd54604051633c4fc9fb60e11b81526001600160a01b039091169063789f93f69061240c908990899089908990600401613ade565b600060405180830381600087803b15801561242657600080fd5b505af115801561243a573d6000803e3d6000fd5b5050505061236b565b60018160018111156124575761245761335d565b0361236b5760cd54604051633a54a01760e11b81526001600160a01b038881166004830152878116602483015286811660448301526064820186905260848201859052909116906374a9402e9060a401600060405180830381600087803b1580156124c157600080fd5b505af11580156124d5573d6000803e3d6000fd5b50505050505050505050565b6124ea81611c6d565b61254c5760405162461bcd60e51b815260206004820152602d60248201527f455243313936373a206e657720696d706c656d656e746174696f6e206973206e60448201526c1bdd08184818dbdb9d1c9858dd609a1b60648201526084016106e0565b600080516020613d6783398151915280546001600160a01b0319166001600160a01b0392909216919091179055565b61258483612aa2565b6000825111806125915750805b15611730576125a08383612ae2565b50505050565b600254610100900460ff166125cd5760405162461bcd60e51b81526004016106e090613887565b610c7733611d48565b600080826001600160401b038111156125f1576125f1612faa565b60405190808252806020026020018201604052801561261a578160200160208202803683370190505b50905060005b838110156126775761264885858381811061263d5761263d613472565b905060400201612b07565b82828151811061265a5761265a613472565b60209081029190910101528061266f816134e6565b915050612620565b50806040516020016126899190613b08565b6040516020818303038152906040528051906020012091505092915050565b60004283108015611f2c5750811580611f2c5750504210919050565b600080808560018111156126da576126da61335d565b036126ef576126e88a612b77565b90506127a4565b60018560018111156127035761270361335d565b036127a457600061271684860186613bb2565b9050600073__$ed053d8b3899615c4626b1ae19704d37b7$__639c7bf9388d846040518363ffffffff1660e01b8152600401612753929190613be6565b602060405180830381865af4158015612770573d6000803e3d6000fd5b505050506040513d601f19601f82011682018060405250810190612794919061386e565b905061279f81612b8e565b925050505b886001600160a01b03166127ba828a8a8a612bef565b6001600160a01b0316149a9950505050505050505050565b6000806127df8784612caf565b905060008080808960018111156127f8576127f861335d565b036128155761280987890189613c34565b9194509250905061284a565b60018960018111156128295761282961335d565b0361284a576000808061283e8a8c018c613c67565b91985096509450505050505b60cf546001600160a01b03166127ba85858585612bef565b600080805b86518160ff161015612900576000612710888360ff168151811061288d5761288d613472565b60200260200101516000015161ffff16866128a89190613cc3565b6128b29190613cda565b90506128e087878a8560ff16815181106128ce576128ce613472565b6020026020010151602001518461297f565b6128ea818461334a565b92505080806128f890613786565b915050612867565b50828111156129665760405162461bcd60e51b815260206004820152602c60248201527f546f74616c20616d6f756e74206f66206665657320617265206d6f726520746860448201526b616e2074686520707269636560a01b60648201526084016106e0565b60006129728285613a16565b925050505b949350505050565b80156125a0576001600160a01b0384166129cf576040516001600160a01b0383169082156108fc029083906000818181858888f193505050501580156129c9573d6000803e3d6000fd5b506125a0565b60cc546001600160a01b0390811690851603612a625760cd5460cc5460405163368fa33960e21b81526001600160a01b039283169263da3e8ce492612a1f92911690879087908790600401613ade565b6020604051808303816000875af1158015612a3e573d6000803e3d6000fd5b505050506040513d601f19601f820116820180604052508101906129c991906133d9565b60405162461bcd60e51b815260206004820152601560248201527424b73b30b634b2103830bcb6b2b73a103a37b5b2b760591b60448201526064016106e0565b612aab816124e1565b6040516001600160a01b038216907fbc7cd75a20ee27fd9adebab32041f755214dbc6bffa90cc0225b39da2e5c2d3b90600090a250565b6060611f2c8383604051806060016040528060278152602001613d8760279139612d17565b60007f05b43f730f67de334a342883f867101fc7ef3361dfdff4a29a7aa97e0920ef7a612b376020840184613cfc565b612b476040850160208601612e7c565b604051602001611d2b9392919092835261ffff9190911660208301526001600160a01b0316604082015260600190565b600060015482604051602001611d2b929190613d19565b600154604080517f5bcf4b2eaff7fcdeb49f0bda53026b9ebdd93db566fe4c447125cb899e598c9060208201529081018390526000919060600160405160208183030381529060405280519060200120604051602001611d2b929190613d19565b60008360ff16601b1480612c0657508360ff16601c145b612c485760405162461bcd60e51b815260206004820152601360248201527224b73b30b634b2103b103830b930b6b2ba32b960691b60448201526064016106e0565b60408051600081526020810180835287905260ff861691810191909152606081018490526080810183905260019060a0016020604051602081039080840390855afa158015612c9b573d6000803e3d6000fd5b5050604051601f1901519695505050505050565b600154604080517fd71080023d2f293ed0723dc287d6b2d4e7d27d0b6c12928e300721b7c78c74856020820152908101849052606081018390526000919060800160405160208183030381529060405280519060200120604051602001611ebc929190613d19565b6060600080856001600160a01b031685604051612d349190613d34565b600060405180830381855af49150503d8060008114612d6f576040519150601f19603f3d011682016040523d82523d6000602084013e612d74565b606091505b5091509150612d8586838387612d8f565b9695505050505050565b60608315612dfc578251600003612df557612da985611c6d565b612df55760405162461bcd60e51b815260206004820152601d60248201527f416464726573733a2063616c6c20746f206e6f6e2d636f6e747261637400000060448201526064016106e0565b5081612977565b6129778383815115612e115781518083602001fd5b8060405162461bcd60e51b81526004016106e09190612ebd565b508054600082559060005260206000209081019061083a91905b80821115612e635780546001600160b01b0319168155600101612e45565b5090565b6001600160a01b038116811461083a57600080fd5b600060208284031215612e8e57600080fd5b8135611f2c81612e67565b60005b83811015612eb4578181015183820152602001612e9c565b50506000910152565b6020815260008251806020840152612edc816040850160208701612e99565b601f01601f19169190910160400192915050565b600060208284031215612f0257600080fd5b5035919050565b6001600160a01b03169052565b8035612f2181612e67565b919050565b6001600160a01b0391909116815260200190565b60008060008060008060c08789031215612f5357600080fd5b863595506020870135612f6581612e67565b94506040870135612f7581612e67565b93506060870135612f8581612e67565b92506080870135612f9581612e67565b8092505060a087013590509295509295509295565b634e487b7160e01b600052604160045260246000fd5b604051601f8201601f191681016001600160401b0381118282101715612fe857612fe8612faa565b604052919050565b6000806040838503121561300357600080fd5b823561300e81612e67565b91506020838101356001600160401b038082111561302b57600080fd5b818601915086601f83011261303f57600080fd5b81358181111561305157613051612faa565b613063601f8201601f19168501612fc0565b9150808252878482850101111561307957600080fd5b80848401858401376000848284010152508093505050509250929050565b600060e082840312156130a957600080fd5b50919050565b600080604083850312156130c257600080fd5b82356001600160401b03808211156130d957600080fd5b6130e586838701613097565b935060208501359150808211156130fb57600080fd5b5061310885828601613097565b9150509250929050565b6000806020838503121561312557600080fd5b82356001600160401b038082111561313c57600080fd5b818501915085601f83011261315057600080fd5b81358181111561315f57600080fd5b8660208260051b850101111561317457600080fd5b60209290920196919550909350505050565b6000806020838503121561319957600080fd5b82356001600160401b03808211156131b057600080fd5b818501915085601f8301126131c457600080fd5b8135818111156131d357600080fd5b8660208260061b850101111561317457600080fd5b61ffff8116811461083a57600080fd5b6000806040838503121561320b57600080fd5b8235613216816131e8565b9150602083013561322681612e67565b809150509250929050565b60006020828403121561324357600080fd5b81356001600160401b0381111561325957600080fd5b82016101a08185031215611f2c57600080fd5b602080825260169082015275416464726573732063616e6e6f74206265207a65726f60501b604082015260600190565b6020808252602c908201527f46756e6374696f6e206d7573742062652063616c6c6564207468726f7567682060408201526b19195b1959d85d1958d85b1b60a21b606082015260800190565b6020808252602c908201527f46756e6374696f6e206d7573742062652063616c6c6564207468726f7567682060408201526b6163746976652070726f787960a01b606082015260800190565b634e487b7160e01b600052601160045260246000fd5b80820180821115611ed557611ed5613334565b634e487b7160e01b600052602160045260246000fd5b6000823561019e1983360301811261338a57600080fd5b9190910192915050565b6002811061083a57600080fd5b8035612f2181613394565b6000602082840312156133be57600080fd5b8135611f2c81613394565b80518015158114612f2157600080fd5b6000602082840312156133eb57600080fd5b611f2c826133c9565b6000808335601e1984360301811261340b57600080fd5b8301803591506001600160401b0382111561342557600080fd5b6020019150600681901b360382131561343d57600080fd5b9250929050565b6000806040838503121561345757600080fd5b825161346281612e67565b6020939093015192949293505050565b634e487b7160e01b600052603260045260246000fd5b60006040828403121561349a57600080fd5b604051604081018181106001600160401b03821117156134bc576134bc612faa565b60405282356134ca816131e8565b815260208301356134da81612e67565b60208201529392505050565b6000600182016134f8576134f8613334565b5060010190565b6002811061351d57634e487b7160e01b600052602160045260246000fd5b9052565b6000808335601e1984360301811261353857600080fd5b83016020810192503590506001600160401b0381111561355757600080fd5b8060061b360382131561343d57600080fd5b8183526000602080850194508260005b858110156135bf57813561358c816131e8565b61ffff1687528183013561359f81612e67565b6001600160a01b0316878401526040968701969190910190600101613579565b509495945050505050565b6000808335601e198436030181126135e157600080fd5b83016020810192503590506001600160401b0381111561360057600080fd5b80360382131561343d57600080fd5b81835281816020850137506000828201602090810191909152601f909101601f19169091010190565b60006101a061364f8461364a85612f16565b612f09565b61365b602084016133a1565b61366860208601826134ff565b5061367560408401612f16565b6136826040860182612f09565b5061368f60608401612f16565b61369c6060860182612f09565b506080830135608085015260a083013560a08501526136bd60c08401612f16565b6136ca60c0860182612f09565b5060e08381013590850152610100808401359085015261012080840135908501526101406136fa81850185613521565b838388015261370c8488018284613569565b935050505061016080840135818601525061018061372c818501856135ca565b8684038388015261373e84828461360f565b979650505050505050565b60808152600061375c6080830187613638565b85602084015282810360408401526137748186613638565b91505082606083015295945050505050565b600060ff821660ff810361379c5761379c613334565b60010192915050565b81356137b0816131e8565b61ffff8116905081548161ffff19821617835560208401356137d181612e67565b6001600160b01b03199190911690911760109190911b62010000600160b01b031617905550565b602081526000612977602083018486613569565b60006020808301818452808554808352604092508286019150866000528360002060005b8281101561386157815461ffff8116855260101c6001600160a01b0316868501529284019260019182019101613830565b5091979650505050505050565b60006020828403121561388057600080fd5b5051919050565b6020808252602b908201527f496e697469616c697a61626c653a20636f6e7472616374206973206e6f74206960408201526a6e697469616c697a696e6760a81b606082015260800190565b6000808335601e198436030181126138e957600080fd5b8301803591506001600160401b0382111561390357600080fd5b60200191503681900382131561343d57600080fd5b8183823760009101908152919050565b8e81526001600160a01b038e1660208201526101c0810161394c604083018f6134ff565b6001600160a01b038d811660608401528c16608083015260a082018b905260c082018a905261397e60e083018a612f09565b8761010083015286610120830152856101408301528461016083015283610180830152826101a08301529f9e505050505050505050505050505050565b600083516139cd818460208801612e99565b8351908301906139e1818360208801612e99565b01949350505050565b803560ff81168114612f2157600080fd5b600060208284031215613a0d57600080fd5b611f2c826139ea565b81810381811115611ed557611ed5613334565b602080825260199082015278141bdb1a58de481a5cc81b9bdd081dda1a5d195b1a5cdd1959603a1b604082015260600190565b604081526000613a6f6040830185613638565b8281036020840152613a818185613638565b95945050505050565b600080600080600060a08688031215613aa257600080fd5b613aab866133c9565b94506020860151935060408601519250606086015191506080860151613ad081613394565b809150509295509295909350565b6001600160a01b039485168152928416602084015292166040820152606081019190915260800190565b815160009082906020808601845b83811015613b3257815185529382019390820190600101613b16565b50929695505050505050565b600082601f830112613b4f57600080fd5b813560206001600160401b03821115613b6a57613b6a612faa565b8160051b613b79828201612fc0565b9283528481018201928281019087851115613b9357600080fd5b83870192505b8483101561373e57823582529183019190830190613b99565b600060208284031215613bc457600080fd5b81356001600160401b03811115613bda57600080fd5b61297784828501613b3e565b6000604082018483526020604081850152818551808452606086019150828701935060005b81811015613c2757845183529383019391830191600101613c0b565b5090979650505050505050565b600080600060608486031215613c4957600080fd5b613c52846139ea565b95602085013595506040909401359392505050565b60008060008060808587031215613c7d57600080fd5b84356001600160401b03811115613c9357600080fd5b613c9f87828801613b3e565b945050613cae602086016139ea565b93969395505050506040820135916060013590565b8082028115828204841417611ed557611ed5613334565b600082613cf757634e487b7160e01b600052601260045260246000fd5b500490565b600060208284031215613d0e57600080fd5b8135611f2c816131e8565b61190160f01b81526002810192909252602282015260420190565b6000825161338a818460208701612e9956fe3a08e273a52ce6fad29142988478aaf1351afec0a4e1f2ff42382ad0872713bf360894a13ba1a3210667c828492db98dca3e2076cc3735a920a3ca505d382bbc416464726573733a206c6f772d6c6576656c2064656c65676174652063616c6c206661696c6564a164736f6c6343000813000a",
  "libraries": {
    "MerkleVerifier": "0x75176B164941B463B46E619BE08083b1bE672270"
  },
  "devdoc": {
    "details": "Core marketplace contract",
    "events": {
      "AdminChanged(address,address)": {
        "details": "Emitted when the admin account has changed."
      },
      "BeaconUpgraded(address)": {
        "details": "Emitted when the beacon is changed."
      },
      "Initialized(uint8)": {
        "details": "Triggered when the contract has been initialized or reinitialized."
      },
      "Upgraded(address)": {
        "details": "Emitted when the implementation is upgraded."
      }
    },
    "kind": "dev",
    "methods": {
      "addBaseFee(uint16,address)": {
        "details": "update base fees",
        "params": {
          "rate": "fees rate to add",
          "receiver": "receiver of fee to add"
        }
      },
      "cancelOrder((address,uint8,address,address,uint256,uint256,address,uint256,uint256,uint256,(uint16,address)[],uint256,bytes))": {
        "details": "Cancel an order, preventing it from being matched. Must be called by the trader of the order",
        "params": {
          "order": "Order to cancel"
        }
      },
      "cancelOrders((address,uint8,address,address,uint256,uint256,address,uint256,uint256,uint256,(uint16,address)[],uint256,bytes)[])": {
        "details": "Cancel multiple orders",
        "params": {
          "orders": "Orders to cancel"
        }
      },
      "clearBaseFee()": {
        "details": "clears base fee data"
      },
      "execute(((address,uint8,address,address,uint256,uint256,address,uint256,uint256,uint256,(uint16,address)[],uint256,bytes),uint8,bytes32,bytes32,bytes,uint8,uint256),((address,uint8,address,address,uint256,uint256,address,uint256,uint256,uint256,(uint16,address)[],uint256,bytes),uint8,bytes32,bytes32,bytes,uint8,uint256))": {
        "details": "Match two orders, ensuring validity of the match, and execute all associated state transitions. Protected against reentrancy by a contract-global lock.",
        "params": {
          "buy": "Buy input",
          "sell": "Sell input"
        }
      },
      "incrementNonce()": {
        "details": "Cancel all current orders for a user, preventing them from being matched. Must be called by the trader of the order"
      },
      "owner()": {
        "details": "Returns the address of the current owner."
      },
      "proxiableUUID()": {
        "details": "Implementation of the ERC1822 {proxiableUUID} function. This returns the storage slot used by the implementation. It is used to validate the implementation's compatibility when performing an upgrade. IMPORTANT: A proxy pointing at a proxiable contract should not be considered proxiable itself, because this risks bricking a proxy that upgrades to it, by delegating to itself until out of gas. Thus it is critical that this function revert if invoked through a proxy. This is guaranteed by the `notDelegated` modifier."
      },
      "renounceOwnership()": {
        "details": "Leaves the contract without owner. It will not be possible to call `onlyOwner` functions. Can only be called by the current owner. NOTE: Renouncing ownership will leave the contract without an owner, thereby disabling any functionality that is only available to the owner."
      },
      "transferOwnership(address)": {
        "details": "Transfers ownership of the contract to a new account (`newOwner`). Can only be called by the current owner."
      },
      "updateBaseFee((uint16,address)[])": {
        "details": "update base fees",
        "params": {
          "fees": "fees to update"
        }
      },
      "upgradeTo(address)": {
        "custom:oz-upgrades-unsafe-allow-reachable": "delegatecall",
        "details": "Upgrade the implementation of the proxy to `newImplementation`. Calls {_authorizeUpgrade}. Emits an {Upgraded} event."
      },
      "upgradeToAndCall(address,bytes)": {
        "custom:oz-upgrades-unsafe-allow-reachable": "delegatecall",
        "details": "Upgrade the implementation of the proxy to `newImplementation`, and subsequently execute the function call encoded in `data`. Calls {_authorizeUpgrade}. Emits an {Upgraded} event."
      }
    },
    "title": "Marketplace",
    "version": 1
  },
  "userdoc": {
    "kind": "user",
    "methods": {},
    "version": 1
  },
  "storageLayout": {
    "storage": [
      {
        "astId": 15099,
        "contract": "contracts/Marketplace.sol:Marketplace",
        "label": "_status",
        "offset": 0,
        "slot": "0",
        "type": "t_uint256"
      },
      {
        "astId": 14748,
        "contract": "contracts/Marketplace.sol:Marketplace",
        "label": "DOMAIN_SEPARATOR",
        "offset": 0,
        "slot": "1",
        "type": "t_bytes32"
      },
      {
        "astId": 503,
        "contract": "contracts/Marketplace.sol:Marketplace",
        "label": "_initialized",
        "offset": 0,
        "slot": "2",
        "type": "t_uint8"
      },
      {
        "astId": 506,
        "contract": "contracts/Marketplace.sol:Marketplace",
        "label": "_initializing",
        "offset": 1,
        "slot": "2",
        "type": "t_bool"
      },
      {
        "astId": 1172,
        "contract": "contracts/Marketplace.sol:Marketplace",
        "label": "__gap",
        "offset": 0,
        "slot": "3",
        "type": "t_array(t_uint256)50_storage"
      },
      {
        "astId": 10,
        "contract": "contracts/Marketplace.sol:Marketplace",
        "label": "_owner",
        "offset": 0,
        "slot": "53",
        "type": "t_address"
      },
      {
        "astId": 130,
        "contract": "contracts/Marketplace.sol:Marketplace",
        "label": "__gap",
        "offset": 0,
        "slot": "54",
        "type": "t_array(t_uint256)49_storage"
      },
      {
        "astId": 485,
        "contract": "contracts/Marketplace.sol:Marketplace",
        "label": "__gap",
        "offset": 0,
        "slot": "103",
        "type": "t_array(t_uint256)50_storage"
      },
      {
        "astId": 800,
        "contract": "contracts/Marketplace.sol:Marketplace",
        "label": "__gap",
        "offset": 0,
        "slot": "153",
        "type": "t_array(t_uint256)50_storage"
      },
      {
        "astId": 9933,
        "contract": "contracts/Marketplace.sol:Marketplace",
        "label": "isOpen",
        "offset": 0,
        "slot": "203",
        "type": "t_uint256"
      },
      {
        "astId": 9994,
        "contract": "contracts/Marketplace.sol:Marketplace",
        "label": "weth",
        "offset": 0,
        "slot": "204",
        "type": "t_address"
      },
      {
        "astId": 9997,
        "contract": "contracts/Marketplace.sol:Marketplace",
        "label": "executionDelegate",
        "offset": 0,
        "slot": "205",
        "type": "t_contract(IExecutionDelegate)14539"
      },
      {
        "astId": 10000,
        "contract": "contracts/Marketplace.sol:Marketplace",
        "label": "policyManager",
        "offset": 0,
        "slot": "206",
        "type": "t_contract(IPolicyManager)14706"
      },
      {
        "astId": 10002,
        "contract": "contracts/Marketplace.sol:Marketplace",
        "label": "oracle",
        "offset": 0,
        "slot": "207",
        "type": "t_address"
      },
      {
        "astId": 10004,
        "contract": "contracts/Marketplace.sol:Marketplace",
        "label": "blockRange",
        "offset": 0,
        "slot": "208",
        "type": "t_uint256"
      },
      {
        "astId": 10008,
        "contract": "contracts/Marketplace.sol:Marketplace",
        "label": "baseFee",
        "offset": 0,
        "slot": "209",
        "type": "t_array(t_struct(Fee)15144_storage)dyn_storage"
      },
      {
        "astId": 10012,
        "contract": "contracts/Marketplace.sol:Marketplace",
        "label": "cancelledOrFilled",
        "offset": 0,
        "slot": "210",
        "type": "t_mapping(t_bytes32,t_bool)"
      },
      {
        "astId": 10016,
        "contract": "contracts/Marketplace.sol:Marketplace",
        "label": "nonces",
        "offset": 0,
        "slot": "211",
        "type": "t_mapping(t_address,t_uint256)"
      }
    ],
    "types": {
      "t_address": {
        "encoding": "inplace",
        "label": "address",
        "numberOfBytes": "20"
      },
      "t_address_payable": {
        "encoding": "inplace",
        "label": "address payable",
        "numberOfBytes": "20"
      },
      "t_array(t_struct(Fee)15144_storage)dyn_storage": {
        "base": "t_struct(Fee)15144_storage",
        "encoding": "dynamic_array",
        "label": "struct Fee[]",
        "numberOfBytes": "32"
      },
      "t_array(t_uint256)49_storage": {
        "base": "t_uint256",
        "encoding": "inplace",
        "label": "uint256[49]",
        "numberOfBytes": "1568"
      },
      "t_array(t_uint256)50_storage": {
        "base": "t_uint256",
        "encoding": "inplace",
        "label": "uint256[50]",
        "numberOfBytes": "1600"
      },
      "t_bool": {
        "encoding": "inplace",
        "label": "bool",
        "numberOfBytes": "1"
      },
      "t_bytes32": {
        "encoding": "inplace",
        "label": "bytes32",
        "numberOfBytes": "32"
      },
      "t_contract(IExecutionDelegate)14539": {
        "encoding": "inplace",
        "label": "contract IExecutionDelegate",
        "numberOfBytes": "20"
      },
      "t_contract(IPolicyManager)14706": {
        "encoding": "inplace",
        "label": "contract IPolicyManager",
        "numberOfBytes": "20"
      },
      "t_mapping(t_address,t_uint256)": {
        "encoding": "mapping",
        "key": "t_address",
        "label": "mapping(address => uint256)",
        "numberOfBytes": "32",
        "value": "t_uint256"
      },
      "t_mapping(t_bytes32,t_bool)": {
        "encoding": "mapping",
        "key": "t_bytes32",
        "label": "mapping(bytes32 => bool)",
        "numberOfBytes": "32",
        "value": "t_bool"
      },
      "t_struct(Fee)15144_storage": {
        "encoding": "inplace",
        "label": "struct Fee",
        "members": [
          {
            "astId": 15141,
            "contract": "contracts/Marketplace.sol:Marketplace",
            "label": "rate",
            "offset": 0,
            "slot": "0",
            "type": "t_uint16"
          },
          {
            "astId": 15143,
            "contract": "contracts/Marketplace.sol:Marketplace",
            "label": "recipient",
            "offset": 2,
            "slot": "0",
            "type": "t_address_payable"
          }
        ],
        "numberOfBytes": "32"
      },
      "t_uint16": {
        "encoding": "inplace",
        "label": "uint16",
        "numberOfBytes": "2"
      },
      "t_uint256": {
        "encoding": "inplace",
        "label": "uint256",
        "numberOfBytes": "32"
      },
      "t_uint8": {
        "encoding": "inplace",
        "label": "uint8",
        "numberOfBytes": "1"
      }
    }
  }
}