{
  "address": "0x592fA4a81A8D06E52D377c1C2a248A5717d48d62",
  "abi": [
    {
      "inputs": [],
      "name": "InvalidProof",
      "type": "error"
    },
    {
      "inputs": [
        {
          "internalType": "bytes32",
          "name": "leaf",
          "type": "bytes32"
        },
        {
          "internalType": "bytes32[]",
          "name": "proof",
          "type": "bytes32[]"
        }
      ],
      "name": "_computeRoot",
      "outputs": [
        {
          "internalType": "bytes32",
          "name": "",
          "type": "bytes32"
        }
      ],
      "stateMutability": "pure",
      "type": "function"
    },
    {
      "inputs": [
        {
          "internalType": "bytes32",
          "name": "leaf",
          "type": "bytes32"
        },
        {
          "internalType": "bytes32",
          "name": "root",
          "type": "bytes32"
        },
        {
          "internalType": "bytes32[]",
          "name": "proof",
          "type": "bytes32[]"
        }
      ],
      "name": "_verifyProof",
      "outputs": [],
      "stateMutability": "pure",
      "type": "function"
    }
  ],
  "transactionHash": "0xb6777f64d405df3372a18d3c57c7144535d457babe38ba6f530247502cdf4754",
  "args": [],
  "numDeployments": 1,
  "solcInputHash": "fa97f7343770aacf15ca0c42476b72fe",
  "bytecode": "0x6102c861003a600b82828239805160001a60731461002d57634e487b7160e01b600052600060045260246000fd5b30600052607381538281f3fe73000000000000000000000000000000000000000030146080604052600436106100405760003560e01c806372aaadac146100455780639c7bf9381461005a575b600080fd5b6100586100533660046101e9565b61007f565b005b61006d610068366004610238565b6100b3565b60405190815260200160405180910390f35b600061008b84836100b3565b90508281146100ad576040516309bde33960e01b815260040160405180910390fd5b50505050565b600082815b83518110156100ff5760008482815181106100d5576100d561027e565b602002602001015190506100e98382610107565b92505080806100f790610294565b9150506100b8565b509392505050565b6000818310610123576000828152602084905260409020610132565b60008381526020839052604090205b9392505050565b634e487b7160e01b600052604160045260246000fd5b600082601f83011261016057600080fd5b813560206001600160401b038083111561017c5761017c610139565b8260051b604051601f19603f830116810181811084821117156101a1576101a1610139565b6040529384528581018301938381019250878511156101bf57600080fd5b83870191505b848210156101de578135835291830191908301906101c5565b979650505050505050565b6000806000606084860312156101fe57600080fd5b833592506020840135915060408401356001600160401b0381111561022257600080fd5b61022e8682870161014f565b9150509250925092565b6000806040838503121561024b57600080fd5b8235915060208301356001600160401b0381111561026857600080fd5b6102748582860161014f565b9150509250929050565b634e487b7160e01b600052603260045260246000fd5b6000600182016102b457634e487b7160e01b600052601160045260246000fd5b506001019056fea164736f6c6343000813000a",
  "devdoc": {
    "details": "Utility functions for Merkle tree computations",
    "kind": "dev",
    "methods": {
      "_computeRoot(bytes32,bytes32[])": {
        "details": "Compute the merkle root",
        "params": {
          "leaf": "leaf",
          "proof": "proof"
        }
      },
      "_verifyProof(bytes32,bytes32,bytes32[])": {
        "details": "Verify the merkle proof",
        "params": {
          "leaf": "leaf",
          "proof": "proof",
          "root": "root"
        }
      }
    },
    "title": "MerkleVerifier",
    "version": 1
  },
  "userdoc": {
    "kind": "user",
    "methods": {},
    "version": 1
  },
  "storageLayout": {
    "storage": [],
    "types": null
  }
}