{
  "address": "0x05b255D919a33E3071ada193cedf4a992F1e070e",
  "abi": [
    {
      "anonymous": false,
      "inputs": [
        {
          "indexed": true,
          "internalType": "address",
          "name": "account",
          "type": "address"
        },
        {
          "indexed": true,
          "internalType": "address",
          "name": "operator",
          "type": "address"
        },
        {
          "indexed": false,
          "internalType": "bool",
          "name": "approved",
          "type": "bool"
        }
      ],
      "name": "ApprovalForAll",
      "type": "event"
    },
    {
      "anonymous": false,
      "inputs": [
        {
          "indexed": true,
          "internalType": "address",
          "name": "operator",
          "type": "address"
        },
        {
          "indexed": true,
          "internalType": "address",
          "name": "from",
          "type": "address"
        },
        {
          "indexed": true,
          "internalType": "address",
          "name": "to",
          "type": "address"
        },
        {
          "indexed": false,
          "internalType": "uint256[]",
          "name": "ids",
          "type": "uint256[]"
        },
        {
          "indexed": false,
          "internalType": "uint256[]",
          "name": "values",
          "type": "uint256[]"
        }
      ],
      "name": "TransferBatch",
      "type": "event"
    },
    {
      "anonymous": false,
      "inputs": [
        {
          "indexed": true,
          "internalType": "address",
          "name": "operator",
          "type": "address"
        },
        {
          "indexed": true,
          "internalType": "address",
          "name": "from",
          "type": "address"
        },
        {
          "indexed": true,
          "internalType": "address",
          "name": "to",
          "type": "address"
        },
        {
          "indexed": false,
          "internalType": "uint256",
          "name": "id",
          "type": "uint256"
        },
        {
          "indexed": false,
          "internalType": "uint256",
          "name": "value",
          "type": "uint256"
        }
      ],
      "name": "TransferSingle",
      "type": "event"
    },
    {
      "anonymous": false,
      "inputs": [
        {
          "indexed": false,
          "internalType": "string",
          "name": "value",
          "type": "string"
        },
        {
          "indexed": true,
          "internalType": "uint256",
          "name": "id",
          "type": "uint256"
        }
      ],
      "name": "URI",
      "type": "event"
    },
    {
      "inputs": [
        {
          "internalType": "address",
          "name": "account",
          "type": "address"
        },
        {
          "internalType": "uint256",
          "name": "id",
          "type": "uint256"
        }
      ],
      "name": "balanceOf",
      "outputs": [
        {
          "internalType": "uint256",
          "name": "",
          "type": "uint256"
        }
      ],
      "stateMutability": "view",
      "type": "function"
    },
    {
      "inputs": [
        {
          "internalType": "address[]",
          "name": "accounts",
          "type": "address[]"
        },
        {
          "internalType": "uint256[]",
          "name": "ids",
          "type": "uint256[]"
        }
      ],
      "name": "balanceOfBatch",
      "outputs": [
        {
          "internalType": "uint256[]",
          "name": "",
          "type": "uint256[]"
        }
      ],
      "stateMutability": "view",
      "type": "function"
    },
    {
      "inputs": [
        {
          "internalType": "address",
          "name": "account",
          "type": "address"
        },
        {
          "internalType": "address",
          "name": "operator",
          "type": "address"
        }
      ],
      "name": "isApprovedForAll",
      "outputs": [
        {
          "internalType": "bool",
          "name": "",
          "type": "bool"
        }
      ],
      "stateMutability": "view",
      "type": "function"
    },
    {
      "inputs": [
        {
          "internalType": "address",
          "name": "to",
          "type": "address"
        },
        {
          "internalType": "uint256",
          "name": "tokenId",
          "type": "uint256"
        },
        {
          "internalType": "uint256",
          "name": "amount",
          "type": "uint256"
        }
      ],
      "name": "mint",
      "outputs": [
        {
          "internalType": "bool",
          "name": "",
          "type": "bool"
        }
      ],
      "stateMutability": "nonpayable",
      "type": "function"
    },
    {
      "inputs": [
        {
          "internalType": "address",
          "name": "from",
          "type": "address"
        },
        {
          "internalType": "address",
          "name": "to",
          "type": "address"
        },
        {
          "internalType": "uint256[]",
          "name": "ids",
          "type": "uint256[]"
        },
        {
          "internalType": "uint256[]",
          "name": "amounts",
          "type": "uint256[]"
        },
        {
          "internalType": "bytes",
          "name": "data",
          "type": "bytes"
        }
      ],
      "name": "safeBatchTransferFrom",
      "outputs": [],
      "stateMutability": "nonpayable",
      "type": "function"
    },
    {
      "inputs": [
        {
          "internalType": "address",
          "name": "from",
          "type": "address"
        },
        {
          "internalType": "address",
          "name": "to",
          "type": "address"
        },
        {
          "internalType": "uint256",
          "name": "id",
          "type": "uint256"
        },
        {
          "internalType": "uint256",
          "name": "amount",
          "type": "uint256"
        },
        {
          "internalType": "bytes",
          "name": "data",
          "type": "bytes"
        }
      ],
      "name": "safeTransferFrom",
      "outputs": [],
      "stateMutability": "nonpayable",
      "type": "function"
    },
    {
      "inputs": [
        {
          "internalType": "address",
          "name": "operator",
          "type": "address"
        },
        {
          "internalType": "bool",
          "name": "approved",
          "type": "bool"
        }
      ],
      "name": "setApprovalForAll",
      "outputs": [],
      "stateMutability": "nonpayable",
      "type": "function"
    },
    {
      "inputs": [
        {
          "internalType": "bytes4",
          "name": "interfaceId",
          "type": "bytes4"
        }
      ],
      "name": "supportsInterface",
      "outputs": [
        {
          "internalType": "bool",
          "name": "",
          "type": "bool"
        }
      ],
      "stateMutability": "view",
      "type": "function"
    },
    {
      "inputs": [
        {
          "internalType": "uint256",
          "name": "",
          "type": "uint256"
        }
      ],
      "name": "uri",
      "outputs": [
        {
          "internalType": "string",
          "name": "",
          "type": "string"
        }
      ],
      "stateMutability": "view",
      "type": "function"
    }
  ],
  "transactionHash": "0x7f541386b5132a35e0c135f333db033e5e35e71912faffd0326951994c20fa4e",
  "args": [],
  "numDeployments": 1,
  "solcInputHash": "cccdf0b470ac700871b8ba2c9b973ab7",
  "bytecode": "0x60806040523480156200001157600080fd5b506040805160208101909152600081526200002c8162000033565b50620001b6565b6002620000418282620000ea565b5050565b634e487b7160e01b600052604160045260246000fd5b600181811c908216806200007057607f821691505b6020821081036200009157634e487b7160e01b600052602260045260246000fd5b50919050565b601f821115620000e557600081815260208120601f850160051c81016020861015620000c05750805b601f850160051c820191505b81811015620000e157828155600101620000cc565b5050505b505050565b81516001600160401b0381111562000106576200010662000045565b6200011e816200011784546200005b565b8462000097565b602080601f8311600181146200015657600084156200013d5750858301515b600019600386901b1c1916600185901b178555620000e1565b600085815260208120601f198616915b82811015620001875788860151825594840194600190910190840162000166565b5085821015620001a65787850151600019600388901b60f8161c191681555b5050505050600190811b01905550565b6114dc80620001c66000396000f3fe608060405234801561001057600080fd5b50600436106100825760003560e01c8062fdd58e1461008757806301ffc9a7146100ad5780630e89341c146100d0578063156e29f6146100f05780632eb2c2d6146101035780634e1273f414610118578063a22cb46514610138578063e985e9c51461014b578063f242432a14610187575b600080fd5b61009a610095366004610c9c565b61019a565b6040519081526020015b60405180910390f35b6100c06100bb366004610cdf565b610233565b60405190151581526020016100a4565b6100e36100de366004610d03565b610283565b6040516100a49190610d62565b6100c06100fe366004610d75565b610317565b610116610111366004610ef1565b61033e565b005b61012b610126366004610f9a565b61038a565b6040516100a4919061109f565b6101166101463660046110b2565b6104b3565b6100c06101593660046110ee565b6001600160a01b03918216600090815260016020908152604080832093909416825291909152205460ff1690565b610116610195366004611121565b6104c2565b60006001600160a01b03831661020a5760405162461bcd60e51b815260206004820152602a60248201527f455243313135353a2061646472657373207a65726f206973206e6f742061207660448201526930b634b21037bbb732b960b11b60648201526084015b60405180910390fd5b506000818152602081815260408083206001600160a01b03861684529091529020545b92915050565b60006001600160e01b03198216636cdb3d1360e11b148061026457506001600160e01b031982166303a24d0760e21b145b8061022d57506301ffc9a760e01b6001600160e01b031983161461022d565b60606002805461029290611185565b80601f01602080910402602001604051908101604052809291908181526020018280546102be90611185565b801561030b5780601f106102e05761010080835404028352916020019161030b565b820191906000526020600020905b8154815290600101906020018083116102ee57829003601f168201915b50505050509050919050565b600061033484848460405180602001604052806000815250610507565b5060019392505050565b6001600160a01b03851633148061035a575061035a8533610159565b6103765760405162461bcd60e51b8152600401610201906111bf565b610383858585858561061b565b5050505050565b606081518351146103ef5760405162461bcd60e51b815260206004820152602960248201527f455243313135353a206163636f756e747320616e6420696473206c656e677468604482015268040dad2e6dac2e8c6d60bb1b6064820152608401610201565b600083516001600160401b0381111561040a5761040a610da8565b604051908082528060200260200182016040528015610433578160200160208202803683370190505b50905060005b84518110156104ab5761047e8582815181106104575761045761120d565b60200260200101518583815181106104715761047161120d565b602002602001015161019a565b8282815181106104905761049061120d565b60209081029190910101526104a481611239565b9050610439565b509392505050565b6104be3383836107f8565b5050565b6001600160a01b0385163314806104de57506104de8533610159565b6104fa5760405162461bcd60e51b8152600401610201906111bf565b61038385858585856108d8565b6001600160a01b0384166105675760405162461bcd60e51b815260206004820152602160248201527f455243313135353a206d696e7420746f20746865207a65726f206164647265736044820152607360f81b6064820152608401610201565b33600061057385610a02565b9050600061058085610a02565b90506000868152602081815260408083206001600160a01b038b168452909152812080548792906105b2908490611252565b909155505060408051878152602081018790526001600160a01b03808a1692600092918716917fc3d58168c5ae7397731d063d5bbf3d657854427343f4c083240f7aacaa2d0f62910160405180910390a461061283600089898989610a4d565b50505050505050565b815183511461067d5760405162461bcd60e51b815260206004820152602860248201527f455243313135353a2069647320616e6420616d6f756e7473206c656e677468206044820152670dad2e6dac2e8c6d60c31b6064820152608401610201565b6001600160a01b0384166106a35760405162461bcd60e51b815260040161020190611265565b3360005b845181101561078a5760008582815181106106c4576106c461120d565b6020026020010151905060008583815181106106e2576106e261120d565b602090810291909101810151600084815280835260408082206001600160a01b038e1683529093529190912054909150818110156107325760405162461bcd60e51b8152600401610201906112aa565b6000838152602081815260408083206001600160a01b038e8116855292528083208585039055908b1682528120805484929061076f908490611252565b925050819055505050508061078390611239565b90506106a7565b50846001600160a01b0316866001600160a01b0316826001600160a01b03167f4a39dc06d4c0dbc64b70af90fd698a233a518aa5d07e595d983b8c0526c8f7fb87876040516107da9291906112f4565b60405180910390a46107f0818787878787610baf565b505050505050565b816001600160a01b0316836001600160a01b03160361086b5760405162461bcd60e51b815260206004820152602960248201527f455243313135353a2073657474696e6720617070726f76616c20737461747573604482015268103337b91039b2b63360b91b6064820152608401610201565b6001600160a01b03838116600081815260016020908152604080832094871680845294825291829020805460ff191686151590811790915591519182527f17307eab39ab6107e8899845ad3d59bd9653f200f220920489ca2b5937696c31910160405180910390a3505050565b6001600160a01b0384166108fe5760405162461bcd60e51b815260040161020190611265565b33600061090a85610a02565b9050600061091785610a02565b90506000868152602081815260408083206001600160a01b038c1684529091529020548581101561095a5760405162461bcd60e51b8152600401610201906112aa565b6000878152602081815260408083206001600160a01b038d8116855292528083208985039055908a16825281208054889290610997908490611252565b909155505060408051888152602081018890526001600160a01b03808b16928c821692918816917fc3d58168c5ae7397731d063d5bbf3d657854427343f4c083240f7aacaa2d0f62910160405180910390a46109f7848a8a8a8a8a610a4d565b505050505050505050565b60408051600180825281830190925260609160009190602080830190803683370190505090508281600081518110610a3c57610a3c61120d565b602090810291909101015292915050565b610a5f846001600160a01b0316610c71565b156107f05760405163f23a6e6160e01b81526001600160a01b0385169063f23a6e6190610a989089908990889088908890600401611322565b6020604051808303816000875af1925050508015610ad3575060408051601f3d908101601f19168201909252610ad091810190611367565b60015b610b7f57610adf611384565b806308c379a003610b185750610af36113a0565b80610afe5750610b1a565b8060405162461bcd60e51b81526004016102019190610d62565b505b60405162461bcd60e51b815260206004820152603460248201527f455243313135353a207472616e7366657220746f206e6f6e2d455243313135356044820152732932b1b2b4bb32b91034b6b83632b6b2b73a32b960611b6064820152608401610201565b6001600160e01b0319811663f23a6e6160e01b146106125760405162461bcd60e51b815260040161020190611429565b610bc1846001600160a01b0316610c71565b156107f05760405163bc197c8160e01b81526001600160a01b0385169063bc197c8190610bfa9089908990889088908890600401611471565b6020604051808303816000875af1925050508015610c35575060408051601f3d908101601f19168201909252610c3291810190611367565b60015b610c4157610adf611384565b6001600160e01b0319811663bc197c8160e01b146106125760405162461bcd60e51b815260040161020190611429565b6001600160a01b03163b151590565b80356001600160a01b0381168114610c9757600080fd5b919050565b60008060408385031215610caf57600080fd5b610cb883610c80565b946020939093013593505050565b6001600160e01b031981168114610cdc57600080fd5b50565b600060208284031215610cf157600080fd5b8135610cfc81610cc6565b9392505050565b600060208284031215610d1557600080fd5b5035919050565b6000815180845260005b81811015610d4257602081850181015186830182015201610d26565b506000602082860101526020601f19601f83011685010191505092915050565b602081526000610cfc6020830184610d1c565b600080600060608486031215610d8a57600080fd5b610d9384610c80565b95602085013595506040909401359392505050565b634e487b7160e01b600052604160045260246000fd5b601f8201601f191681016001600160401b0381118282101715610de357610de3610da8565b6040525050565b60006001600160401b03821115610e0357610e03610da8565b5060051b60200190565b600082601f830112610e1e57600080fd5b81356020610e2b82610dea565b604051610e388282610dbe565b83815260059390931b8501820192828101915086841115610e5857600080fd5b8286015b84811015610e735780358352918301918301610e5c565b509695505050505050565b600082601f830112610e8f57600080fd5b81356001600160401b03811115610ea857610ea8610da8565b604051610ebf601f8301601f191660200182610dbe565b818152846020838601011115610ed457600080fd5b816020850160208301376000918101602001919091529392505050565b600080600080600060a08688031215610f0957600080fd5b610f1286610c80565b9450610f2060208701610c80565b935060408601356001600160401b0380821115610f3c57600080fd5b610f4889838a01610e0d565b94506060880135915080821115610f5e57600080fd5b610f6a89838a01610e0d565b93506080880135915080821115610f8057600080fd5b50610f8d88828901610e7e565b9150509295509295909350565b60008060408385031215610fad57600080fd5b82356001600160401b0380821115610fc457600080fd5b818501915085601f830112610fd857600080fd5b81356020610fe582610dea565b604051610ff28282610dbe565b83815260059390931b850182019282810191508984111561101257600080fd5b948201945b838610156110375761102886610c80565b82529482019490820190611017565b9650508601359250508082111561104d57600080fd5b5061105a85828601610e0d565b9150509250929050565b600081518084526020808501945080840160005b8381101561109457815187529582019590820190600101611078565b509495945050505050565b602081526000610cfc6020830184611064565b600080604083850312156110c557600080fd5b6110ce83610c80565b9150602083013580151581146110e357600080fd5b809150509250929050565b6000806040838503121561110157600080fd5b61110a83610c80565b915061111860208401610c80565b90509250929050565b600080600080600060a0868803121561113957600080fd5b61114286610c80565b945061115060208701610c80565b9350604086013592506060860135915060808601356001600160401b0381111561117957600080fd5b610f8d88828901610e7e565b600181811c9082168061119957607f821691505b6020821081036111b957634e487b7160e01b600052602260045260246000fd5b50919050565b6020808252602e908201527f455243313135353a2063616c6c6572206973206e6f7420746f6b656e206f776e60408201526d195c881bdc88185c1c1c9bdd995960921b606082015260800190565b634e487b7160e01b600052603260045260246000fd5b634e487b7160e01b600052601160045260246000fd5b60006001820161124b5761124b611223565b5060010190565b8082018082111561022d5761022d611223565b60208082526025908201527f455243313135353a207472616e7366657220746f20746865207a65726f206164604082015264647265737360d81b606082015260800190565b6020808252602a908201527f455243313135353a20696e73756666696369656e742062616c616e636520666f60408201526939103a3930b739b332b960b11b606082015260800190565b6040815260006113076040830185611064565b82810360208401526113198185611064565b95945050505050565b6001600160a01b03868116825285166020820152604081018490526060810183905260a06080820181905260009061135c90830184610d1c565b979650505050505050565b60006020828403121561137957600080fd5b8151610cfc81610cc6565b600060033d111561139d5760046000803e5060005160e01c5b90565b600060443d10156113ae5790565b6040516003193d81016004833e81513d6001600160401b0381602484011181841117156113dd57505050505090565b82850191508151818111156113f55750505050505090565b843d870101602082850101111561140f5750505050505090565b61141e60208286010187610dbe565b509095945050505050565b60208082526028908201527f455243313135353a204552433131353552656365697665722072656a656374656040820152676420746f6b656e7360c01b606082015260800190565b6001600160a01b0386811682528516602082015260a06040820181905260009061149d90830186611064565b82810360608401526114af8186611064565b905082810360808401526114c38185610d1c565b9897505050505050505056fea164736f6c6343000813000a",
  "devdoc": {
    "events": {
      "ApprovalForAll(address,address,bool)": {
        "details": "Emitted when `account` grants or revokes permission to `operator` to transfer their tokens, according to `approved`."
      },
      "TransferBatch(address,address,address,uint256[],uint256[])": {
        "details": "Equivalent to multiple {TransferSingle} events, where `operator`, `from` and `to` are the same for all transfers."
      },
      "TransferSingle(address,address,address,uint256,uint256)": {
        "details": "Emitted when `value` tokens of token type `id` are transferred from `from` to `to` by `operator`."
      },
      "URI(string,uint256)": {
        "details": "Emitted when the URI for token type `id` changes to `value`, if it is a non-programmatic URI. If an {URI} event was emitted for `id`, the standard https://eips.ethereum.org/EIPS/eip-1155#metadata-extensions[guarantees] that `value` will equal the value returned by {IERC1155MetadataURI-uri}."
      }
    },
    "kind": "dev",
    "methods": {
      "balanceOf(address,uint256)": {
        "details": "See {IERC1155-balanceOf}. Requirements: - `account` cannot be the zero address."
      },
      "balanceOfBatch(address[],uint256[])": {
        "details": "See {IERC1155-balanceOfBatch}. Requirements: - `accounts` and `ids` must have the same length."
      },
      "isApprovedForAll(address,address)": {
        "details": "See {IERC1155-isApprovedForAll}."
      },
      "safeBatchTransferFrom(address,address,uint256[],uint256[],bytes)": {
        "details": "See {IERC1155-safeBatchTransferFrom}."
      },
      "safeTransferFrom(address,address,uint256,uint256,bytes)": {
        "details": "See {IERC1155-safeTransferFrom}."
      },
      "setApprovalForAll(address,bool)": {
        "details": "See {IERC1155-setApprovalForAll}."
      },
      "supportsInterface(bytes4)": {
        "details": "See {IERC165-supportsInterface}."
      },
      "uri(uint256)": {
        "details": "See {IERC1155MetadataURI-uri}. This implementation returns the same URI for *all* token types. It relies on the token type ID substitution mechanism https://eips.ethereum.org/EIPS/eip-1155#metadata[defined in the EIP]. Clients calling this function must replace the `\\{id\\}` substring with the actual token type ID."
      }
    },
    "version": 1
  },
  "userdoc": {
    "kind": "user",
    "methods": {},
    "version": 1
  },
  "storageLayout": {
    "storage": [
      {
        "astId": 2226,
        "contract": "contracts/Mocks/MockERC1155.sol:MockERC1155",
        "label": "_balances",
        "offset": 0,
        "slot": "0",
        "type": "t_mapping(t_uint256,t_mapping(t_address,t_uint256))"
      },
      {
        "astId": 2232,
        "contract": "contracts/Mocks/MockERC1155.sol:MockERC1155",
        "label": "_operatorApprovals",
        "offset": 0,
        "slot": "1",
        "type": "t_mapping(t_address,t_mapping(t_address,t_bool))"
      },
      {
        "astId": 2234,
        "contract": "contracts/Mocks/MockERC1155.sol:MockERC1155",
        "label": "_uri",
        "offset": 0,
        "slot": "2",
        "type": "t_string_storage"
      }
    ],
    "types": {
      "t_address": {
        "encoding": "inplace",
        "label": "address",
        "numberOfBytes": "20"
      },
      "t_bool": {
        "encoding": "inplace",
        "label": "bool",
        "numberOfBytes": "1"
      },
      "t_mapping(t_address,t_bool)": {
        "encoding": "mapping",
        "key": "t_address",
        "label": "mapping(address => bool)",
        "numberOfBytes": "32",
        "value": "t_bool"
      },
      "t_mapping(t_address,t_mapping(t_address,t_bool))": {
        "encoding": "mapping",
        "key": "t_address",
        "label": "mapping(address => mapping(address => bool))",
        "numberOfBytes": "32",
        "value": "t_mapping(t_address,t_bool)"
      },
      "t_mapping(t_address,t_uint256)": {
        "encoding": "mapping",
        "key": "t_address",
        "label": "mapping(address => uint256)",
        "numberOfBytes": "32",
        "value": "t_uint256"
      },
      "t_mapping(t_uint256,t_mapping(t_address,t_uint256))": {
        "encoding": "mapping",
        "key": "t_uint256",
        "label": "mapping(uint256 => mapping(address => uint256))",
        "numberOfBytes": "32",
        "value": "t_mapping(t_address,t_uint256)"
      },
      "t_string_storage": {
        "encoding": "bytes",
        "label": "string",
        "numberOfBytes": "32"
      },
      "t_uint256": {
        "encoding": "inplace",
        "label": "uint256",
        "numberOfBytes": "32"
      }
    }
  }
}