{
  "address": "0xBdC07b4d85a52142BC2362221d47D61b9D9a759c",
  "abi": [
    {
      "anonymous": false,
      "inputs": [
        {
          "indexed": true,
          "internalType": "address",
          "name": "previousOwner",
          "type": "address"
        },
        {
          "indexed": true,
          "internalType": "address",
          "name": "newOwner",
          "type": "address"
        }
      ],
      "name": "OwnershipTransferred",
      "type": "event"
    },
    {
      "anonymous": false,
      "inputs": [
        {
          "indexed": true,
          "internalType": "address",
          "name": "policy",
          "type": "address"
        }
      ],
      "name": "PolicyRemoved",
      "type": "event"
    },
    {
      "anonymous": false,
      "inputs": [
        {
          "indexed": true,
          "internalType": "address",
          "name": "policy",
          "type": "address"
        }
      ],
      "name": "PolicyWhitelisted",
      "type": "event"
    },
    {
      "inputs": [
        {
          "internalType": "address",
          "name": "policy",
          "type": "address"
        }
      ],
      "name": "addPolicy",
      "outputs": [],
      "stateMutability": "nonpayable",
      "type": "function"
    },
    {
      "inputs": [
        {
          "internalType": "address",
          "name": "policy",
          "type": "address"
        }
      ],
      "name": "isPolicyWhitelisted",
      "outputs": [
        {
          "internalType": "bool",
          "name": "",
          "type": "bool"
        }
      ],
      "stateMutability": "view",
      "type": "function"
    },
    {
      "inputs": [],
      "name": "owner",
      "outputs": [
        {
          "internalType": "address",
          "name": "",
          "type": "address"
        }
      ],
      "stateMutability": "view",
      "type": "function"
    },
    {
      "inputs": [
        {
          "internalType": "address",
          "name": "policy",
          "type": "address"
        }
      ],
      "name": "removePolicy",
      "outputs": [],
      "stateMutability": "nonpayable",
      "type": "function"
    },
    {
      "inputs": [],
      "name": "renounceOwnership",
      "outputs": [],
      "stateMutability": "nonpayable",
      "type": "function"
    },
    {
      "inputs": [
        {
          "internalType": "address",
          "name": "newOwner",
          "type": "address"
        }
      ],
      "name": "transferOwnership",
      "outputs": [],
      "stateMutability": "nonpayable",
      "type": "function"
    },
    {
      "inputs": [],
      "name": "viewCountWhitelistedPolicies",
      "outputs": [
        {
          "internalType": "uint256",
          "name": "",
          "type": "uint256"
        }
      ],
      "stateMutability": "view",
      "type": "function"
    },
    {
      "inputs": [
        {
          "internalType": "uint256",
          "name": "cursor",
          "type": "uint256"
        },
        {
          "internalType": "uint256",
          "name": "size",
          "type": "uint256"
        }
      ],
      "name": "viewWhitelistedPolicies",
      "outputs": [
        {
          "internalType": "address[]",
          "name": "",
          "type": "address[]"
        },
        {
          "internalType": "uint256",
          "name": "",
          "type": "uint256"
        }
      ],
      "stateMutability": "view",
      "type": "function"
    }
  ],
  "transactionHash": "0xb3c0e5e5fbf52c7ac73001c6cf482015c2f6e34364e7ec60046bd41686661012",
  "args": [],
  "numDeployments": 1,
  "solcInputHash": "cccdf0b470ac700871b8ba2c9b973ab7",
  "bytecode": "0x608060405234801561001057600080fd5b5061001a3361001f565b61006f565b600080546001600160a01b038381166001600160a01b0319831681178455604051919092169283917f8be0079c531659141344cd1fd0a4f28419497f9722a3daafe3b4186f6b6457e09190a35050565b6107ee8061007e6000396000f3fe608060405234801561001057600080fd5b50600436106100785760003560e01c8063715018a61461007d578063747f54ae1461008757806378d38d82146100b1578063874516cd146100c45780638da5cb5b146100e7578063b84ef08114610107578063d6f0d88e1461011a578063f2fde38b14610130575b600080fd5b610085610143565b005b61009a6100953660046106ae565b610157565b6040516100a89291906106d0565b60405180910390f35b6100856100bf366004610721565b61024c565b6100d76100d2366004610721565b6102e5565b60405190151581526020016100a8565b6100ef6102f8565b6040516001600160a01b0390911681526020016100a8565b610085610115366004610721565b610307565b6101226103a0565b6040519081526020016100a8565b61008561013e366004610721565b6103b1565b61014b61042a565b6101556000610489565b565b60606000828461016760016104d9565b6101719190610760565b811115610190578461018360016104d9565b61018d9190610760565b90505b60008167ffffffffffffffff8111156101ab576101ab610773565b6040519080825280602002602001820160405280156101d4578160200160208202803683370190505b50905060005b82811015610233576101f76101ef8289610789565b6001906104e3565b8282815181106102095761020961079c565b6001600160a01b03909216602092830291909101909101528061022b816107b2565b9150506101da565b508061023f8388610789565b9350935050509250929050565b61025461042a565b61025f6001826104f6565b6102a25760405162461bcd60e51b815260206004820152600f60248201526e139bdd081dda1a5d195b1a5cdd1959608a1b60448201526064015b60405180910390fd5b6102ad600182610518565b506040516001600160a01b038216907f7d69543e56287cc6159e1cd00d200f2d86996b94ef9a170c4ec9a31daa6dd2ce90600090a250565b60006102f26001836104f6565b92915050565b6000546001600160a01b031690565b61030f61042a565b61031a6001826104f6565b1561035d5760405162461bcd60e51b8152602060048201526013602482015272105b1c9958591e481dda1a5d195b1a5cdd1959606a1b6044820152606401610299565b61036860018261052d565b506040516001600160a01b038216907f5b5592d50e950152eab424f0fde17ba8b36801c96694a656ca54c6ffd149980890600090a250565b60006103ac60016104d9565b905090565b6103b961042a565b6001600160a01b03811661041e5760405162461bcd60e51b815260206004820152602660248201527f4f776e61626c653a206e6577206f776e657220697320746865207a65726f206160448201526564647265737360d01b6064820152608401610299565b61042781610489565b50565b336104336102f8565b6001600160a01b0316146101555760405162461bcd60e51b815260206004820181905260248201527f4f776e61626c653a2063616c6c6572206973206e6f7420746865206f776e65726044820152606401610299565b600080546001600160a01b038381166001600160a01b0319831681178455604051919092169283917f8be0079c531659141344cd1fd0a4f28419497f9722a3daafe3b4186f6b6457e09190a35050565b60006102f2825490565b60006104ef8383610542565b9392505050565b6001600160a01b038116600090815260018301602052604081205415156104ef565b60006104ef836001600160a01b03841661056c565b60006104ef836001600160a01b03841661065f565b60008260000182815481106105595761055961079c565b9060005260206000200154905092915050565b60008181526001830160205260408120548015610655576000610590600183610760565b85549091506000906105a490600190610760565b90508181146106095760008660000182815481106105c4576105c461079c565b90600052602060002001549050808760000184815481106105e7576105e761079c565b6000918252602080832090910192909255918252600188019052604090208390555b855486908061061a5761061a6107cb565b6001900381819060005260206000200160009055905585600101600086815260200190815260200160002060009055600193505050506102f2565b60009150506102f2565b60008181526001830160205260408120546106a6575081546001818101845560008481526020808220909301849055845484825282860190935260409020919091556102f2565b5060006102f2565b600080604083850312156106c157600080fd5b50508035926020909101359150565b604080825283519082018190526000906020906060840190828701845b828110156107125781516001600160a01b0316845292840192908401906001016106ed565b50505092019290925292915050565b60006020828403121561073357600080fd5b81356001600160a01b03811681146104ef57600080fd5b634e487b7160e01b600052601160045260246000fd5b818103818111156102f2576102f261074a565b634e487b7160e01b600052604160045260246000fd5b808201808211156102f2576102f261074a565b634e487b7160e01b600052603260045260246000fd5b6000600182016107c4576107c461074a565b5060010190565b634e487b7160e01b600052603160045260246000fdfea164736f6c6343000813000a",
  "devdoc": {
    "details": "Manages the policy whitelist for the marketplace",
    "kind": "dev",
    "methods": {
      "addPolicy(address)": {
        "params": {
          "policy": "address of policy to add"
        }
      },
      "isPolicyWhitelisted(address)": {
        "params": {
          "policy": "address of the policy to check"
        }
      },
      "owner()": {
        "details": "Returns the address of the current owner."
      },
      "removePolicy(address)": {
        "params": {
          "policy": "address of policy to remove"
        }
      },
      "renounceOwnership()": {
        "details": "Leaves the contract without owner. It will not be possible to call `onlyOwner` functions. Can only be called by the current owner. NOTE: Renouncing ownership will leave the contract without an owner, thereby disabling any functionality that is only available to the owner."
      },
      "transferOwnership(address)": {
        "details": "Transfers ownership of the contract to a new account (`newOwner`). Can only be called by the current owner."
      },
      "viewWhitelistedPolicies(uint256,uint256)": {
        "params": {
          "cursor": "cursor",
          "size": "size"
        }
      }
    },
    "title": "PolicyManager",
    "version": 1
  },
  "userdoc": {
    "kind": "user",
    "methods": {
      "addPolicy(address)": {
        "notice": "Add matching policy"
      },
      "isPolicyWhitelisted(address)": {
        "notice": "Returns if a policy has been added"
      },
      "removePolicy(address)": {
        "notice": "Remove matching policy"
      },
      "viewCountWhitelistedPolicies()": {
        "notice": "View number of whitelisted policies"
      },
      "viewWhitelistedPolicies(uint256,uint256)": {
        "notice": "See whitelisted policies"
      }
    },
    "version": 1
  },
  "storageLayout": {
    "storage": [
      {
        "astId": 1291,
        "contract": "contracts/PolicyManager.sol:PolicyManager",
        "label": "_owner",
        "offset": 0,
        "slot": "0",
        "type": "t_address"
      },
      {
        "astId": 14108,
        "contract": "contracts/PolicyManager.sol:PolicyManager",
        "label": "_whitelistedPolicies",
        "offset": 0,
        "slot": "1",
        "type": "t_struct(AddressSet)8754_storage"
      }
    ],
    "types": {
      "t_address": {
        "encoding": "inplace",
        "label": "address",
        "numberOfBytes": "20"
      },
      "t_array(t_bytes32)dyn_storage": {
        "base": "t_bytes32",
        "encoding": "dynamic_array",
        "label": "bytes32[]",
        "numberOfBytes": "32"
      },
      "t_bytes32": {
        "encoding": "inplace",
        "label": "bytes32",
        "numberOfBytes": "32"
      },
      "t_mapping(t_bytes32,t_uint256)": {
        "encoding": "mapping",
        "key": "t_bytes32",
        "label": "mapping(bytes32 => uint256)",
        "numberOfBytes": "32",
        "value": "t_uint256"
      },
      "t_struct(AddressSet)8754_storage": {
        "encoding": "inplace",
        "label": "struct EnumerableSet.AddressSet",
        "members": [
          {
            "astId": 8753,
            "contract": "contracts/PolicyManager.sol:PolicyManager",
            "label": "_inner",
            "offset": 0,
            "slot": "0",
            "type": "t_struct(Set)8439_storage"
          }
        ],
        "numberOfBytes": "64"
      },
      "t_struct(Set)8439_storage": {
        "encoding": "inplace",
        "label": "struct EnumerableSet.Set",
        "members": [
          {
            "astId": 8434,
            "contract": "contracts/PolicyManager.sol:PolicyManager",
            "label": "_values",
            "offset": 0,
            "slot": "0",
            "type": "t_array(t_bytes32)dyn_storage"
          },
          {
            "astId": 8438,
            "contract": "contracts/PolicyManager.sol:PolicyManager",
            "label": "_indexes",
            "offset": 0,
            "slot": "1",
            "type": "t_mapping(t_bytes32,t_uint256)"
          }
        ],
        "numberOfBytes": "64"
      },
      "t_uint256": {
        "encoding": "inplace",
        "label": "uint256",
        "numberOfBytes": "32"
      }
    }
  }
}