{
  "address": "0xC410EcEB8876e54E4A5a85cdeAabe84BB2975296",
  "abi": [
    {
      "inputs": [
        {
          "components": [
            {
              "internalType": "address",
              "name": "trader",
              "type": "address"
            },
            {
              "internalType": "enum Side",
              "name": "side",
              "type": "uint8"
            },
            {
              "internalType": "address",
              "name": "matchingPolicy",
              "type": "address"
            },
            {
              "internalType": "address",
              "name": "collection",
              "type": "address"
            },
            {
              "internalType": "uint256",
              "name": "tokenId",
              "type": "uint256"
            },
            {
              "internalType": "uint256",
              "name": "amount",
              "type": "uint256"
            },
            {
              "internalType": "address",
              "name": "paymentToken",
              "type": "address"
            },
            {
              "internalType": "uint256",
              "name": "price",
              "type": "uint256"
            },
            {
              "internalType": "uint256",
              "name": "listingTime",
              "type": "uint256"
            },
            {
              "internalType": "uint256",
              "name": "expirationTime",
              "type": "uint256"
            },
            {
              "components": [
                {
                  "internalType": "uint16",
                  "name": "rate",
                  "type": "uint16"
                },
                {
                  "internalType": "address payable",
                  "name": "recipient",
                  "type": "address"
                }
              ],
              "internalType": "struct Fee[]",
              "name": "fees",
              "type": "tuple[]"
            },
            {
              "internalType": "uint256",
              "name": "salt",
              "type": "uint256"
            },
            {
              "internalType": "bytes",
              "name": "extraParams",
              "type": "bytes"
            }
          ],
          "internalType": "struct Order",
          "name": "makerAsk",
          "type": "tuple"
        },
        {
          "components": [
            {
              "internalType": "address",
              "name": "trader",
              "type": "address"
            },
            {
              "internalType": "enum Side",
              "name": "side",
              "type": "uint8"
            },
            {
              "internalType": "address",
              "name": "matchingPolicy",
              "type": "address"
            },
            {
              "internalType": "address",
              "name": "collection",
              "type": "address"
            },
            {
              "internalType": "uint256",
              "name": "tokenId",
              "type": "uint256"
            },
            {
              "internalType": "uint256",
              "name": "amount",
              "type": "uint256"
            },
            {
              "internalType": "address",
              "name": "paymentToken",
              "type": "address"
            },
            {
              "internalType": "uint256",
              "name": "price",
              "type": "uint256"
            },
            {
              "internalType": "uint256",
              "name": "listingTime",
              "type": "uint256"
            },
            {
              "internalType": "uint256",
              "name": "expirationTime",
              "type": "uint256"
            },
            {
              "components": [
                {
                  "internalType": "uint16",
                  "name": "rate",
                  "type": "uint16"
                },
                {
                  "internalType": "address payable",
                  "name": "recipient",
                  "type": "address"
                }
              ],
              "internalType": "struct Fee[]",
              "name": "fees",
              "type": "tuple[]"
            },
            {
              "internalType": "uint256",
              "name": "salt",
              "type": "uint256"
            },
            {
              "internalType": "bytes",
              "name": "extraParams",
              "type": "bytes"
            }
          ],
          "internalType": "struct Order",
          "name": "takerBid",
          "type": "tuple"
        }
      ],
      "name": "canMatchMakerAsk",
      "outputs": [
        {
          "internalType": "bool",
          "name": "",
          "type": "bool"
        },
        {
          "internalType": "uint256",
          "name": "",
          "type": "uint256"
        },
        {
          "internalType": "uint256",
          "name": "",
          "type": "uint256"
        },
        {
          "internalType": "uint256",
          "name": "",
          "type": "uint256"
        },
        {
          "internalType": "enum AssetType",
          "name": "",
          "type": "uint8"
        }
      ],
      "stateMutability": "pure",
      "type": "function"
    },
    {
      "inputs": [
        {
          "components": [
            {
              "internalType": "address",
              "name": "trader",
              "type": "address"
            },
            {
              "internalType": "enum Side",
              "name": "side",
              "type": "uint8"
            },
            {
              "internalType": "address",
              "name": "matchingPolicy",
              "type": "address"
            },
            {
              "internalType": "address",
              "name": "collection",
              "type": "address"
            },
            {
              "internalType": "uint256",
              "name": "tokenId",
              "type": "uint256"
            },
            {
              "internalType": "uint256",
              "name": "amount",
              "type": "uint256"
            },
            {
              "internalType": "address",
              "name": "paymentToken",
              "type": "address"
            },
            {
              "internalType": "uint256",
              "name": "price",
              "type": "uint256"
            },
            {
              "internalType": "uint256",
              "name": "listingTime",
              "type": "uint256"
            },
            {
              "internalType": "uint256",
              "name": "expirationTime",
              "type": "uint256"
            },
            {
              "components": [
                {
                  "internalType": "uint16",
                  "name": "rate",
                  "type": "uint16"
                },
                {
                  "internalType": "address payable",
                  "name": "recipient",
                  "type": "address"
                }
              ],
              "internalType": "struct Fee[]",
              "name": "fees",
              "type": "tuple[]"
            },
            {
              "internalType": "uint256",
              "name": "salt",
              "type": "uint256"
            },
            {
              "internalType": "bytes",
              "name": "extraParams",
              "type": "bytes"
            }
          ],
          "internalType": "struct Order",
          "name": "makerBid",
          "type": "tuple"
        },
        {
          "components": [
            {
              "internalType": "address",
              "name": "trader",
              "type": "address"
            },
            {
              "internalType": "enum Side",
              "name": "side",
              "type": "uint8"
            },
            {
              "internalType": "address",
              "name": "matchingPolicy",
              "type": "address"
            },
            {
              "internalType": "address",
              "name": "collection",
              "type": "address"
            },
            {
              "internalType": "uint256",
              "name": "tokenId",
              "type": "uint256"
            },
            {
              "internalType": "uint256",
              "name": "amount",
              "type": "uint256"
            },
            {
              "internalType": "address",
              "name": "paymentToken",
              "type": "address"
            },
            {
              "internalType": "uint256",
              "name": "price",
              "type": "uint256"
            },
            {
              "internalType": "uint256",
              "name": "listingTime",
              "type": "uint256"
            },
            {
              "internalType": "uint256",
              "name": "expirationTime",
              "type": "uint256"
            },
            {
              "components": [
                {
                  "internalType": "uint16",
                  "name": "rate",
                  "type": "uint16"
                },
                {
                  "internalType": "address payable",
                  "name": "recipient",
                  "type": "address"
                }
              ],
              "internalType": "struct Fee[]",
              "name": "fees",
              "type": "tuple[]"
            },
            {
              "internalType": "uint256",
              "name": "salt",
              "type": "uint256"
            },
            {
              "internalType": "bytes",
              "name": "extraParams",
              "type": "bytes"
            }
          ],
          "internalType": "struct Order",
          "name": "takerAsk",
          "type": "tuple"
        }
      ],
      "name": "canMatchMakerBid",
      "outputs": [
        {
          "internalType": "bool",
          "name": "",
          "type": "bool"
        },
        {
          "internalType": "uint256",
          "name": "",
          "type": "uint256"
        },
        {
          "internalType": "uint256",
          "name": "",
          "type": "uint256"
        },
        {
          "internalType": "uint256",
          "name": "",
          "type": "uint256"
        },
        {
          "internalType": "enum AssetType",
          "name": "",
          "type": "uint8"
        }
      ],
      "stateMutability": "pure",
      "type": "function"
    }
  ],
  "transactionHash": "0x54e92969524caea25b3a168613eb3b672c718e5e329cb5d9ebfa18fc2a88a60e",
  "args": [],
  "numDeployments": 1,
  "solcInputHash": "cccdf0b470ac700871b8ba2c9b973ab7",
  "bytecode": "0x608060405234801561001057600080fd5b506102e2806100206000396000f3fe608060405234801561001057600080fd5b50600436106100365760003560e01c80630813a7661461003b578063d5ec8c771461003b575b600080fd5b61004e6100493660046101bd565b610068565b60405161005f959493929190610237565b60405180910390f35b60008080808061007e6040870160208801610284565b600181111561008f5761008f610221565b61009f6040890160208a01610284565b60018111156100b0576100b0610221565b141580156100ed57506100c960e0870160c088016102ac565b6001600160a01b03166100e260e0890160c08a016102ac565b6001600160a01b0316145b8015610128575061010460808701606088016102ac565b6001600160a01b031661011d6080890160608a016102ac565b6001600160a01b0316145b801561013b575085608001358760800135145b8015610176575061015260608701604088016102ac565b6001600160a01b031661016b6060890160408a016102ac565b6001600160a01b0316145b801561018957508560e001358760e00135145b9760e088013597608001359650600195506000945092505050565b60006101a082840312156101b757600080fd5b50919050565b600080604083850312156101d057600080fd5b823567ffffffffffffffff808211156101e857600080fd5b6101f4868387016101a4565b9350602085013591508082111561020a57600080fd5b50610217858286016101a4565b9150509250929050565b634e487b7160e01b600052602160045260246000fd5b600060a08201905086151582528560208301528460408301528360608301526002831061027457634e487b7160e01b600052602160045260246000fd5b8260808301529695505050505050565b60006020828403121561029657600080fd5b8135600281106102a557600080fd5b9392505050565b6000602082840312156102be57600080fd5b81356001600160a01b03811681146102a557600080fdfea164736f6c6343000813000a",
  "devdoc": {
    "details": "Policy for matching orders at a fixed price for a specific ERC721 tokenId",
    "kind": "dev",
    "methods": {},
    "title": "StandardPolicyERC721",
    "version": 1
  },
  "userdoc": {
    "kind": "user",
    "methods": {},
    "version": 1
  },
  "storageLayout": {
    "storage": [],
    "types": null
  }
}