{
  "address": "0x8C1c841B1aBeEe2D9fb8E3D0dd3918BDD19edD36",
  "abi": [
    {
      "anonymous": false,
      "inputs": [
        {
          "indexed": true,
          "internalType": "address",
          "name": "src",
          "type": "address"
        },
        {
          "indexed": true,
          "internalType": "address",
          "name": "guy",
          "type": "address"
        },
        {
          "indexed": false,
          "internalType": "uint256",
          "name": "wad",
          "type": "uint256"
        }
      ],
      "name": "Approval",
      "type": "event"
    },
    {
      "anonymous": false,
      "inputs": [
        {
          "indexed": true,
          "internalType": "address",
          "name": "dst",
          "type": "address"
        },
        {
          "indexed": false,
          "internalType": "uint256",
          "name": "wad",
          "type": "uint256"
        }
      ],
      "name": "Deposit",
      "type": "event"
    },
    {
      "anonymous": false,
      "inputs": [
        {
          "indexed": true,
          "internalType": "address",
          "name": "src",
          "type": "address"
        },
        {
          "indexed": true,
          "internalType": "address",
          "name": "dst",
          "type": "address"
        },
        {
          "indexed": false,
          "internalType": "uint256",
          "name": "wad",
          "type": "uint256"
        }
      ],
      "name": "Transfer",
      "type": "event"
    },
    {
      "anonymous": false,
      "inputs": [
        {
          "indexed": true,
          "internalType": "address",
          "name": "src",
          "type": "address"
        },
        {
          "indexed": false,
          "internalType": "uint256",
          "name": "wad",
          "type": "uint256"
        }
      ],
      "name": "Withdrawal",
      "type": "event"
    },
    {
      "stateMutability": "payable",
      "type": "fallback"
    },
    {
      "inputs": [
        {
          "internalType": "address",
          "name": "",
          "type": "address"
        },
        {
          "internalType": "address",
          "name": "",
          "type": "address"
        }
      ],
      "name": "allowance",
      "outputs": [
        {
          "internalType": "uint256",
          "name": "",
          "type": "uint256"
        }
      ],
      "stateMutability": "view",
      "type": "function"
    },
    {
      "inputs": [
        {
          "internalType": "address",
          "name": "guy",
          "type": "address"
        },
        {
          "internalType": "uint256",
          "name": "wad",
          "type": "uint256"
        }
      ],
      "name": "approve",
      "outputs": [
        {
          "internalType": "bool",
          "name": "",
          "type": "bool"
        }
      ],
      "stateMutability": "nonpayable",
      "type": "function"
    },
    {
      "inputs": [
        {
          "internalType": "address",
          "name": "",
          "type": "address"
        }
      ],
      "name": "balanceOf",
      "outputs": [
        {
          "internalType": "uint256",
          "name": "",
          "type": "uint256"
        }
      ],
      "stateMutability": "view",
      "type": "function"
    },
    {
      "inputs": [],
      "name": "decimals",
      "outputs": [
        {
          "internalType": "uint8",
          "name": "",
          "type": "uint8"
        }
      ],
      "stateMutability": "view",
      "type": "function"
    },
    {
      "inputs": [],
      "name": "deposit",
      "outputs": [],
      "stateMutability": "payable",
      "type": "function"
    },
    {
      "inputs": [
        {
          "internalType": "uint256",
          "name": "amount",
          "type": "uint256"
        }
      ],
      "name": "mint",
      "outputs": [],
      "stateMutability": "nonpayable",
      "type": "function"
    },
    {
      "inputs": [],
      "name": "name",
      "outputs": [
        {
          "internalType": "string",
          "name": "",
          "type": "string"
        }
      ],
      "stateMutability": "view",
      "type": "function"
    },
    {
      "inputs": [],
      "name": "symbol",
      "outputs": [
        {
          "internalType": "string",
          "name": "",
          "type": "string"
        }
      ],
      "stateMutability": "view",
      "type": "function"
    },
    {
      "inputs": [],
      "name": "totalSupply",
      "outputs": [
        {
          "internalType": "uint256",
          "name": "",
          "type": "uint256"
        }
      ],
      "stateMutability": "view",
      "type": "function"
    },
    {
      "inputs": [
        {
          "internalType": "address",
          "name": "dst",
          "type": "address"
        },
        {
          "internalType": "uint256",
          "name": "wad",
          "type": "uint256"
        }
      ],
      "name": "transfer",
      "outputs": [
        {
          "internalType": "bool",
          "name": "",
          "type": "bool"
        }
      ],
      "stateMutability": "nonpayable",
      "type": "function"
    },
    {
      "inputs": [
        {
          "internalType": "address",
          "name": "src",
          "type": "address"
        },
        {
          "internalType": "address",
          "name": "dst",
          "type": "address"
        },
        {
          "internalType": "uint256",
          "name": "wad",
          "type": "uint256"
        }
      ],
      "name": "transferFrom",
      "outputs": [
        {
          "internalType": "bool",
          "name": "",
          "type": "bool"
        }
      ],
      "stateMutability": "nonpayable",
      "type": "function"
    },
    {
      "inputs": [
        {
          "internalType": "uint256",
          "name": "wad",
          "type": "uint256"
        }
      ],
      "name": "withdraw",
      "outputs": [],
      "stateMutability": "nonpayable",
      "type": "function"
    },
    {
      "stateMutability": "payable",
      "type": "receive"
    }
  ],
  "transactionHash": "0x68ab5484a0d266d4fadf42e3374ba73c29df72e967cffc0d3cd6ea89cf0df382",
  "args": [],
  "numDeployments": 1,
  "solcInputHash": "cccdf0b470ac700871b8ba2c9b973ab7",
  "bytecode": "0x60c0604052600b60809081526a0aee4c2e0e0cac8408aa8960ab1b60a05260009061002a9082610112565b506040805180820190915260048152630ae8aa8960e31b60208201526001906100539082610112565b506002805460ff1916601217905534801561006d57600080fd5b506101d1565b634e487b7160e01b600052604160045260246000fd5b600181811c9082168061009d57607f821691505b6020821081036100bd57634e487b7160e01b600052602260045260246000fd5b50919050565b601f82111561010d57600081815260208120601f850160051c810160208610156100ea5750805b601f850160051c820191505b81811015610109578281556001016100f6565b5050505b505050565b81516001600160401b0381111561012b5761012b610073565b61013f816101398454610089565b846100c3565b602080601f831160018114610174576000841561015c5750858301515b600019600386901b1c1916600185901b178555610109565b600085815260208120601f198616915b828110156101a357888601518255948401946001909101908401610184565b50858210156101c15787850151600019600388901b60f8161c191681555b5050505050600190811b01905550565b6107d2806101e06000396000f3fe60806040526004361061009b5760003560e01c806306fdde03146100b2578063095ea7b3146100dd57806318160ddd1461010d57806323b872dd1461012a5780632e1a7d4d1461014a578063313ce5671461016a57806370a082311461019657806395d89b41146101c3578063a0712d68146101d8578063a9059cbb146101f8578063d0e30db0146100aa578063dd62ed3e14610218576100aa565b366100aa576100a8610250565b005b6100a8610250565b3480156100be57600080fd5b506100c76102ab565b6040516100d49190610618565b60405180910390f35b3480156100e957600080fd5b506100fd6100f8366004610682565b610339565b60405190151581526020016100d4565b34801561011957600080fd5b50475b6040519081526020016100d4565b34801561013657600080fd5b506100fd6101453660046106ac565b6103a6565b34801561015657600080fd5b506100a86101653660046106e8565b61052a565b34801561017657600080fd5b506002546101849060ff1681565b60405160ff90911681526020016100d4565b3480156101a257600080fd5b5061011c6101b1366004610701565b60036020526000908152604090205481565b3480156101cf57600080fd5b506100c76105d0565b3480156101e457600080fd5b506100a86101f33660046106e8565b6105dd565b34801561020457600080fd5b506100fd610213366004610682565b610604565b34801561022457600080fd5b5061011c61023336600461071c565b600460209081526000928352604080842090915290825290205481565b336000908152600360205260408120805434929061026f908490610765565b909155505060405134815233907fe1fffcc4923d04b559f4d29a8bfc6cda04eb5b0d3c460751c2402c5c5cc9109c9060200160405180910390a2565b600080546102b890610778565b80601f01602080910402602001604051908101604052809291908181526020018280546102e490610778565b80156103315780601f1061030657610100808354040283529160200191610331565b820191906000526020600020905b81548152906001019060200180831161031457829003601f168201915b505050505081565b3360008181526004602090815260408083206001600160a01b038716808552925280832085905551919290917f8c5be1e5ebec7d5bd14f71427d1e84f3dd0314c0f7b2291e5b200ac8c7c3b925906103949086815260200190565b60405180910390a35060015b92915050565b6001600160a01b0383166000908152600360205260408120548211156103cb57600080fd5b6001600160a01b038416331480159061040957506001600160a01b038416600090815260046020908152604080832033845290915290205460001914155b15610477576001600160a01b038416600090815260046020908152604080832033845290915290205482111561043e57600080fd5b6001600160a01b0384166000908152600460209081526040808320338452909152812080548492906104719084906107b2565b90915550505b6001600160a01b0384166000908152600360205260408120805484929061049f9084906107b2565b90915550506001600160a01b038316600090815260036020526040812080548492906104cc908490610765565b92505081905550826001600160a01b0316846001600160a01b03167fddf252ad1be2c89b69c2b068fc378daa952ba7f163c4a11628f55a4df523b3ef8460405161051891815260200190565b60405180910390a35060019392505050565b3360009081526003602052604090205481111561054657600080fd5b33600090815260036020526040812080548392906105659084906107b2565b9091555050604051339082156108fc029083906000818181858888f19350505050158015610597573d6000803e3d6000fd5b5060405181815233907f7fcf532c15f0a6db0bd6d0e038bea71d30d808c7d98cb3bf7268a95bf5081b659060200160405180910390a250565b600180546102b890610778565b33600090815260036020526040812080548392906105fc908490610765565b909155505050565b60006106113384846103a6565b9392505050565b600060208083528351808285015260005b8181101561064557858101830151858201604001528201610629565b506000604082860101526040601f19601f8301168501019250505092915050565b80356001600160a01b038116811461067d57600080fd5b919050565b6000806040838503121561069557600080fd5b61069e83610666565b946020939093013593505050565b6000806000606084860312156106c157600080fd5b6106ca84610666565b92506106d860208501610666565b9150604084013590509250925092565b6000602082840312156106fa57600080fd5b5035919050565b60006020828403121561071357600080fd5b61061182610666565b6000806040838503121561072f57600080fd5b61073883610666565b915061074660208401610666565b90509250929050565b634e487b7160e01b600052601160045260246000fd5b808201808211156103a0576103a061074f565b600181811c9082168061078c57607f821691505b6020821081036107ac57634e487b7160e01b600052602260045260246000fd5b50919050565b818103818111156103a0576103a061074f56fea164736f6c6343000813000a",
  "devdoc": {
    "kind": "dev",
    "methods": {},
    "version": 1
  },
  "userdoc": {
    "kind": "user",
    "methods": {
      "mint(uint256)": {
        "notice": "mock function for mint"
      }
    },
    "version": 1
  },
  "storageLayout": {
    "storage": [
      {
        "astId": 13820,
        "contract": "contracts/Mocks/WETH.sol:WETH",
        "label": "name",
        "offset": 0,
        "slot": "0",
        "type": "t_string_storage"
      },
      {
        "astId": 13823,
        "contract": "contracts/Mocks/WETH.sol:WETH",
        "label": "symbol",
        "offset": 0,
        "slot": "1",
        "type": "t_string_storage"
      },
      {
        "astId": 13826,
        "contract": "contracts/Mocks/WETH.sol:WETH",
        "label": "decimals",
        "offset": 0,
        "slot": "2",
        "type": "t_uint8"
      },
      {
        "astId": 13858,
        "contract": "contracts/Mocks/WETH.sol:WETH",
        "label": "balanceOf",
        "offset": 0,
        "slot": "3",
        "type": "t_mapping(t_address,t_uint256)"
      },
      {
        "astId": 13864,
        "contract": "contracts/Mocks/WETH.sol:WETH",
        "label": "allowance",
        "offset": 0,
        "slot": "4",
        "type": "t_mapping(t_address,t_mapping(t_address,t_uint256))"
      }
    ],
    "types": {
      "t_address": {
        "encoding": "inplace",
        "label": "address",
        "numberOfBytes": "20"
      },
      "t_mapping(t_address,t_mapping(t_address,t_uint256))": {
        "encoding": "mapping",
        "key": "t_address",
        "label": "mapping(address => mapping(address => uint256))",
        "numberOfBytes": "32",
        "value": "t_mapping(t_address,t_uint256)"
      },
      "t_mapping(t_address,t_uint256)": {
        "encoding": "mapping",
        "key": "t_address",
        "label": "mapping(address => uint256)",
        "numberOfBytes": "32",
        "value": "t_uint256"
      },
      "t_string_storage": {
        "encoding": "bytes",
        "label": "string",
        "numberOfBytes": "32"
      },
      "t_uint256": {
        "encoding": "inplace",
        "label": "uint256",
        "numberOfBytes": "32"
      },
      "t_uint8": {
        "encoding": "inplace",
        "label": "uint8",
        "numberOfBytes": "1"
      }
    }
  }
}