{
  "address": "0x386CF6bC5D0E32bc7080eB4a04bDC4FD0F592d74",
  "abi": [
    {
      "inputs": [],
      "stateMutability": "nonpayable",
      "type": "constructor"
    },
    {
      "anonymous": false,
      "inputs": [
        {
          "indexed": false,
          "internalType": "address",
          "name": "previousAdmin",
          "type": "address"
        },
        {
          "indexed": false,
          "internalType": "address",
          "name": "newAdmin",
          "type": "address"
        }
      ],
      "name": "AdminChanged",
      "type": "event"
    },
    {
      "anonymous": false,
      "inputs": [
        {
          "indexed": true,
          "internalType": "bytes32",
          "name": "id",
          "type": "bytes32"
        }
      ],
      "name": "AuctionCanceled",
      "type": "event"
    },
    {
      "anonymous": false,
      "inputs": [
        {
          "indexed": true,
          "internalType": "bytes32",
          "name": "id",
          "type": "bytes32"
        },
        {
          "indexed": true,
          "internalType": "address",
          "name": "winner",
          "type": "address"
        },
        {
          "indexed": true,
          "internalType": "uint256",
          "name": "bidPrice",
          "type": "uint256"
        }
      ],
      "name": "AuctionFinished",
      "type": "event"
    },
    {
      "anonymous": false,
      "inputs": [
        {
          "indexed": true,
          "internalType": "bytes32",
          "name": "id",
          "type": "bytes32"
        },
        {
          "indexed": false,
          "internalType": "uint256",
          "name": "startTime",
          "type": "uint256"
        },
        {
          "indexed": false,
          "internalType": "uint256",
          "name": "endTime",
          "type": "uint256"
        }
      ],
      "name": "AuctionStarted",
      "type": "event"
    },
    {
      "anonymous": false,
      "inputs": [
        {
          "indexed": true,
          "internalType": "bytes32",
          "name": "id",
          "type": "bytes32"
        },
        {
          "indexed": false,
          "internalType": "uint256",
          "name": "endTime",
          "type": "uint256"
        }
      ],
      "name": "AuctionTimeExtended",
      "type": "event"
    },
    {
      "anonymous": false,
      "inputs": [
        {
          "indexed": true,
          "internalType": "address",
          "name": "beacon",
          "type": "address"
        }
      ],
      "name": "BeaconUpgraded",
      "type": "event"
    },
    {
      "anonymous": false,
      "inputs": [
        {
          "indexed": false,
          "internalType": "uint8",
          "name": "version",
          "type": "uint8"
        }
      ],
      "name": "Initialized",
      "type": "event"
    },
    {
      "anonymous": false,
      "inputs": [
        {
          "indexed": true,
          "internalType": "bytes32",
          "name": "id",
          "type": "bytes32"
        },
        {
          "indexed": true,
          "internalType": "address",
          "name": "collection",
          "type": "address"
        },
        {
          "indexed": false,
          "internalType": "address",
          "name": "paymentToken",
          "type": "address"
        },
        {
          "indexed": false,
          "internalType": "uint256",
          "name": "tokenId",
          "type": "uint256"
        },
        {
          "indexed": false,
          "internalType": "uint256",
          "name": "amount",
          "type": "uint256"
        },
        {
          "indexed": false,
          "internalType": "uint256",
          "name": "minPrice",
          "type": "uint256"
        },
        {
          "indexed": false,
          "internalType": "uint256",
          "name": "startTime",
          "type": "uint256"
        },
        {
          "indexed": false,
          "internalType": "uint256",
          "name": "duration",
          "type": "uint256"
        },
        {
          "components": [
            {
              "internalType": "uint16",
              "name": "rate",
              "type": "uint16"
            },
            {
              "internalType": "address payable",
              "name": "recipient",
              "type": "address"
            }
          ],
          "indexed": false,
          "internalType": "struct Fee[]",
          "name": "fees",
          "type": "tuple[]"
        }
      ],
      "name": "NewAuction",
      "type": "event"
    },
    {
      "anonymous": false,
      "inputs": [
        {
          "indexed": true,
          "internalType": "bytes32",
          "name": "id",
          "type": "bytes32"
        },
        {
          "indexed": true,
          "internalType": "address",
          "name": "bidder",
          "type": "address"
        },
        {
          "indexed": true,
          "internalType": "uint256",
          "name": "bidPrice",
          "type": "uint256"
        }
      ],
      "name": "NewBid",
      "type": "event"
    },
    {
      "anonymous": false,
      "inputs": [
        {
          "indexed": false,
          "internalType": "contract IExecutionDelegate",
          "name": "executionDelegate",
          "type": "address"
        }
      ],
      "name": "NewExecutionDelegate",
      "type": "event"
    },
    {
      "anonymous": false,
      "inputs": [
        {
          "indexed": true,
          "internalType": "address",
          "name": "previousOwner",
          "type": "address"
        },
        {
          "indexed": true,
          "internalType": "address",
          "name": "newOwner",
          "type": "address"
        }
      ],
      "name": "OwnershipTransferred",
      "type": "event"
    },
    {
      "anonymous": false,
      "inputs": [
        {
          "indexed": true,
          "internalType": "address",
          "name": "implementation",
          "type": "address"
        }
      ],
      "name": "Upgraded",
      "type": "event"
    },
    {
      "inputs": [],
      "name": "INVERSE_BASIS_POINT",
      "outputs": [
        {
          "internalType": "uint256",
          "name": "",
          "type": "uint256"
        }
      ],
      "stateMutability": "view",
      "type": "function"
    },
    {
      "inputs": [
        {
          "internalType": "bytes32",
          "name": "",
          "type": "bytes32"
        }
      ],
      "name": "auctions",
      "outputs": [
        {
          "internalType": "enum AssetType",
          "name": "assetType",
          "type": "uint8"
        },
        {
          "internalType": "address",
          "name": "collection",
          "type": "address"
        },
        {
          "internalType": "uint256",
          "name": "tokenId",
          "type": "uint256"
        },
        {
          "internalType": "uint256",
          "name": "amount",
          "type": "uint256"
        },
        {
          "internalType": "address",
          "name": "paymentToken",
          "type": "address"
        },
        {
          "internalType": "uint256",
          "name": "minPrice",
          "type": "uint256"
        },
        {
          "internalType": "uint256",
          "name": "minWinPercent",
          "type": "uint256"
        },
        {
          "internalType": "uint256",
          "name": "startTime",
          "type": "uint256"
        },
        {
          "internalType": "uint256",
          "name": "endTime",
          "type": "uint256"
        },
        {
          "internalType": "uint256",
          "name": "duration",
          "type": "uint256"
        },
        {
          "internalType": "address",
          "name": "owner",
          "type": "address"
        },
        {
          "internalType": "address",
          "name": "lastBidder",
          "type": "address"
        },
        {
          "internalType": "uint256",
          "name": "bidPrice",
          "type": "uint256"
        }
      ],
      "stateMutability": "view",
      "type": "function"
    },
    {
      "inputs": [
        {
          "internalType": "bytes32",
          "name": "_id",
          "type": "bytes32"
        },
        {
          "internalType": "uint256",
          "name": "_price",
          "type": "uint256"
        }
      ],
      "name": "bid",
      "outputs": [],
      "stateMutability": "payable",
      "type": "function"
    },
    {
      "inputs": [
        {
          "internalType": "bytes32",
          "name": "_id",
          "type": "bytes32"
        }
      ],
      "name": "cancel",
      "outputs": [],
      "stateMutability": "nonpayable",
      "type": "function"
    },
    {
      "inputs": [
        {
          "components": [
            {
              "internalType": "address",
              "name": "collection",
              "type": "address"
            },
            {
              "internalType": "uint256",
              "name": "tokenId",
              "type": "uint256"
            },
            {
              "internalType": "uint256",
              "name": "amount",
              "type": "uint256"
            },
            {
              "internalType": "address",
              "name": "paymentToken",
              "type": "address"
            },
            {
              "internalType": "uint256",
              "name": "minPrice",
              "type": "uint256"
            },
            {
              "internalType": "uint256",
              "name": "minWinPercent",
              "type": "uint256"
            },
            {
              "internalType": "uint256",
              "name": "startTime",
              "type": "uint256"
            },
            {
              "internalType": "uint256",
              "name": "duration",
              "type": "uint256"
            },
            {
              "components": [
                {
                  "internalType": "uint16",
                  "name": "rate",
                  "type": "uint16"
                },
                {
                  "internalType": "address payable",
                  "name": "recipient",
                  "type": "address"
                }
              ],
              "internalType": "struct Fee[]",
              "name": "fees",
              "type": "tuple[]"
            }
          ],
          "internalType": "struct AuctionCreateParam",
          "name": "_param",
          "type": "tuple"
        },
        {
          "components": [
            {
              "internalType": "bytes32",
              "name": "r",
              "type": "bytes32"
            },
            {
              "internalType": "bytes32",
              "name": "s",
              "type": "bytes32"
            },
            {
              "internalType": "uint8",
              "name": "v",
              "type": "uint8"
            }
          ],
          "internalType": "struct Sig",
          "name": "_sig",
          "type": "tuple"
        }
      ],
      "name": "createAuction",
      "outputs": [],
      "stateMutability": "nonpayable",
      "type": "function"
    },
    {
      "inputs": [],
      "name": "executionDelegate",
      "outputs": [
        {
          "internalType": "contract IExecutionDelegate",
          "name": "",
          "type": "address"
        }
      ],
      "stateMutability": "view",
      "type": "function"
    },
    {
      "inputs": [
        {
          "internalType": "bytes32",
          "name": "_id",
          "type": "bytes32"
        }
      ],
      "name": "finish",
      "outputs": [],
      "stateMutability": "nonpayable",
      "type": "function"
    },
    {
      "inputs": [
        {
          "internalType": "contract IExecutionDelegate",
          "name": "_executionDelegate",
          "type": "address"
        }
      ],
      "name": "initialize",
      "outputs": [],
      "stateMutability": "nonpayable",
      "type": "function"
    },
    {
      "inputs": [
        {
          "internalType": "address",
          "name": "",
          "type": "address"
        },
        {
          "internalType": "address",
          "name": "",
          "type": "address"
        },
        {
          "internalType": "uint256[]",
          "name": "",
          "type": "uint256[]"
        },
        {
          "internalType": "uint256[]",
          "name": "",
          "type": "uint256[]"
        },
        {
          "internalType": "bytes",
          "name": "",
          "type": "bytes"
        }
      ],
      "name": "onERC1155BatchReceived",
      "outputs": [
        {
          "internalType": "bytes4",
          "name": "",
          "type": "bytes4"
        }
      ],
      "stateMutability": "nonpayable",
      "type": "function"
    },
    {
      "inputs": [
        {
          "internalType": "address",
          "name": "",
          "type": "address"
        },
        {
          "internalType": "address",
          "name": "",
          "type": "address"
        },
        {
          "internalType": "uint256",
          "name": "",
          "type": "uint256"
        },
        {
          "internalType": "uint256",
          "name": "",
          "type": "uint256"
        },
        {
          "internalType": "bytes",
          "name": "",
          "type": "bytes"
        }
      ],
      "name": "onERC1155Received",
      "outputs": [
        {
          "internalType": "bytes4",
          "name": "",
          "type": "bytes4"
        }
      ],
      "stateMutability": "nonpayable",
      "type": "function"
    },
    {
      "inputs": [
        {
          "internalType": "address",
          "name": "",
          "type": "address"
        },
        {
          "internalType": "address",
          "name": "",
          "type": "address"
        },
        {
          "internalType": "uint256",
          "name": "",
          "type": "uint256"
        },
        {
          "internalType": "bytes",
          "name": "",
          "type": "bytes"
        }
      ],
      "name": "onERC721Received",
      "outputs": [
        {
          "internalType": "bytes4",
          "name": "",
          "type": "bytes4"
        }
      ],
      "stateMutability": "nonpayable",
      "type": "function"
    },
    {
      "inputs": [],
      "name": "owner",
      "outputs": [
        {
          "internalType": "address",
          "name": "",
          "type": "address"
        }
      ],
      "stateMutability": "view",
      "type": "function"
    },
    {
      "inputs": [],
      "name": "proxiableUUID",
      "outputs": [
        {
          "internalType": "bytes32",
          "name": "",
          "type": "bytes32"
        }
      ],
      "stateMutability": "view",
      "type": "function"
    },
    {
      "inputs": [],
      "name": "renounceOwnership",
      "outputs": [],
      "stateMutability": "nonpayable",
      "type": "function"
    },
    {
      "inputs": [
        {
          "internalType": "contract IExecutionDelegate",
          "name": "_executionDelegate",
          "type": "address"
        }
      ],
      "name": "setExecutionDelegate",
      "outputs": [],
      "stateMutability": "nonpayable",
      "type": "function"
    },
    {
      "inputs": [
        {
          "internalType": "bytes4",
          "name": "interfaceId",
          "type": "bytes4"
        }
      ],
      "name": "supportsInterface",
      "outputs": [
        {
          "internalType": "bool",
          "name": "",
          "type": "bool"
        }
      ],
      "stateMutability": "view",
      "type": "function"
    },
    {
      "inputs": [
        {
          "internalType": "address",
          "name": "newOwner",
          "type": "address"
        }
      ],
      "name": "transferOwnership",
      "outputs": [],
      "stateMutability": "nonpayable",
      "type": "function"
    },
    {
      "inputs": [
        {
          "internalType": "address",
          "name": "newImplementation",
          "type": "address"
        }
      ],
      "name": "upgradeTo",
      "outputs": [],
      "stateMutability": "nonpayable",
      "type": "function"
    },
    {
      "inputs": [
        {
          "internalType": "address",
          "name": "newImplementation",
          "type": "address"
        },
        {
          "internalType": "bytes",
          "name": "data",
          "type": "bytes"
        }
      ],
      "name": "upgradeToAndCall",
      "outputs": [],
      "stateMutability": "payable",
      "type": "function"
    }
  ],
  "transactionHash": "0x48f8953bad034a4ebaa4666d16df96bc0b20a03a3dd7bd1d1e4ee965f7c283ab",
  "args": [],
  "numDeployments": 2,
  "solcInputHash": "cb2a084bf3eb2f9f6f4b1a79b789cef9",
  "bytecode": "0x60a06040523060805234801561001457600080fd5b506001600055608051612e88610051600039600081816104df0152818161051f015281816105a7015281816105e701526106630152612e886000f3fe6080604052600436106100e45760003560e01c806301ffc9a7146100e9578063037c9be21461011e578063150b7a02146101405780631edbc5be1461016d5780633659cfe61461020c5780634f1ef2861461022c57806352d1902d1461023f578063715018a6146102625780638da5cb5b14610277578063986c9b2014610299578063b88c827c146102b9578063bc197c81146102d9578063c4d252f514610305578063c4d66de814610325578063cae6047f14610345578063cd772f5c1461035b578063f23a6e611461036e578063f2fde38b1461039a578063fde63056146103ba575b600080fd5b3480156100f557600080fd5b50610109610104366004612329565b6103da565b60405190151581526020015b60405180910390f35b34801561012a57600080fd5b5061013e610139366004612368565b610411565b005b34801561014c57600080fd5b5061016061015b366004612495565b6104c4565b6040516101159190612500565b34801561017957600080fd5b506101f3610188366004612515565b60ca60205260009081526040902080546001820154600283015460038401546004850154600586015460068701546007880154600889015460098a0154600a8b0154600b909b015460ff8b169b6001600160a01b03610100909c048c169b988916989283169216908d565b6040516101159d9c9b9a99989796959493929190612551565b34801561021857600080fd5b5061013e610227366004612368565b6104d5565b61013e61023a3660046125f2565b61059d565b34801561024b57600080fd5b50610254610656565b604051908152602001610115565b34801561026e57600080fd5b5061013e610704565b34801561028357600080fd5b5061028c610718565b6040516101159190612641565b3480156102a557600080fd5b5060cb5461028c906001600160a01b031681565b3480156102c557600080fd5b5061013e6102d4366004612741565b610727565b3480156102e557600080fd5b506101606102f436600461287d565b63bc197c8160e01b95945050505050565b34801561031157600080fd5b5061013e610320366004612515565b610c62565b34801561033157600080fd5b5061013e610340366004612368565b610d8f565b34801561035157600080fd5b5061025461271081565b61013e61036936600461292a565b610ebc565b34801561037a57600080fd5b5061016061038936600461294c565b63f23a6e6160e01b95945050505050565b3480156103a657600080fd5b5061013e6103b5366004612368565b61137e565b3480156103c657600080fd5b5061013e6103d5366004612515565b6113f4565b60006001600160e01b03198216630271189760e51b148061040b57506301ffc9a760e01b6001600160e01b03198316145b92915050565b6104196116ba565b6001600160a01b03811661046d5760405162461bcd60e51b8152602060048201526016602482015275416464726573732063616e6e6f74206265207a65726f60501b60448201526064015b60405180910390fd5b60cb80546001600160a01b0319166001600160a01b0383169081179091556040517ff9a0f356a7ef079355de09d32ce45cc3cfabc8f118681c19a17501f005a376ac916104b991612641565b60405180910390a150565b630a85bd0160e11b5b949350505050565b6001600160a01b037f000000000000000000000000000000000000000000000000000000000000000016300361051d5760405162461bcd60e51b8152600401610464906129b4565b7f00000000000000000000000000000000000000000000000000000000000000006001600160a01b031661054f611719565b6001600160a01b0316146105755760405162461bcd60e51b815260040161046490612a00565b61057e81611735565b6040805160008082526020820190925261059a9183919061173d565b50565b6001600160a01b037f00000000000000000000000000000000000000000000000000000000000000001630036105e55760405162461bcd60e51b8152600401610464906129b4565b7f00000000000000000000000000000000000000000000000000000000000000006001600160a01b0316610617611719565b6001600160a01b03161461063d5760405162461bcd60e51b815260040161046490612a00565b61064682611735565b6106528282600161173d565b5050565b6000306001600160a01b037f000000000000000000000000000000000000000000000000000000000000000016146106f15760405162461bcd60e51b815260206004820152603860248201527f555550535570677261646561626c653a206d757374206e6f742062652063616c6044820152771b1959081d1a1c9bdd59da0819195b1959d85d1958d85b1b60421b6064820152608401610464565b50600080516020612e3583398151915290565b61070c6116ba565b61071660006118ad565b565b6034546001600160a01b031690565b61074633836000015184602001518560400151866101000151866118ff565b61078f5760405162461bcd60e51b815260206004820152601a60248201527941637574696f6e3a20696e76616c6964207369676e617475726560301b6044820152606401610464565b81516040516301ffc9a760e01b81526000916001600160a01b0316906301ffc9a7906107c6906380ac58cd60e01b90600401612500565b602060405180830381865afa1580156107e3573d6000803e3d6000fd5b505050506040513d601f19601f820116820180604052508101906108079190612a4c565b156108685782604001516001146108605760405162461bcd60e51b815260206004820152601d60248201527f41756374696f6e3a20696e76616c696420746f6b656e20616d6f756e740000006044820152606401610464565b506000610940565b82516040516301ffc9a760e01b81526001600160a01b03909116906301ffc9a79061089e90636cdb3d1360e11b90600401612500565b602060405180830381865afa1580156108bb573d6000803e3d6000fd5b505050506040513d601f19601f820116820180604052508101906108df9190612a4c565b156108ec57506001610940565b60405162461bcd60e51b815260206004820152602360248201527f41756374696f6e3a20696e76616c696420636f6c6c656374696f6e206164647260448201526265737360e81b6064820152608401610464565b82516020808501516060808701516080880151604080516001600160601b031933861b81168289015297851b8816603482015260488101959095529190921b9094166068830152607c82015243609c808301919091528351808303909101815260bc9091018352805190820120600081815260ca90925291902080548390829060ff1916600183818111156109d7576109d761252e565b0217905550845181546001600160a01b0391821661010002610100600160a81b0319909116178255602086015160018301556060860151600383018054919092166001600160a01b0319918216179091556080860151600483015560c0860151600683015560e0860151600883015560a08601516005830155604086015160028301556009820180549091163317905560005b85610100015151811015610af75781600c018661010001518281518110610a9357610a93612a6e565b602090810291909101810151825460018101845560009384529282902081519301805491909201516001600160a01b031662010000026001600160b01b031990911661ffff9093169290921791909117905580610aef81612a9a565b915050610a6a565b506000836001811115610b0c57610b0c61252e565b03610b7e5784516020860151604051632142170760e11b81526001600160a01b03909216916342842e0e91610b479133913091600401612ab3565b600060405180830381600087803b158015610b6157600080fd5b505af1158015610b75573d6000803e3d6000fd5b50505050610bee565b845160208601516040808801519051637921219560e11b81526001600160a01b039093169263f242432a92610bbb92339230929190600401612ad7565b600060405180830381600087803b158015610bd557600080fd5b505af1158015610be9573d6000803e3d6000fd5b505050505b84600001516001600160a01b0316827f4dc515037e9e7da169401a3b437c9f2b1279015c6fac9b27d550a428aea0f69b8760600151886020015189604001518a608001518b60c001518c60e0015189600c01604051610c539796959493929190612b66565b60405180910390a35050505050565b600081815260ca602052604090206007015415610cc15760405162461bcd60e51b815260206004820181905260248201527f41756374696f6e3a2061756374696f6e20616c726561647920737461727465646044820152606401610464565b600081815260ca60205260409020600901546001600160a01b03163314610d1f5760405162461bcd60e51b815260206004820152601260248201527120bab1ba34b7b71d103737ba1037bbb732b960711b6044820152606401610464565b600081815260ca60205260409020805460098201546001830154600290930154610d61936001600160a01b03610100850481169493169290919060ff16611b56565b60405181907f5f8f216fd2e5bdc47deb48c822665830695f90b549772ae028d6fc3c4832c5b190600090a250565b600154610100900460ff1615808015610dac57506001805460ff16105b80610dcc5750610dbb30611ca5565b158015610dcc57506001805460ff16145b610e2f5760405162461bcd60e51b815260206004820152602e60248201527f496e697469616c697a61626c653a20636f6e747261637420697320616c72656160448201526d191e481a5b9a5d1a585b1a5e995960921b6064820152608401610464565b6001805460ff1916811790558015610e51576001805461ff0019166101001790555b610e59611cb4565b60cb80546001600160a01b0319166001600160a01b0384161790558015610652576001805461ff00191681556040519081527f7f26b83ff96e1f2b6a682f133852f6798a09c465da95921460cefb38474024989060200160405180910390a15050565b600260005403610f0e5760405162461bcd60e51b815260206004820152601f60248201527f5265656e7472616e637947756172643a207265656e7472616e742063616c6c006044820152606401610464565b6002600090815582815260ca60205260409020600601544211610f845760405162461bcd60e51b815260206004820152602860248201527f41756374696f6e3a205761697420756e74696c207468652073746172742074696044820152676d6520636f6d657360c01b6064820152608401610464565b600082815260ca6020526040902060070154421080610fb25750600082815260ca6020526040902060070154155b61100d5760405162461bcd60e51b815260206004820152602660248201527f41756374696f6e3a20546869732061756374696f6e20616c72656164792066696044820152651b9a5cda195960d21b6064820152608401610464565b600082815260ca60205260409020600401548110156110835760405162461bcd60e51b815260206004820152602c60248201527f41756374696f6e3a20626964207072696365206973206c6f77207468616e206d60448201526b696e696d756d20707269636560a01b6064820152608401610464565b600082815260ca602052604090206005810154600b909101546064916110a891612bb2565b6110b29190612bc9565b811015806110d85750600082815260ca60205260409020600a01546001600160a01b0316155b61113d5760405162461bcd60e51b815260206004820152603060248201527f41756374696f6e3a20626964207072696365206973206c6f77207468616e206d60448201526f696e696d756d2077696e20707269636560801b6064820152608401610464565b600082815260ca6020526040812060078101549091036111b6574260068201819055600882015461116d91612beb565b60078201819055600682015460408051918252602082019290925284917f0ce217feb50009b9d23ac12d250c75804a524a88961e29fed41999b5681e00a8910160405180910390a25b600a81018054600b830180546001600160a01b03198316331790935584905560078301546001600160a01b0390911691906111f342610384612beb565b111561124f5761038483600701600082825461120f9190612beb565b9091555050600783015460405190815285907f0268ffa9ab9e25f14e7f0a1c5fcfd253e78d8258af9dbc5a6cd3f4c9c64650a49060200160405180910390a25b6001600160a01b038216156112c55760038301546001600160a01b03166112ac576040516001600160a01b0383169082156108fc029083906000818181858888f193505050501580156112a6573d6000803e3d6000fd5b506112c5565b60038301546112c5906001600160a01b03168383611ce3565b60038301546001600160a01b0316611329573484146113245760405162461bcd60e51b815260206004820152601b60248201527a105d58dd1a5bdb8e881a5b9d985b1a5908195d1a08185b5bdd5b9d602a1b6044820152606401610464565b611343565b6003830154611343906001600160a01b0316333087611d46565b6040518490339087907fb556ff269c1b6714f432c36431e2041d28436a73b6c3f19c021827bbdc6bfc2990600090a450506001600055505050565b6113866116ba565b6001600160a01b0381166113eb5760405162461bcd60e51b815260206004820152602660248201527f4f776e61626c653a206e6577206f776e657220697320746865207a65726f206160448201526564647265737360d01b6064820152608401610464565b61059a816118ad565b600081815260ca60205260409020600701546114525760405162461bcd60e51b815260206004820181905260248201527f41756374696f6e3a2061756374696f6e206e6f742073746172746564207965746044820152606401610464565b600081815260ca602052604090206007015442116114b25760405162461bcd60e51b815260206004820152601d60248201527f41756374696f6e3a2061756374696f6e206e6f742066696e69736865640000006044820152606401610464565b600081815260ca60205260409020600901546001600160a01b03163314806114f35750600081815260ca60205260409020600a01546001600160a01b031633145b6115505760405162461bcd60e51b815260206004820152602860248201527f41756374696f6e3a20646f6e27742068617665207065726d697373696f6e20746044820152670de40ccd2dcd2e6d60c31b6064820152608401610464565b60cb54600082815260ca602052604080822080546001820154925163377c8e3960e11b815293946001600160a01b0390811694636ef91c72946115a39461010090940490921692600c0190600401612bfe565b600060405180830381865afa1580156115c0573d6000803e3d6000fd5b505050506040513d6000823e601f3d908101601f191682016040526115e89190810190612c2e565b600083815260ca6020526040902060098101546003820154600b90920154929350611624926001600160a01b0391821692909116908490611d6d565b600082815260ca602052604090208054600a8201546001830154600290930154611666936001600160a01b03610100850481169493169290919060ff16611b56565b600082815260ca6020526040808220600b810154600a90910154915190926001600160a01b039092169185917fd1c3886a6c6fefde38bdaa54849c80a66e27da63a47829a4a201c9eaf818ba899190a45050565b336116c3610718565b6001600160a01b0316146107165760405162461bcd60e51b815260206004820181905260248201527f4f776e61626c653a2063616c6c6572206973206e6f7420746865206f776e65726044820152606401610464565b600080516020612e35833981519152546001600160a01b031690565b61059a6116ba565b7f4910fdfa16fed3260ed0e7147f7cc6da11a60208b5b9406d12a635614ffd91435460ff16156117755761177083611d87565b505050565b826001600160a01b03166352d1902d6040518163ffffffff1660e01b8152600401602060405180830381865afa9250505080156117cf575060408051601f3d908101601f191682019092526117cc91810190612ceb565b60015b6118325760405162461bcd60e51b815260206004820152602e60248201527f45524331393637557067726164653a206e657720696d706c656d656e7461746960448201526d6f6e206973206e6f74205555505360901b6064820152608401610464565b600080516020612e3583398151915281146118a15760405162461bcd60e51b815260206004820152602960248201527f45524331393637557067726164653a20756e737570706f727465642070726f786044820152681a58589b195555525160ba1b6064820152608401610464565b50611770838383611e21565b603480546001600160a01b038381166001600160a01b0319831681179093556040519116919082907f8be0079c531659141344cd1fd0a4f28419497f9722a3daafe3b4186f6b6457e090600090a35050565b6040516001600160601b0319606088811b8216602084015287901b1660348201526048810185905260688101849052600090819060880160405160208183030381529060405280519060200120905060005b84518110156119ff578185828151811061196d5761196d612a6e565b60200260200101516000015186838151811061198b5761198b612a6e565b6020026020010151602001516040516020016119d49392919092835260f09190911b6001600160f01b031916602083015260601b6001600160601b031916602282015260360190565b60405160208183030381529060405280519060200120915080806119f790612a9a565b915050611951565b506040517b0ca2ba3432b932bab69029b4b3b732b21026b2b9b9b0b3b29d05199960211b6020820152603c8101829052600090605c01604051602081830303815290604052805190602001209050600181856040016020810190611a639190612d04565b604080516000815260208181018084529490945260ff909216908201528635606082015290860135608082015260a0016020604051602081039080840390855afa158015611ab5573d6000803e3d6000fd5b505050602060405103516001600160a01b031660cb60009054906101000a90046001600160a01b03166001600160a01b031663238ac9336040518163ffffffff1660e01b8152600401602060405180830381865afa158015611b1b573d6000803e3d6000fd5b505050506040513d601f19601f82011682018060405250810190611b3f9190612d27565b6001600160a01b0316149998505050505050505050565b843b611ba05760405162461bcd60e51b815260206004820152601960248201527810dbdb1b1958dd1a5bdb88191bd95cc81b9bdd08195e1a5cdd603a1b6044820152606401610464565b6000816001811115611bb457611bb461252e565b03611c2057604051632142170760e11b81526001600160a01b038616906342842e0e90611be990309088908890600401612ab3565b600060405180830381600087803b158015611c0357600080fd5b505af1158015611c17573d6000803e3d6000fd5b50505050611c9e565b6001816001811115611c3457611c3461252e565b03611c9e57604051637921219560e11b81526001600160a01b0386169063f242432a90611c6b903090889088908890600401612ad7565b600060405180830381600087803b158015611c8557600080fd5b505af1158015611c99573d6000803e3d6000fd5b505050505b5050505050565b6001600160a01b03163b151590565b600154610100900460ff16611cdb5760405162461bcd60e51b815260040161046490612d44565b610716611e46565b6040516001600160a01b03831660248201526044810182905261177090849063a9059cbb60e01b906064015b60408051601f198184030181529190526020810180516001600160e01b03166001600160e01b031990931692909217909152611e76565b611d67846323b872dd60e01b858585604051602401611d0f93929190612ab3565b50505050565b6000611d7a838584611f4b565b9050611c9e848683612064565b611d9081611ca5565b611df25760405162461bcd60e51b815260206004820152602d60248201527f455243313936373a206e657720696d706c656d656e746174696f6e206973206e60448201526c1bdd08184818dbdb9d1c9858dd609a1b6064820152608401610464565b600080516020612e3583398151915280546001600160a01b0319166001600160a01b0392909216919091179055565b611e2a836120c9565b600082511180611e375750805b1561177057611d678383612109565b600154610100900460ff16611e6d5760405162461bcd60e51b815260040161046490612d44565b610716336118ad565b6000611ecb826040518060400160405280602081526020017f5361666545524332303a206c6f772d6c6576656c2063616c6c206661696c6564815250856001600160a01b03166121359092919063ffffffff16565b9050805160001480611eec575080806020019051810190611eec9190612a4c565b6117705760405162461bcd60e51b815260206004820152602a60248201527f5361666545524332303a204552433230206f7065726174696f6e20646964206e6044820152691bdd081cdd58d8d9595960b21b6064820152608401610464565b600080805b85518160ff161015611fe8576000612710878360ff1681518110611f7657611f76612a6e565b60200260200101516000015161ffff1686611f919190612bb2565b611f9b9190612bc9565b9050611fc886888460ff1681518110611fb657611fb6612a6e565b60200260200101516020015183612064565b611fd28184612beb565b9250508080611fe090612d8f565b915050611f50565b508281111561204e5760405162461bcd60e51b815260206004820152602c60248201527f546f74616c20616d6f756e74206f66206665657320617265206d6f726520746860448201526b616e2074686520707269636560a01b6064820152608401610464565b600061205a8285612dae565b9695505050505050565b8060000361207157505050565b6001600160a01b0383166120b5576040516001600160a01b0383169082156108fc029083906000818181858888f19350505050158015611d67573d6000803e3d6000fd5b6117706001600160a01b0384168383611ce3565b6120d281611d87565b6040516001600160a01b038216907fbc7cd75a20ee27fd9adebab32041f755214dbc6bffa90cc0225b39da2e5c2d3b90600090a250565b606061212e8383604051806060016040528060278152602001612e5560279139612144565b9392505050565b60606104cd84846000856121b2565b6060600080856001600160a01b0316856040516121619190612de5565b600060405180830381855af49150503d806000811461219c576040519150601f19603f3d011682016040523d82523d6000602084013e6121a1565b606091505b509150915061205a8683838761228d565b6060824710156122135760405162461bcd60e51b815260206004820152602660248201527f416464726573733a20696e73756666696369656e742062616c616e636520666f6044820152651c8818d85b1b60d21b6064820152608401610464565b600080866001600160a01b0316858760405161222f9190612de5565b60006040518083038185875af1925050503d806000811461226c576040519150601f19603f3d011682016040523d82523d6000602084013e612271565b606091505b50915091506122828783838761228d565b979650505050505050565b606083156122fa5782516000036122f3576122a785611ca5565b6122f35760405162461bcd60e51b815260206004820152601d60248201527f416464726573733a2063616c6c20746f206e6f6e2d636f6e74726163740000006044820152606401610464565b50816104cd565b6104cd838381511561230f5781518083602001fd5b8060405162461bcd60e51b81526004016104649190612e01565b60006020828403121561233b57600080fd5b81356001600160e01b03198116811461212e57600080fd5b6001600160a01b038116811461059a57600080fd5b60006020828403121561237a57600080fd5b813561212e81612353565b803561239081612353565b919050565b634e487b7160e01b600052604160045260246000fd5b604080519081016001600160401b03811182821017156123cd576123cd612395565b60405290565b60405161012081016001600160401b03811182821017156123cd576123cd612395565b604051601f8201601f191681016001600160401b038111828210171561241e5761241e612395565b604052919050565b600082601f83011261243757600080fd5b81356001600160401b0381111561245057612450612395565b612463601f8201601f19166020016123f6565b81815284602083860101111561247857600080fd5b816020850160208301376000918101602001919091529392505050565b600080600080608085870312156124ab57600080fd5b84356124b681612353565b935060208501356124c681612353565b92506040850135915060608501356001600160401b038111156124e857600080fd5b6124f487828801612426565b91505092959194509250565b6001600160e01b031991909116815260200190565b60006020828403121561252757600080fd5b5035919050565b634e487b7160e01b600052602160045260246000fd5b6001600160a01b03169052565b6101a0810160028f1061257457634e487b7160e01b600052602160045260246000fd5b8e8252612584602083018f612544565b8c60408301528b606083015261259d608083018c612544565b8960a08301528860c08301528760e083015286610100830152856101208301526125cb610140830186612544565b6125d9610160830185612544565b826101808301529e9d5050505050505050505050505050565b6000806040838503121561260557600080fd5b823561261081612353565b915060208301356001600160401b0381111561262b57600080fd5b61263785828601612426565b9150509250929050565b6001600160a01b0391909116815260200190565b60006001600160401b0382111561266e5761266e612395565b5060051b60200190565b61ffff8116811461059a57600080fd5b600082601f83011261269957600080fd5b813560206126ae6126a983612655565b6123f6565b82815260069290921b840181019181810190868411156126cd57600080fd5b8286015b8481101561271e57604081890312156126ea5760008081fd5b6126f26123ab565b81356126fd81612678565b81528185013561270c81612353565b818601528352918301916040016126d1565b509695505050505050565b60006060828403121561273b57600080fd5b50919050565b6000806080838503121561275457600080fd5b82356001600160401b038082111561276b57600080fd5b90840190610120828703121561278057600080fd5b6127886123d3565b61279183612385565b815260208301356020820152604083013560408201526127b360608401612385565b60608201526080830135608082015260a083013560a082015260c083013560c082015260e083013560e082015261010080840135838111156127f457600080fd5b61280089828701612688565b8284015250508094505050506128198460208501612729565b90509250929050565b600082601f83011261283357600080fd5b813560206128436126a983612655565b82815260059290921b8401810191818101908684111561286257600080fd5b8286015b8481101561271e5780358352918301918301612866565b600080600080600060a0868803121561289557600080fd5b85356128a081612353565b945060208601356128b081612353565b935060408601356001600160401b03808211156128cc57600080fd5b6128d889838a01612822565b945060608801359150808211156128ee57600080fd5b6128fa89838a01612822565b9350608088013591508082111561291057600080fd5b5061291d88828901612426565b9150509295509295909350565b6000806040838503121561293d57600080fd5b50508035926020909101359150565b600080600080600060a0868803121561296457600080fd5b853561296f81612353565b9450602086013561297f81612353565b9350604086013592506060860135915060808601356001600160401b038111156129a857600080fd5b61291d88828901612426565b6020808252602c908201527f46756e6374696f6e206d7573742062652063616c6c6564207468726f7567682060408201526b19195b1959d85d1958d85b1b60a21b606082015260800190565b6020808252602c908201527f46756e6374696f6e206d7573742062652063616c6c6564207468726f7567682060408201526b6163746976652070726f787960a01b606082015260800190565b600060208284031215612a5e57600080fd5b8151801515811461212e57600080fd5b634e487b7160e01b600052603260045260246000fd5b634e487b7160e01b600052601160045260246000fd5b600060018201612aac57612aac612a84565b5060010190565b6001600160a01b039384168152919092166020820152604081019190915260600190565b6001600160a01b0394851681529290931660208301526040820152606081019190915260a06080820181905260009082015260c00190565b6000815480845260208085019450836000528060002060005b83811015612b5b57815461ffff8116885260101c6001600160a01b03168388015260409096019560019182019101612b28565b509495945050505050565b60018060a01b03881681528660208201528560408201528460608201528360808201528260a082015260e060c08201526000612ba560e0830184612b0f565b9998505050505050505050565b808202811582820484141761040b5761040b612a84565b600082612be657634e487b7160e01b600052601260045260246000fd5b500490565b8082018082111561040b5761040b612a84565b60018060a01b0384168152826020820152606060408201526000612c256060830184612b0f565b95945050505050565b60006020808385031215612c4157600080fd5b82516001600160401b03811115612c5757600080fd5b8301601f81018513612c6857600080fd5b8051612c766126a982612655565b81815260069190911b82018301908381019087831115612c9557600080fd5b928401925b828410156122825760408489031215612cb35760008081fd5b612cbb6123ab565b8451612cc681612678565b815284860151612cd581612353565b8187015282526040939093019290840190612c9a565b600060208284031215612cfd57600080fd5b5051919050565b600060208284031215612d1657600080fd5b813560ff8116811461212e57600080fd5b600060208284031215612d3957600080fd5b815161212e81612353565b6020808252602b908201527f496e697469616c697a61626c653a20636f6e7472616374206973206e6f74206960408201526a6e697469616c697a696e6760a81b606082015260800190565b600060ff821660ff8103612da557612da5612a84565b60010192915050565b8181038181111561040b5761040b612a84565b60005b83811015612ddc578181015183820152602001612dc4565b50506000910152565b60008251612df7818460208701612dc1565b9190910192915050565b6020815260008251806020840152612e20816040850160208701612dc1565b601f01601f1916919091016040019291505056fe360894a13ba1a3210667c828492db98dca3e2076cc3735a920a3ca505d382bbc416464726573733a206c6f772d6c6576656c2064656c65676174652063616c6c206661696c6564a164736f6c6343000813000a",
  "devdoc": {
    "events": {
      "AdminChanged(address,address)": {
        "details": "Emitted when the admin account has changed."
      },
      "AuctionCanceled(bytes32)": {
        "details": "emit this event when auction canceled"
      },
      "AuctionFinished(bytes32,address,uint256)": {
        "details": "emit this event when auction finished"
      },
      "AuctionStarted(bytes32,uint256,uint256)": {
        "details": "emit this event when auction started"
      },
      "AuctionTimeExtended(bytes32,uint256)": {
        "details": "emit this event when bid makes in 15 minutes from endTime"
      },
      "BeaconUpgraded(address)": {
        "details": "Emitted when the beacon is changed."
      },
      "Initialized(uint8)": {
        "details": "Triggered when the contract has been initialized or reinitialized."
      },
      "NewAuction(bytes32,address,address,uint256,uint256,uint256,uint256,uint256,(uint16,address)[])": {
        "details": "emit this event when auction added"
      },
      "NewBid(bytes32,address,uint256)": {
        "details": "emit this event when new bid added"
      },
      "Upgraded(address)": {
        "details": "Emitted when the implementation is upgraded."
      }
    },
    "kind": "dev",
    "methods": {
      "bid(bytes32,uint256)": {
        "details": "This functions changes last bid params, and release last bidder's token      and locks new bidder's token",
        "params": {
          "_id": "id of auction",
          "_price": "new bidding price"
        }
      },
      "cancel(bytes32)": {
        "details": "This function cancels auction.      Sends asset to owner.",
        "params": {
          "_id": "id of auction"
        }
      },
      "createAuction((address,uint256,uint256,address,uint256,uint256,uint256,uint256,(uint16,address)[]),(bytes32,bytes32,uint8))": {
        "params": {
          "_param": "auction params",
          "_sig": "backend signature to validate fee"
        }
      },
      "finish(bytes32)": {
        "details": "This function finishs auction.      Sends asset to winner and sends bid token to owner.",
        "params": {
          "_id": "id of auction"
        }
      },
      "initialize(address)": {
        "params": {
          "_executionDelegate": "execution delegate address"
        }
      },
      "onERC721Received(address,address,uint256,bytes)": {
        "details": "See {IERC721Receiver-onERC721Received}. Always returns `IERC721Receiver.onERC721Received.selector`."
      },
      "owner()": {
        "details": "Returns the address of the current owner."
      },
      "proxiableUUID()": {
        "details": "Implementation of the ERC1822 {proxiableUUID} function. This returns the storage slot used by the implementation. It is used to validate the implementation's compatibility when performing an upgrade. IMPORTANT: A proxy pointing at a proxiable contract should not be considered proxiable itself, because this risks bricking a proxy that upgrades to it, by delegating to itself until out of gas. Thus it is critical that this function revert if invoked through a proxy. This is guaranteed by the `notDelegated` modifier."
      },
      "renounceOwnership()": {
        "details": "Leaves the contract without owner. It will not be possible to call `onlyOwner` functions. Can only be called by the current owner. NOTE: Renouncing ownership will leave the contract without an owner, thereby disabling any functionality that is only available to the owner."
      },
      "supportsInterface(bytes4)": {
        "details": "See {IERC165-supportsInterface}."
      },
      "transferOwnership(address)": {
        "details": "Transfers ownership of the contract to a new account (`newOwner`). Can only be called by the current owner."
      },
      "upgradeTo(address)": {
        "custom:oz-upgrades-unsafe-allow-reachable": "delegatecall",
        "details": "Upgrade the implementation of the proxy to `newImplementation`. Calls {_authorizeUpgrade}. Emits an {Upgraded} event."
      },
      "upgradeToAndCall(address,bytes)": {
        "custom:oz-upgrades-unsafe-allow-reachable": "delegatecall",
        "details": "Upgrade the implementation of the proxy to `newImplementation`, and subsequently execute the function call encoded in `data`. Calls {_authorizeUpgrade}. Emits an {Upgraded} event."
      }
    },
    "stateVariables": {
      "auctions": {
        "details": "acutions"
      },
      "executionDelegate": {
        "details": "execution delegate"
      }
    },
    "title": "English Auction Manager Contract",
    "version": 1
  },
  "userdoc": {
    "kind": "user",
    "methods": {
      "bid(bytes32,uint256)": {
        "notice": "make a new bid"
      },
      "cancel(bytes32)": {
        "notice": "cancel auction"
      },
      "createAuction((address,uint256,uint256,address,uint256,uint256,uint256,uint256,(uint16,address)[]),(bytes32,bytes32,uint8))": {
        "notice": "create auction"
      },
      "finish(bytes32)": {
        "notice": "finish auction"
      }
    },
    "version": 1
  },
  "storageLayout": {
    "storage": [
      {
        "astId": 15766,
        "contract": "contracts/AuctionManage.sol:AuctionManager",
        "label": "_status",
        "offset": 0,
        "slot": "0",
        "type": "t_uint256"
      },
      {
        "astId": 503,
        "contract": "contracts/AuctionManage.sol:AuctionManager",
        "label": "_initialized",
        "offset": 0,
        "slot": "1",
        "type": "t_uint8"
      },
      {
        "astId": 506,
        "contract": "contracts/AuctionManage.sol:AuctionManager",
        "label": "_initializing",
        "offset": 1,
        "slot": "1",
        "type": "t_bool"
      },
      {
        "astId": 1172,
        "contract": "contracts/AuctionManage.sol:AuctionManager",
        "label": "__gap",
        "offset": 0,
        "slot": "2",
        "type": "t_array(t_uint256)50_storage"
      },
      {
        "astId": 10,
        "contract": "contracts/AuctionManage.sol:AuctionManager",
        "label": "_owner",
        "offset": 0,
        "slot": "52",
        "type": "t_address"
      },
      {
        "astId": 130,
        "contract": "contracts/AuctionManage.sol:AuctionManager",
        "label": "__gap",
        "offset": 0,
        "slot": "53",
        "type": "t_array(t_uint256)49_storage"
      },
      {
        "astId": 485,
        "contract": "contracts/AuctionManage.sol:AuctionManager",
        "label": "__gap",
        "offset": 0,
        "slot": "102",
        "type": "t_array(t_uint256)50_storage"
      },
      {
        "astId": 800,
        "contract": "contracts/AuctionManage.sol:AuctionManager",
        "label": "__gap",
        "offset": 0,
        "slot": "152",
        "type": "t_array(t_uint256)50_storage"
      },
      {
        "astId": 9093,
        "contract": "contracts/AuctionManage.sol:AuctionManager",
        "label": "auctions",
        "offset": 0,
        "slot": "202",
        "type": "t_mapping(t_bytes32,t_struct(Auction)15890_storage)"
      },
      {
        "astId": 9097,
        "contract": "contracts/AuctionManage.sol:AuctionManager",
        "label": "executionDelegate",
        "offset": 0,
        "slot": "203",
        "type": "t_contract(IExecutionDelegate)15180"
      }
    ],
    "types": {
      "t_address": {
        "encoding": "inplace",
        "label": "address",
        "numberOfBytes": "20"
      },
      "t_address_payable": {
        "encoding": "inplace",
        "label": "address payable",
        "numberOfBytes": "20"
      },
      "t_array(t_struct(Fee)15811_storage)dyn_storage": {
        "base": "t_struct(Fee)15811_storage",
        "encoding": "dynamic_array",
        "label": "struct Fee[]",
        "numberOfBytes": "32"
      },
      "t_array(t_uint256)49_storage": {
        "base": "t_uint256",
        "encoding": "inplace",
        "label": "uint256[49]",
        "numberOfBytes": "1568"
      },
      "t_array(t_uint256)50_storage": {
        "base": "t_uint256",
        "encoding": "inplace",
        "label": "uint256[50]",
        "numberOfBytes": "1600"
      },
      "t_bool": {
        "encoding": "inplace",
        "label": "bool",
        "numberOfBytes": "1"
      },
      "t_bytes32": {
        "encoding": "inplace",
        "label": "bytes32",
        "numberOfBytes": "32"
      },
      "t_contract(IExecutionDelegate)15180": {
        "encoding": "inplace",
        "label": "contract IExecutionDelegate",
        "numberOfBytes": "20"
      },
      "t_enum(AssetType)15806": {
        "encoding": "inplace",
        "label": "enum AssetType",
        "numberOfBytes": "1"
      },
      "t_mapping(t_bytes32,t_struct(Auction)15890_storage)": {
        "encoding": "mapping",
        "key": "t_bytes32",
        "label": "mapping(bytes32 => struct Auction)",
        "numberOfBytes": "32",
        "value": "t_struct(Auction)15890_storage"
      },
      "t_struct(Auction)15890_storage": {
        "encoding": "inplace",
        "label": "struct Auction",
        "members": [
          {
            "astId": 15861,
            "contract": "contracts/AuctionManage.sol:AuctionManager",
            "label": "assetType",
            "offset": 0,
            "slot": "0",
            "type": "t_enum(AssetType)15806"
          },
          {
            "astId": 15863,
            "contract": "contracts/AuctionManage.sol:AuctionManager",
            "label": "collection",
            "offset": 1,
            "slot": "0",
            "type": "t_address"
          },
          {
            "astId": 15865,
            "contract": "contracts/AuctionManage.sol:AuctionManager",
            "label": "tokenId",
            "offset": 0,
            "slot": "1",
            "type": "t_uint256"
          },
          {
            "astId": 15867,
            "contract": "contracts/AuctionManage.sol:AuctionManager",
            "label": "amount",
            "offset": 0,
            "slot": "2",
            "type": "t_uint256"
          },
          {
            "astId": 15869,
            "contract": "contracts/AuctionManage.sol:AuctionManager",
            "label": "paymentToken",
            "offset": 0,
            "slot": "3",
            "type": "t_address"
          },
          {
            "astId": 15871,
            "contract": "contracts/AuctionManage.sol:AuctionManager",
            "label": "minPrice",
            "offset": 0,
            "slot": "4",
            "type": "t_uint256"
          },
          {
            "astId": 15873,
            "contract": "contracts/AuctionManage.sol:AuctionManager",
            "label": "minWinPercent",
            "offset": 0,
            "slot": "5",
            "type": "t_uint256"
          },
          {
            "astId": 15875,
            "contract": "contracts/AuctionManage.sol:AuctionManager",
            "label": "startTime",
            "offset": 0,
            "slot": "6",
            "type": "t_uint256"
          },
          {
            "astId": 15877,
            "contract": "contracts/AuctionManage.sol:AuctionManager",
            "label": "endTime",
            "offset": 0,
            "slot": "7",
            "type": "t_uint256"
          },
          {
            "astId": 15879,
            "contract": "contracts/AuctionManage.sol:AuctionManager",
            "label": "duration",
            "offset": 0,
            "slot": "8",
            "type": "t_uint256"
          },
          {
            "astId": 15881,
            "contract": "contracts/AuctionManage.sol:AuctionManager",
            "label": "owner",
            "offset": 0,
            "slot": "9",
            "type": "t_address"
          },
          {
            "astId": 15883,
            "contract": "contracts/AuctionManage.sol:AuctionManager",
            "label": "lastBidder",
            "offset": 0,
            "slot": "10",
            "type": "t_address"
          },
          {
            "astId": 15885,
            "contract": "contracts/AuctionManage.sol:AuctionManager",
            "label": "bidPrice",
            "offset": 0,
            "slot": "11",
            "type": "t_uint256"
          },
          {
            "astId": 15889,
            "contract": "contracts/AuctionManage.sol:AuctionManager",
            "label": "fees",
            "offset": 0,
            "slot": "12",
            "type": "t_array(t_struct(Fee)15811_storage)dyn_storage"
          }
        ],
        "numberOfBytes": "416"
      },
      "t_struct(Fee)15811_storage": {
        "encoding": "inplace",
        "label": "struct Fee",
        "members": [
          {
            "astId": 15808,
            "contract": "contracts/AuctionManage.sol:AuctionManager",
            "label": "rate",
            "offset": 0,
            "slot": "0",
            "type": "t_uint16"
          },
          {
            "astId": 15810,
            "contract": "contracts/AuctionManage.sol:AuctionManager",
            "label": "recipient",
            "offset": 2,
            "slot": "0",
            "type": "t_address_payable"
          }
        ],
        "numberOfBytes": "32"
      },
      "t_uint16": {
        "encoding": "inplace",
        "label": "uint16",
        "numberOfBytes": "2"
      },
      "t_uint256": {
        "encoding": "inplace",
        "label": "uint256",
        "numberOfBytes": "32"
      },
      "t_uint8": {
        "encoding": "inplace",
        "label": "uint8",
        "numberOfBytes": "1"
      }
    }
  }
}